:020000040001F9
:10B00000783000207905020073BA01005BD201009C
:10B010000000000000000000000000000000000030
:10B02000000000000000000000000000D7E1010067
:10B03000000000000000000047E20100AB06020033
:10B04000A1F10100B70602000BFA0100B9070200E6
:10B05000BB0702000000000059FF0100A1E301004E
:10B06000BD070200BF070200C1070200C3070200BC
:10B07000C5070200C7070200C9070200CB0702008C
:10B0800007E2010007B80100CD070200CF07020068
:10B090003DB80100D107020095DD0100D307020091
:10B0A000D5070200D70702000000000000000000E2
:10B0B0000000000000000000000000000000000090
:10B0C0000121C206D20E9140C04A11607047012191
:10B0D000C206D20E9140BE4A116070470121C206DD
:10B0E000D20E9140BB4A116070470121C206D20EB8
:10B0F0009140B94A11607047F0B540B2002821D59F
:10B10000924C40B20207120F083A950804225543A8
:10B110008E4A40B203071B0F083B9B08042673436B
:10B12000D258FF238607B60F08277E43B3409A43C1
:10B130008B01DBB28607B60F08277E43B34013436B
:10B1400063511AE0BD4A40B2830804246343D258D5
:10B15000FF238407A40F08256C43A3409A438B0167
:10B16000DBB28407A40F08256C43A3401343B34A02
:10B1700040B2840804256C431351F0BD00B580072C
:10B1800001D1012000E00020C0B200BD00B593490C
:10B1900000280ED0AA4A126800BF00BF00BF00BF3F
:10B1A00000BF00BF00BF00BF8A4200D000BF01380F
:10B1B000F2D100BD10B50400A248046003211120A3
:10B1C000FFF79AFF10BD80B5802040029E490860BD
:10B1D000802040029D4908601120FFF786FF112062
:10B1E000FFF76EFF01209A4908602F20FFF7CEFF7E
:10B1F0000120B749087001BD80B51120FFF767FF36
:10B20000802040029349086080204002B1490860D4
:10B210000120B14908602F20FFF7B8FF0120AF4996
:10B2200008600020AE4908602F20FFF7AFFF002024
:10B23000A749087001BDBF4800687047401A000266
:10B24000000A7047BC490860704710B5BB490968DF
:10B25000002902D1B94908602AE0B849096809689B
:10B26000026891420DD3B549096809680268891AD4
:10B27000B24A12681160B1490968C161AF490860FA
:10B2800016E00168AD4A1268AC4B1B68002B07D072
:10B290001C688C4204D21C68091B1A00DB69F5E7A4
:10B2A000002B02D01C68641A1C600160C361D0616D
:10B2B00010BD10B5A14909680A00002A04D08242D5
:10B2C00002D01100D269F8E7002A1CD0914211D1B6
:10B2D0009A4B1B68DB69994C2360984B1B68002BC9
:10B2E00008D101237D4C236000237D4C2360012382
:10B2F000934C23701468D369CB61CB69002B02D0C7
:10B300001A6812191A6010BD80B51120FFF7E6FE09
:10B3100001BD80B51420FFF7E1FE01BD70B504004A
:10B32000C148006800280CD0A1696069BE4A126853
:10B33000904705002E00002E02D0300000F034FBB4
:10B3400002E0A0696169884770BD00001CED00E063
:10B35000F8B57A480068002837D00024FFF76BFF63
:10B360005F490968FFF76AFF050074480668002E08
:10B3700011D0306885420ED330682D1A30682418F9
:10B380003700F669387C0028F1D000203874380086
:10B39000FFF7C4FFEBE7A5480078C9490978884260
:10B3A0000BD1C7480078401CC5490870C4480078D4
:10B3B000022802D10020C2490870C248C049097859
:10B3C000042251434450FFF7A4FFF1BD00E100E027
:10B3D00080E100E000E200E080E200E00024F40010
:10B3E00000B5010091480078B54A1278904220D00B
:10B3F0008E480078401C8D4A10708C4800780228D6
:10B4000002D10020894A1070AE48884A127804237D
:10B410005A4380580860324800680A688018304AE9
:10B4200010602F4800680002000A2D4A10600120B9
:10B4300002E000200860002000BD000000E400E001
:10B44000EC1800200815014044130140041301408A
:10B45000001001404813014070B5C14806783748D4
:10B4600004683000BE494978C0B2884226D0BC4842
:10B470004068F6B2182171434518761C3000B8496F
:10B480008978C0B2884201D10020060028780228BD
:10B4900002D0032804D010E06868FFF70AFFE0E755
:10B4A00026480068002807D024480068002101745D
:10B4B000C06922490860F3E7D3E7D2E71F48006874
:10B4C000A04201D0012000E00020C0B270BD000009
:10B4D0004D280020081301400410014008100140CD
:10B4E00018280020F0B50023144C2468002C20D02C
:10B4F000124C24682568A84203D225682D1A2560BD
:10B5000017E02568401B25685B19002525600B4D59
:10B510002D68E669094F3E60E668002EE4D0CE183B
:10B520003602360A6660E668A6601668E66115604F
:10B53000DAE7F0BD04150140401501401428002051
:10B540004E28002070B5040039480668002C05D14B
:10B55000834800788249497888425CD0002C03D027
:10B560002500E86904002AE07D4840687C490978A4
:10B570001822514340187A490978491C784A1170B9
:10B5800077490978764A9278914202D10021744A2B
:10B59000117045680178012902D1297C002900D069
:10B5A000D4E781686960C168A9600169E96041699F
:10B5B000A961C1490978002901D000216960686842
:10B5C0009C490968401A0002000A9B49884208D237
:10B5D000984801686868FFF731FEA968401828603C
:10B5E0000DE0696893480068FFF728FEA968884263
:10B5F00003D2A968081A286001E000212960002010
:10B6000068600020A860012028740020E8612800FC
:10B61000FFF71BFE9AE706480068B04201D0012000
:10B6200000E00020C0B270BD1C2800204B28002084
:10B6300014280020F1B584B0AF48006800283AD043
:10B64000AD48006800680190FFF7F5FD06007948F5
:10B65000046821003000FFF7F1FD0500ED1CC6482D
:10B660000078002801D1FFF7AEFD0198854201D294
:10B67000019800E0280020180002000A00900098BD
:10B68000FFF7E0FDFFF7D7FD070031000098FFF757
:10B69000D5FD040031003800FFF7D0FDC01C844206
:10B6A0000BD2FFF7C8FDFFF7CDFD2F20FFF76EFD92
:10B6B000FFF72AFE01E0FFF79FFD05B0F0BD000097
:10B6C0004C280020E4270020F0B583B00020009033
:10B6D000584807688848056801A8FFF781FE0600FA
:10B6E000FFF7BAFE0400F6B2002E06D06A46390013
:10B6F0000198FFF7F7FE012004000098FFF722FFF2
:10B70000002801D001200400E4B2002C02D028005F
:10B71000FFF790FF002068490870F7BD974948700F
:10B72000704710B5010095484278521C1000934BA9
:10B730009B78C0B2984201D10020020010008F4BCC
:10B740001B78C0B2984201D1002007E00A708B48F4
:10B7500040688A4B5B7818246343C01810BD000012
:10B76000DC270020F7B504001F00002500206946F3
:10B770000870684600F070F900A8401CFFF7D1FF80
:10B780000600002E02D1042005000EE001203070DA
:10B790007460FFF750FDB0600198F060029830616E
:10B7A000776168464078FFF7B9FF6846007800F097
:10B7B00059F9002D01D1FFF7ACFD2800FEBDF8B509
:10B7C00004000F000025002069460870684600F05C
:10B7D00043F900A8401CFFF7A4FF0600002E02D189
:10B7E0000420050005E03770746068464078FFF774
:10B7F00095FF6846007800F035F9002D01D1FFF77C
:10B8000088FD2800F2BD80B500205D490860002059
:10B810005C49086000205C49086000205B490860C2
:10B8200000205B49086000205A490860FFF790FD3E
:10B8300001BD000018280020FFFF7F0080B5FFF742
:10B8400043FF01BDF8B505000C0016001F003000D5
:10B85000FFF794FC002801D107202CE0002E01D135
:10B86000072028E0FFF7C8FC4B4807600020434949
:10B870000870002041494870404884703F48466045
:10B8800000201D49086000204449087000204449F8
:10B8900008701420FFF729FC03211420FFF72CFC6B
:10B8A0001420FFF70DFC2800FFF784FCFFF7C3FC12
:10B8B0003C4908600020F2BD4E28002010B503006E
:10B8C0002E484068002801D1082014E0100000280C
:10B8D00001D107200FE0002B01D107200BE01868F1
:10B8E000007C002801D0082005E01C68002020749E
:10B8F00061746261002010BD14280020F8B50600B4
:10B900000C00170000961D484068002801D108204F
:10B910001AE0002E01D1082016E0052C01D20720E4
:10B9200012E000984069002801D108200CE000983E
:10B93000407C012801D1250000E000253B002A00C1
:10B9400021000098FFF70EFFF2BD38B50400250076
:10B950000A484068002801D108200CE0002C02D0E1
:10B960006869002801D1082005E000202874022120
:10B970002800FFF724FF32BD4D280020DC270020DF
:10B980004011014044110140481101404C11014057
:10B9900000110140041101401C2800204B28002008
:10B9A0004C2800201828002010B584B004006846F8
:10B9B0000C2100F087F802946A460021014800F04B
:10B9C00091F81FBD01400000EFF3108072B6704780
:10B9D00062B6704738B50400FFF7F6FF05001A4855
:10B9E000406800280ED101201749486017480068B8
:10B9F00017490140144801601548144908600020A7
:10BA0000207001E001202070002D01D1FFF7E0FF40
:10BA1000002032BD38B504000B484068002810D023
:10BA2000E4B2002C0DD1FFF7CFFF050006480068F7
:10BA300008490860002004494860002D01D1FFF743
:10BA4000C7FF002032BD0000EC27002080E100E0AD
:10BA5000FC06FFBC00E100E010B504002000FFF789
:10BA6000B9FF10BD10B504002000C0B2FFF7D2FF2F
:10BA700010BDFEE71206130A1A43130C1A4300BF47
:10BA8000094205D0830705D00270401C491EF9D138
:10BA900070470000130030B414001500103902D3B1
:10BAA00010393CC0FCD2490700D30CC000D504C0FB
:10BAB000890002D30280801C002900D5027030BCAE
:10BAC000704700000022E5E700B5BFF34F8F034841
:10BAD00003490860BFF34F8F00BFFDE70400FA057C
:10BAE0000CED00E070B505000C00160006490120C1
:10BAF00000F063F800F00AF800F0E2F80028FBD14B
:10BB000000BEFFF7E1FF70BDC406020080B5012052
:10BB100000F0E0F902BDF2B582B0401C01900124B2
:10BB200001250020694608706846FFF795FF5848D0
:10BB300000680299086056488068401C54490968AA
:10BB4000401A53494968461801980719BE4227D23E
:10BB5000002E22D04F480168032081430120084372
:10BB60000421884338218843282101434A4808405A
:10BB70008005800D49490968890201434448444AC7
:10BB80001368434A92681A4004235A438018C160DC
:10BB90003F480068401C3E4908600020050005E061
:10BBA0003B480068019940183949086068460078A8
:10BBB000FFF758FF2800C0B2FEBDF8B506000C0024
:10BBC00000253348876869462800FFF7A4FF00284E
:10BBD00023D0334801680320814301200843042116
:10BBE000884338218843F6B2F200382111400143DE
:10BBF000294A0A40A901F02080000840104381052D
:10BC0000890DA00208432249009A3A4004235A436E
:10BC10008918C8600098401C0090F1BDF4B582B04E
:10BC200006000C0001251A48876869462800FFF7BE
:10BC300072FF00282BD01B4801680320814301209C
:10BC400008430421884338218843F6B2F2003821A2
:10BC500011400143104A0A40A901F0208000084029
:10BC600010438105890DA00208430949009A3A4012
:10BC700004235A438918C8600099491C009104495B
:10BC8000009A3A4004235A438918029ACA60F7BDC1
:10BC900004190020AC0702003FFCFFFFDC18002065
:10BCA000B0070200B407020000B584484068834929
:10BCB0000968884201D1012000E00020C0B200BD27
:10BCC000F0B593B0FFF7F0FF002801D00020F2E0BC
:10BCD0007A4844687948806805900C9477480599BB
:10BCE0002140042251434018C568641CA807800FF6
:10BCF000002810D1A80DA9098905890D401824181C
:10BD00000C946E4805992140042251434018C068A4
:10BD10000500641CEAE70020089028004007C00FD7
:10BD2000002801D000200890002069460874A80768
:10BD3000800F022800D088E0604805992140042245
:10BD400051434018C0680B90641CA80D0790A809C7
:10BD50008005800D0A900598401C05992140401AE5
:10BD60000421484306900698079988423CD20698D9
:10BD7000002808D051480599214004225143401819
:10BD80000C30099001E04E4809900698002803D035
:10BD900006986946887402E0079869468874069890
:10BDA000002801D0464E00E000260698002805D065
:10BDB00068460799069A891A417402E0002069468C
:10BDC00048746846407C039002966846807C0190E7
:10BDD000099800900A9B0B9A0899E8084007400FC1
:10BDE000384F3F68B84716E00020039000200290CB
:10BDF0000798019031480599214004225143401889
:10BE00000C3000900A9B0B9A0899E8084007400FF5
:10BE10002C4E3668B0470799884207D10799C91C4C
:10BE20008908641801216A46117436E026492940C0
:10BE30008201264D15400D4320490C9A059B134065
:10BE400004225343C918CD6027E00DAEA80A039021
:10BE5000A8090007000F02900020019001980299A4
:10BE600088420DD2154805992140042251434018BB
:10BE7000C0683060641C361D0198401C0190EDE7DD
:10BE8000029800900DAB039A0899E8084007400F0C
:10BE90000F4F3F68B847694608746846007C002821
:10BEA00001D006484460FFF7FFFE002801D10120C1
:10BEB00000E00020C0B213B0F0BD00000419002063
:10BEC00010190020181D00203F00FFFFC0FF0000D8
:10BED000141D002010B504000A480078002807D07F
:10BEE000200009490978C0B2884201D1002007E04A
:10BEF00000F03CF901200349087003480470002059
:10BF000010BD0000672800206828002010B55A4C9A
:10BF100002202061022060615848A0615848E06119
:10BF20008020800020620020A0620020606200204B
:10BF3000E0625248A0645348E0641020206500206D
:10BF4000A065002060650020E0654FA1E01D00F0C5
:10BF500017F94E49200000F013F92020A07110BD00
:10BF6000F1B586B00C00150000260698C768069843
:10BF7000006901900198874203D20198C01B401EBE
:10BF800005E006988068C01B01994018401E06997C
:10BF90008968C91B884202D306988068C01BA842E2
:10BFA00001D2009000E00095009804900394069858
:10BFB0004068C0190290049A0399029800F0E8F8CA
:10BFC0000298009836180098241800982D1A0098A6
:10BFD0003F1806988068874201D100200700069824
:10BFE000C760002DC3D1300007B0F0BDF0B587B0F9
:10BFF00004000D001600E0680190A0680199401A45
:10C000000090009886420BD2606801994718320070
:10C010002900380000F0BCF801988019E0601BE0AE
:10C020000098029002980590606801994718059A57
:10C030002900380000F0ACF80098301A02900298FD
:10C0400004900098281803906768049A03993800B0
:10C0500000F09EF80298E06007B0F0BD00B5010066
:10C060000A69CB68934204D38868401EC01A8018BE
:10C0700001E0D01A401E00BD942400207007020089
:10C080001C1D0020CC2700205254540088070200B9
:10C09000F1B582B00F0015000197334802991822BC
:10C0A00051434018060018367069002803D0022852
:10C0B00021D010D326E03000FFF7D0FF0090009889
:10C0C000A84201D2002405E02C002A00019930008A
:10C0D000FFF78CFF17E03000FFF7C0FF00900098DB
:10C0E000A84201D2009C00E02C00220001993000FF
:10C0F000FFF77CFF07E02A0001993000FFF730FFCF
:10C10000040000E000242000FEBDF0B583B007006D
:10C110000D00140014480078002801D1FFF7F6FE46
:10C12000002001900020694608706846FFF794FCE3
:10C13000220029003800FFF7ABFF0600019868468F
:10C140000078FFF78FFC3000FEBD000070B50600E0
:10C150000C00200000F04AF805002A002100300001
:10C16000FFF7D3FF70BD00009424002080B5034882
:10C170000078002801D1FFF7C9FE01BD94240020FA
:10C18000002300E05B1CCA5C002AC254FAD170474D
:10C19000124207D08B0706D00B78491C0370401C55
:10C1A000521EF7D87047830706D00B78491C0370DE
:10C1B000401C521EF9D1704770B4103A03D378C9AD
:10C1C000103A78C0FBD2530701D318C918C001D563
:10C1D00008C908C0D20704D30B880380891C801CBF
:10C1E000002A01D50B78037070BC7047010000E095
:10C1F000491C0A78002AFBD1081A70470100A020C8
:10C20000C0057047F3B581B017001C00089D099E5A
:10C2100001A8FFF7F3FF6946097AFFB27A000A43E3
:10C22000E4B2A1001143EDB22A020A43F6B233048C
:10C2300013430199042251434118E022D2008B504C
:10C24000F7BD1CB5040000200190002000900023E1
:10C25000012201212000FFF7D5FF13BD11B581B0E8
:10C2600001A8FFF7CBFF04000121019881402000C5
:10C2700000F00EF813BD11B581B001A8FFF7BEFFA5
:10C280000400012101988140200000F005F813BD51
:10C29000A122D200815070476F4A81507047000040
:10C2A00000B56E4900280ED06D4A126800BF00BF6D
:10C2B00000BF00BF00BF00BF00BF00BF8A4200D068
:10C2C00000BF0138F2D100BD10B50400FA20800093
:10C2D0006043FFF7E5FF10BD80B51220FFF7B1FF07
:10C2E0001220FFF7C8FF01BD80B51520FFF7A9FF99
:10C2F0001520FFF7B3FF01BD80B51520FFF7A1FFA3
:10C300001520FFF7B8FF01BD38B501206946087058
:10C31000684600780007000F10210143684601704D
:10C320000B22C14968467CDF04002500002D02D0A5
:10C330002800FFF739FB31BDF0B591B0042700208C
:10C34000694608703C25002402AE22002900300016
:10C35000FFF790FB6846039002206946087202A826
:10C36000C77069460020085677DF002102A800F058
:10C370002BFF0190019E002E02D03000FFF714FB2E
:10C3800018240025BC4E2A0021003000FFF772FB64
:10C390000320B94908700020B74948600020B64919
:10C3A0000872C8208000B44908820020B24948823F
:10C3B00011B0F0BD70B5B04873DF04002500002D4A
:10C3C00002D02800FFF7F0FA02200100002005004B
:10C3D0002E00002E02D03000FFF7E6FA70BD10B537
:10C3E0000400200001F0CAF8200001F053FB10BD4A
:10C3F00070B586B0A1480068009000234822A0498B
:10C40000684601F07DFC04002500002D02D02800C4
:10C41000FFF7CAFA01AA0021002001F0D7FC0500AD
:10C420002E00002E02D03000FFF7BEFA9D4801F02A
:10C43000A3FC04002600002E02D03000FFF7B4FA5F
:10C4400001A801F0F7FC05002E00002E02D03000FC
:10C45000FFF7AAFA06B070BD0C0500000024F40036
:10C46000EC180020F8B504002078002879D18E4817
:10C47000BA490978401801F0D8FD8B48B7490978C6
:10C48000405C242802D02A280DD046E000208749AD
:10C490000870012086490870242083490870012013
:10C4A000AE4908705DE081480078032831D17E48AC
:10C4B000AA4909784018401E007841280CD100F0A4
:10C4C00071F800207B49087002207B4908707B4985
:10C4D0000020FFF73BFE1CE076480078782813D157
:10C4E00000F060F800207349087010259C4E6E4FD4
:10C4F0002A0031003800FFF74BFE102097490870E2
:10C5000002206D49087004E06A480078401C6949BF
:10C51000087000206649087023E06548007801280B
:10C520001AD18E480078052816D15F4840784728F0
:10C5300012D15D4880784E280ED15B48C0785228D1
:10C540000AD1594800794D2806D1574840794328E7
:10C5500002D103205549087080480078401C7F496B
:10C560000870F1BD30B58BB004A888491822FFF7D8
:10C5700023FE87480090802040000190854802906B
:10C5800080204000039003239A4A694604A801F0E2
:10C59000EAFC04002500002D02D02800FFF704FA71
:10C5A0000BB030BD80B50020A04908600B20FFF71C
:10C5B00048FE0B20FFF752FE01BD80B504209B49C9
:10C5C00008600B20FFF73DFE0B20FFF754FE01BD76
:10C5D00038B548DF04002500002D02D02800FFF701
:10C5E000E3F931BD38B5A4480068FFF7AEF904009F
:10C5F0002500002D02D02800FFF7D6F931BD00003C
:10C6000010B504008A490020FFF7A0FD9B48007880
:10C61000401E9A49087099480078002803D1FFF716
:10C62000E1FFFFF7CAFF10BD4C07020038B500223A
:10C63000140093480068002180221202002301F0B8
:10C6400025FDFA225200002312184B411000190058
:10C65000FA229200002301F032FD010022008648F8
:10C660000068FFF74BF904002500002D02D02800D8
:10C67000FFF79AF931BD00003C270020A407020013
:10C680007425002038B50022802109027F48006807
:10C69000FFF734F904002500002D02D02800FFF731
:10C6A00083F931BDDFC301001C2000205F2800207A
:10C6B0006028002061280020652800206C06020008
:10C6C00080B5734800687049884202D100207049E3
:10C6D0000860704880686E490968884201D201206C
:10C6E00000E000206A4909686A4AD268914201D292
:10C6F000012100E00021C0B2084212D06648007853
:10C7000001280AD164480078401C63490870FFF78B
:10C710008DFF62490020FFF719FD01206049087074
:10C7200006E000205E490870FFF75CFFFFF73AFF64
:10C73000574800683C2101F0F7FC002907D159480F
:10C74000007801F079FD58490020FFF7FFFC5048C0
:10C750000068401C4E49086001BD00005C280020B4
:10C76000A418002010B50400FFF7AAFF10BD10B5F3
:10C7700001214F4801F0D7FD0400002C02D0200019
:10C78000FFF712F901F08DFD10BD0000DC0602007C
:10C790001C2100201C22002010B50400FFF7E7FF39
:10C7A00010BDF8B50023434A05210020FFF74AF8E1
:10C7B00004002500002D02D02800FFF7F5F83E4ABE
:10C7C00001212D48FFF77AF807003C4A01212D4846
:10C7D000FFF774F805003A4A01213448FFF76EF874
:10C7E000060000960098002802D00098FFF7DCF8B9
:10C7F000F1BD000065C4010038B505000C00E4B2CD
:10C80000012C12D1EDB22800062802D0162803D040
:10C810000BE002F037F908E003202A4908709A4833
:10C820000078401C98490870FFE731BD00250040A2
:10C83000F406020070B52449012002F0E3F9040077
:10C840002500002D02D02800FFF7AEF83222022189
:10C850008E4802F095FA05002E00002E02D030001E
:10C86000FFF7A2F802F0CFFA04002600002E02D053
:10C870003000FFF799F870BD980702005D2800208E
:10C880009C1800209C070200805101009C070200B8
:10C890002C2800206C270020642800204C06020071
:10C8A000632800205E28002058070200A00702002D
:10C8B000442800201C24002001C6010065C7010097
:10C8C00099C70100652800205427002080B57148D1
:10C8D0000078401C6F490870FFF78AFDFFF714FDD0
:10C8E000FFF72AFD02F0D0FA02F0FDFAFFF759FF38
:10C8F000FFF738FEFFF756FE1820FFF7A2FC1820BE
:10C90000FFF7B9FCFFF756FD02F063F8FFF792FF5F
:10C91000FFF7E2FCFFF7E8FCFFF7B4FE5E490020FA
:10C92000FFF714FC5D480078012837D000D2A2E060
:10C93000032860D003D3042800D19CE09BE0192297
:10C9400057480178574802F0F0FA5548027855499F
:10C950000020FFF7DAFB54A10020FFF7F7FBFFF7F9
:10C96000CBFC02F049F85148027892B200215048BD
:10C9700001F0CDFD4D4802784D490020FFF7C5FB81
:10C9800049A10020FFF7E2FB002045490870002084
:10C99000464908700120414908706CE04549002073
:10C9A000FFF7D4FB4448FFF78FFC3948007801F0CB
:10C9B00043FC42490020FFF7C9FB414800780028AA
:10C9C0000BD03F48027892B23E493F4802F036FB16
:10C9D000002802D000203A49087004202F4908702E
:10C9E00001F0F7FFFFF780FC38480078002801D0FD
:10C9F000FFF71CFE3FE03048FFF766FC2448007854
:10CA000001F01AFC2048007803282DD1FFF7EAFD39
:10CA1000FFF7C8FD0020254908702D480068000C6C
:10CA20002C4908702A480068000A2A49487028489A
:10CA3000006828498870254800782649C870202257
:10CA40000421244802F071FAFFF756FC17480278D7
:10CA500092B20021164801F05AFD002013490870D7
:10CA600001200E49087002E004200C4908700020E3
:10CA700005490870FFE7FFF723F9002800D051E7C8
:10CA8000FFF7A6FD4EE7000062280020B418002042
:10CA90005E280020642800200C0702006528002082
:10CAA0005C2800201C2000200A0000005B280020D9
:10CAB0001C1F002024070200B80B000058070200CA
:10CAC00072280020941800201C23002063280020D6
:10CAD0002C280020A0180020020010000870100070
:10CAE00080B2000A487002207047F4B584B0040098
:10CAF0000D006846008A29880931884201D20C203D
:10CB000030E002A871DF0600002E01D0300029E0DD
:10CB10000820298860542888401C28801B202988E8
:10CB200060542888401C28800620019002A8401CE0
:10CB3000009028882718019A00993800FFF728FBF1
:10CB40002888801D28806846007A002803D10020AC
:10CB50002988605402E00120298860542888401CFC
:10CB60002880002005B0F0BDF8B582B003000C00AD
:10CB70001878012804D15878002801D1072057E0FF
:10CB8000684600891188891C88420AD318780128D0
:10CB900009D16846008911885D784919891C884245
:10CBA00001D20C2044E0684600891188401A851E95
:10CBB00068460580694610882018801C7DDF0100CA
:10CBC000002901D0080033E01878022807D1280096
:10CBD0006E46368880B2B04201D309260FE008269F
:10CBE0001878012809D128005F7880B2BFB2B84216
:10CBF00003D358786F46388001E068460580684660
:10CC00000088FF2801D30C2012E068460088401CF1
:10CC10001788E0551088401C108010882654108812
:10CC2000401C108010886F463F88C019108000207B
:10CC3000FEBDF8B506000C001700BFB22088001D2D
:10CC4000874201D20C201DE0684679DF0500002DE7
:10CC500001D0280016E00320218870542088401C51
:10CC600020801920218870542088401C2080208832
:10CC7000311868460088FFF72FFF2188C0B20818D6
:10CC800020800020F2BD30B504009BB21088C01C8B
:10CC9000834201D20C2011E00220158848551088EB
:10CCA000401C10800120158848551088401C1080B9
:10CCB00010880C541088401C1080002030BD30B506
:10CCC00004009BB21088C01C834201D20C2011E0EA
:10CCD0000220158848551088401C10800A201588AD
:10CCE00048551088401C108010880C541088401C37
:10CCF0001080002030BDFFB583B00C9B0024188845
:10CD000069464880002503980088854249DA02A8D0
:10CD10000399496804226A4389180A8802804A886C
:10CD200042800022694602A865DF0600002E01D07D
:10CD300030004DE0684600786946097D88422ED172
:10CD4000E4B2002C01D0002700E002276846818E63
:10CD500018886A4612788018FFB2C019814201DA39
:10CD60000C2035E0E4B2002C0CD11888401C18804F
:10CD70006846007C06991A8888541888401C1880D8
:10CD800001200400069819884218694602A865DF48
:10CD900000281DD119886A461278891819806D1CDF
:10CDA000B1E7E4B2002C12D0684619886A4652886E
:10CDB000891A491E818068468088FF2801DD0C2081
:10CDC00006E06846808806996A46528888540020A2
:10CDD00007B0F0BDF7B582B01F000A9E0B9D28007A
:10CDE00080B2019000963B0002226846017B0298C7
:10CDF000FFF781FF0400002C01D0200010E0280084
:10CE000080B2019000963B0010226846017C029897
:10CE1000FFF771FF0100002901D0080000E00020A9
:10CE200005B0F0BD00B501000888062807DB0888BA
:10CE3000124A904205DB0888114A904201D007202F
:10CE40001BE04888062807DB48880C4A904205DB2F
:10CE500048880B4A904201D007200EE00888084A13
:10CE6000904209D04888064A904205D048880A88EE
:10CE7000904201D2072000E0002000BD810C00009C
:10CE8000FFFF0000F8B507000E0014006846008898
:10CE90002188891D884201D20C2026E03800FFF746
:10CEA000C1FF0500002D01D028001EE005202188CB
:10CEB00070542088401C20801220218870542088C3
:10CEC000401C2080208831183888FFF705FE218813
:10CED000C0B208182080208831187888FFF7FCFD40
:10CEE0002188C0B2081820800020F2BDFAB583B0B6
:10CEF00005001400AE88B61C6846008A218889198E
:10CF0000891C884201D20C2035E0FF2E01D30C2071
:10CF100031E03000401C0399228888542088401C4E
:10CF20002080FF200399228888542088401C20807C
:10CF30000398218841182888FFF7CEFD2188C0B2C8
:10CF400008182080A888002814D0A868002801D1DB
:10CF5000072010E0A8880190A86800900398218815
:10CF60004718019A00993800FFF712F92088A9881C
:10CF700040182080002005B0F0BDFBB584B014003F
:10CF80000498806A002801D1072049E0002630007B
:10CF900004992C22895CC0B2884240D20498806AED
:10CFA000F6B20C2171434518A888801C00900098A7
:10CFB000FF2801D30C2033E00098401C05992288FB
:10CFC00088542088401C2080162005992288885487
:10CFD0002088401C20800598218841182888FFF768
:10CFE0007BFD2188C0B208182080A888002814D0B2
:10CFF000A868002801D1072012E0A8880290A8683C
:10D000000190059821884718029A01993800FFF786
:10D01000BFF82088A98840182080761CB7E7002038
:10D0200007B0F0BDF2B582B00500160000243788C5
:10D03000002030802D20285C00280AD03A0092B2CF
:10D0400031000298FFF751FD0400002C01D02000B0
:10D05000A7E0A87800280AD03A0092B231000298DE
:10D06000FFF7E7FD0400002C01D0200099E0E878EC
:10D0700000280CD03B009BB232000299E87840B205
:10D08000FFF701FE0400002C01D0200089E0686851
:10D0900000280FD03B009BB2320002998C46686892
:10D0A000002140566146FFF70AFE0400002C01D023
:10D0B000200076E0288900280FD0380080B2019047
:10D0C0000096029B0622022128000830FFF782FE0C
:10D0D0000400002C01D0200063E0288A00280FD033
:10D0E000380080B201900096029B0722032128009D
:10D0F0001030FFF76FFE0400002C01D0200050E03C
:10D10000288B00280FD0380080B201900096029B37
:10D110001522142128001830FFF75CFE0400002CB3
:10D1200001D020003DE0286A00280BD03B009BB2D4
:10D1300032000299286AFFF7A5FE0400002C01D0F6
:10D1400020002EE0686A00280BD03B009BB2320022
:10D150000299686AFFF7CAFE0400002C01D0200083
:10D160001FE02C20285C00280BD03B009BB2320033
:10D1700002992800FFF701FF0400002C01D02000D5
:10D180000FE0287800280BD03B009BB232000299B8
:10D190002800FFF7E9FC0400002C01D0200000E08B
:10D1A0002000FEBD00B50100C878400701D407206B
:10D1B00000E0002000BD00B50100C878002801D0C3
:10D1C000072000E0002000BDF1B592B00F001F2045
:10D1D000694648801F20694608801298002814D0AC
:10D1E0001298FFF7DFFF0500002D01D0280032E084
:10D1F00000AA921C09A91298FFF714FF0400002C42
:10D2000001D0200027E009AD03E000250020694699
:10D210004880002F13D03800FFF7CDFF0600002E06
:10D2200001D0300017E06A4601A93800FFF7FAFE86
:10D230000400002C01D020000DE001AA03E0002230
:10D2400000206946088068460388DBB2684641884A
:10D25000C9B2280072DF13B0F0BDFEE700B5674821
:10D260000079002803D16548007B002801D0012007
:10D2700000E00020C0B200BD00B501000022062A77
:10D2800006D2885C002801D0012002E0521CF6E79B
:10D29000002000BD80B5684600F0F1FB0098002832
:10D2A00001D0012000E00020C0B202BD10B5040092
:10D2B0005448FFF7E1FF0100E4B2012C06D023D36C
:10D2C000032C15D00BD3042C18D01DE04E48407809
:10D2D000002804D0C9B2002901D0012015E04A4835
:10D2E0008078002804D0C9B2002901D002200CE0C7
:10D2F0004548C078002801D0032006E04248007964
:10D30000002801D0042000E0002010BD0100012011
:10D310003E4A10703E484860012008700020488254
:10D32000002008820020704701000220374A107058
:10D3300037484860012008703348C0684882324846
:10D34000806808820020704738B504002E480069C4
:10D3500020822D48406960822B48007800281BD02D
:10D3600027480078002817D1FFF778FF002813D04E
:10D370002248E0600220207204202649C870002163
:10D380002448FFF721FF0500002D01D0280007E009
:10D3900005201E49087002E003201C490870002087
:10D3A00032BD38B504001848806920821648C0692B
:10D3B00060821548007800281BD0114800780028AA
:10D3C00017D1FFF74BFF002813D00C48E060022074
:10D3D000207204200F49C87000210E48FFF7F4FEA8
:10D3E0000500002D01D0280007E00620074908703D
:10D3F00002E0042005490870002032BD78180020A2
:10D4000057280020F52700206026002054280020FF
:10D41000F427002004260020F0B587B004006748F8
:10D420000078002801D10820A5E065480470FFF7C6
:10D4300031FF002804D001206249087000209AE0E2
:10D4400007250026604F320029003800FEF712FB46
:10D450005E484078002803D05948007801280FD052
:10D460005A488078002803D055480078012807D012
:10D4700056488078002812D05148007802280ED1F2
:10D4800053480068002807D001205249087008203E
:10D490004F490968884702E000204E490870200083
:10D4A000C0B2FFF703FF46490870494800680028EA
:10D4B00017D043480078032803D041480078042857
:10D4C0000FD14248007800280BD04348007800284C
:10D4D00007D101204149087007203D490968884764
:10D4E00002E000203D4908701825002601AF3200F7
:10D4F00029003800FEF7BEFA0020694608710020B6
:10D5000001A908722E48007800281AD0022809D0F4
:10D5100003D3042810D00AD317E001A8FFF7F6FEC2
:10D52000009012E001A8FFF7FFFE00900DE001A8B7
:10D53000FFF70AFF009008E001A8FFF732FF009014
:10D5400003E0002026490870FFE71D480078002806
:10D5500007D001A873DF00900098002801D0009840
:10D5600009E01B480068002804D01D4800781849CD
:10D5700009688847002007B0F0BD000038B50400F6
:10D580002000801E012816D80E480078002811D0EF
:10D5900000200C4908700A480078FFF73DFF05009D
:10D5A000002D07D00F480068002803D028000D493F
:10D5B00009688847FFE731BD0000000052280020BD
:10D5C0005528002053280020F42700206026002042
:10D5D0002428002056280020572800205828002002
:10D5E000542800202828002000B5A3480068002106
:10D5F000C943884204D1A14800688021C90048433A
:10D6000000BDF2B584B00400102500266F4632003C
:10D6100029003800FEF72EFA207A012802D00228CD
:10D6200009D014E000206946087020690290A08AA1
:10D63000694688810BE0012069460870A089E1896C
:10D64000401A69460881A08969464881FFE76068F9
:10D6500001906846017C684622689268904705B050
:10D66000F0BD00B50100002909D08548006881425D
:10D6700005D3B7480068814201D2012000E00020B4
:10D6800000BD38B50300988AD98A401AFF2803DC08
:10D69000988AD98A421A01E08022520092B2D86850
:10D6A000D98A04244C4301191869DC8A042565438E
:10D6B000401929DF32BD0100888928DF704700B595
:10D6C000A448406E401EA3494866A248406E002808
:10D6D00005D1A1480078FD2101409F4801709D4877
:10D6E000006E401C9B4908669A48006E042802D1CF
:10D6F00000209849086600BD38B596489549096EDE
:10D700001822514345189348406E002826D0287AA5
:10D71000012802D0022805D009E02800FFF7B1FF58
:10D72000040006E02800FFF7C6FF040001E009201E
:10D730000400112C0CD188480078FD210140864856
:10D74000017085480078042101438348017005E099
:10D75000002C03D009212800FFF753FF31BD80B50D
:10D760007D48007806210140002907D17A480078D9
:10D770000221014378480170FFF7BEFF01BD38B5B3
:10D78000040000209B490870207A012802D002285A
:10D7900019D029E0A08AE18A401AFF2803DCA08A78
:10D7A000E18A451A01E080256D00E08A4019E08297
:10D7B000E08AA18A884205D100212000FFF721FFDD
:10D7C000FFF77DFF10E0A089401CA081E089401C8C
:10D7D000E081E089218A884205D100212000FFF7FD
:10D7E00010FFFFF76CFFFFE731BD10B50400814863
:10D7F0000078401C7F4908707E480078042808DBC8
:10D8000000207C49087008212000FFF7FAFEFFF78E
:10D8100056FF10BDF1B54F48406E042801D10020DD
:10D8200029E04C48006E4B49496E4018042805D247
:10D830004848006E4749496E441805E04548006E67
:10D840004449496E4418241F4248406E401C4149D7
:10D850004866182500263F481821614347183200C2
:10D8600029003800FEF706F93A48182161434018AC
:10D87000009908600120F2BD14100010140000107F
:10D8800088180020FEB59C489C49401A0009019068
:10D8900099489A49401A0409FFF7A6FE01002E484C
:10D8A0000078C00701D5002050E00020019A904286
:10D8B0000DD2934A126810234343D2181368002BE9
:10D8C00003D05368002B00D0641E401CEEE70020FC
:10D8D000A04234D28A4A126810234343D2180292DB
:10D8E00000226B461A7002000023019DAB4216D243
:10D8F000834D2D6810265E43AD192E68002E02D090
:10D900006E68002E09D16E4636786F7BBE4204D217
:10D910006E466F7B37701E0032005B1CE5E7784B6C
:10D920001B68D2B2102555435B1959601D7B754E9B
:10D9300075434D191D601B681900401CC8E7064857
:10D94000007801220243044802700020FEBD00005E
:10D950008C1800200C25002059280020F4B582B036
:10D9600004000D001F00089E67480078C00701D41E
:10D9700001203EE02000FFF774FE002801D10220C4
:10D9800037E00298002801D0002D01D1032030E0BB
:10D990000298800702D12800800701D0062028E0E5
:10D9A0002068854206D36068BFB2042179436918B4
:10D9B000884201D205201CE0BFB2002F01D1042013
:10D9C00017E06846FFF726FF002801D1072010E086
:10D9D000009846600098046001200099087202983F
:10D9E0000099C8600098056100988782FFF7B7FE2C
:10D9F0000020FEBD5A280020F8B504000D001600D6
:10DA00001F0041480078C00701D4012036E0200003
:10DA1000FFF727FE002801D102202FE0002D01D1C1
:10DA200003202BE0A80501D0062027E020688542CE
:10DA300007D36068B6B28021C90071436918884273
:10DA400001D205201AE0B6B2002E01D1042015E063
:10DA50006846FFF7DFFE002801D107200EE000989E
:10DA6000476000980460022000990872A80A009993
:10DA7000888100980682FFF772FE0020F2BD00B593
:10DA80000100002901D1032003E02048406E086016
:10DA9000002000BD38B504001C481C49096E18223E
:10DAA000514345181848007880070DD520000228FA
:10DAB00002D0032804D01BE02800FFF760FE17E027
:10DAC0002800FFF792FE13E00F48007840070FD5BB
:10DAD0000D480078FB2101400B4801700B48406E57
:10DAE000002805D00848007802210143064801704B
:10DAF000FFF702FE31BD000004190020F4180020D9
:10DB00008818002000FCFFFF592800200C25002069
:10DB10000121C206D20E9140954A11607047012141
:10DB2000C206D20E9140934A1160704700B540B2D0
:10DB3000002811D5714940B20207120F083A920825
:10DB400004235A4389588007800F08225043C1405C
:10DB500088098007800F0DE08D4940B282080423B8
:10DB60005A4389588007800F08225043C1408809D2
:10DB70008007800F00BD00B5800701D1012000E0C3
:10DB80000020C0B200BD00B5010049B2202905DA6D
:10DB90008A4ACA401000C007C00F00E0012000BD43
:10DBA00000B50100042901D3002006E0002901D0BE
:10DBB000022901D1002000E0012000BD10B50400C1
:10DBC000200040B2FFF7DFFF002801D17C4824E0AD
:10DBD000200040B2FFF7AAFFFFF7E2FF002801D1C3
:10DBE00078481AE078484068002811D0764864B236
:10DBF00061090422514340580121E206D20E9140AE
:10DC00000143714864B2620904235A43815003E01E
:10DC1000200040B2FFF77CFF002010BD544940B205
:10DC2000420904235A438958C006C00EC140080067
:10DC3000C007C00F704770B506000D001400220029
:10DC400029003000FDF74EFF70BD7CB575480078A7
:10DC500000284DD0002674480068002801D1012416
:10DC600000E00024F6B2002E1CD170480078002895
:10DC70003ED101A852DF0500052D02D1012006008A
:10DC800010E0002D03D02800FDF78EFE0AE0019879
:10DC900001F0AEFA66480068002803D00198644994
:10DCA00009688847E4B2002C1CD16048007800283D
:10DCB0001ED173480088694608806946714800682B
:10DCC00061DF0500052D02D1012004000AE0002DCE
:10DCD00003D02800FDF768FE04E06A480068524956
:10DCE00009688847F6B2002EBCD0E4B2002CB9D047
:10DCF00073BD4C4800787047000000001CED00E048
:10DD0000FEB507000C00002C01D107202FE02000F9
:10DD1000FFF731FF002801D1072028E059480460AF
:10DD20006846808856490880029857490860002054
:10DD3000FFF774FF0500EDB2002D02D00020FFF7C1
:10DD4000EEFE5249380010DF0600002E07D0EDB27B
:10DD5000002D02D00020FFF7DBFE300007E001209D
:10DD60003049087001F04CFA1620FFF727FFFEBD7E
:10DD700000E100E080E100E000B5010008000028BB
:10DD800001D10E2002E02A480160002000BD000001
:10DD900000E400E038B53C48006800280AD03A4862
:10DDA0000068804704002500002D02D02800FDF700
:10DDB000FBFD01E0FFF749FF31BD0000FC06FFBCA1
:10DDC0000120000002200000EC270020F1B50C002B
:10DDD0001500142600273A0031002800FDF74AFEFE
:10DDE0000120288000202861287BFE210140297322
:10DDF0002C72684600786872687A002801D0012089
:10DE0000A8720020F2BD224801682248026808007A
:10DE10005043704710B58024A405FFF7F4FF201885
:10DE200010BD0000692800203C2800206A2800203E
:10DE30004028002030B583B00500174801900198B4
:10DE400000906946280060DF04000098019988422C
:10DE50000DD0009A11490220FDF7E0FEFFF7DAFF2E
:10DE60000099421A0E490220FDF7D8FE06E0002C68
:10DE700004D022000B490120FDF7D0FE20003EBD5A
:10DE800046280020382800203428002037DC0100F4
:10DE900038000010340000107018002090040200B8
:10DEA00014050200A40502008168C068401A70478A
:10DEB0007CB504000D00207800283FD002282ED029
:10DEC00050D260680178684801F0FAF90600002E27
:10DED00008D00120694608700196684663490968C0
:10DEE00088470BE06048FFF7DFFF002806D00020DE
:10DEF0006946087068465D49096888475A48FFF7CF
:10DF0000D3FF59498988814205D30122584959488C
:10DF100001F05AFC02E001205749087022E002207B
:10DF200069460870E068019001225149514801F0AA
:10DF30004BFC68464D490968884713E04F495048F3
:10DF400001F0D0F9002805D101224C49494801F0DF
:10DF500079FB06E003206946087068464349096872
:10DF60008847FFE773BDFCB589B004000E0009982F
:10DF70003E490860002E01D1072054E0726892B239
:10DF80003168394801F082F90500002D01D02800E0
:10DF900049E0F26892B2B168394801F077F90700B8
:10DFA000002F01D038003EE0684636492022FEF7B7
:10DFB00003F960690690207C002801D1002000E070
:10DFC0000120694608750AA8007869460877607CD0
:10DFD000002801D00E2000E0002069464875E06866
:10DFE0000290A06803902068019060680090264A23
:10DFF0006946204801F091FA0500002D01D0280063
:10E0000011E000201C49087020680021C9438842A3
:10E0100008D0184801F012FC01221549154801F0FA
:10E02000D3FB00E000200BB0F0BDF8B507001248AC
:10E03000057839000C4801F055F90400EDB2002DC7
:10E040000FD000200C49087001220949094801F04D
:10E05000BBFB060000960098002802D00098FDF750
:10E06000A3FC2000F2BD0000AC27002020280020E7
:10E070005028002070180020512800204F28002030
:10E08000BC2700202C060200B1DE010030B443435F
:10E0900051435D18010C0C00130C5C432D1980B228
:10E0A000434392B251430024C918644124040B0431
:10E0B000090C09195043C018694130BC704712421D
:10E0C00024D0994228D970B500251B4202D00C00FB
:10E0D000002109E00024012649186441944200D33C
:10E0E000A41A7641F8D33100012601E0764109D225
:10E0F000001864416D41A41A9D41F7D2A4185D41F6
:10E10000B619F5D3300022002B0070BD1B42D8D1C8
:10E1100008B5C046C04608BD01D19042D3D2020026
:10E120000B000021002070470022030A8B420BD213
:10E1300003098B4219D243088B422ED2411A00D2D6
:10E140000146524110467047FF2209023FD0120695
:10E150008B4205D3121209028B4201D3121209021B
:10E1600003098B4219D300E0090AC3098B4201D38A
:10E17000CB01C01A524183098B4201D38B01C01AD3
:10E18000524143098B4201D34B01C01A524103094A
:10E190008B4201D30B01C01A5241C3088B4201D3F9
:10E1A000CB00C01A524183088B4201D38B00C01AA6
:10E1B000524143088B4201D34B00C01A524188425E
:10E1C00000D3401A5241CFD201461046704708B5DD
:10E1D000C046C04608BDFEE70021124A00B21150F9
:10E1E000704700B5104909680840002801D0012097
:10E1F00000E00020C0B200BD0C490D4AC0B20423AB
:10E200004343D150704780B50120FFF7EAFF012852
:10E2100006D180204000FFF7DFFF064800688047F6
:10E2200001BD000000000140040301403546526E6C
:10E23000000601403028002010B504002000C0B2C4
:10E24000FFF7DAFF10BDFEE7544800687047012071
:10E250006E49086070476E490860704700216B4A3C
:10E2600000B21150704700B5684900B20858002844
:10E2700001D0012000E00020C0B200BD6549086067
:10E2800070476549086070470121604AC0B211506B
:10E290007047012061490860704700205F490860AD
:10E2A000704780B5FFF7D3FF01BD10B58020400057
:10E2B000FFF7D4FFFFF7F1FFFFF7C6FF5849C96822
:10E2C000574A527C02235A4388525548407C401C8E
:10E2D000534948745248407C5149097C884220D2B5
:10E2E00000244F4880684068002804D14C484068AA
:10E2F0004B49886006E04A48806840684849886021
:10E3000001200400464880680068FFF7A4FFFFF77B
:10E31000C0FFE4B2002C02D00020FFF7B5FF0020C0
:10E3200000E0012010BD38B505000C003C48807CA1
:10E33000022801D111202FE0022039498874384881
:10E340004068374988602000354908740020344906
:10E3500048743348C560324880680068FFF77BFF27
:10E3600080204000FFF77AFFFFF793FF2C480068FA
:10E37000002803D00120FFF781FF0CE0802040003F
:10E38000FFF771FF0028F9D0FFF78FFF0028F5D0C5
:10E39000012023498874002032BD00000875004028
:10E3A000E0B51F48C068002817D180204000FFF763
:10E3B00055FF0120FFF765FFFFF76FFF012069465A
:10E3C0000870FFF741FF694688800120144988746E
:10E3D000684613490968884717E0FFF766FF002879
:10E3E00013D00120FFF74DFF0020694608700C484C
:10E3F000C06801900A48007C6946088101200849EC
:10E400008874684606490968884707BD007000405F
:10E41000047500400473004008730040007500401C
:10E42000842700200100A020C0057047F3B581B00B
:10E4300017001C00089D099E01A8FFF7F3FF69461D
:10E44000097AFFB27A000A43E4B2A1001143EDB2A7
:10E450002A020A43F6B233041343019904225143BA
:10E460004118E022D2008B50F7BD1CB504000020FB
:10E470000190002000900023012201212000FFF7DD
:10E48000D5FF13BD30B583B005000C00002001900E
:10E49000002000902300DBB2002200212800FFF7BB
:10E4A000C5FF37BD11B581B001A8FFF7BBFF040060
:10E4B000012101988140200000F022F813BD11B520
:10E4C00081B001A8FFF7AEFF04000121019881404F
:10E4D000200000F019F813BD11B581B001A8FFF7B5
:10E4E000A1FF0400200000F007F801000198C140DE
:10E4F0000800C007C00F16BDA221C90040587047D0
:10E50000A122D200815070478B4A81507047F2B5EA
:10E5100082B0070016000120894908701920FFF712
:10E52000CEFFB6B2FF2E0ADC3200D2B20021380094
:10E5300000F0ADF9824800780028FBD12BE0684656
:10E540000489FF25684669460989320089180170E7
:10E55000200069460978C0B288421CD2684600781B
:10E56000E4B2001BFF2803DC68460078001B0500AE
:10E570002A00D2B22100C9B2380000F088F97048F0
:10E5800000780028FBD16419C82000F042F8C820A8
:10E5900000F03FF8DCE71920FFF784FFF7BD80B5F6
:10E5A0001C20FFF762FF0020FFF75FFF1D20FFF731
:10E5B0005CFF03211E20FFF765FF1C20FFF772FFA1
:10E5C0000020FFF77CFF1D20FFF76CFF01BD80B529
:10E5D0001220FFF74AFF1220FFF771FF0720FFF715
:10E5E00044FF1920FFF741FF0720FFF75BFF1920C9
:10E5F000FFF765FF01BD80B50720FFF760FFC8206A
:10E6000000F007F80720FFF74DFFC82000F001F8E1
:10E6100001BD00B50200501E002A06D000221100E4
:10E62000C9B26429F6DA491CFAE700BD38B504001E
:10E630000025EDB2082D11DA200603D51D20FFF7C5
:10E6400031FF02E01D20FFF73AFF0020FFF72AFF0D
:10E6500064000020FFF733FF6D1CEAE731BD38B5D9
:10E6600000240025EDB2082D10DA0020FFF71AFF74
:10E6700064001E20FFF730FF002802D02000012494
:10E6800004430020FFF71BFF6D1CEBE72000C0B226
:10E6900032BD38B504001C20FFF711FF6006400EA4
:10E6A000FFF7C4FFFFF7DBFF05001C20FFF7FAFEB2
:10E6B0002800C0B232BD38B505000C001C20FFF7A1
:10E6C000FEFE80202843C0B2FFF7B0FF2000C0B29A
:10E6D000FFF7ACFF1C20FFF7E5FE31BD80B5174802
:10E6E00001780620FFF7E7FF144841780720FFF77D
:10E6F000E2FF124881780820FFF7DDFF01BD10B569
:10E70000040021780620FFF7D6FF61780720FFF785
:10E71000D2FFA1780820FFF7CEFF10BD10B504008E
:10E7200087214D20FFF7C7FFD548E4B2015D0920DE
:10E73000FFF7C1FF10BD00000C050000E01800202D
:10E740007128002038B50500032000F01BFA1E20B8
:10E75000FFF79FFF0007000F2C0104432100C9B2FF
:10E760001E20FFF7A8FF31BD38B505001D20FFF7BB
:10E7700090FFF12101406C000C432100C9B21D2023
:10E78000FFF799FF31BD38B505001E20FFF781FF67
:10E79000FB210140AC000C432100C9B21E20FFF751
:10E7A0008AFF31BD38B505000120FFF772FFF8245C
:10E7B00004402C432100C9B20120FFF77CFF31BD8A
:10E7C00038B505000120FFF764FF4406640E2C43B2
:10E7D0002100C9B20120FFF76EFF31BD38B5050039
:10E7E0001D20FFF756FF0007000F2C0104432100F6
:10E7F000C9B21D20FFF75FFF31BD38B505001D20F0
:10E80000FFF747FFFE2404402C432100C9B21D201E
:10E81000FFF751FF31BD10B504002100C9B222201D
:10E82000FFF749FF10BD10B582B004001E20FFF7AE
:10E8300030FF694608701F20FFF72BFF69464870BC
:10E8400068460078FC210140200A8007800F0843B9
:10E8500069460870200069464870684601781E20A5
:10E86000FFF729FF684641781F20FFF724FF13BDFB
:10E8700038B505002620FFF70CFFF7210140EC001A
:10E880000C432100C9B22620FFF715FF31BDF8B5B2
:10E8900004000E0017000120FFF784FF0021242050
:10E8A000FFF709FFF7211120FFF705FF3900C9B273
:10E8B0002220FFF700FF00210E20FFF7FCFE0021C1
:10E8C0000D20FFF7F8FE1C20FFF7F9FD8020FFF771
:10E8D000ADFEF6B2A419002528003900C0B2C9B2B5
:10E8E000884205D22078FFF7A1FE641C6D1CF3E777
:10E8F0001C20FFF7D7FD40214020FFF7DCFE002160
:10E900004120FFF7D8FE0320FFF74CFFF1BD80B593
:10E910000120FFF747FF9F211120FFF7CCFEFF21C9
:10E920002420FFF7C8FE00214020FFF7C4FE00218D
:10E930004120FFF7C0FE0520FFF734FF01BD80B581
:10E940000120FFF72FFFFF211120FFF7B4FE002168
:10E950004020FFF7B0FE00214120FFF7ACFE002071
:10E96000FFF720FF01BD80B50020FFF71BFF8020CF
:10E97000FFF726FF0120FFF715FF00214020FFF7DA
:10E980009AFE00214120FFF796FEFFF7A7FE794887
:10E990000078FFF7C3FE78480078FFF7D3FE77488A
:10E9A0000078FFF7E1FE0120FFF7EDFE74480078E4
:10E9B000FFF714FF0020FFF720FFFF20FFF72BFFDA
:10E9C0008048FFF730FF0120FFF752FFFFF79FFF5E
:10E9D00001BD80B5FFF7E3FDFFF7F9FDFFF70BFE83
:10E9E000C820FFF716FEFFF7BEFFC820FFF711FE95
:10E9F000C820FFF70EFE01BD80B5FFF7D0FDFFF781
:10EA0000E6FDFFF7F8FDC820FFF703FE0020FFF743
:10EA1000C9FE8020FFF7D4FE0120FFF7C3FE0021CE
:10EA20004020FFF748FE00214120FFF744FE6648E2
:10EA3000FFF765FE6548807DFFF770FE6348C07C88
:10EA4000FFF780FE6148007DFFF78EFE0120FFF793
:10EA50009AFE5E48407DFFF7C1FE0020FFF7CDFE25
:10EA6000FF20FFF7D8FE5748FFF7DDFE0120FFF734
:10EA7000FFFEC820FFF7CDFDC820FFF7CAFD01BD8E
:10EA8000E418002010B51220FFF703FE504908706B
:10EA90004F48007840063BD51E20FFF7FAFD4D4950
:10EAA00008704C48007840072FD500210D20FFF753
:10EAB00002FE1320FFF7EDFD474908701C20FFF709
:10EAC000FEFC0020FFF7B2FD002420004249097837
:10EAD000C0B2884206D2FFF7C2FD4049E4B20855F1
:10EAE000641CF2E73C4800783D49087000F058F893
:10EAF0003C49087000F05AF83B49087000F05CF897
:10EB00003A4908701C20FFF7CDFCFFF718FF2BE0F7
:10EB10002F480078000707D5FFF75BFFFFF7F7FEE8
:10EB20000020334908701FE029480078400719D5B4
:10EB300027480078C00702D5FFF701FF14E0012045
:10EB4000FFF730FEFF211120FFF7B5FD0021402027
:10EB5000FFF7B1FD00214120FFF7ADFD0020FFF7D9
:10EB600021FE01E0FFF7EBFEFF211220FFF7A3FDDE
:10EB700010BD0000F3180020F0180020F11800204C
:10EB8000F218002038B505003120FFF782FDF82487
:10EB900004402C432100C9B23120FFF78CFD31BD68
:10EBA00080B51920FFF775FDC0B202BD80B51A20EF
:10EBB000FFF76FFDC0B202BD80B51B20FFF769FDF6
:10EBC000C0B202BDFF0300007C2700206C2700209C
:10EBD0006E2800206F280020702800201C230020B1
:10EBE000722800206B2800206C2800206D2800204F
:10EBF0007128002000B5800701D1012000E000202D
:10EC0000C0B200BDF1B584B00D000024002D01D1CB
:10EC100007202EE02800FFF7EDFF002801D1072094
:10EC200027E0174805606846007C144908700020FA
:10EC3000114908700420029000200190114E019AA1
:10EC400002993000FCF716FF0C4800781821484361
:10EC5000009000260A480768320000993800FCF747
:10EC600009FF01F0C5F8002802D101F092F8040074
:10EC7000200005B0F0BD00004A28002049280020EF
:10EC80000C28002010280020F1B582B000242000BC
:10EC900066490978C0B288423CD265480068E4B24F
:10ECA0000821614346180127307887406148006891
:10ECB000384000282CD05F480068B8435D490860A0
:10ECC000307801F03DF905005B4800680121327899
:10ECD00091400140EDB2327828009040814217D136
:10ECE0007078012801D1012000E00020EDB2C0B20F
:10ECF0006840002801D1012000E00020C0B200904F
:10ED00007068002804D00099C9B2307872689047C2
:10ED1000641CBCE7F7BDF8B506000F000124B44041
:10ED200046480068FCF711FE0500002D27D1414838
:10ED30000068204000281DD1300001F001F90028B2
:10ED400005D03D48006820433B49086004E03A484C
:10ED50000068A043384908603648006820433549B8
:10ED6000086000223648016834480068FCF7C6FD98
:10ED7000050004E02F480068A0432E490860F1BD5B
:10ED8000F0B583B006000C001700052F01D2072054
:10ED900038E001F02DF8002806D100F0FAFF050058
:10EDA000002D01D028002DE0214806601F48047086
:10EDB0002348076000202049086000201D490860A2
:10EDC0002000441EC0B2002817D0E4B208206043DF
:10EDD000301800901B48006801900098807801A9C5
:10EDE0004870194A01A90098007801F00FF8050051
:10EDF000002D01D0280005E0E2E7144A00210F4869
:10EE0000FCF75CFDFEBD10B5002408480078844284
:10EE100009D201210648006808226243805C01F0A3
:10EE200035F8641CF1E7002010BD000048280020E0
:10EE3000FC2700200828002004280020900702005A
:10EE4000002800209407020017ED010089EC010062
:10EE500000B5C9B2002902D10022284B1A7000BDAA
:10EE600010B50120254908700023012224480168BB
:10EE70002348FEF7C1FD040020480078012802D194
:10EE8000FDF7A6FBF8E710BD38B5FEF7FBFC040064
:10EE9000E4B22500002D02D02800FCF785FD31BD2D
:10EEA00038B505000C00FFF7DBFF0120134908709F
:10EEB0000020009023009BB22A00114801681048EE
:10EEC000FEF74CFD31BD10B5002289B28A4209DA45
:10EED0000B4B1B68042454431B5904245443035113
:10EEE000521CF2E710BD80B506210648FFF7D8FF97
:10EEF00006210548FFF7E7FF01BD00006628002056
:10EF0000F4180020C41800206C27002010B502005F
:10EF100050780223C9B28C1EA34204DA0400D05CEC
:10EF200060405B1CF6E7C0B210BDF8B506000C00EF
:10EF3000170000203D490870AF203D493B4A127838
:10EF400088543A480078401C384908700020082846
:10EF50000BDA3849095C364A12185170334909787E
:10EF6000491C324A1170401CF1E731482F49097899
:10EF700047542E480078401C2C4908702C482B49D7
:10EF80000978445429480078401C2849087000201A
:10EF9000E4B2A0420ADA315C254A1218D172234940
:10EFA0000978491C214A1170401CF1E72248006889
:10EFB0000090214800680021C943884202D1012005
:10EFC0001D4908600020C0B204280FDA6946C0B2AB
:10EFD00042428918C978164A144B1B78D1541349F8
:10EFE0000978491C114A1170401CECE70F4805785C
:10EFF0002800401C0D49087021000F31C9B20C488F
:10F00000FFF784FF0A49EDB248553C200849074AFA
:10F010001278885405480078401C04490870064856
:10F020000068401C04490860F1BD00005B28002016
:10F030001C1F00209418002090180020F4B5040034
:10F040000F002078AF2801D000202EE000260121FB
:10F05000092909DA605C7A18521E1278904201D0B0
:10F06000002022E0491CF3E7092568460088854214
:10F0700015DA605D3C2810D12900491CC9B2200076
:10F08000FFF744FF01006219521E1278C9B2914283
:10F0900003D12900491C0E0001E06D1CE5E7F6B222
:10F0A000002E01D0607A00E00020F2BD2E490860F9
:10F0B000704700218022D20500B21150704700B580
:10F0C0008021C90500B20858002801D0012000E0C5
:10F0D0000020C0B200BDC0B28107890F234A116071
:10F0E0007047234940B2420904235A438958C00655
:10F0F000C00EC1400800C007C00F704780B5002097
:10F10000FFF7EFFF002803D10321002001F0B2F840
:10F1100001BD10B5002421480078002802D08520C8
:10F12000040017E000201D49886000201B4948604A
:10F1300000201A49086100201849C860FFF7DEFF67
:10F14000FEF7D7FD002802D10120FFF7C4FF012000
:10F1500012490870200010BD00B5010008680028A1
:10F1600001D002680A6000BD080300401805004095
:10F1700000E100E070B50400E4B2002C01D12E4D96
:10F1800000E02C4D2800FFF7E7FF0600002E04D01A
:10F190002000C0B271688847F4E770BD982700204E
:10F1A00080B580204000FFF78AFF00280CD0802027
:10F1B0004000FFF77EFF0120FFF778FF01201F4985
:10F1C00048700020FFF7D6FF82204000FFF777FF4E
:10F1D00000280CD082204000FFF76BFF0220FFF7D1
:10F1E00065FF0120154988700120FFF7C3FF01BDAD
:10F1F00010B50400002C02D10020FFF7BBFF10BDAA
:10F2000080B50020694608706846FCF725FC0B486D
:10F210000078002801D1FFF77CFF0848C068401C37
:10F220000649C86001200549887068460078FCF7E7
:10F2300019FC01BDA8270020A02700209827002046
:10F240008168C068401A704710B40268C368848837
:10F250002340D154C268521CC26010BC704730B405
:10F260000368846889B2641885882C401B5D13701C
:10F2700030BC704738B504000D002A000021200082
:10F28000FFF7EDFFA068401CA06031BD00B5030092
:10F29000002901D10E2012E092B2002A05D092B2CC
:10F2A000501E92B21040002801D0092007E01960DA
:10F2B000501E9880002098600020D860002000BD7B
:10F2C00038B505000C002800FFF7BAFFA988814275
:10F2D00006D32100C9B22800FFF7B6FF002000E0E6
:10F2E000042032BD38B505000C002800FFF7A8FF48
:10F2F000002805D021002800FFF7BCFF002000E017
:10F30000052032BD002209B24250704700B509B253
:10F310004058002801D0012000E00020C0B200BD0C
:10F32000C12292008150704700B5C12292008058DE
:10F330000140002901D0012000E00020C0B200BD42
:10F34000C22292008150704701009020C0000858EE
:10F350009022D200885070470421A022D200815010
:10F360007047844BC250844BC1507047A123DB00CF
:10F37000C150A223DB00C2507047A321C9004058EE
:10F38000C0B27047C9B27D4A815070470122C9B2EC
:10F390004250704710B4C9B2D2B213000B43784C3C
:10F3A000035110BC7047774A815070470100080B29
:10F3B00040B270470100A020C0057047F3B581B08E
:10F3C00017001C00089D099E01A8FFF7F3FF69467E
:10F3D000097AFFB27A000A43E4B2A1001143EDB208
:10F3E0002A020A43F6B2330413430199042251431B
:10F3F0004118E022D2008B50F7BD1CB5040000205C
:10F400000190002000900023012201212000FFF73D
:10F41000D5FF13BD30B583B005000C00002001906E
:10F42000002000902300DBB2002200212800FFF71B
:10F43000C5FF37BD11B581B001A8FFF7BBFF0400C0
:10F44000012101988140200000F001F813BDA122A4
:10F45000D2008150704738B505000C0020680021AB
:10F46000C943884205D02068FFF7E4FF2068FFF712
:10F47000C4FF60680021C943884203D0002160684E
:10F48000FFF7C8FFA1692868FFF78DFF227D617D26
:10F490002868FFF77FFF626821682868FFF761FF2F
:10F4A000207D012818D1A0680021C943884203D0DB
:10F4B0000021A068FFF7AEFFE0680021C943884241
:10F4C00005D0E068FFF7B6FFE068FFF796FFA26897
:10F4D000E1682868FFF74AFF31BD38B504000D0028
:10F4E0008E2149002068FFF70DFFA2214900206806
:10F4F000FFF708FF66492068FFF712FF2068FFF753
:10F5000055FF2900C9B240B200F0B4FE31BD10B5BC
:10F5100004002068FFF720FF10BDF4B504000E00C2
:10F52000A84821791C22514345180027E87E00286D
:10F5300001D008201CE031002000FFF78CFF00986C
:10F540006860306928606868002803D0317F200037
:10F55000FFF7C3FF2000FFF7DAFF0020E875002067
:10F5600028760020A8750120E8760020A8763800CB
:10F57000F2BD0000140500000C0500001C05000091
:10F580006C0500002405000070B504000D008E21FC
:10F5900049002000FFF7B6FEA868A98A465CA88A41
:10F5A000401CA8823100C9B22000FFF7EBFE70BDFD
:10F5B00070B50400834821791C2251434518002668
:10F5C0008E2149002068FFF79DFE08212068FFF783
:10F5D000DDFE29002068FFF7D7FF686800282FD1DB
:10F5E000A88AA97D89B2884215D28E214900206857
:10F5F000FFF78CFE002804D1A88A802149008842A8
:10F60000F3D1A88A802149008842E9D029002068E6
:10F61000FFF7BAFFE4E7A88A80214900884202D1B7
:10F620000F2006000AE08E2149002068FFF76EFED9
:10F630000028F8D00C212068FFF7A8FE0020A8754C
:10F64000300070BDF8B504000F0015005D48217949
:10F650001C2251434618200000F00CF8002801D06D
:10F66000112006E0B575B7600020B0822000FFF7DA
:10F670009FFFF2BD00B5534900791C225043081882
:10F68000807D002801D0012000E00020C0B200BD34
:10F690008000020010B50400922149002068FFF7A5
:10F6A00031FE842149002068FFF72CFE00212068EC
:10F6B000FFF76CFE10BD70B504000D00E87D00285A
:10F6C00008D1842149002000FFF71CFE2000FFF72D
:10F6D00054FE0EE0842149002000FFF713FE6E7EE9
:10F6E0002000FFF74AFEE968F6B28855687E401CA4
:10F6F000687670BDFEB582B00400324821791C22C4
:10F7000051434518A87E002806D16846007C002891
:10F7100002D12000FFF7BEFF6868002849D1A2216E
:10F7200049002068FFF7EEFD922149002068FFF7AD
:10F73000EDFD0600842149002068FFF7E7FD6946DA
:10F740000870A22149002068FFF7E0FD0700684625
:10F750000078002805D1FFB2002F02D1F6B2002EAA
:10F76000E2D0F6B2002E02D1FFB2002F00D007E0A7
:10F7700029002068FFF79FFF687EE97D8842D3D388
:10F780000020E875F6B2002E01D0032017E0FFB28A
:10F79000002F01D00F2012E0A87E002804D0002105
:10F7A0002068FFF7F3FD09E004212068FFF7EEFD74
:10F7B00004E0812189002068FFF7B2FD002005B038
:10F7C000F0BD000020270020F2B505001700924888
:10F7D00029791C225143441800266068002804D06F
:10F7E000812189002868FFF7ABFDE07D00280ED05D
:10F7F000207E002809D06068002804D0812189007B
:10F800002868FFF78DFD112017E001200600F6B2F1
:10F81000002E07D1E7750098E06000206076002098
:10F82000207602E00098206127763300DBB23A00B0
:10F83000D2B200992800FFF75DFFF2BD10B50400B9
:10F84000754821791C2251434018807E002809D137
:10F850002000FFF71FFF704821791C2251434018F8
:10F860000121817610BD7FB504000D001600012036
:10F8700069460870684605720196216868466268A4
:10F8800090477FBD30B585B004000D00002069466B
:10F89000087068460572A06801900020A075216874
:10F8A00068466268904705B030BDF0B585B0050088
:10F8B0000C00802189002800FFF736FD00282CD09D
:10F8C000922149002800FFF721FD002825D0922130
:10F8D00049002800FFF716FD812189002800FFF765
:10F8E0002FFDA07E002803D104212800FFF74EFD44
:10F8F0000220694608702800FFF726FD0390E07D8E
:10F9000069460872E06801900020E07500202076CA
:10F9100021686846626890473BE004212800FFF7B1
:10F9200003FD002835D0842149002800FFF7EEFCB4
:10F9300000282ED021002800FFF7BDFEE07D617E6B
:10F94000884226D1207E002810D0E768667E207E7F
:10F95000E0752069E06000202076002060763A00A3
:10F960003100C9B22000FFF77EFF12E0A07E002820
:10F9700003D104212800FFF709FD81218900280017
:10F98000FFF7DEFC0020E075E268617E2000FFF7F3
:10F990006AFF8E2149002800FFF7B8FC002815D027
:10F9A000A08AA17D89B2884204D221002800FFF7F5
:10F9B000EBFD0BE08E2149002800FFF7A3FCA07DA2
:10F9C000002803D0A17D2000FFF75CFFA2214900A1
:10F9D0002800FFF79BFC002815D0A2214900280031
:10F9E000FFF790FCA07E002803D000212800FFF73D
:10F9F000CDFCE07D002806D00020E075E268617E45
:10FA00002000FFF730FF05B0F0BD80B50249034884
:10FA1000FFF74BFF01BD0000202700200020004021
:10FA200010B50400200000B200F011F800680128B1
:10FA300001D1012000E00020C0B210BD10B50400CB
:10FA4000200000B200F003F80021016010BD00B2F8
:10FA50005A494018704778490860704776490968E4
:10FA600008407047754904224243895801220A43DD
:10FA7000724904234343CA50704770B46F4B042447
:10FA800044431B59784C1C406C4B042545435C5146
:10FA90006A4B042444431C590B02F8256D011D4098
:10FAA000D2B21604C0239B0233402B432343634C42
:10FAB00004254543635170BC70476049042250439C
:10FAC0000858000AC006C00E70475C490422504323
:10FAD0000858000C8007800F70470100A020C00567
:10FAE0007047F3B581B017001C00089D099E01A85E
:10FAF000FFF7F3FF6946097AFFB27A000A43E4B2DE
:10FB0000A1001143EDB22A020A43F6B233041343B3
:10FB10000199042251434118E022D2008B50F7BDD5
:10FB200030B583B005000C0000200190002000904B
:10FB30002300DBB2002200212800FFF7D2FF37BDEF
:10FB400001B56846FFF7C9FF0099042251434118E7
:10FB5000E022D200895802229143009A04235A439A
:10FB60008218E023DB00D15001BD11B581B00C003B
:10FB700001A8FFF7B2FF0199042251434118E02286
:10FB8000D2008958994A0A400199042359434118DF
:10FB9000E023DB00CA500199042251434118E022BE
:10FBA000D2008958E4B222040A430199042359433C
:10FBB0004118E023DB00CA5013BD00000060004084
:10FBC00011B581B001A8FFF788FF0400200000F004
:10FBD00016F801000198C1400800C007C00F16BD0B
:10FBE00001B56846FFF779FF009904225143401898
:10FBF000E021C9004058000C8007800F02BDA221FF
:10FC0000C90040587047F8B504000F001500684659
:10FC10007C490A6802602600E019864209D26846DB
:10FC2000042171434058FFF7EAFF28602D1D761C20
:10FC3000F2E7F1BD000000000463004010650040E1
:10FC4000C2084007400F01238340885C184070477A
:10FC500010B4C2084007400F8B5C012484401C4351
:10FC60008C5410BC70470000FFE0FCFF00B56649F3
:10FC7000091820228956002907D463490818202131
:10FC80004056042801DA012000E00020002801D0BD
:10FC9000012000E00020C0B200BD00B55A4908189C
:10FCA00020214056042801DB012000E00020C0B2E2
:10FCB00000BD00B55449081820214056002801D441
:10FCC000012000E00020C0B200BD000070B50C00B3
:10FCD0004D4D2D182026AC554B4C04254D436251FB
:10FCE000DBB2002B04D10400474D6D183C26AC5507
:10FCF00070BD0021C943444A12182023D1547047D3
:10FD0000414908182021405670473F49042250437A
:10FD1000085870470000F7B50027FF436846007A8F
:10FD2000002801D0002600E004266846007A00285A
:10FD300001D0042500E008253400AC4213D232483B
:10FD40000421614340580021C943884209D16846D3
:10FD5000037A019A21000098FFF7B8FF20000700FE
:10FD600001E0641CE9E7380040B2FEBD00B50021A7
:10FD7000C943254AC0B204234343D150C0B204282A
:10FD800006DB0021C943204AC0B212183C23D154DB
:10FD900000BD38B53C480078002801D0082023E099
:10FDA0000025EDB2202D05DAEDB22800FFF7A1FF06
:10FDB0006D1CF6E70024E4B2082C05DA2000C0B27E
:10FDC000FFF7D4FF641CF6E70321062000F052FA87
:10FDD000BE204000FFF732FE80200006FFF73BFE0A
:10FDE000012029490870002032BD0000FFFFFCFF00
:10FDF00000B525480078002801D0012000E000204F
:10FE0000C0B200BDA8070200BC250020F4B5060062
:10FE10000C0000273000FFF74CFF002802D008201C
:10FE200007002FE0E27800993000FFF774FF05002B
:10FE30006DB20020C043854222D0A078002803D0B4
:10FE40003000FFF77DFE03E061783000FFF768FEC9
:10FE5000E078002806D0227831006DB22800FFF744
:10FE60000CFE0FE035486DB240193C21415C207812
:10FE70008001084331496DB249193C22885401E0A0
:10FE8000042007003800F2BD00260020F8B5050068
:10FE90000F002800FFF701FF002826D02800FFF7F9
:10FEA0002FFF6946254A40B210183C22805C08703A
:10FEB000684600780600F6B2B609F6B2032E08D1FD
:10FEC0002800FFF77DFE002801D0032407E002246C
:10FED00005E0F6B2012E01D1022400E00324210046
:10FEE000C9B22800FFF741FE27E02800FFF7BEFE59
:10FEF000002822D02800FFF703FF040068460421F1
:10FF0000614380225200891801802000FFF7AAFD7A
:10FF1000009800B2FFF792FDFFB2002F0DD028002D
:10FF2000FFF7EEFE40B2FFF7F0FE060030000028BB
:10FF300003D00120A040FFF78EFDF1BDBC250020BD
:10FF400010B504002000FFF73BFE002801D001207F
:10FF500000E00020C0B210BDF0B58BB000200490CE
:10FF600005A80021016080204000694688800120AA
:10FF700002900025042D1CD2019800B2FFF750FD1D
:10FF800000280CD00298FFF769FD002807D00198DF
:10FF900000B2FFF753FD04980299014304910298BF
:10FFA000400002906846019909B2091D81806D1CCC
:10FFB000E0E7BE204000FFF733FD00280DD0BE2053
:10FFC0004000FFF73BFD049880210906014304919E
:10FFD00005AA01210020FFF716FE04980007000F74
:10FFE000002822D00120029000200500042D1CD200
:10FFF000029804990140002912D02800FFF75DFD06
:020000040002F8
:1000000006002800FFF761FD07002800FFF77DFECE
:1000100004002000002803D03900C9B23000A047F6
:100020000298400002906D1CE0E70498002800D47C
:10003000C1E000206946087007A800210160002483
:10004000002C07D10020C04306A904226243885037
:10005000641CF5E700206946087000200500042DA7
:100060006AD26846554949194022895CC170684680
:10007000C078C02188430390504840194021405621
:100080000021C943884255D006A90398FFF7D8FD3F
:1000900000284FD068466946C978C9B289094170BD
:1000A0000398FFF72DFE40B2FFF72FFE0700380040
:1000B000002803D16846407803283BD16846407841
:1000C000032803D107A90398FFF7C2FD0398FFF7A0
:1000D00087FD6946887005A90398FFF7B1FD089070
:1000E0000898002803D068468078022806D008982F
:1000F00000281FD16846807803281BD168464078C5
:10010000032810D168468078022801D1032600E038
:1001100002263100C9B20398FFF727FD68466946F9
:100120000978491C01703800002803D068464178DE
:100130000398B8476D1C92E768460078002835D0D0
:10014000012609AA01210020FFF75DFD002004001F
:10015000002C0ED109A804216143405805A90422AE
:1001600062438958884202D00020060001E0641CE6
:10017000EEE7F6B2002E03D000206946087015E0C5
:1001800000200400002C11D109A80421614340582B
:1001900005A904226243885007A8042161434058FE
:1001A00006A9042262438850641CEBE76846007885
:1001B000002800D04EE70BB0F0BD0000BC250020A9
:1001C0000121C206D20E9140264A116070470121DA
:1001D000C206D20E9140244A11607047F0B540B279
:1001E000002821D5214C40B20207120F083A950889
:1001F000042255431D4A40B203071B0F083B9B08CE
:1002000004267343D258FF238607B60F08277E4380
:10021000B3409A438B01DBB28607B60F08277E43B3
:10022000B340134363511AE0114A40B283080424D7
:100230006343D258FF238407A40F08256C43A340CF
:100240009A438B01DBB28407A40F08256C43A340BB
:100250001343074A40B2840804256C431351F0BD90
:100260000000000000E100E080E200E01CED00E0A2
:1002700000E400E038B505000C00E4B221002800DD
:1002800040B2FFF7ABFF280040B2FFF7A0FF280005
:1002900040B2FFF795FF31BD80B500F023F800288C
:1002A00006D04F484F490860802000024E49086040
:1002B00000F050F8002802D001204C49086000F0FE
:1002C00065F800280DD04A480068012806D0494842
:1002D00047490860464800680128FBD1C0204649CC
:1002E000086001BD00B545480078C0B201282FD193
:1002F000434800780007000F002829D141480078C2
:10030000F0210140002907D13F480078F021014049
:10031000002901D101201CE03A480078F021014079
:10032000102907D138480078F0210140002901D177
:1003300001200EE033480078F0210140302907D138
:1003400031480078F0210140002901D1012000E06E
:10035000002000BD00B529480078C0B2012813D1A3
:10036000274800780007000F00280DD125480078A5
:10037000F0210140402907D123480078F0210140B5
:10038000002901D1012000E0002000BD00B51B487C
:100390000078C0B2012821D1194800780007000F69
:1003A00000281BD117480078F0210140A02907D16F
:1003B00015480078F0210140002901D101200EE00C
:1003C00010480078F0210140D02907D10E4800786C
:1003D000F0210140002901D1012000E0002000BDF2
:1003E000DFFF07C004050040186C0040080600400D
:1003F00000EC06407593000014EC0640E00F00F09E
:10040000E40F00F0E80F00F0EC0F00F000200040D7
:10041000000000008026002000000000A026002030
:1004200000000000F4180020041900200100000062
:100430008360181003120007A2620000010101018D
:100440004661696C656420746F206C6F63617465CC
:1004500016000300F9C7010006010300F9C70100F7
:10046000A1000000140000008877000018F60000CA
:1004700075E0000C020207006407020075E000004E
:1004800081838587898B8D8F0024F4000C020707F8
:100490005344483A5741524E494E473A73645F625B
:1004A0006C655F656E61626C653A2052414D2073E8
:1004B000746172742073686F756C6420626520616A
:1004C000646A757374656420746F20307825780DC4
:1004D0000A00000070B401000123002413E00A6840
:1004E000091D1A4202D04D466D1E52191460121D8C
:1004F000001F0428FAD21500860701D51480AD1C10
:10050000184000D02C700868091D0028E7D10800A9
:1005100070BC70475344483A5741524E494E473A8F
:1005200052414D2073697A652073686F756C642041
:1005300062652061646A757374656420746F20302D
:10054000782578200D0A000030B401220168001DD2
:1005500000290FD00368C31844680830144202D041
:100560004D466D1E64191D6825601B1D241D091F45
:10057000ECD0F8E730BC70470321064802680A4314
:100580000260054802680A43026004488047044844
:100590000047000024050040540500409902020075
:1005A0007D0702005344483A4552524F523A736411
:1005B0005F626C655F656E61626C653A2065727240
:1005C0006F7220307825780D0A00000010B50749B9
:1005D00079441831064C7C44163404E0081D0A683E
:1005E000891888470100A142F8D110BD0800000019
:1005F0003C000000E1FEFFFF700F00000419002026
:100600000000000045FFFFFF8400000000FEFFFF28
:10061000701800200000000031FFFFFF10000000F4
:100620001C010000F418002000000000FFFFFFFF85
:10063000FFFFFFFFFFFFFFFFFFFFFFFF00000000C6
:100640000000000000E0D70103000000666972733B
:1006500074206C6F636174696F6E2074696D65726C
:10066000207374617274210A0000000067707320A7
:10067000636C6F7365642C6770735F73747220674B
:10068000657420412A0A00000120C046002801D0DC
:10069000FFF79CFF002000BF00BFFCF717F900F038
:1006A00000F880B500F002F801BDFEE707463846C5
:1006B00000F002F8FBE7FEE72021090326311820AD
:1006C000ABBEF9E74150505F4552524F523A455246
:1006D000524F523A466174616C0D0A000A000000E4
:1006E00000000000080000000900000000000000F9
:1006F000005027006C6F636174696F6E2074696DC0
:1007000065722074696D656F75740A00696E69742D
:10071000206F6B2C70726F6772616D2073746172E1
:1007200074210A00696E746F206C6F7261207265AB
:100730007620646F6E65206576740A000000000004
:100740000000000051EE010004FE00005542495037
:10075000502D3130303037006665656420646F6736
:100760000A0000004F766572666C6F770D0A000014
:100770005465726D696E616C0000000000BF00BFBF
:1007800000BF00BFFFF780FF5345474745520000B9
:100790004026002003000000C0260020E0260020A4
:1007A00000270020010000070000005001000000A9
:1007B0000100000001000000FEE7FEE7FEE7FEE7A3
:1007C000FEE7FEE7FEE7FEE7FEE7FEE7FEE7FEE701
:0807D000FEE7FEE7FEE7FEE78D
:040000050002077D71
:00000001FF
