:10000000E80F0020F12F0000D7100000B71100000A
:1000100000000000000000000000000000000000E0
:10002000000000000000000000000000331200008B
:100030000000000000000000E3140000371500007D
:10004000B7180000BF300000612C00002728000016
:10005000CB300000000000001D2900000731000027
:10006000093100000B3100000D3100000F3100009C
:10007000113100001331000015310000173100006C
:1000800019310000111C00001B3100001D3100005F
:10009000AD1C00001F3100002131000023310000A1
:1000A00025310000273100000000000000000000A2
:1000B0000000000000000000000000000000000040
:1000C000F0B5A3B006000C00289D00BF75A003C8C2
:1000D0006F4603C7069404A83B21455400200F90A7
:1000E0001700029312E03D00039606002978069857
:1000F000039A90470690002800D1B7E00F98401C63
:100100000F906D1C761EF1D1039E3F19387825287B
:1001100008D1002009900A900B900C900D900E9041
:100120003C000FE06A460021C943380001F027F87F
:10013000040001D10F989BE0D5D50124E5E701002B
:1001400001200843641C21782029F8D023290FD0EE
:100150002B2904D02D2907D030290CD08AE00100AA
:100160000220084380B2EDE7020004201043F9E7C3
:1001700001000820F5E701001020F2E700211191AD
:100180000AE0119A464B9A4205DA93009A185200F7
:10019000511830391191641C21780A00303A0A2A2A
:1001A000EFD321782E2903D00021C943109128E0F4
:1001B000641C22782A2A0AD102990968029A1160DD
:1001C0000A68091D029B19601092641C19E02D2A0F
:1001D00001D1641C00E00022002110910CE0002AF3
:1001E00009D1109B2E4DAB4205DA9D00EB185B0048
:1001F000591830391091641C21780B00303B0A2BC0
:10020000EDD304A908872578290000BF27A000F0B6
:10021000C7FF002801D0641C00E0002504A83A2193
:100220004554405C682804D12178682901D16220B6
:1002300005E06C2807D120786C2804D1712004A92E
:100240003A228854641C14A808902378029A04A9BE
:10025000300000F069F8671C002807D114AA04A92F
:10026000300000F001FA002800D44FE70020C0431E
:1002700023B0F0BD2A2900D080E702990968029ACC
:1002800011600A68091D029B19601192002A05D5A8
:100290005142119102000420104380B2641C80E797
:1002A000CBCCCC0C0000000000000000686A6C742D
:1002B0007A4C00000B0062281CD068280DD06A28F8
:1002C00003D06C2823D0712821D11A68D21D0720B1
:1002D00082431A6003CA1A607047002A19681960BD
:1002E000086803D0091D196000B217E0091D1960E4
:1002F00080B217E0002A19681960086803D0091D48
:10030000196040B20AE0091D1960C0B20AE0002A73
:1003100019681960086803D0091D1960C117704772
:10032000091D196000217047F0B583B00C0016005C
:100330001F0025693900253900D14DE11C3900D154
:1003400084E0091F022900D880E00E3900D106E1BF
:10035000491F59D0093979D0891E16D0491E34D089
:10036000491E022972D9091F2FD0491F00D196E0DA
:10037000491E49D0491E00D1E1E0C91E00D1FDE06F
:10038000891E41D0C91E3FD02CE13A21615C6C2905
:1003900009D06069411C6161316831600A68091DDA
:1003A00031602A5428E1316831600A68091D3160E2
:1003B000009200210191C94321636A46210000F0A7
:1003C000D5F9002800D417E103E1012231003A20D9
:1003D000205CFFF76FFF03C4083C002904DA606962
:1003E000411C61612D210DE0208F810704D56069DA
:1003F000411C61612B2105E0C00722D56069411CC9
:100400006161202129541CE0002231003A20205C47
:10041000FFF750FF03C4083C3820205C000710D5CC
:1004200003CC083C002901D100280AD02020384301
:10043000782806D1606930212954401C411C616133
:100440002F5460692818E060390084E03268D21DBA
:1004500007208243326003CA326003C4083C03CCE5
:10046000083CC80F04D06069411C61612D210DE07A
:10047000208F810704D56069411C61612B2105E053
:10048000C00704D56069411C61612021295460695D
:100490002818E0603900200000F08CFAACE03B2026
:1004A000205C002804D00024E44300BF54A074E082
:1004B0003A20205C622808D0682823D06A2812D00D
:1004C0006C282ED071280ED02BE030683060016887
:1004D000001D3060002903D10024E4434EA05CE0FD
:1004E000E06A087088E0306830600268001D3060A3
:1004F000002A03D10024E44347A04EE0E06AC1177C
:1005000003C279E0306830600168001D3060002966
:1005100004D10024E44300BF3FA03EE0E06A08802D
:100520006AE0306830600168001D3060002903D146
:100530000024E44338A030E0E06A08605CE0306802
:1005400030600268001D30600020C043104003C4CA
:10055000083CE5607821200000F06CF94CE06C214B
:100560003A22A154316831600A68091D3160002ABD
:100570002AD10024E44300BF2DA00EE03A21615CA3
:100580006C29EFD0306830600568001D3060E56090
:10059000002D06D10024E4432CA000F00DFE201A0B
:1005A0002BE0266B002E03D5280000F029FE09E081
:1005B00032000021280000F02BFE002801D0401B53
:1005C00000E03000A06117E0210000F0CFF8002823
:1005D00012D50020C04310E06069411C61612521F3
:1005E000295409E06069411C616125222A543800C0
:1005F00002D0481C60616F54002003B0F0BD0000C1
:100600007072696E74665F733A20256E2064697338
:10061000616C6C6F776564007072696E74663A2005
:1006200062616420256E20617267756D656E74006D
:100630007072696E74665F733A2062616420256C23
:100640007320617267756D656E7400007072696EFB
:1006500074665F733A20626164202573206172675B
:10066000756D656E74000000F8B506000C0017008B
:10067000606B6169401A216A401AA169401A616A77
:10068000401AE169401AA16A401A00903820205CA3
:1006900040070ED4009800280BDD05462021A068F5
:1006A000B047A06000285DD0E06A401CE0626D1E8B
:1006B000F4D13A0063692100300000F0F2FC002818
:1006C00050D1256A002D0ADD3021A068B047A06016
:1006D000002847D0E06A401CE0626D1EF4D1A36997
:1006E000E2682100300000F0DCFC00283AD1656AA5
:1006F000002D0ADD3021A068B047A060002831D06D
:10070000E06A401CE0626D1EF4D1E369E068A16913
:1007100042182100300000F0C4FC002822D1A56A54
:10072000002D0ADD3021A068B047A060002819D054
:10073000E06A401CE0626D1EF4D13820205C400766
:100740000ED5009800280BDD05462021A068B04793
:10075000A060002806D0E06A401CE0626D1EF4D163
:100760000020F2BD0020C043F2BD0000F0B5A7B0EC
:1007700007000C001500266B002E00D58A4E00F0F5
:1007800053FD616B0A1800BF28A003C803AB03C365
:10079000812A48D20020059700940290002E31DD76
:1007A00003AA296801A800F0EFFC04003BD42868E4
:1007B000002801D1641E36D4A64223DB009840698C
:1007C000001981280DD300200099486306AA0099DA
:1007D0000598FFF749FF0290002813D400200099E4
:1007E000486100984769220001A906A8C01900F0D5
:1007F00021FD3819009948612868002802D02D1D74
:10080000361BCBE7059B009C0298002804D106AA62
:1008100021001800FFF728FF002802D100216161A4
:10082000616327B0F0BD0020C043FAE7000000007C
:1008300000000000F2B588B0040027690A466F2A5C
:1008400001D1082507E0084620210143782901D07D
:100850000A2500E010253C2603CC083C06AB03C368
:10086000642A01D0692A09D1002907DA06A803C839
:1008700000220023121A8B4106A80CC006A803C848
:10088000002920D100281ED1206B00281BD1082D63
:1008900058D13820205C000754D53B26302050E04A
:1008A00000290ED53821615C14220A40102A08D193
:1008B000616B6269891A226A891A081A002800DDA8
:1008C000206209B0F0BD049401970395009606A834
:1008D00030C80098401E02900090039EF717200039
:1008E000290032003B0000F0D3FC3032D2B23A2A69
:1008F00003DB08A800785138121801980299425475
:100900002000290032003B0000F0C2FC04000D0072
:1009100001D1002C06D00498C0680199009A89186A
:100920008842D6D3049C019F0398009E082809D1D1
:100930003820205C000705D5B85D302802D0761E2F
:100940003020B8553C20801BA061B919E160216BB3
:100950008842A5DA081A2062208F144901402187B5
:10096000AFE7F8B50024124D06000F00009214E026
:10097000C00707D522002B003000390000F0BDFC75
:1009800006000F000098401000902000290022006F
:100990002B0000F0B2FC04000D0000980028E7D105
:1009A00030003900F4BD0000FFFFFF7FEFFF0000C3
:1009B00000002440F3B591B006AA03C802AB03C3FC
:1009C000202012A909780843019061280CD01198C1
:1009D000006B002801D5062004E005D101986728A6
:1009E00002D1012011990863119803C84C006415C5
:1009F000641C13D10B0311D003201199886112A834
:100A0000007861381A2804D252497944FF314731BD
:100A100016E051497944FF31413111E04C00641531
:100A2000641C13D10B0311D103201199886112A802
:100A3000007861381A2816D348497944FF311F31AC
:100A400003221198C06800F0F5FBCBE104000D0013
:100A500092A003C82940002680277F03B94207D20D
:100A6000002069400DE03E497944FF310B39E7E74A
:100A7000080D884E3618200029008A4D0D40864901
:100A80002943119B03C30198612813D11198C068B1
:100A900030210170811C119BD96012A9097861294C
:100AA00001D1782100E05821417011984069801CE3
:100AB00011994861119830C878A003C82040294096
:100AC00004D1002802D16B46988082E10198612808
:100AD00000D0ADE01198006B002801D5212000E086
:100AE000401C04900498401C019002A803C80022F6
:100AF000002300F0C4FC02D2802000064540361FCF
:100B0000009669460A7606A8461C0198002800DC73
:100B10006FE120002900002280235B0300F0C8FC65
:100B200000D966E16900490D0A001C32002919D07C
:100B3000002A17DDBA498A4206DB0805290080220F
:100B400012061140014311E056492940100508439F
:100B500005000DE090250000902500009425000080
:100B60008C250000290080221206114000240D006F
:100B70002000290000F0B6FC07000198C01F01907A
:100B800000280ADD380000F0E7FC02000B0020001E
:100B9000290000F048FD04000D00F01D072104E0CD
:100BA000401E0F223A4002703F11002F01DD491E06
:100BB000F6D5491E00D517E1401E00220270F8E765
:100BC0000021030006ACE41801E0401E641E5B1E19
:100BD00025788D42F9D00F2906D106A9491CC95C98
:100BE000491C06AC641CE154002B04D506AA401C29
:100BF0000099091D0091431E11D4D41812A9097837
:100C000025783035EDB2392D02DD0E003A3EAD19B2
:100C100025705B1E641E002BF2D512AB1970119962
:100C2000096B002900D4D1E0411E119B1963CDE06E
:100C300002A803C80022002300F021FC06D202A86B
:100C400003C880221206514002AA03C2754930002F
:100C50004843754900F074FD009007200099401A40
:100C6000049005DD024602A803C8FFF77AFE0AE0F9
:100C7000424200206D49FFF774FE02000B0002A8FB
:100C800003C800F0B7FD019A662A0DD1009A0A3216
:100C90000BE000BF02FCFFFF0000E03FFFFFFFFF93
:100CA000FFFFFF7FFFFF0F800622119B1B6B9A182F
:100CB000142A00DD142230236C46237606AB5C1C1C
:100CC00002E002A803C8049A002A3FDD02AB03C376
:100CD000049202A803C800F017FC109006460834DE
:100CE0000420059030000A2100F02DFD0F00300097
:100CF0000A2100F0E1FD06003037601E0770300069
:100D00000A2100F020FD0F0030000A2100F0D4FD80
:100D10000600A41E303727700598401E0590E1D1CB
:100D200008340498083804900028CADD109800F0B0
:100D300003FC02000B0002A803C800F074FC0022B0
:100D40003B4B00F0DAFA02AA03C2C2E706A8401C35
:100D5000211A06A8421C009802E0491E401E521C9F
:100D60001378302BF9D000900198662802D10098B2
:100D7000401C05E00198652801D1012000E0002019
:100D8000119B1B6B1818814200DA481E00281DD4E5
:100D9000884204DA115C352901DB392300E0302375
:100DA0000400511E0D1901E0401E6D1E641E2E78B8
:100DB0009E42F9D0392B02D1135D5B1C1355002CD8
:100DC00004D50A00401C0099491C0091694688809E
:100DD000009800B20090019B1BB212A801781198F4
:100DE00000F028F813B0F0BDC61D0198002800DD02
:100DF0008FE606A8401C311A06A8421C04988142BE
:100E000000DC0800002800D509E7884200DBD7E6AF
:100E100006A9491C095C072900DCD1E60F21D0E6B0
:100E2000FF07000097750000A08601000000F03F5A
:100E300084D79741F4B584B004000E001D0000F083
:100E4000A9F96946406A00780870276B002D03DC19
:100E5000012500BF9FA0049020203043662803D1C5
:100E60000A9E36B2761C19E0672800D082E00A9804
:100E700000B20321C943884200DA7FE0B8427DDA3C
:100E80000A9E36B2761C3820205C000702D4BD4290
:100E900000DA2F0036B2BF1B00D50027A169E06839
:100EA000401836B2002E25DC491C30220270002F7B
:100EB00003DC3820205C000704D568460078E2682F
:100EC0005054491CA1617042874200DA7E4236B21A
:100ED00070426062BE19AE4200DA35002DB2E561A3
:100EE0002A000499E068A369C01800F0A3F9701BF8
:100EF000A062C0E03200954217DA2A00049900F09F
:100F000099F9A0694019A061711B6162002F03DC8F
:100F10003821615C090706D569460978E2681154F1
:100F2000E069401CE061A762A5E0049900F082F945
:100F3000A0698019AD1B002F03DC3821615C090713
:100F400004D569460978E2681154401CA0612DB2AD
:100F5000AF4200DA3D002DB22A0004988119E06802
:100F6000A369C01800F066F9A0694019A061781B58
:100F7000606280E0612E11D1702612E0BD4204DA79
:100F80003821615C090700D42F007F1E00D500279F
:100F9000672E01D1652604E0452602E0412E00D1EE
:100FA0005026A069411CA161049A1278E3681A5482
:100FB0000498401C0490002F03DC3820205C0007BC
:100FC00018D5481CA0616A461278E3685A54002F6D
:100FD00010DD6D1E2DB2AF4200DA3D002DB22A00A9
:100FE0000499E368181800F025F9A0694019A06178
:100FF000781B6062E068A169401806700A9909B21E
:10100000002903D42B214170851C07E02D2141705C
:10101000851C68460A9909B24A420285002701A93F
:101020000A9800B207E00A2100F08AFB009B1970C1
:101030007F1C0099491C009100B20028F3DC012FAD
:1010400006DC20203043652802D1302028706D1C3A
:10105000002F09D1302028706D1C07E07F1E01A8E9
:10106000C05D303028706D1C002FF7DCE068A1698E
:101070004018281AE0613820205C14210140102912
:101080000DD16069A1694018616A4018E169401892
:10109000A16A4018616B884201DA081A206205B023
:1010A000F0BDF8B50026002B12D000900F00140000
:1010B0001D002178B868009A9047B860002806D0D3
:1010C000F86A401CF862641C6D1E01D0F1E7F6431B
:1010D0003000F2BD3000FEE7613807E005E00100B6
:1010E00061391A2901D20120704741381A288041FC
:1010F000C00F7047010021390F290AD301003A3986
:10110000062906D901005B39062902D37B38042859
:10111000EDE7012070472048704730B45368D41879
:10112000042B0BDA002909D0057825700578002DED
:1011300004D05B1C491E641C401CF1E7536030BCAA
:10114000704738B500290ED01D001400FFF7E5FFE9
:10115000616820006A6B90470122D243811A02D055
:10116000491E02D004E0012000E00020C04332BD4F
:101170000021616032BD80B5DA6B904702BD80B559
:10118000054BFFF7DEFF02BD80B5034BFFF7F3FF12
:1011900002BD0000014870474C00002014000020F0
:1011A00000BFC9B200E0401C02788A4202D0002A87
:1011B000F9D100207047FEE780B5002801D100BFBB
:1011C00007A006490B68002B03D022220021984774
:1011D00001E000F08CFB222002BD0000DC070020B3
:1011E000636F6E73747261696E742068616E646C93
:1011F00065723A20626164206D6573736167650092
:10120000010000E0491C0A78002AFBD1081A704747
:10121000C9B201E0401C521E002A03D003788B4261
:10122000F8D170470020704780B5FFF774FF006C5D
:1012300002BDFEE7124207D08B0706D00B78491C8F
:101240000370401C521EF7D87047830706D00B78F6
:10125000491C0370401C521EF9D1704770B4103AFB
:1012600003D378C9103A78C0FBD2530701D318C909
:1012700018C001D508C908C0D20704D30B88038061
:10128000891C801C002A01D50B78037070BC704744
:10129000124224D0994228D970B500251B4202D0B1
:1012A0000C00002109E00024012649186441944201
:1012B00000D3A41A7641F8D33100012601E076412B
:1012C00009D2001864416D41A41A9D41F7D2A418B7
:1012D0005D41B619F5D3300022002B0070BD1B42D2
:1012E000D8D108B5C046C04608BD01D19042D3D27E
:1012F00002000B00002100207047F0B50E005E4098
:101300000125ED072E40B446AE0ADF184C18F44212
:1013100008D2F7420ED2640D01D07F0D12D1002009
:101320006146F0BD05D1F74201D87F0D05D10020FF
:10133000C143F0BDFBD1640DF9D00020C143490584
:1013400049088FE0E419C902DB0229432B43DB0A79
:10135000460DC00231438E4630B487B295B27D430C
:101360002E0CADB2140C7C43A419260C2404254386
:101370009CB27C43A419190C7943270CC919A4B257
:101380000F043C43090C000C97B247432E0CBE19C6
:101390003543ADB2170C4743360CBF19A6B2BF197F
:1013A0003E043543240C3E0C36199FB24743BF1907
:1013B000BCB23E0C89191F0C47437F183E043443CE
:1013C000390C704680B297B247432E0CBE19354394
:1013D000ADB2170C4743360CBF19A6B2BF193E0475
:1013E0003543240C3E0C36199FB24743BF19BCB29B
:1013F0003E0C89191F0C47437F183E043443390CB7
:1014000077463F0C90B278432E0C80190604ADB29B
:101410002E43050CA0B22D18120C7A435019020C61
:1014200080B2240CA4189AB27A43121914042043EF
:10143000120C89181B0C7B43C91830BCEF0A3942C7
:1014400003D1B61940414941641E6F12BF0DE41B20
:101450000BDBFF19BC4211DA240500274208AE411C
:101460007841614166463143F0BD641C05D1401CA2
:101470006141CF0201D34908F4E750E75DE730B49A
:10148000012464054D00EC420BD85D00EC4208D805
:101490000C001C4364000443144304D2994200D15D
:1014A000904230BC7047FCD08B42FAD18242F8E7C0
:1014B00030B4012464054D00EC420BD85D00EC42D1
:1014C00008D80C001C4364000443144304D28B422C
:1014D00000D1824230BC7047FCD09942FAD1904290
:1014E000F8E7FEE7F4464A1805D200F00FF801D5F8
:1014F00080174008604700F009F80121C9078842B9
:1015000000D90800404260474A1812D2400DC90273
:1015100008430121C9070843520D40210901521A0D
:10152000521C06D452421F3201D4D0407047C0171B
:10153000704700207047FEE7010042221201D21ED0
:10154000004207D002D4521E0018FCD5C10A400543
:1015500012058918704700000100EED54042F4469C
:10156000FFF7EBFF0122D207114360478B4200D106
:10157000824205D98446100062468C4619006346B3
:10158000DF184C18640D7F0D3AD0661C760537D0F5
:10159000E61B352E34DCDB022B43DB0A0C0DC902C3
:1015A0002943C912202E0DDB1700203E06D01F0054
:1015B000F741F3405F400026012A7741C01871418E
:1015C0000DD217E01700F741F2405740F3415A405F
:1015D000B340F3405A400026801859410AD3A21C58
:1015E00052050FD0C207012F724117004008CB07E8
:1015F00018434908641C24054208AF417041614109
:10160000F0BC7047641C21050020F9E76B4010E036
:101610006B40ABE7F742F3D1E943F1E72442EFD166
:1016200000200021ECE7F0B40125ED070F005F403A
:10163000EED40C00871A9C4105D2C01BA141D219DF
:10164000634169406B40AE0ADF184C18F442E1D2A6
:10165000640D7F0DE2D0E61B362ED1DCDB022B437E
:10166000DB0AA4460C0DC9022943C90A012E28DC55
:1016700004D1D6075208DF073A435B08EF0A7642E7
:101680009041994114D039423BD1B619404149416A
:10169000761C394204D1761C001849413942FAD0EF
:1016A000B9436746B74208D9A41B24052143A7E7DD
:1016B0000042EAD13642E8D1A2E7E40AE10700207D
:1016C0009EE7202E0BDD203E1F00F340F7415F40D8
:1016D000012A002257417E42984191410BE01700B8
:1016E000F741F2405740F3415A40B340F3405A406B
:1016F0007E42904199410A0303D2641EB6194041CB
:1017000049410027641E24054208AE4178416141E9
:10171000F0BC7047F446002804D4494200F013F8A6
:10172000404260474042002905D45FD000F00BF8EA
:10173000404249426047494200F005F8494260474B
:1017400003460B43E6D40022030A8B420BD2030963
:101750008B4219D243088B422ED2411A00D2014645
:10176000524110467047FF2209023FD012068B42B9
:1017700005D3121209028B4201D312120902030986
:101780008B4219D300E0090AC3098B4201D3CB0174
:10179000C01A524183098B4201D38B01C01A5241B6
:1017A00043098B4201D34B01C01A524103098B42BA
:1017B00001D30B01C01A5241C3088B4201D3CB00A5
:1017C000C01A524183088B4201D38B00C01A524188
:1017D00043088B4201D34B00C01A5241884200D3C8
:1017E000401A5241CFD201461046704708B5C04654
:1017F000C04608BDF0B40E005E400125ED072E4046
:10180000B446AE0ADF184C18F4423BD2F74241D23C
:10181000640D43D07F0D38D0E41BC902DB0229439D
:101820002B43CF0ADB0A0600B61A9F4104D2641E7E
:10183000B6197F41B6185F416812800D2418001850
:10184000844222DAE80C0021B6197F41B61A9F4182
:1018500002D2B6185F413F1C40414941F4D3241CD9
:1018600021DD2405B6197F41B61A9F4105D33743C0
:10187000C60737430026012F704161416646314358
:10188000F0BC7047FCD1F74205D20020C1434905A6
:101890004908F3E704D00020C143F1E77F0DFAD0F7
:1018A00000206146ECE72442FAD1401C61410F035D
:1018B000F6D30020E2E7FEE7094214D088420FD3B6
:1018C0000122030C01D100041204002300185B4123
:1018D0008B4200D35B1A5241F8D3190010007047B5
:1018E00001000020704708B5C046C04608BD80B55D
:1018F000012000F001F801BD202109032631182044
:10190000ABBEF9E700280FD092490968BC4A00BF76
:1019100000BF00BF00BF00BF00BF00BF00BF9142BB
:1019200000D000BF0138F2D1704738B58020800266
:101930008949086089488021490201640160B14CED
:10194000012525602F20FFF7DDFF6560AE4C0025E7
:1019500025612F20FFF7D6FFA57231BDF8B5AA4C3F
:101960002578E0680090002217E00800C969002986
:1019700013D0B942F9D1884207D1F669E660002E4A
:1019800003D1A24E33602261E3720B68C969C16161
:10199000002902D00868C0180860E6680123617851
:1019A000E8B2884218D06068EDB218216943401847
:1019B0006D1CA778E9B2B94200D10025017802294F
:1019C00002D003290FD0E8E7476830000100CEE7D6
:1019D0000274C069E06006E00098864201D00120F0
:1019E000F2BD0020F2BDE0680028D6D0F0E7F1B5E6
:1019F00081B0854CE0680090002300E0E260E06880
:101A00000121019A002A2CD122786578AA4250D06F
:101A1000656818265643AD19521CA778D6B2BE4247
:101A200000D1002222706A682E78012EECD1167C3B
:101A3000002EE9D1AE685660EE6896602E69D660D9
:101A40006D699561E57A002D00D05360556826696F
:101A5000AE1B3602360A924FBE4205D29568751902
:101A60000AE0D5690195F1E72669751B2D022D0A5B
:101A70009668B54202D2751B156000E01360536092
:101A800093601174D3610028B8D001681568A94229
:101A900003D3491B0160D061B0E701000E68AE427C
:101AA0000CD2AD1B0800C969002909D0F6E7002057
:101AB000F6BD009A9042FAD00120F6BD761B0E606A
:101AC0001560D161C2619AE7FEB54F48C068002831
:101AD0003DD000680290734C206800904A4800692D
:101AE0000190714D00980199461A2E40F61C8027EE
:101AF000BF024548807A002810D16E4879080164F9
:101B000001606D4807606D48076001206C490860FE
:101B10002F20FFF7F7FE01203B498872029886428A
:101B200000D20600019880192840E0632168009ADD
:101B3000801A2840891A0D40ED1CA84209D220685D
:101B4000E0632F20FFF7DEFE5E480760F7BDFFF77A
:101B5000ECFEF7BD1000002080E100E0081301401A
:101B6000FEB500200090284C20690190E1680291A8
:101B7000217A627A91420DD0491CC9B2022900D162
:101B800000218A00A2185769C0190002000A2061CA
:101B9000012501E0002700252172FFF7DFFE060086
:101BA000E068002D1CD000210FE07F1B49190025A3
:101BB0001D600090D869DD68002D07D0019E761861
:101BC0003602360A5E609D60DA61009A002815D000
:101BD00003001D68AF42E8D20092E91B196001269C
:101BE000E0600098FFF703FF002801D1002E02D02B
:101BF0000298FFF769FF0020E072F7BD0092EEE760
:101C00000024F400041001407C070020081001406B
:101C1000F8B52E480027076447648764C7640760E7
:101C20004760294EF568002D37D000241D48006814
:101C30003169401A0002000A009028680099814228
:101C400018D3091A009124182800ED69017C002995
:101C50000ED0077442698169F369002B06D0100029
:101C60009847002804D000F033F801E008009047BE
:101C7000002DE2D1707A317A814205D1401C707218
:101C8000C0B2022800D1777230001430717A890016
:101C90004450802040030B490860F1BD0000000063
:101CA000FFFF7F0004150140FFFFFF0080B5FFF735
:101CB00057FF01BD0413014080E200E000E100E0B5
:101CC0000010014000E200E07C070020001101400C
:101CD00010B584B0040068460C2100F031F802947D
:101CE0006A460021014800F02DF81FBD01400000A8
:101CF0001206130A1A43130C1A4300BF094205D0F7
:101D0000830705D00270401C491EF9D170470000BE
:101D1000130030B414001500103902D310393CC040
:101D2000FCD2490700D30CC000D504C0890002D3FF
:101D30000280801C002900D5027030BC7047000072
:101D40000022E5E780B50A49012000F06DF800F0B7
:101D500027F800F0D7F80028FBD100BEBFF34F8F63
:101D6000044805490860BFF34F8F00BFFDE700BF7F
:101D7000CC3000000400FA050CED00E070B5060060
:101D8000002000F077F9040008D100F0B2FA050055
:101D900000F0ADFA3200290000F007F8200070BD15
:101DA00080B5012000F066F902BD80B52A4AFF2304
:101DB000936000231360536000F001F801BD274ACF
:101DC000106051607047000070B50C00461C012582
:101DD000002000F0A2FA2249086820608A680B6897
:101DE000501CC01A4C680419701C84420ED2002C7E
:101DF0000AD01A409000081808A29202292313431F
:101E0000C3600868401C0860002501E0981908605C
:101E1000002000F08DFA280070BD00004F7665723A
:101E2000666C6F770D0A0000F8B506000C000C4DCB
:101E3000AF6869460020FFF7C7FF00280AD0009866
:101E40000740B80028187107890EA2020A43012131
:101E50001143C160F1BD000094000020A4040020E3
:101E600094000020F4B584B007000E001C007C4DE7
:101E7000A8680190E01C69464210920F101880106B
:101E8000401CFFF7A1FF00283AD0029678A0016815
:101E900022002B000C330098019E0640B000714ECA
:101EA0000E4079078F0E374391053943195000983A
:101EB000401C009028000C300099019B0B409900B9
:101EC000029B43500098401C009001460198084036
:101ED000A968491C091A8E0029000C3180000818D5
:101EE000964201D3049909E032000499FFF7A2F960
:101EF000A21B92B20498811928000C30FFF79AF9BE
:101F000005B0F0BDF0B58DB0554C616820688142D8
:101F100000D19FE0A76820000C303A000A409200F0
:101F200080584E1C0322079109E06818361807965E
:101F300020000C303900314089004058761C83095C
:101F40009905890D850D1042EFD0059706906846DA
:101F5000069FBF067F0F07748220C00020180190E3
:101F600006980240022A4FD120000C30059A3240D8
:101F700092008258761C0B960A910B99059808409E
:101F80000599491C091A890023000C338000181890
:101F9000019B5B680993A94216D2002905D1200054
:101FA0000C3008902800002304E00890080023006B
:101FB0000C33691AC9B203910293C0B20190089818
:101FC00000900A9B002105E00021039102910195F8
:101FD00000900A9B6846007C099EB047A84204D145
:101FE0000B98ED1CA90845182FE021000C31079A29
:101FF000059B13409A00069B1B4D1D4080011B4B07
:1020000003402B438B5021E007A80699890A0291CF
:102010001907090F00223500059B09E026000C3640
:102020001F002F40BF00F65906606D1C001D521C9A
:102030008A42F3D3009107AB029A00216846007CE4
:10204000019E3668B047002800D06560606821684E
:10205000884201D1002000E001200DB0F0BD000059
:1020600094000020C3FF3F003F00FFFFC0FF0000BF
:102070000200000038B505009F4C2078002802D0EF
:1020800061788D4204D000F017FA0120207065704D
:10209000002032BDF8B500250A2607000C002200FA
:1020A0007919002000F0D8F92D18241A002801D140
:1020B000761E01D0002CF2D10120F2BD002901D5FD
:1020C000002070470268511801600120704700002D
:1020D00038B503000D0014000120002B0AD01B6846
:1020E00088A20102280000F0F3F901002000FFF7A8
:1020F000E5FF32BD0021216032BD0000F0B5C7B060
:10210000080016001D000024059405AA06A9FFF783
:10211000DFFF002846D04C992800350006AA059B11
:10212000D7188026760006292ED801A2525C974443
:102130000622423E3A3632002800FFF761F80400DA
:1021400005982018B0421FD2220029003800FFF75E
:1021500071F819E003682A000598311A380000F078
:10216000B7F910E04169049101690391C1680291D6
:10217000816801914168009103682A000598311A2D
:10218000380000F0A5F90400210005A8FFF796FF2C
:10219000002807D00598B04204D8014606A8FFF7EA
:1021A00079FF00E0002047B0F0BDF0B5C7B00800EF
:1021B00014004F990022019202934D9A51180591F3
:1021C000002801D00A2100E000210391002B16D144
:1021D00001AA06A9FFF77CFF002871D02000FFF7B5
:1021E0000FF80500C22D00D9C2252A00210006A83B
:1021F000019BC018FFF71EF801984019019006A82E
:1022000001994418039A8918451831351046002859
:1022100006D0202201462000FFF76AFD039824180B
:10222000102602980599884207D3202020706070FC
:10223000A070E41C28706D1C28E04D998842684607
:1022400002D24C99029A03E04E99029A4D9BD21AFF
:10225000895C0170022069460F780100481E002940
:1022600030D081003A00CA401107090F0A2901DA6B
:10227000303100E03731621C4342D154EDE768460B
:102280000078049908700298401C0290761EC8D10C
:102290000D2028700A206870202020700198039972
:1022A000433140180190014606A8FFF7F3FE0028CD
:1022B00005D0002001900298059988429FD302988A
:1022C00047B0F0BD2020A070E41C04956D1C3800C0
:1022D00020385F28D3D3380000F020F90028CED171
:1022E000380000F024F90028C9D12E20C9E703489E
:1022F0007047034870470000E0070020FD20000001
:10230000AB2100005B253038645D000007480168A0
:10231000491E016000D162B6704700BF72B6034823
:102320000168491C0160704700000000D8070020C8
:1023300080B5FFF7EBFF01BD10B55D4C02202061B9
:10234000606100BF11A0A06121007831E1618021AE
:10235000890021620021A1626162E162A0649E2085
:1023600080002018E06410202065A1656165E165AA
:10237000042250A1E01DFEF75DFF072206A1200008
:10238000FEF76CFF2020A07110BD00005465726D37
:10239000696E616C000000005345474745520000DC
:1023A000F0B583B00026C76801900C0015000198B5
:1023B000006901998968C91B874201D2C01B00E0EE
:1023C0000818401E884200D30800A84200D92800FF
:1023D00000900246210001984068C019FEF72AFFCC
:1023E0000098361824182D1A3F18019880688742E3
:1023F00000D100270198C760002DD8D13000FEBD64
:10240000F8B504000F001500E668A068801B009076
:102410006068801900998D4205D23900FEF70AFFE5
:102420007019E060F1BD0A463900FEF703FF00981D
:102430002D1A2A0039186068FEF7FCFEE560F1BD30
:102440000169C2688A4204D38068401E801A40181D
:102450007047881A401E7047B0B50F001400144929
:10246000182250430D1818356869002803D0022837
:1024700013D006D318E02800FFF7E2FFA04206D2EF
:1024800012E02800FFF7DCFFA04200D80400220081
:1024900039002800FFF7B4FF07E0220039002800C8
:1024A000FFF77EFF040000E000242000B0BD000024
:1024B000AC0400205254540004480078002800D096
:1024C000704780B5FFF738FF01BD0000AC04002065
:1024D00008B410B585B007AB049300240394002919
:1024E00002D10194029402E00190491E02910094ED
:1024F00004AB01A9084878441E30FDF7E1FD0199BD
:10250000002900D00C70002800D4039805B0019970
:1025100010BC02B0084700BF4D0B000010B504000E
:10252000FEF7F9FD010020000969884710BD10B5CC
:102530000400FEF7F0FD01002000C969884710BDC6
:1025400030B5039D049C52000A43990011432A02AE
:102550000A4321041143B74A8000115030BD00B531
:1025600083B0002101910091002301220121FFF796
:10257000E7FF07BDF0B585B00700AF487B795B0189
:10258000C0180290007E002801D008208AE00D00CB
:10259000029802600124297801208840297B0129C2
:1025A00002DCA649486001E0A4490860A1482978F6
:1025B0008900445068780026F643FF2808D003902D
:1025C000012181409D4841600398FFF7C8FF00E06A
:1025D0000396A878FF2809D00600002001900090FB
:1025E0000023002200213000FFF7AAFFE878FF282F
:1025F00006D00121814091480160E878FFF7AFFFE4
:102600008D48797949014018E978817638682978C8
:10261000A022D200821891600399A022D2008218D1
:10262000D160A021C90041180E61A968A022D20082
:10263000821851622B7B6A7B002A00D00122042180
:10264000012B09D00BD3032B01D003D307E01300D8
:10265000062203E00A4302E0130002221A43A023E9
:10266000DB00C3185A65744A7B795B01D2186B7919
:10267000D376029A1268002A02D0C12292008150B9
:10268000A021C900445002980068002804D029798C
:102690000420385600F0DAF80020029948760298B3
:1026A0000476002005B0F0BD1FB5069C0091029392
:1026B00069460A710C73002200F068F804B010BD7E
:1026C00038B5A322D200801802686B461A700A7FC0
:1026D0000B7D9A4203D26B461B780C69A3540A7F88
:1026E000521C0A77D2B2531C9BB20C7BA34202DA73
:1026F0008968C95C03E00D7DAB4202DAC97E4160A6
:1027000006E01000A04203D3AA428041C00F32BDB0
:10271000012032BDF8B500250D770423C124A400A3
:102720000419636084246400061935601479002C50
:1027300002D01468247800E0CC7E414FC7193C6079
:102740001479012C02DD1268527803E0127B012A11
:1027500001DDCA7E3A600A68002A03D0C1218900DF
:102760004350F1BD07000C0030680028FCD03560F4
:1027700021003800FFF7A4FF0028F5D1A07EFF2834
:1027800003D0012181402D480160F1BDFEB5040058
:10279000294863795B01C51800260096687E0028E9
:1027A00001D01120FEBD019201272868002804D025
:1027B00010461422024000D16F76029128000830A2
:1027C0001022FEF74BFD687FFC2101406977A87E4F
:1027D000FF2802D087401B4807600198002803D0DB
:1027E0006E760620009004E0029A29002068FFF728
:1027F00091FF0098FEBD38B50C00002584214900EA
:1028000045502100FFF75CFF00280BD1A07EFF2878
:1028100003D0012181400948016065762571201DA2
:102820002168884731BD80B503490748FFF7E3FFBA
:1028300001BD0000000700509C0700200805005063
:102840001C0500000C0500500030004018B5C20007
:1028500018231340FF249C40E2438907090E994046
:10286000030007D50C4B0407240F083CA408A40060
:102870001B1903E0094C83089B00E3181C682240E5
:10288000114319600121C006C00E81400448016057
:102890000448016011BD00BF1CED00E000E400E051
:1028A00080E200E000E100E01A49401800680128D9
:1028B00000D000207047A022D20580001018E0222E
:1028C000D20080180268144B1340036002680904A8
:1028D000114301607047000038B56B4608A42568B5
:1028E0001D60030008E06C469D006459A225ED00C0
:1028F00064591460121D5B1C4418A342F3D331BD0C
:1029000000000050012243075B0F9A40C008085C9A
:102910001040704700600040FFFFFCFFF0B585B03D
:1029200000246846046080256D000126042728B233
:10293000FFF7BAFF002809D053480068304005D09F
:1029400000202DB2534969180860344376002D1DCC
:102950007F1EECD1260080273F06BE204000FFF7F7
:10296000A3FF002807D00020494908603E436A467B
:102970000121FFF7B1FF300715D0012400253442B3
:102980000DD0A90041484218106813683D4A5258BA
:10299000110004D09903890FC004C00E9047640051
:1029A0006D1C042DEBD337406AD002A800210160D2
:1029B0000020C04301E0009002980190002404949C
:1029C00030480499401840214056C5B22F00C0211C
:1029D0008F430021C943884242D001A93800FFF744
:1029E00091FF00283CD02806800F03902548C1198C
:1029F00020228956890046583000039802D10328C6
:102A00002ED101E0032809D1F80802A9081801789D
:102A100001227B075B0F9A400A4302701E48B900EF
:102A200040588003850F69463800FFF76BFF002888
:102A300002D0022D14D101E0032D11D103980328F7
:102A400008D1022D01D1032100E002213800FFF757
:102A500032FF641C300003D00399C9B23800B0477C
:102A60000498401C04900428AAD3240608D003AA82
:102A700001210020FFF730FF0398009988429AD186
:102A800005B0F0BD3407002004630040106500402D
:102A90007C61004000600040000700504058002862
:102AA00004E0C122920080580140080000D00120BB
:102AB000C0B2704700228E235B00C2508A688B8AA6
:102AC000D25C8B8A5B1C8B8219494250704718B5C7
:102AD000A322D200821884235B00C0180023CC7D7F
:102AE000002C036001D1106811BD487E1268CB68CC
:102AF0001A54487E401C487611BD1FB50300684635
:102B0000012404700172019219685A6890471FBD30
:102B100000B585B0020000206B46187019729168EC
:102B200001919075116868465268904705B000BDE4
:102B30001C050000F0B585B006000C008125AD0035
:102B4000002780218900FFF7ACFF002826D09221C2
:102B500049003000FFF7A2FF00281FD08E20400060
:102B600030188760C22080003550A07E002801D137
:102B7000012070606846022101709021C90071181F
:102B80000A680A600392E17D0172E0680190E775CE
:102B9000277621686846626890472DE0042130005E
:102BA000FFF77FFF002827D0842149003000FFF77E
:102BB00075FF002820D021003000FFF788FFE07D5E
:102BC000617E884218D1207E002807D0E268617EAD
:102BD000E0752069E060277667760AE0A07E00282D
:102BE00001D101207060C22080003550E775E26895
:102BF000617E2000FFF781FF8E2149003000FFF742
:102C00004DFF002811D0A08AA17D884204D2210066
:102C10003000FFF74FFF08E08E2040003750A17DC5
:102C2000002902D02000FFF773FFA22149003000E5
:102C3000FFF734FF002811D08E2040003018876243
:102C4000A07E002801D001203060E07D002805D062
:102C5000E775E268617E2000FFF74FFF05B0F0BD29
:102C600080B502490248FFF765FF01BDBC0700209F
:102C70000020004010B5434C0120207046A10320E5
:102C8000FFF7D2F8207900280AD000BF4AA103201C
:102C9000FFF7CAF80123221D4DA10320FFF7E2F838
:102CA00010BD01B582B013000091012202A90BE012
:102CB00000B583B001AA8023034313705170002034
:102CC00000900023022201A94AA0FFF7EDFC0EBDEF
:102CD00010B586B000F0D0F80020FFF74FF80028BC
:102CE00001D0FEF7F5FF00BF3CA10320FFF79CF8E1
:102CF00001A800BF41A11022FEF7B0FA01A80421EB
:102D0000C1700321817002214170012101701E4AAE
:102D100001A900BF37A0FFF72DFC00281DD0FEF74A
:102D2000D7FF1AE020BF20780028FBD0FFF7EAF891
:102D30000028FBD100F094F814480168144A1548A3
:102D400000BF00BF00BF00BF00BF00BF00BF00BF8B
:102D5000914200D000BF0138F2D10A4C002020700F
:102D600000210120FFF7A4FF88210120FFF7A0FF29
:102D70006078694608706A4601210120FFF791FFDB
:102D8000D1E7000000000020752C0000100000209A
:102D90000024F400400D03004150503A494E464F84
:102DA0003A5472616E7366657220636F6D706C6504
:102DB0007465642E0D0A00004150503A494E464F4A
:102DC0003A2052656365697665643A200D0A000011
:102DD0004150503A494E464F3A0D0A004150503A40
:102DE000494E464F3A535049206578616D706C6585
:102DF0000D0A00000030004003000000FFFFFFFF4D
:102E000003FF0000000000400000000030B5039DFB
:102E1000049C52000A43990011432A020A432104E8
:102E200011431F4A8000115030BD81B00122824001
:102E30001C48002901D1426000E0026001B07047E7
:102E400080B5012119A2105CFFF7EFFF01BD10B59D
:102E500000242000FFF7F4FF641C042CF9D310BDFC
:102E600012A1085C10490A680123834018009043AE
:102E7000486013408B60704730B583B0002400BFBA
:102E80000AA5002001900090002301220121285D65
:102E9000FFF7BCFF641C042CF3D3FFF7D8FF37BD4A
:102EA00000070050080500500405005015161718BB
:102EB00018B5F0200F2228490B78012B1BD14B6845
:102EC000134018D18B68034202D1CC6804400CD067
:102ED000F0241C40102C02D1CC68044005D00340E3
:102EE000302B08D1CB68034005D11C4B1C4C236010
:102EF000E30B1C4C23600B78012B0CD14B68134067
:102F000009D18B680340402B05D1CB68034002D127
:102F10000123154C23600B78012B1BD14B681A4001
:102F200018D18A68F0231340A02B02D1CB6803404C
:102F300005D00240D02A0DD1C96808400AD10B48FB
:102F40000168012904D00A49016001680129FCD106
:102F5000C021416111BD0000E00F00F0DFFF07C09C
:102F600004050040186C00400806004000EC0640D4
:102F70007593000070B401000123002413E00A6877
:102F8000091D1A4202D04D466D1E52191460121DC1
:102F9000001F0428FAD21500860701D51480AD1C45
:102FA000184000D02C700868091D0028E7D10800DF
:102FB00070BC704730B501684118446862088A18CF
:102FC0008368E4070DD54C461B190AE00C7864B2FF
:102FD000491C0D78491C1D705B1C002C05D5641C18
:102FE000F9D19142F2D10C3030BD641EF1D5F8E731
:102FF0000321064802680A430260054802680A4342
:10300000026004488047044800470000240500404F
:1030100054050040B12E0000F530000010B50749FE
:1030200079441831064C7C44163404E0081D0A68C3
:10303000891888470100A142F8D110BD080000009E
:103040002400000031FFFFFF500700009400002023
:103050000000000061FFFFFFD0000000CE00000074
:10306000000000208268521C82604268002A06D05C
:103070000268531C036011704168491E416070472B
:10308000FF2902D90020C04370470170012070471A
:103090000078401E8041C043C00F70470120C046E9
:1030A000002801D0FFF7BAFF002000BF00BFFFF7E4
:1030B0000FFE00F000F880B500F002F801BDFEE759
:1030C00007463846FEF718FCFBE7FEE74150505F25
:1030D0004552524F523A4552524F523A46617461EC
:1030E0006C0D0A006E616E004E414E00696E660006
:1030F000494E460000BF00BF00BF00BFFFF7CEFF34
:1031000000002E004300FEE7FEE7FEE7FEE7FEE7D5
:10311000FEE7FEE7FEE7FEE7FEE7FEE7FEE7FEE787
:10312000FEE7FEE7FEE7FEE70100FFF1000424F4FE
:10313000000031FD000031FD000031FD000031FDD7
:10314000000031FD000031FD0002310000F8FF01F8
:103150000231FD000031FD0002310000FAFF0600DF
:10316000000431000001FD000314000020FC0001F8
:10317000DF10FA0005D9100000F510FA0001DD108B
:0F318000F200019130FA00048130000001F900E3
:04000005000030F5D2
:00000001FF
