:020000040003F7
:10AC00002040002035F603009FB6030023E0030038
:10AC10000000000000000000000000000000000034
:10AC20000000000000000000000000004BE10300F5
:10AC300000000000000000005FE40300BFEB030021
:10AC4000AFF00300FFF603000BF703002DF703003E
:10AC50002FF703000000000031F7030033F7030073
:10AC600035F7030037F7030039F703003BF703001C
:10AC70003DF703005DF403003FF7030041F70300D5
:10AC800043F7030021D7030045F7030047F703000C
:10AC9000B9D7030049F70300D5D103004BF70300F0
:10ACA0004DF703004FF70300000000000000000014
:10ACB0000000000000000000000000000000000094
:10ACC00010B543689C184460002908D003E0187848
:10ACD00008705B1C491C1000421E0028F7D101209F
:10ACE00010BD30B585B00400150000290FD12068D3
:10ACF000214A90420BD000E0103D102D18D91022AF
:10AD000069462000FFF7EDFF0028F5D10EE0A068AE
:10AD1000A84201D2002009E02A00200023689847B9
:10AD2000002803D0A068401BA060012005B030BD02
:10AD300020002A006946FFF7D4FFF7E710B50400AA
:10AD4000A068002809D00122200023689847002825
:10AD500003D0A068401EA060012010BD00B585B0E2
:10AD6000054B009301910292002103916946102244
:10AD700000F06AFC05B000BDC1AC0300F0B583B0C3
:10AD800004000E006946FFF7D9FF002822D068466C
:10AD90000078000604D46846047834600120FEBDC3
:10ADA00007257F27684600783840019404006946EB
:10ADB0000198FFF7C3FF00280CD0684600783840A0
:10ADC000A84020430400ED1D684600780006E4D545
:10ADD000202DECD30020FEBDF0B583B00F0000267F
:10ADE00000240025019069460198FFF7A7FF00287D
:10ADF00012D0684600784006400E0021320000F074
:10AE00003DFC2043294304000D00F61D68460078F0
:10AE1000000603D5402EE6D30020FEBD30C701203A
:10AE2000FEBDF4B582B004000E001F000020387093
:10AE3000307002990860012569462000FFF79EFFE7
:10AE4000002805D1A068002800D13D700020FEBD7B
:10AE50000098002801D13D70FEBDC008029908602D
:10AE600000984007400F30700120FEBD20B582B031
:10AE70000500002906D0012911D0022911D0052989
:10AE800018D01CE0012269462800FFF72AFF00289D
:10AE900016D0684600780006F4D4012026BD0822AA
:10AEA00009E06946FFF76AFF002809D0009A0021EF
:10AEB000280001E004220021FFF713FF26BD002037
:10AEC00026BD38B504000D006946FFF757FF00287E
:10AED00010D028002100102200F0B6FBA8680099CD
:10AEE000884201D2002032BDA960A0680099401AB2
:10AEF000A060012032BD0000F0B587B00500080059
:10AF0000140061684A780F230F261640009600BF90
:10AF100033A6009FBF00F65901960126302717403F
:10AF200008D0102F04D0202F06D0302F3CD051E075
:10AF300060690670226949E0022829D10098042836
:10AF400026DC68460670666902A92800FFF7B9FF8B
:10AF5000002842D13FE03078401C3070049800282F
:10AF60000ED0307879684A79904209D23A690B79E3
:10AF70004343D21802A8A0470028ECD169460870C4
:10AF8000039868600498002824D16846007822E07D
:10AF90006069037822690E795E43921949798B4280
:10AFA00018D25B1C037010E00878616908701340C8
:10AFB000072B09D160680179206900F09FFB2169A6
:10AFC0006068806800F01DF9226961682800019BB3
:10AFD000984700E0002007B0F0BD2700019CBDE7C6
:10AFE00023B403007DB40300DBB403003DB50300CC
:10AFF00047B5030051B5030097B50300DBB5030067
:10B0000000000000F0B589B0040016003769386808
:10B01000002803D12000FFF729FF44E0022913D1C3
:10B0200069462000FFF74DFF00281ED03A1D7168C9
:10B0300068463B689847002817D002980028F5D149
:10B040000198606001202EE06D4600290FD0012993
:10B0500003D0052909D1042500E008252A466946C0
:10B060002000FFF73EFE002813D100201BE00394D0
:10B070000024641C0B2CF8D2012229000398FFF74E
:10B0800030FE0028F1D02800451C00780006F0D4DE
:10B0900025002A00694604A8FFF760FE3A1D716882
:10B0A00004A83B68984709B0F0BD10B553685B78B9
:10B0B000C0241C4002D0402C03D005E0FFF71CFF49
:10B0C00010BDFFF79FFF10BD002010BD70B505003B
:10B0D0000C002068866862683100280000F012FBCE
:10B0E0006068286120000C3068617078C0210140E0
:10B0F000802901D1201D286170BDF0B589B01B6980
:10B100001C688368050000911600019300E0A468A4
:10B11000002C20D00198A96888421CD120680768BB
:10B12000002F05D03300009A21002800B8470FE017
:10B130008068007800998842E9D1210002A8FFF7D1
:10B14000C5FF0120207302AA31002800FFF7ADFFE0
:10B150000028DCD100E0012009B0F0BD30B587B097
:10B16000416800914A7800250F210F231340082BD6
:10B170000DD100690468002C41D025732100684678
:10B18000FFF7A4FF6846FFF7E9FFA468F3E7C023D1
:10B1900030241A4225D130231340102B0DD142699F
:10B1A0001570009A936800695278114007290CD1F4
:10B1B0000100180000F025F821E030231340202B77
:10B1C0001BD01440302CECD117E000990979002BEA
:10B1D00004D00A00190000F023FA10E000F08EFA03
:10B1E0000DE01340802B0AD101690D603021114020
:10B1F000202902D01440302C01D14069057007B0DD
:10B2000030BD00B587B00A000100684600F07AFA48
:10B21000002807D06846FFF7A1FF684600F084FACF
:10B220000028F7D107B000BDF0B58BB0040002A82C
:10B230000023002528C0002700F064FA0026F6430A
:10B24000A068002839D000AB5B1C01AA6946200029
:10B25000FFF7E7FD00282CD0019904A800F0A5FA1B
:10B26000002841D10198B8421DD3059D0598417829
:10B270000907090F082935D004A800F055FA0598E8
:10B28000A842F3D137000198B8420CD3A56804ABAB
:10B290006846027801992000FFF72FFF00285AD056
:10B2A000A0688542CCD1684601782000FFF7DEFD1A
:10B2B0003CE06846407800284DD0069D05984478CB
:10B2C00004A800F031FA0028F7D13020204004D142
:10B2D00005980078002800D06D1C002D3DD000217D
:10B2E00068092CE00778CEE70598407830210140C6
:10B2F0000DD1069840280AD202A942099200891865
:10B300000A680123C006C00E834013430B60E56842
:10B31000002D05D004AB6846027801992000A847AB
:10B3200004AA684601782000FFF7BFFE002887D1F5
:10B3300011E002AA8B00D258B2420CD1491C8142C2
:10B34000F7D302A9800008582021EA06D20E891AF4
:10B35000CE40B04201D0002000E001200BB0F0BD93
:10B3600070B505000C00160031002000FFF749FF02
:10B37000320021002800FFF757FF70BD1CB50C00FC
:10B380006946FFF729FD00280DD0684603C840082C
:10B39000CA07104349086A460CCAD20701D5C04300
:10B3A000C94303C4012016BD10B582B00C000422AD
:10B3B0006946FFF796FC00280CD068460178427871
:10B3C00012020A43817809041143C0780006084339
:10B3D0002060012016BD30B583B00C0008226946FC
:10B3E000FFF77FFC00281BD022006B461C785878A2
:10B3F000000220439C7824040443D87800062043AC
:10B400001D79040058790102200029439C79250404
:10B4100004000D43D87901062000294303C201200E
:10B420003EBD30B583B00C0015006946FFF7D4FC73
:10B43000002822D02279082A684603C807D103C50C
:10B44000083D0CCD8B4215D1824215D012E0C117B8
:10B45000042A03D128600246D317F3E7022A03D156
:10B4600028800022AA5EF7E7012A03D12870002273
:10B47000AA56F1E700203EBD01203EBD30B583B0A5
:10B480000C0015006946FFF7A7FC002824D020799E
:10B49000082809D1684603C803C56A460CCA994200
:10B4A00017D1904217D014E0042804D1684603C88D
:10B4B00028600021F1E7022804D1684603C82880EB
:10B4C0002888F6E7012804D1684603C82870287840
:10B4D000EFE700203EBD01203EBD30B583B00C003B
:10B4E00015006946FFF74AFF002826D02079082872
:10B4F00009D1684603C803C56A460CCA994219D1E6
:10B50000904219D016E0042804D1684603C8286088
:10B51000C117F1E7022805D1684603C8288000203A
:10B52000285EF5E7012805D1684603C82870002089
:10B530002856EDE700203EBD01203EBD80B511003C
:10B54000FFF732FF02BD80B51100FFF744FF02BDD7
:10B5500070B582B006000C0015006946FFF70EFCBE
:10B56000002817D00098FF280BD8401C009988426B
:10B5700007D36178C0220A40802A02D02179814213
:10B5800001D2002076BD00982870009A691C300016
:10B59000FFF7A7FB76BD70B582B006000C00150062
:10B5A0006946FFF7EBFB002816D00098401C009975
:10B5B000884207D36178C0220A40802A02D02179CC
:10B5C000814201D2002076BD009A29003000FFF7A9
:10B5D00088FB0021009AA95476BDF0B585B005001E
:10B5E0000C001600A7686946FFF76BFC002802D024
:10B5F000A068002801D1002010E0320060783021DE
:10B600000140202904D139006846FFF7A9FE03E074
:10B6100039006846FFF708FE0199696005B0F0BD82
:10B62000124207D08B0706D00B78491C0370401CD0
:10B63000521EF7D87047830706D00B78491C037059
:10B64000401C521EF9D1704770B4103A03D378C928
:10B65000103A78C0FBD2530701D318C918C001D5DE
:10B6600008C908C0D20704D30B880380891C801C3A
:10B67000002A01D50B78037070BC7047D2B2203A13
:10B6800003D301009140002070475242D041524202
:10B69000203291404140D040904041407047FEE709
:10B6A0001206130A1A43130C1A4300BF094205D0AD
:10B6B00083070BD00270401C491EF9D1704700006F
:10B6C0001206130A1A43130C1A4300BF130030B4B6
:10B6D00014001500103902D310393CC0FCD24907C0
:10B6E00000D30CC000D504C0890002D30280801CA6
:10B6F000002900D5027030BC704700000022D5E759
:10B700000022E3E70160416000218160C26041687E
:10B710008B78D21802610323CB56D2184261087885
:10B72000002800D001207047F8B5426811000B785E
:10B73000002B08D00C3242601378002B05D1C26870
:10B740000168FFF7DFFF0020F2BD0B794C78250080
:10B75000302630272F40302F0AD157783740302FEE
:10B7600006D1002304698D786F42E41904610BE06F
:10B77000F0272740202F02D14C79634304E0C024F6
:10B780002C40802C00D104234978314202D18168B9
:10B79000491C81600169C9189378C91801610323A4
:10B7A000D256891841610120F2BD70B50C00456880
:10B7B000060070680178A14204D140780007000FAC
:10B7C000082807D13000FFF7AFFF7068A842F0D11A
:10B7D000002070BD012070BD80B500F0C9FBBFF333
:10B7E0004F8FAA48AA490860BFF34F8F00BFFDE7FB
:10B7F000A848416A491E4162704759688968A64A4B
:10B80000914206D18168B44A4068401CD061491E0B
:10B8100011627047F0B583B011001A0000260023B2
:10B8200000293DD00092002A3AD005002F0063374E
:10B830006320285C002802D07878012830D0287B4B
:10B8400000282DD028690B282AD1002000E0401CB8
:10B850002A7D904224DA8200AA1892699F4C2468BB
:10B86000A4B2A242F3D12920285C9D4A002805D029
:10B87000022808D00BD3032805D011E02B79002B28
:10B880000ED0936803E02B79002B09D0D3680028F1
:10B8900003D0801E012805D907E0A868984204D289
:10B8A0000A20FEBDA8688342FAD2787B0028F7D12F
:10B8B000784C8620C00020180190E0612020206292
:10B8C00023001C33009A052000F082FB0028E7D1FA
:10B8D0008A20C00020180090BA7B29007231FFF73F
:10B8E0009FFE00986061B87BA061230014332200A2
:10B8F0001C3200BF29A1042000F054FB002801D015
:10B900000520FEBDE662FF2080027649401A29210B
:10B91000695C002905D0022914D01AD303291ED04E
:10B92000BEE73820285C0028BAD0E86BE06220220D
:10B93000290043310198FFF773FEE06A002821D106
:10B940000320FEBD3021695C0029A9D0696BE1624A
:10B9500015E02A20285C0028A2D0E86AE6E730211A
:10B96000695C00299CD02A21695C002998D0696B08
:10B97000EA6A5318E362002AE2D00029E0D0884244
:10B98000D5D206E022002832002100F071FC002808
:10B9900001D00420FEBD0120FEBD000048F50300DB
:10B9A00040000000F8B5050001243A4E3D20285C17
:10B9B000032819D18620C0003018F06120203062A1
:10B9C00033001C33F26AB16A052000F001FB002845
:10B9D00000D00A24202229003F31F06900F094FCB5
:10B9E000002802D0052400E00A243D4F7869002891
:10B9F0000FD138001830012C2DD12521695C002988
:10BA000005D002290ED00BD303290ED012E001215C
:10BA100009E0012802D138002430ECE70A20F2BD09
:10BA2000A52103E0AA21816005E0AC218160A96A1B
:10BA3000796300E00A242521695C002903D0891E6E
:10BA4000012903D904E06968B96001E06968F96017
:10BA5000B96CF26A02E0002181600022416002605C
:10BA6000202138003830FFF74BFEFF22B22138008A
:10BA70005C30FFF725FE002038635F4800F0AEFC25
:10BA8000002800D00A242000F2BD00000400FA05BE
:10BA90000CED00E0A02C0020D8F003001FB55748A3
:10BAA000826B01005C316846FFF758F9544C200066
:10BAB00069461022FFF7C8FD5248E0600020E061AF
:10BAC0002062514A51492000FFF74AFC002800D06B
:10BAD000012004B010BD0000A02C00200C3000009C
:10BAE0005C34002000AC0300F8B50F0016000125FF
:10BAF0002802424C3978012908D0022919D003299B
:10BB00003AD0042933D006296CD071E0B9680029F5
:10BB10001AD0814201D90420F2BD002638494E7462
:10BB2000202120003830FFF7EBFD2663B868A063C2
:10BB30005FE0B8680090E06BA16B009A1218914228
:10BB400004D27060206CB0600320F2BD009A796866
:10BB500020185C30FFF764FDE06B00994018E0634B
:10BB600022004032B968786800F07CFC2064E06B09
:10BB70007060206CB0603CE0E06BA16B884201D04B
:10BB80000820F2BD1E48407C002801D00120F2BDF3
:10BB9000FFF784FF012823D10A251B487421415C4B
:10BBA00000291AD07A21415C012901D0052520E025
:10BBB00013490B6ACA697830FFF72CFE0600012E84
:10BBC00004D1002000F00AFC002812D13500012E1B
:10BBD0000FD101200A4948740BE00078002808D1F1
:10BBE0000520F2BD216CB160E16B7160306000E056
:10BBF00002252800F2BD0000D9B703005C34002004
:10BC0000A02C0020FBB70300B8350020C8F10300CA
:10BC1000F0B585B00F001600012069460870B44DDC
:10BC2000697C0203B34C387801280BD0022843D03A
:10BC3000032800D104E1042800D1FCE0062800D14B
:10BC400020E125E1B8680190002849D0BA48019B5D
:10BC5000034005D0636D019E9B19EE6AB3423FD14C
:10BC6000019B934233D800292BD0636DE96A019A76
:10BC70009A18914200D2E9E0E16CA164B96861646C
:10BC800023652363297C491C8907890F29740021B6
:10BC90006982696A491C6962A84AB9680818810AF8
:10BCA000A86AC01800F05EFC002800D1F3E0686AC2
:10BCB000401E68620520F0E0206D7060A06CB060EE
:10BCC000002900D1C2E0B9681009814201D90420DD
:10BCD000E3E0606C226D8A18636DD21A904201D243
:10BCE0000320DAE022004832786800F0BBFBA06451
:10BCF000206DB968401820657060A06CB060287C29
:10BD0000000203902818698A40187968BA6802927C
:10BD10006A8A029BD218FF2A07D81A463030FFF7EA
:10BD20007FFC688A029940184EE0802252006B8A9C
:10BD3000D21A92B201923030FFF772FC688A0199F0
:10BD4000401868820299019A891AB9607968019A43
:10BD500089187960696A491C696280B2C01C774B96
:10BD60004110890F081882102800303003994118BB
:10BD70008C46A96A206B0818614600F0BDFB0028BC
:10BD800004D1206B698A4018206309E0686A401E6C
:10BD90006862E06CA064606D20657060E06CB0600B
:10BDA000287C401C8007800F287400216982B968B4
:10BDB000019100296FD00A4679682B0030330002C8
:10BDC0001818FFF72DFC01986882688A002862D055
:10BDD000216B626D891A0918626C91425BD3696AA2
:10BDE000491C6962C01C554B4110890F081882100C
:10BDF00028003030297C09024118A86A276BC01935
:10BE000000F07AFB002804D1206B698A4018206377
:10BE100009E0686A401E6862E06CA064606D20659D
:10BE20007060E06CB060287C401C8007800F287434
:10BE3000002068822FE0206D7060A06CB0602AE066
:10BE4000206D616C626D821A914201D0082024E05D
:10BE5000002161646065A06CE064002000F0BEFA1F
:10BE6000002801D00A2018E0206DE96A884212D12A
:10BE700001E000F0C3FB686A0028FAD13048FFF700
:10BE800091FD06E0A06CB060206D7060326002E051
:10BE90000220694608706846007805B0F0BD38B5E4
:10BEA000012000F014FB002820D1114C6062114DDC
:10BEB000A86B002819D0FFF7F1FD002815D0286ADB
:10BEC000002803D1A86900280FD006E0E86A0028FE
:10BED0000BD1A869002808D0686AE06222002832E5
:10BEE000002100F0C5F901206074002032BD00007F
:10BEF000A02C00205C34002010B5124B0C78012CD3
:10BF000001D0062C0DD14C68E4B2012C01D11C707B
:10BF10000DE0022C03D11C70FFF77AFE10BD072044
:10BF200010BD1B78012B02D0022BF5D002E0FFF7E9
:10BF3000DBFD10BD052010BDFF030000F1B70300BD
:10BF4000343600208C2C002070B513481349401A59
:10BF5000C50800260020124CAE4208D22068F1002D
:10BF6000401800688047002801D1761CF4E770BDB6
:10BF700070B509480949401AC50800260020084C38
:10BF8000AE4208D22068F10040184068804700287F
:10BF900001D1761CF4E770BD2CF7030024F70300F1
:10BFA000842C002010B50C001100042801D00620BC
:10BFB00010BD6068402802D15868402801D009208F
:10BFC00010BD1B684A680968206800F063FB10BD5B
:10BFD00070B59CB00C001500052801D006201BE0B0
:10BFE0001E007068202801D0092015E0684600F086
:10BFF00048FC002810D12A002100684600F06CFCA3
:10C00000002809D101223168684600F090FC002820
:10C0100002D12020706000201CB070BD4018401E6E
:10C02000491E884370470021002200230EC0B048FB
:10C0300001634163016141617047F8B5AC49496AE8
:10C040000091AB49096BAB4A12685618009A551A11
:10C0500007008020C000854201D9044600E02C0082
:10C0600000220121300000F07DFA002837D10023A2
:10C0700022003900300000F03FFA00282FD12200C2
:10C080003900300000F09AFD002828D1002201215B
:10C09000380000F067FA002821D19548006B00199C
:10C0A00093490863002000F099F936193F192D1BB8
:10C0B000CFD1002200998F48006800F0D3F98C4955
:10C0C000896A884205D10121894A1162D0610098AC
:10C0D00090618948FFF7A7FF002000F07FF9F2BDCB
:10C0E000F0B583B004008248056B80204001281819
:10C0F00001907F48406B00908026F6003100401B85
:10C10000FFF78CFF07003100B808FFF787FF6619BB
:10C11000009900290FD08D420DD10020FEBDE41BF7
:10C120007348406B001B72490863002000F056F909
:10C13000002C03D1FEBD019D3C0007003A003100F8
:10C14000280000F019FD0028F4D13A003100280041
:10C1500000F034FD0028EDD1ED19F619BC42DED215
:10C160000024DDE770B50C006149496B2268551A5F
:10C1700046182A003100614800F020FD002806D151
:10C180002000FFF750FF002000F028F970BD2900C3
:10C19000300000F0E1FC70BDF4B507000E00002493
:10C1A0000125B868012806D0A5280CD0AA2817D0E8
:10C1B000AC281BD029E04E484069012825D1300029
:10C1C000FFF73BFF10E039003000FFF789FF002840
:10C1D00018D13800FFF727FF002000F0FFF811E02A
:10C1E00039003000FFF7BEFF04000EE039003000D8
:10C1F000FFF776FF002805D139003000FFF7B2FFC6
:10C20000002800D00400009805602000F2BD70B541
:10C2100005003848016836480269012A02D042699F
:10C22000002A02D10400183408E0040024340E006F
:10C230008021C9008069FFF7F1FE31182A00200033
:10C24000FFF7AAFF70BD10B5294C206A01280BD159
:10C25000E06900280AD00022A1692648006800F0A1
:10C2600001F9E169884201D0002010BD012010BD14
:10C27000F2B582B007001F48016821480068401AE3
:10C28000204BC018B84215D3019211600024184DFC
:10C29000296A012920D101260090B102A869FFF77F
:10C2A000BDFE01000098401AB84207D26846007AE5
:10C2B000002801D00420FEBD2E610EE02C616E61CD
:10C2C0002C002434B102A869FFF7A8FE019909687F
:10C2D00008180199086003E02C616C612C00183487
:10C2E00000200021002207C40C3C2760FEBD000096
:10C2F0005C340020083000008034002000AC0300D3
:10C300001410001000F4FFFF10B402E0401C491CA0
:10C31000521E002A09D00B7804789C42F6D002D233
:10C320000020C04302E0012000E0002010BC704764
:10C3300080B5454A0B0001D1002313705268002AD2
:10C3400000D0904701BD000080B540480168404AD8
:10C35000404800BF00BF00BF00BF00BF00BF00BF1C
:10C3600000BF914200D000BF0138F2D100F0B2FC12
:10C3700001BD80B501E0FFF7E7FF00F036FE0028C1
:10C38000F9D101BD80B500225821334800F06AF888
:10C3900002BD38B500202C490870304CAE256D0028
:10C3A0002A00FF2189022000FFF74EF920680021B2
:10C3B000C943884204D0FFF7E5FF216888420CD0CA
:10C3C00029002000FFF79CF901206060002000F0A8
:10C3D00005F8002801D000F022FE31BD70B505003F
:10C3E000194C01E0FFF7B0FF20780128FAD00120B6
:10C3F00020706560FF26B602FFF7BBFF0022012117
:10C40000300000F0AFF80728F6D0002818D1134DFF
:10C41000FFF7B8FF2860AE22520029002000083044
:10C42000FFF712F90E4DFFF7A4FF2B005722210052
:10C430000831300000F060F80728F4D0002802D05E
:10C4400000202070032070BDF8320020882C0020CE
:10C450000024F400A0860100603400205C34002039
:10C4600031C30300E0B50300002A02D10020C0431D
:10C4700001E01268D0430A0000250EE0002606E025
:10C480000100585D48400821C607F7D5054E47080A
:10C4900030007840491EF7D16D1C9542F0D3C0435F
:10C4A000E0BD00BF2083B8ED10B54D4B1C680122E4
:10C4B00094430A0002D10222944302E00222224362
:10C4C00014001C604268002A00D0904710BD80B55F
:10C4D00001000022002000290BD000F0AFFC002852
:10C4E00004D1404800F06EFE002801D0082002BDB3
:10C4F00004223B490A6002BDF0B585B00700160072
:10C500001D00002436480068420717D5820701D570
:10C510000A2024E001220243314802600095B3B2B0
:10C520000A003900304800F090FC040016D12C4875
:10C530000068012101432A4801600FE03200380001
:10C5400000F09FFE280009D068461021FFF7D8F8B8
:10C5500001950297684686810021A847200005B012
:10C56000F0BD0000F0B585B0170000241C4E326805
:10C57000530715D5930701D50A202FE001252A433B
:10C5800032603B008AB20100174800F0A0FC0400B2
:10C59000306802D0A84330601FE0054335601CE0DE
:10C5A0006A46830A138005000E00280000F058FE3A
:10C5B0008020C0002D18761EF7D138000DD001A8BC
:10C5C0000AA11022FFF740F8029701A869460988DE
:10C5D0000181A90A41810021B847200005B0F0BDC2
:10C5E0001838002055CF0300902C002001000000D7
:10C5F00000000000000000000000000080B500F016
:10C6000069FB01BD10B582B000200090FFF7C1FEAC
:10C6100001246846FFF7FBFD002800D0009400F0DD
:10C6200053FE002801D0009406E00098002803D1B2
:10C63000FFF709FE00281DD1134C144B22000521E1
:10C64000002001F0BDF8002801D000F0E8FC220035
:10C6500078321421082000F0E4FA002801D000F01C
:10C66000DEFCFFF771FC00280DD1FFF718FC00F08D
:10C6700031FBFCE7FFF7E7FD002803D00448006822
:10C6800001F018F9002016BD303100201BF6030020
:10C6900008300000F8B5040003D00D0001D01E00E2
:10C6A00001D10E20F2BD0320044211D105420FD169
:10C6B00006420DD1170001F029F9009033003A002D
:10C6C0002900200001F026F9002803D10B20F2BD3B
:10C6D0001020F2BD0020F2BDF1B5CCB00026002044
:10C6E00000228B181C7825065C7824042C439D7846
:10C6F0002D022543DB782B430CAC85006351401C95
:10C70000121D1028EDD3402824D20CA982008918CC
:10C710000A00403A00925268009B9B6B11251C0056
:10C72000EC4113271D00FD4165409B0A6B40009CB6
:10C73000646A1B1907251400EC4112271500FD41FE
:10C740006540D2086A409A18009B1B68D2180A609C
:10C75000401CD8E74C98006D0B904C99496D0A919C
:10C760004C9A926D09924C9BDB6D08931D464C9B35
:10C770001B6E07934C9C646E06944C9FBF6E05978E
:10C7800003974C9FFF6E0497009702960195039DB7
:10C79000009E029FBF000397009606261F00F741E8
:10C7A000BC460B271E00FE4167467E40B446192654
:10C7B0001F00F74166467740009EF719BC462700E8
:10C7C0001F402E009E437E406746BF19BC4600BFF7
:10C7D000A1A7039EBE596746BF19BC460CAF039E76
:10C7E000BE596746BE19009602260700F741BC46AF
:10C7F0000D270600FE4167467E40B4461626070018
:10C80000F74166467740BC4617004F400740160088
:10C810000E407E406746BE1903962E0025001C0080
:10C82000019B009FDB1901920A0001000098039F01
:10C83000C019029F7F1C0297402FAAD30B9F381864
:10C840004C9F38650A9840184C994865099880189B
:10C850004C9988650898019940184C99C8650798C3
:10C86000C0184C990866069800194C9948660598B6
:10C8700040194C998866049880194C99C8664DB047
:10C88000F0BD002801D10E20704700210164002274
:10C890008264C164084901650849416508498165A8
:10C8A0000849C16508490166084941660849816629
:10C8B0000849C1660020704767E6096A85AE67BB14
:10C8C00072F36E3C3AF54FA57F520E518C68059B72
:10C8D000ABD9831F19CDE05BF8B5002803D0002A3F
:10C8E00003D0002901D10E20F2BD0026002504004E
:10C8F0000091170017E00098405D216C6054206C97
:10C90000401C206440280DD121002000FFF7E4FEE8
:10C91000A26CE36C80208000002180185941A06443
:10C92000E16426646D1CBD42E5D30020F2BD70B504
:10C9300082B004001500002C01D00E0001D10E20A1
:10C9400076BD216C6218481C80233829137007D2E9
:10C95000382814D23821091A2018FEF7CFFE0EE02D
:10C96000402804D24021091A2018FEF7C7FE2100F2
:10C970002000FFF7B1FE38212000FEF7C1FEA26CB7
:10C98000E36C206C410FC00080185941A064E16441
:10C990003F216054A06C0004000E3E216054A06C46
:10C9A000000C3D216054A06C000E3C216054E16CF1
:10C9B0003B202154E16C080A3A216054E16C080CD8
:10C9C00039216054E16C080E3821605421002000A8
:10C9D000FFF782FE0020002D1ED03118C200E36E4A
:10C9E000D3400B70A36ED3400B71636ED3400B72B8
:10C9F000236ED3400B73E36DD3400B74A36DD34010
:10CA00000B75636DD3400B76236DD3400B77401CC1
:10CA10000428E2D3002076BD1821C200891A3218FA
:10CA2000236DCB401370636DCB401371A36DCB406E
:10CA30001372E36DCB401373236ECB401374636E9C
:10CA4000CB401375A36ECB401376E36ECB401377C8
:10CA5000401C0428E0D3DDE7982F8A4291443771C7
:10CA6000CFFBC0B5A5DBB5E95BC25639F111F15971
:10CA7000A4823F92D55E1CAB98AA07D8015B8312B3
:10CA8000BE853124C37D0C55745DBE72FEB1DE805F
:10CA9000A706DC9B74F19BC1C1699BE48647BEEF8E
:10CAA000C69DC10FCCA10C246F2CE92DAA84744A19
:10CAB000DCA9B05CDA88F97652513E986DC631A88F
:10CAC000C82703B0C77F59BFF30BE0C64791A7D56E
:10CAD0005163CA0667292914850AB72738211B2EF6
:10CAE000FC6D2C4D130D385354730A65BB0A6A76DE
:10CAF0002EC9C281852C7292A1E8BFA24B661AA8EA
:10CB0000708B4BC2A3516CC719E892D1240699D6F9
:10CB100085350EF470A06A1016C1A419086C371E72
:10CB20004C774827B5BCB034B30C1C394AAAD84E50
:10CB30004FCA9C5BF36F2E68EE828F746F63A5788B
:10CB40001478C8840802C78CFAFFBE90EB6C50A41E
:10CB5000F7A3F9BEF27871C630B585B004000D00B8
:10CB600068461021FEF7CCFD0194A80802906846A3
:10CB700018DF05B030BD00007FB504000D00960839
:10CB8000300601D009200AE0684600BF14A1102237
:10CB9000FEF75AFD019502940396684618DF04B02B
:10CBA00070BD000000B585B0684600BF10A110221E
:10CBB000FEF74AFD684618DF05B000BD7FB50600E8
:10CBC0000D001400684600BF0DA11022FEF73CFDC9
:10CBD00001960295A0080390684618DF04B070BD66
:10CBE0000100000000000000000000000000000044
:10CBF0000200000000000000000000000000000033
:10CC00000300000000000000000000000000000021
:10CC10003C4A9288904201D2401C00E00020C0B201
:10CC2000704710B593070DD1364B9A604C1CE40445
:10CC3000240C1219DA6000225A701A7058809980F8
:10CC4000002010BD072010BDF1B582B00D00160008
:10CC50002C4C608888423BD32B48019000276946C2
:10CC60000F70684600F0B0FF207869464870607821
:10CC7000FFF7CEFF69464978884205D06078019079
:10CC80006078FFF7C5FF60706846007800F0B3FF7A
:10CC900001981D49884219D030000299A268019B71
:10CCA000DB00D618306000290DD028000BD02A00F8
:10CCB000E068019B9C46638864465C430019FEF76C
:10CCC000AFFCB58000E0B7800020FEBD0420FEBDB3
:10CCD0000920FEBD38B50B4C0EE02078A168C200DB
:10CCE0008A189188E3686588684318181268904725
:10CCF0002078FFF78DFF2070207861788142ECD199
:10CD000031BD0000E4370020FFFF00007FB50200C6
:10CD10006846002300240025002678C06846137A60
:10CD2000012B02D0022B06D00DE004701369029390
:10CD3000938A838107E0012303709389D4891B1BA5
:10CD40000381938943815068019068461268926814
:10CD500090477FBD002808D07C494A68904204D3A0
:10CD60008968884201D201207047002070477848C6
:10CD7000416E491E416604D174490A78FD2313406F
:10CD80000B70016E491C042900D100210166704717
:10CD900038B56F48016E182251434318406E002881
:10CDA00026D0187A012802D002280FD01CE0D88A99
:10CDB0009C8AE832251A954200DA221A800092B243
:10CDC000D96809181C69201829DF01E0988928DF33
:10CDD000112807D15D480178FD220A400421114342
:10CDE000017031BD002803D009211800FFF78EFF24
:10CDF00031BD5648017806220A4000D0704780B500
:10CE000002220A430270FFF7C3FF01BD38B50400D8
:10CE10007A48416E042901D1002032BD026E5218B9
:10CE2000042A00D3121F491C416618214A43851861
:10CE30002800FEF763FC2560012032BD70480178B0
:10CE400001220A43027000207047F8B50D00170058
:10CE50001E006B490978C90701D40120F2BD040006
:10CE6000FFF778FF002801D10220F2BD002F01D08A
:10CE7000002D01D10320F2BD0320074201D105425C
:10CE800001D00620F2BD2068854204D36068B1005D
:10CE90006918884201D20520F2BD300001D104207A
:10CEA000F2BD6846FFF7B2FF002801D10720F2BDAE
:10CEB0000698009948600098046001200099087263
:10CEC0000098C760009805610098868239E0F8B53F
:10CED0000D0016001F001D490978C90701D4012063
:10CEE000F2BD0400FFF736FF002801D10220F2BD99
:10CEF000280001D10320F2BDA90501D00620F2BD12
:10CF000021688D4204D36168B202A818814201D21F
:10CF10000520F2BD300001D10420F2BD6846FFF7C4
:10CF200075FF002801D10720F2BD009847600098E6
:10CF30000460022000990872A80A0099888100986C
:10CF40000682FFF756FF0020F2BD0000002C0020F3
:10CF5000E436002038B50100284B186E18225043E3
:10CF60001818274A147802252C4231D000230229B0
:10CF700002D003291FD035E05370017A01290CD06B
:10CF800002292FD18189491C8181C189491CC18114
:10CF9000028A89B2914225D10BE0C18A828AEB01D3
:10CFA000541A9C4200DA531AC918C18289B29142BC
:10CFB00018D1002107E05178491C5170C9B20429E9
:10CFC00010DB53700821FFF7A1FEFFF7D0FE09E048
:10CFD000600707D5FB2020401070596E002901D052
:10CFE00005431570FFF7D4FE31BD0448406E042898
:10CFF00001D101207047002070470000E436002076
:10D00000002C0020BFF34F8F114812490860BFF376
:10D010004F8F00BFFDE780B5FFF7F4FF01BD80B57E
:10D02000FFF7F0FF01BD80B500F030FE022000F0F8
:10D0300019FE09480949086000F042FE002801D0A5
:10D04000FFF7E0FF0648006800F034FC002002BD56
:10D050000400FA050CED00E00C000300500700503E
:10D0600008300000202804DA7249C140C807C00F08
:10D0700070470120704738B50400FFF7F3FF002820
:10D0800001D16D4832BDE00018210140200003228B
:10D09000002805D5694B25072D0F083DAD0801E097
:10D0A000674B8508AD005B59CB4099090A40032ABC
:10D0B0000FD8002A0DD0022A0BD0E206D20E012191
:10D0C000604B5C68002C06D191405F4801600020F5
:10D0D00032BD5E4832BD4009800018180368914097
:10D0E0001943F3E780B5FFF796FF01BDD0B582B0D5
:10D0F000574C2078002835D000262069002801D11F
:10D10000012700E00027E068002800D10126002F59
:10D1100007D16078002825D1684652DF05280ED156
:10D120000127002E1CD1607800281BD16088694639
:10D130000880A06861DF05280AD1012610E00028D8
:10D1400002D0FFF76CFFECE7009821698847E8E719
:10D15000002802D0FFF763FF02E0A068E16888477B
:10D160003742D4D0D3BD3A480078704738B5140060
:10D17000002917D08A0715D1354A91605480536031
:10D18000314B19688904CC0F8025AD01002C01D0EA
:10D1900030490D60304910DF002805D0002C08D040
:10D1A0001D6032BD072032BD012010701620FFF730
:10D1B00062FF32BD010001D10E2070472449C860D2
:10D1C00000207047010001D10E20704720490861FE
:10D1D0000020704780B51E484068002805D0804771
:10D1E000002804D0FFF71BFF01BDFFF77FFF01BD43
:10D1F00070B504000D00160014213000FEF780FA0F
:10D200000120308000213161317BFE220A403273DF
:10D2100035727472002C00D0B072002070BD82B0E4
:10D220000E4900910099019101A960DF009902B0B7
:10D2300070470000FC06FFBC012000001CED00E070
:10D2400000E400E00038002000E100E002200000DF
:10D25000D037002080E100E0E5D00300002C002062
:10D26000174902220A60174A1368002BFCD0486055
:10D2700010680028FCD00020086010680028FCD04E
:10D280007047FCB50E4B01241C600E4C2568002D28
:10D29000FCD0009101900020002108E08D00009E4C
:10D2A0007659019F7E512568002DFCD0491C914282
:10D2B000F4D3186020680028FCD0F3BD0000000003
:10D2C00004E5014000E4014080B50B480068C1025C
:10D2D000C90F0CD00948816D01290AD1002181654F
:10D2E0000020FFF77BF8002801D0FFF798FE01200F
:10D2F00002BD002002BD00BF100500505C340020BC
:10D3000018B5C20018231340FF249C40E24389074C
:10D31000090E9940002804D59A4B0007000F0838E1
:10D3200000E0994B80088000181803681A401143E8
:10D33000016011BD00280FD094490968BE4A00BFA2
:10D3400000BF00BF00BF00BF00BF00BF00BF9142D1
:10D3500000D000BF0138F2D1704738B5802080027C
:10D360008B4908608B488021490201640160B34CFD
:10D37000012525602F20FFF7DDFF6560BB4C0025F0
:10D3800025612F20FFF7D6FFA57231BDF8B5B74C48
:10D390002578E0680090002217E00800C96900299C
:10D3A00013D0B942F9D1884207D1F669E660002E60
:10D3B00003D1AF4E33602261E3720B68C969C1616A
:10D3C000002902D00868C0180860E6680123617867
:10D3D000E8B2884218D06068EDB21821694340185D
:10D3E0006D1CA778E9B2B94200D100250178022965
:10D3F00002D003290FD0E8E7476830000100CEE7EC
:10D400000274C069E06006E00098864201D0012005
:10D41000F2BD0020F2BDE0680028D6D0F0E7F1B5FB
:10D4200081B0924CE0680090002300E0E260E06888
:10D430000121019A002A2CD122786578AA4250D085
:10D44000656818265643AD19521CA778D6B2BE425D
:10D4500000D1002222706A682E78012EECD1167C51
:10D46000002EE9D1AE685660EE6896602E69D660EF
:10D470006D699561E57A002D00D053605568266985
:10D48000AE1B3602360AA54FBE4205D29568751905
:10D490000AE0D5690195F1E72669751B2D022D0A71
:10D4A0009668B54202D2751B156000E013605360A8
:10D4B00093601174D3610028B8D001681568A9423F
:10D4C00003D3491B0160D061B0E701000E68AE4292
:10D4D0000CD2AD1B0800C969002909D0F6E700206D
:10D4E000F6BD009A9042FAD00120F6BD761B0E6080
:10D4F0001560D161C2619AE7FEB55C48C06800283A
:10D500003DD000680290A94C2068009057480069FF
:10D510000190A74D00980199461A2E40F61C8027CD
:10D52000BF025248807A002810D1A24879080164CD
:10D530000160B8480760B84807600120B749086033
:10D540002F20FFF7F7FE0120484988720298864293
:10D5500000D20600019880192840E0632168009AF3
:10D56000801A2840891A0D40ED1CA84209D2206873
:10D57000E0632F20FFF7DEFEC1480760F7BDFFF72D
:10D58000ECFEF7BD1CED00E000E400E0882C00207C
:10D5900080E100E008130140FEB500200090334C0C
:10D5A00020690190E1680291217A627A91420DD05E
:10D5B000491CC9B2022900D100218A00A21857696A
:10D5C000C0190002000A2061012501E000270025A2
:10D5D0002172FFF7DBFE0600E068002D1CD0002161
:10D5E0000FE07F1B491900251D600090D869DD6898
:10D5F000002D07D0019E76183602360A5E609D60C7
:10D60000DA61009A002815D003001D68AF42E8D205
:10D610000092E91B19600126E0600098FFF7FFFE09
:10D62000002801D1002E02D00298FFF765FF0020EC
:10D63000E072F7BD0092EEE70024F4000410014010
:10D6400030B5994A51784B1C9578DCB2AC4200D188
:10D6500000231578DCB2AC4201D1002030BD03704C
:10D66000506818225143401830BD0000B0370020E8
:10D6700008100140F2B582B0040017001D00002020
:10D68000002669460870684600F09EFA00A8401C13
:10D69000FFF7D6FF002801D104260DE002990122F0
:10D6A00002704460414A12688260C160076145614E
:10D6B000684640787C4948706846007800F09BFADC
:10D6C000002E03D1802040036D4908603000FEBD6C
:10D6D00070B582B005000C00002000266946087075
:10D6E000684600F071FA00A8401CFFF7A9FF002867
:10D6F00001D1042605E004704560684640786A4917
:10D7000048706846007800F076FA002E03D1802039
:10D7100040035B490860300076BD0000FFFF7F00DA
:10D72000F8B562480027076447648764C7640760E8
:10D7300047605D4EF568002D37D000241B48006817
:10D740003169401A0002000A00902868009981425D
:10D7500018D3091A009124182800ED69017C0029CA
:10D760000ED0077442698169F369002B06D010005E
:10D770009847002804D0FFF752FC01E008009047CA
:10D78000002DE2D1707A317A814205D1401C70724D
:10D79000C0B2022800D1777230001430717A89004B
:10D7A00044508020400336490860F1BD0415014013
:10D7B000FFFFFF000413014080B5FFF7EDFE01BD40
:10D7C000F8B51400920701D1002C01D10720F2BD59
:10D7D0001E000F000090FFF7C0FD334DEE610020EA
:10D7E0002880AF706C60E860288180246403094859
:10D7F000046003211420FFF783FD074804602C4CCC
:10D800000098606003211120FFF77AFD20682861ED
:10D810000020F2BD80E200E000E100E000100140E5
:10D82000214B5B68002B09D0130001D0002801D1E7
:10D83000072070470068037C002B01D00820704748
:10D840000374417442610020704780B51300164A8A
:10D850005268002A08D0002806D0052901D20720E6
:10D8600002BD4269002A01D1082002BD427C012A82
:10D8700001D10A0000E00022FFF7FCFE02BD00001B
:10D8800000E200E080B508494968002904D000287A
:10D8900002D04169002901D1082002BD0021017494
:10D8A0000221FFF715FF02BDB03700200011014033
:10D8B00004150140F8B50400FFF774F9002821D1E0
:10D8C0000020C04310490860200013DF002819D150
:10D8D00021000D6885F3088848680024E443EFF3CD
:10D8E0000585002D01D1A64600472546064621277D
:10D8F0003FBAF0B40024002500260027F0B406202B
:10D90000C0430047F1BD00BF80E100E00048704720
:10D91000ACF30300F0B50024EFB007911F21002500
:10D920001F00749B089009921C5702229A5E56AE03
:10D930001F32D3170B409B185B115BB20393013B63
:10D940009B000693069A26ABD550F93108AB5B18BD
:10D950009D5095510122749B39009A564EA800F0B3
:10D96000B3F90122749B30009A56B91800F0ACF953
:10D9700021004EA800F0AFF90700A84200D0D6E081
:10D980002100300000F0A7F93D000590002800D0EC
:10D99000CDE0749B039A24334EA91800049300F041
:10D9A000A8F9059D012800D0C1E0039A3100049830
:10D9B00000F09FF9059D012800D0B8E03100039BDD
:10D9C000049A1EA800F0A9F9069B059A0EAE9A517A
:10D9D0000799749B099A300000F029FA039B1EAA4C
:10D9E00000933100049B300000F068FA039B5EADA9
:10D9F00000931EAA049B4EA916A800F05FFA280007
:10DA00002200089900F06DFAA300EF180993089B13
:10DA1000A20099183800220000F063FA749B2200DB
:10DA20004433190036A8079300F05BFA079BA20065
:10DA300099183EA8220000F054FA749B2900043380
:10DA400036AA1EA80094069300F056FA749B2A008A
:10DA500000933EA93B0036A800F060FA1EA908001A
:10DA60002300069A00F059F91EAA39002800749B79
:10DA700000F0B8FA059B03990A93079B30000B93BB
:10DA8000089B0D950C9300F0CDFA0399070016A89A
:10DA900000F0C8FA3D1C874200DA051CADB26F1ECB
:10DAA0003FB23900300000F0DFFA06003900701E86
:10DAB000864116A800F0D8FA431E9841400006435C
:10DAC0000AABB600F6582200310026A800F009FA89
:10DAD000A300F11822002EA800F003FA21001EA8CE
:10DAE00000F0CBFA0123023D1E932DB2002D21DA66
:10DAF0001EA908002300069A00F00FF91EAA2EA9FD
:10DB000026A8749B00F06EFA039A26A9049800F0E8
:10DB1000F0F8012805D026A9039B049A080000F01C
:10DB2000B7FA22004EA926A800F0E0FA0500280066
:10DB30006FB0F0BD749B1EAAA4331E682EA9749BFF
:10DB400026A8B04729000EA800F08EFA060029008A
:10DB5000701E864116A800F087FA431E98414000C7
:10DB60000643B6000AABF658002E25D0220031003D
:10DB700036A800F0B6F9099B2200F1183EA800F083
:10DB8000B0F9749B1EAA3EA936A800F02BFA069B9A
:10DB900036AA26A946A8009400F0AEF9749B26AADE
:10DBA00000933EA92EAB36A800F0B8F91EA9749BCD
:10DBB00046AA080000F0AAFA013D96E7EFF31080AC
:10DBC00072B6704762B6704738B50400FFF7F6FFCB
:10DBD0000121134A5368002B07D151601149124BA0
:10DBE0001D680D401560196000212170002801D1C9
:10DBF000FFF7E8FF31BD10B5094C616800290CD072
:10DC000000280AD1FFF7DAFF2168084A11600021D5
:10DC10006160002801D1FFF7D5FF10BD00000000B2
:10DC200000380020FC06FFBC80E100E000E100E0DD
:10DC300030B5039D049C52000A43990011432A0207
:10DC40000A43210411431B4A8000115030BD81B0AA
:10DC5000012282401848002901D1426000E00260A0
:10DC600001B0704780B5002102E0000080B50121BD
:10DC700012A2105CFFF7EBFF01BD10B500242000DD
:10DC8000FFF7F4FF641C042CF9D310BD30B583B04A
:10DC9000002400BF09A5002001900090002301226C
:10DCA0000121285DFFF7C4FF641C042CF3D3FFF7A8
:10DCB000E4FF37BD0007005008050050151617187F
:10DCC00080B5FEF79FFC02BD002A00D17047013AE3
:10DCD0008B5C8354F8E70022130010B554B2A142C4
:10DCE00002DC5842584110BD9400045901322343CC
:10DCF000F4E710B5013A52B2130601D5002010BD69
:10DD00009300C458CB589C4205D8013A9C42F3D2A8
:10DD100001204042F3E70120F1E7F0B50E00A3B087
:10DD200007001900300015001C00FFF7D4FF002881
:10DD300005D02100380000F0A0F923B0F0BD31007B
:10DD40000126220002A800F0CCF8220029000AA82F
:10DD500000F0C7F8210012A800F08FF921001AA8DE
:10DD6000129600F08AF922000AA902A8FFF7C1FF63
:10DD7000002805D1220012A9380000F0B2F8DCE733
:10DD8000029B0193334209D1210002A800F0CEF991
:10DD90002200290012A800F0D9F9E4E70A9B0193B8
:10DDA000334207D121000AA800F0C0F9220029005F
:10DDB0001AA8F0E7230000281CDD02A90AAA08001F
:10DDC00000F066F9210002A800F0B0F922001AA9BB
:10DDD00012A8FFF78EFF002805DA12A923002A00F7
:10DDE000080000F0D5F912A923001AAA080000F0D3
:10DDF0004FF9CDE70AA902AA080000F049F921006D
:10DE00000AA800F093F9220012A91AA8FFF771FFDF
:10DE1000002805DA1AA923002A00080000F0B8F942
:10DE20001AA9230012AA080000F032F9BEE7F7B5DC
:10DE30001E0001910223F45E050021001F201F3106
:10DE4000CB1703405B1807215F11E31DDC170C4063
:10DE5000E418E410944200D914007BB219002800A1
:10DE6000009300F00AF9220001992800FFF72CFF27
:10DE70000222B35EE4009C4217D92022E41ABB00C0
:10DE80000027EB18121B043B191D8D420ED32436BC
:10DE9000009A29003000FFF72CFF012805D0009BD5
:10DEA00032002900280000F0F3F8F7BD18680100DF
:10DEB000E1409040394319600700E4E770B5002461
:10DEC00005001E0090B014AB1C576846230000F0FC
:10DED0008BF9230032006946280000F0D1F910B018
:10DEE00070BD002330B55CB2A24200DC30BD9C00A6
:10DEF0000D5901330551F6E770B500251E0004AB3E
:10DF00005D5704002B0000F0C3F8002805D02B005B
:10DF100032002100200000F03BF970BDF0B5002573
:10DF200014001E008DB0129B029003915D571F1DBF
:10DF30003B000200210004A80095FFF7DDFF04A9C3
:10DF4000129A080000F028FA0299129B04AA08000D
:10DF500000F0DCF8129B04AA2100200000F0D6F8A3
:10DF60003B00039A310030000095FFF7C5FF129A7D
:10DF7000310004A800F010FA04A93B00029A08003E
:10DF80000095FFF7B9FF04A93B00220008000095A7
:10DF9000FFF7B2FF3B00029A210020000095FFF737
:10DFA000ABFF0399129B2200080000F0AFF83B0082
:10DFB00004AA029920000095FFF79EFF129B220001
:10DFC0003100300000F0A2F83B00039A310030002D
:10DFD0000095FFF791FF2A0004A92000FFF781FFB9
:10DFE0000DB0F0BDF0B516001C0007000D0089B0A3
:10DFF0001A003100684600F0CFF923006A46390064
:10E00000380000F083F8230032006946684600F0CB
:10E010007DF823006A462900280000F077F809B04F
:10E02000F0BDFEE7013910B549B204000430CBB2AF
:10E030000A0604D401398A008258002AF7D0013335
:10E040005BB2181E0AD00020064A9A189200125994
:10E05000002A04D1013B5B01181800B210BD520820
:10E060000130F5E7FFFFFF3F1F234A1119401E3B18
:10E070008B409200105818407047002310B51C00C8
:10E080005AB2914200DC10BD9A0084500133F7E788
:10E0900070B50824E31ADB000133002403A5C04651
:10E0A0005B1920C940CAAD1B20C0184720C940CA0F
:10E0B000B54120C020C940CAB54120C020C940CACE
:10E0C000B54120C020C940CAB54120C020C940CABE
:10E0D000B54120C020C940CAB54120C020C940CAAE
:10E0E000B54120C064416042604170BD002330B53D
:10E0F000013A52B2140602D55842584130BD95003B
:10E1000044594D59013A6C402343F3E730B51C00A4
:10E110000023050091B0E3566846AC3400F064F883
:10E12000236869462800984711B030BD002210B519
:10E130008900411804390B1D984200D310BD0C68AA
:10E14000630813430B60E207F4E7FEE770B503686A
:10E15000040015000026DB0705D513000A000100A6
:10E1600000F016F8060029002000FFF7DFFF002E60
:10E1700008D0054BED188023AD00641922681B06FA
:10E180001343236070BDC046FFFFFF3F0000000047
:10E1900070B50824E31ADB0001330400002003A556
:10E1A0005B1920C940CAAD1920C4184720C940CA0C
:10E1B000754120C420C940CA754120C420C940CA45
:10E1C000754120C420C940CA754120C420C940CA35
:10E1D000754120C420C940CA754120C420C940CA25
:10E1E000754120C4404170BDF0B5DE4657464E46ED
:10E1F0004546E0B5013B9B0098465B0099460023ED
:10E2000000240025002601B4002702E03700404624
:10E210003F1A9A46A346AC46B646F01B1458C85956
:10E22000030C80B2250CA4B21E006E436343454329
:10E2300060431C041B0C00195E412C042D0C0019BA
:10E240006E4153465C4665461B18744100204541AB
:10E2500076460437474501DCB742DADD0098835142
:10E2600023462C46002504364645CDDD4E45CDDD02
:10E27000835101BC3CBC90469946A246AB46F0BDDA
:10E28000F0B51E00A9B018AB049007911000310042
:10E2900006931700FFF7C6FEB3011B1A1F201BB21F
:10E2A000DC170440E4183B4D6411019364B21D4037
:10E2B00004D52023013D5B421D430135210008A800
:10E2C0002DB2FFF7DAFEA400002D25DD08AB9C4639
:10E2D00000232022A4441C00B000521B834212D110
:10E2E00001247300029308AAB300D3180393019B7F
:10E2F000002B49DA06ABA4003200E1580498FFF77E
:10E30000F0FD29B0F0BDF958A94021436446E15021
:10E31000FC580433D440E1E708AB18193200390047
:10E32000FFF7DFFDDCE706A8A10009589700C859F0
:10E3300008A979585918411A884202D088429B414D
:10E340005B4206A8405901320590C15152B2029970
:10E350008A42E8DBE41A63425C4108AD31002800E0
:10E36000FFF7E4FE721EB30092005B595159DB07C0
:10E370000B43039831005351FFF7D8FE0198E4B2E4
:10E38000013803B20193B2E7012100220D1B1300F3
:10E39000AD00DCE71F00008030B51400002205004E
:10E3A00091B0A2566846AC3400F006F8236869467E
:10E3B0002800984711B030BDF0B5DE4657464E46AE
:10E3C0004546E0B5013A920090465200914600223F
:10E3D00000230024002501B4002602E02E00404660
:10E3E000361A92469B46A446AE46AF1BCB59885977
:10E3F000020C80B21C0C9BB2150065435A43444387
:10E4000058431304120CC01855412304240CC0189F
:10E41000654152465B466446BE4203DA0027121845
:10E420006B417C41002712186B417C4175460436D4
:10E43000AE4202DAAF1BBE42D3DD009842511A460B
:10E440002346002404354545C6DD4D45C6DD425111
:10E4500001BC3CBC90469946A246AB46F0BDFEE7E7
:10E460000870020A4A70020C8A70000EC8700420FC
:10E47000704780B5FEF7D3FD01BD30B58DB00224E5
:10E48000C24DA869204045D1182106A8FDF738F9EA
:10E490000B206946088001AA1470012050700620E4
:10E4A00090700320D070147159205071FE2090712B
:10E4B000100009307DDF00282DD1684600880C2827
:10E4C00009DA68460088401CD0710920107268463D
:10E4D0000188093104E00C20D07108201072142149
:10E4E00000230022C9B201A872DF002813D106A9B7
:10E4F0000A7007900A7228220A82488206A873DFEF
:10E50000002808D1BC482105416049000160A86984
:10E510000443AC6100200DB030BD34B584B00400BC
:10E520000D0068461021FDF7EBF8684605800121D3
:10E53000817004A802909548039069462000A6DFE8
:10E5400005B030BD38B5914CA38AAC4DAB4202D07A
:10E55000257EED0701D4082032BD6025257061704D
:10E56000A270032281891800FFF7D7FF32BDF8B5EA
:10E57000864CA38AA14DAB4203D00123A5691D405F
:10E5800001D10820F2BD17000A00060060202070AB
:10E5900003206070A370E11C1000FFF761FFC51C31
:10E5A000ADB261193800FFF75BFF2A1892B2B1894A
:10E5B000A08AFFF7B2FFF2BDF0B589B005000F00E9
:10E5C00003A80C21FDF79CF86846002100220023D7
:10E5D0000EC0397B6D4C0126012908D002292CD0B0
:10E5E000032936D004291ED0062944D07CE078893E
:10E5F000062879D1208A6082787B0190B87BF97BEC
:10E6000009020143387C00040843797C0906014370
:10E6100002916846067003AA69460020FDF76CFC6B
:10E620000200012161E003206946087003AA00206E
:10E63000FDF762FC0200042157E07889032853D1DA
:10E64000797BB87B0002084320826082012202218C
:10E650004BE004206946087003AA0020FDF74CFC3B
:10E66000012805D1059A04992800FFF780FF3FE0B3
:10E670000200032139E07889022835D1787B0190A6
:10E68000062769460F7003AA0020FDF735FC012814
:10E6900027D105980790049806900398A18A574AB5
:10E6A00091421CD0A169314019D06021217067705E
:10E6B000A670E11CFFF7D4FEC61CB0B22118069864
:10E6C000FFF7CEFE3618B6B2A1190798FFF7C8FEBD
:10E6D000321892B2A989A08AFFF71FFF08E008202C
:10E6E00006E00200062100E003222800FFF72AFFCF
:10E6F00009B0F0BD30B587B004000D0003A81021AB
:10E70000FCF7FEFFA87902283DD1230028899989CA
:10E71000884238D1A87B042835D0062833D0052874
:10E7200031D0022203AC2270A07901210143A171F2
:10E73000288A2081688A608128001430069000BFF2
:10E7400013A003C801AD03C56846828002900F4D37
:10E7500001AA198AA88AA5DF00280BD1684600F013
:10E7600028FA002806D1FF20FE30A08003A9A88A3D
:10E77000A8DF08E00020A08003A9A88AA8DF401E27
:10E780008041C00F00E0002007B030BD0C2C0020FD
:10E79000000000000000000030B587B005000C004C
:10E7A000E088A988884224D103A80C21FCF7A8FF9F
:10E7B00068460021002200230EC00220694608702E
:10E7C000200012300190208A029003AA0020FDF759
:10E7D00093FBBF4C208A00280BD0608A401E6082C9
:10E7E000000406D1059A04992800FFF7C0FE208A8C
:10E7F000608207B030BD000008050050FFFF000038
:10E8000038B50400B24DA88A2188022931D01029D8
:10E810000ED0112919D0132920D014293DD0502908
:10E820004BD0512928D052293DD055291BD031BD7C
:10E83000A8488021C903416049080160A088A882D6
:10E84000A86902218843A86131BDFFF716FE0028A0
:10E8500001D0FEF7E4FBBC48A88231BD00230022B2
:10E8600085217FDF24E0A17900292BD1132176DFD8
:10E870001EE0002167DF1BE0A079002822D02100E4
:10E8800028001C30FFF736FF00281BD0210008317C
:10E8900028001C30FFF790FE31BD0023002200212C
:10E8A000A08886DF04E0002300220021A088A9DFE1
:10E8B000002807D0FEF7B3FB31BD210028001C3033
:10E8C000FFF76AFF31BD10B5040000F006FA200022
:10E8D000FFF796FF10BD0000F0B593B007007C4E27
:10E8E0009948B082012402A88470984901803A00B6
:10E8F00002A90120A0DF00286DD10FA8A5A1102238
:10E90000FCF7A2FEB91C0FA863DF002863D108A89A
:10E910001C21FCF7F5FE03A81421FCF7F1FE00BF53
:10E920009AA00068019008A800780421014308A873
:10E9300001706846B97881700221018001A8002524
:10E940000570112141708178F9220A400321114399
:10E9500081706846039001A80490142003A988815F
:10E9600007953B1D03AA08A93888A2DF002832D1E9
:10E9700008A81C21FCF7C4FE03A81421FCF7C0FE64
:10E9800083A00068019008A800781821014308A816
:10E9900001706846B9788170048001A80570112162
:10E9A00041708178F9220A40132111438170684631
:10E9B000039001A80490172003A9888107953B00C4
:10E9C0000C3303AA08A93888A2DF002803D1B06954
:10E9D0000443B461002013B0F0BD000070B588B0EE
:10E9E0005B480326066046603A488021890301603F
:10E9F000490001606BA000680090FEF7D3F8002882
:10EA000064D1544813DF002860D1314D524B482265
:10EA1000290030316846FEF7A9FB002801D0FEF737
:10EA2000FEFA01AA01210120FEF7E2FB00284DD1E8
:10EA300001A8FEF7F4FB002848D14848FEF7BAFBCE
:10EA4000002843D14DA003C803AA03C21120694680
:10EA5000087001A871DF002838D101A84178491C4D
:10EA6000417001A9002070DF00282FD1072200BFCC
:10EA700044A168467CDF002828D103A80C2101802E
:10EA80001821418000248480C8214900C1807ADF98
:10EA900000281BD128001C30FFF71EFF002815D1CD
:10EAA00068461C21FCF72CFE2D4801908020C001F7
:10EAB000029068460673C48104742A48069068462A
:10EAC00000F0B4F8002801D1FFF7D7FC08B070BD02
:10EAD0000C2C00200805005038B500242249886914
:10EAE0000422104201D0002032BD02438A611F4837
:10EAF00003681F4D1F4800BF00BF00BF00BF00BF1D
:10EB000000BF00BF00BFAB4200D000BF0138F2D150
:10EB1000888A0D4B984206D0132176DF040009D174
:10EB200000F0A9F806E002231A40F9D074DF0028AB
:10EB300002D00400200032BD18050F4A1060886919
:10EB400003438B61ECE70000FFFF000059FE00006B
:10EB50005407005000AC03009BF60300C7E8030015
:10EB6000CD0C000073E403000C2C0020882C002046
:10EB70000024F400C0D4010008050050000000008B
:10EB800000000000446675546172670000000000D8
:10EB90000000000050EADA308883B89F604F15F318
:10EBA0000000C98E01000007017840780002084388
:10EBB000704780B5FFF7F8FFC007C00F02BDFEE742
:10EBC000408864490A88904204D34988814201D32D
:10EBD000012070470020704738B55F4CE08B5F49DB
:10EBE000884222D0217F491C2177227BC9B28A42E8
:10EBF00008D3584975DF002817D0A169002914D01F
:10EC0000884731BD00252577217C002907D03B218D
:10EC100076DF002803D0A169002900D08847616908
:10EC2000002902D068460570884731BD70B50600DE
:10EC3000494C200031001C22FCF706FD00256577B9
:10EC40003168444E002911D030000822FCF7E8FC5E
:10EC500030007ADF002808D14048E0832577404A19
:10EC6000002100BF41A0FEF7DBFD70BD30007BDF5F
:10EC70000028F1D070BD80B53A48FEF703FE02BD12
:10EC800038B50025344C3848FFF79AFF00281AD1D0
:10EC9000607F002805D0616900291CD06A46157084
:10ECA00017E0207F002801D1616800E0A168002200
:10ECB00020002030FEF7C9FD00280CD0A1690029F2
:10ECC00009D0884707E06169002904D001206A461D
:10ECD000107068468847657731BD38B5010000255A
:10ECE0001D4C21480A88102A06D0112A0FD0122A5A
:10ECF00029D0502A0FD031BD8A88E28318310822EA
:10ED0000FCF78EFC2577E089002822D11FE013480C
:10ED1000E08325770CE0C888E289904219D1088AFF
:10ED2000022816D108001230FFF743FF00280ED149
:10ED300020002030FEF7A6FD00280AD0A169002996
:10ED400007D0884731BD08310822FCF769FCFFF77E
:10ED500097FF31BD083800204C370020FFFF00002E
:10ED6000D9EB03006C370020103800206C370020EE
:10ED7000F0B50C0000278BB008220500FFF7B1F8B2
:10ED8000E36A02AA0593236B11000693636B1000DC
:10ED90000793A36B04970893E36B039709930823E6
:10EDA0000297FFF7F5F90823060002AA29002800B8
:10EDB000FFF7EEF9236B02AA0593636B110006932C
:10EDC000A36B36180793E36B100008930823099789
:10EDD000FFF7DEF90823361802AA29002800FFF7FA
:10EDE000D7F9236A36180293636A02AA0393A36AC7
:10EDF00029000493A36B28000893E36B07970993FA
:10EE0000082306970597FFF7C3F9636AA26B02937D
:10EE1000A36A06920393E36AE26B0493636B36186A
:10EE200005930893236A0792099302AA08232900ED
:10EE30002800FFF7ADF9E36A36180293236B02AAA4
:10EE40000393636B29000493236A28000893A36A41
:10EE500007970993082306970597FFF719F9236B7E
:10EE6000361A0293636B02AA0393A36B29000493DF
:10EE7000E36B28000593636A07970893E36A069794
:10EE800009930823FFF704F9636B361A0293A36B07
:10EE900002AA0393E36B29000493236A28000593D5
:10EEA000636A08970693A36A0793236B0993082361
:10EEB000FFF7EEF8A36B361A0293E36B02AA0393F3
:10EEC000636A29000593A36A28000693E36A0497FE
:10EED0000793636B0897019309930823FFF7D8F80A
:10EEE000341A0F4EBC4210DA0823320029002800E1
:10EEF000FFF74EF92418F7D40BB0F0BD0823320009
:10EF000029002800FFF7C4F8241A002CF6D10822A3
:10EF100029003000FEF7EDFE0128EFD1ECE7C046F6
:10EF2000B0F30300F0B5002697B0049103939E5709
:10EF30000500310010001400FEF7CDFE002800D0BF
:10EF400092E0039A049906A8FFF726FA039B06AA03
:10EF500029000EA8FFF7DAF806A90800039AFFF7C0
:10EF60001BFA0499039B08002200FFF7CFF8039ACD
:10EF700021002000FFF710FA039B22001F1D3B0019
:10EF800029002800009600F079F83B0022002100BB
:10EF90002000009600F072F83B00220029002000BB
:10EFA0000096FEF7A9FF039B220029002800FFF727
:10EFB000ADF83B002A0029002000009600F05EF822
:10EFC0003B00009622002900280000F057F82B682B
:10EFD000DB074BD533003A0029002800FFF7D8F8AB
:10EFE000310005902800FFF7A1F8234B059AF3188C
:10EFF0009B00EB181968D2070A431A60039A29008C
:10F000002000FFF7C9F93B000EAA2100200000965E
:10F01000FEF772FF3B000EAA210020000096FEF7CB
:10F020006BFF0EA908003B0022000096FEF764FF6C
:10F03000039B0EAA29002800FFF768F806AA3B00E8
:10F04000100029000096FEF757FF3200210028002B
:10F05000FEF747FF320004992000FEF742FF32001E
:10F0600006A90498FEF73DFF17B0F0BD3100280057
:10F07000FFF75CF8C2E7C046FFFFFF3F70B5002511
:10F080001E0004AB5D5704002B00FFF781F8002839
:10F0900006D12A0021003000FEF72BFE012805D002
:10F0A0002B00320021002000FEF7F2FF70BDFEE7CA
:10F0B000000000000101000001000000000000004D
:10F0C0000205000021000000000000000000000018
:10F0D0000000000000000000011104FC040000001A
:10F0E00000000000021104FC040000000000000009
:10F0F000032104FC0404000000000000041101FFCF
:10F100000100000000000000051102FE04000000E4
:10F1100000000000061104FC0400000000000000D4
:10F12000071104FC0400000000000000081701FFA4
:10F1300022000000B4F00300091001FF01000000EC
:10F14000B0F003000000000000000000000000001C
:10F1500001010000040000000000000000000000A9
:10F160000000000000000000011101FF010000008C
:10F1700000000000021702FE64000000D8F0030047
:10F18000031704FC0400000050F10300000000001D
:10F1900000000000000000000107000070000000F7
:10F1A00068F10300020100000100000000000000FF
:10F1B0000305000041000000000000000000000006
:10F1C0000000000000000000011704FC70000000B7
:10F1D00068F10300021704FCB400000098F103007A
:10F1E0000000000000000000000000008068814274
:10F1F00001D2491C00E000210800704781B001687D
:10F200004A6809688A4201D3501A03E08068401CAA
:10F21000401A801801B0704710B50400206841689A
:10F220002000FFF7E3FF21680968884201D101202F
:10F2300010BD002010BDF0B583B005000F00002008
:10F240000190694608706846FEF7BEFC2800FFF78B
:10F25000E3FF060002D0287C00283DD128684168E1
:10F260000C002800FFF7C2FF29684860002E05D077
:10F2700009682800FFF7BAFF296808603900EA68C2
:10F28000012A06D0022A08D0042A0BD0082A0ED060
:10F2900013E008786968085514E008886968620016
:10F2A00088520FE008686968A20088500AE003C924
:10F2B0006A68E300D21803C204E068685443001986
:10F2C000FCF7AEF92800FFF799FF29688A688242A7
:10F2D00000D202008A6001E00420019068460078B4
:10F2E000FEF789FC0198FEBD18B5F0200F222849D1
:10F2F0000B78012B1BD14B68134018D18B6803424C
:10F3000002D1CC6804400CD0F0241C40102C02D157
:10F31000CC68044005D00340302B08D1CB680340B3
:10F3200005D11C4B1C4C2360E30B1C4C23600B7859
:10F33000012B0CD14B68134009D18B680340402B43
:10F3400005D1CB68034002D10123154C23600B7813
:10F35000012B1BD14B681A4018D18A68F023134047
:10F36000A02B02D1CB68034005D00240D02A0DD19A
:10F37000C96808400AD10B480168012904D00A492C
:10F38000016001680129FCD1C021416111BD00006B
:10F39000E00F00F0DFFF07C004050040186C0040DC
:10F3A0000806004000EC06407593000008200001AC
:10F3B000FFFFFFFFFFFFFFFFFFFFFFFF0000000059
:10F3C000000000000000000001000000FFFFFFFF40
:10F3D000512563FCC2CAB9F3849E17A7ADFAE6BCF7
:10F3E000FFFFFFFFFFFFFFFF00000000FFFFFFFF29
:10F3F00096C298D84539A1F4A033EB2D817D0377CF
:10F40000F240A463E5E6BCF847422CE1F2D1176B69
:10F41000F551BF376840B6CBCE5E316B5733CE2B3C
:10F42000169E0F7C4AEBE78E9B7F1AFEE242E34F6B
:10F430004B60D2273E3CCE3BF6B053CCB0061D65A8
:10F44000BC86987655BDEBB3E7933AAAD835C65A31
:10F4500025EF0300D9F4030071ED030038B5002552
:10F4600069460D706846FEF7AFFBFDF77CFE00288D
:10F470001AD110480168002916D00F4C2168C9071D
:10F4800012D505600E480068694648700DA5491CF4
:10F490002800FFF7D0FE2800FFF7BEFE002803D0AB
:10F4A000012020600549086068460078FEF7A3FB4C
:10F4B00031BD000000D1004008D3004004D000401E
:10F4C00008D50040F43700208C37002020000000D1
:10F4D0000100000000000000F0B58DB00400150030
:10F4E0000F001C22002105A800F024F80323049338
:10F4F0000023EB562A00390020000393FEF74CFF4F
:10F50000039B2E1D009304AA330021002000FEF768
:10F51000F3FC2B003A0021002000FEF7F7FD2A0043
:10F52000039B84320093210033002000FFF7A6FDE7
:10F530000DB0F0BD10B5040008001100020020005D
:10F54000FCF7AEF8200010BDBFBCE278907D002B28
:10F55000D31F30ABC3BA93F7C5E379262021D74137
:10F560000857B03431A0F936C26261C2AA7897C890
:10F570002E1761C94EF3D6C1FEB3A59115729E96A2
:10F5800015622D8931CD19A470B401000123002426
:10F5900013E00A68091D1A4202D04D466D1E521929
:10F5A0001460121D001F0428FAD21500860701D529
:10F5B0001480AD1C184000D02C700868091D00286C
:10F5C000E7D1080070BC704730B501684118446845
:10F5D00062088A188368E4070DD54C461B190AE0B7
:10F5E0000C7864B2491C0D78491C1D705B1C002C02
:10F5F00005D5641CF9D19142F2D10C3030BD641EA6
:10F60000F1D5F8E710B50400082902D00020FDF775
:10F6100006FD60682168884710BD00B583B0009082
:10F620000191034A08216846FDF70EFB0EBD00005C
:10F6300005F603000321064802680A4302600548F4
:10F6400002680A43026004488047044800470000FB
:10F650002405004054050040E9F2030019F70300B7
:10F6600010B5074979441831064C7C44163404E03F
:10F67000081D0A68891888470100A142F8D110BD09
:10F680002C0000005800000080B5002902D00020A6
:10F69000FDF7C5FCFDF72AFD01BD80B5024A00213A
:10F6A0000020FDF7D1FA02BD89F60300DDFEFFFF61
:10F6B0007C0B0000A02C0020000000000DFFFFFFCD
:10F6C0009000000036000000002C0020FDFEFFFF2F
:10F6D0009B0000001C000000902C00200120C04670
:10F6E000002801D0FFF7BCFF002000BF00BFFDF7DE
:10F6F0009AFC00F000F880B500F002F801BDFEE7CA
:10F700000746384600F002F8FBE7FEE72021090330
:10F7100026311820ABBEF9E700BF00BF00BF00BF15
:10F72000FFF7DCFFDDE90300D9EA0300FEE7FEE7AF
:10F73000FEE7FEE7FEE7FEE7FEE7FEE7FEE7FEE7A1
:10F74000FEE7FEE7FEE7FEE7FEE7FEE7FEE7FEE791
:10F75000FC0007902C0020A02C0020EC00FEFF9E57
:10F76000000824F703000024F40001010010FD004C
:09F77000050C0400A9C403FB0010
:020000041000EA
:0410140000AC030029
:040000050003F719E4
:00000001FF
