:020000040001F9
:10B000006828002059F5010073BA0100F3BA010065
:10B010000000000000000000000000000000000030
:10B0200000000000000000000000000027CB01002D
:10B0300000000000000000007FD201009FEA010034
:10B0400071E1010013F60100DBE901001FF60100C8
:10B0500091F6010000000000B1F00100D9D3010019
:10B0600093F6010095F6010097F6010099F60100AC
:10B070009BF601009DF601009FF60100A1F601007C
:10B0800085D1010007B80100A3F60100A5F6010073
:10B090003DB80100A7F6010095CD0100A9F6010019
:10B0A000ABF60100ADF6010000000000000000005A
:10B0B0000000000000000000000000000000000090
:10B0C0000121C206D20E9140C04A11607047012191
:10B0D000C206D20E9140BE4A116070470121C206DD
:10B0E000D20E9140BB4A116070470121C206D20EB8
:10B0F0009140B94A11607047F0B540B2002821D59F
:10B10000924C40B20207120F083A950804225543A8
:10B110008E4A40B203071B0F083B9B08042673436B
:10B12000D258FF238607B60F08277E43B3409A43C1
:10B130008B01DBB28607B60F08277E43B34013436B
:10B1400063511AE0BD4A40B2830804246343D258D5
:10B15000FF238407A40F08256C43A3409A438B0167
:10B16000DBB28407A40F08256C43A3401343B34A02
:10B1700040B2840804256C431351F0BD00B580072C
:10B1800001D1012000E00020C0B200BD00B593490C
:10B1900000280ED0AA4A126800BF00BF00BF00BF3F
:10B1A00000BF00BF00BF00BF8A4200D000BF01380F
:10B1B000F2D100BD10B50400A248046003211120A3
:10B1C000FFF79AFF10BD80B5802040029E490860BD
:10B1D000802040029D4908601120FFF786FF112062
:10B1E000FFF76EFF01209A4908602F20FFF7CEFF7E
:10B1F0000120B749087001BD80B51120FFF767FF36
:10B20000802040029349086080204002B1490860D4
:10B210000120B14908602F20FFF7B8FF0120AF4996
:10B2200008600020AE4908602F20FFF7AFFF002024
:10B23000A749087001BDBF4800687047401A000266
:10B24000000A7047BC490860704710B5BB490968DF
:10B25000002902D1B94908602AE0B849096809689B
:10B26000026891420DD3B549096809680268891AD4
:10B27000B24A12681160B1490968C161AF490860FA
:10B2800016E00168AD4A1268AC4B1B68002B07D072
:10B290001C688C4204D21C68091B1A00DB69F5E7A4
:10B2A000002B02D01C68641A1C600160C361D0616D
:10B2B00010BD10B5A14909680A00002A04D08242D5
:10B2C00002D01100D269F8E7002A1CD0914211D1B6
:10B2D0009A4B1B68DB69994C2360984B1B68002BC9
:10B2E00008D101237D4C236000237D4C2360012382
:10B2F000934C23701468D369CB61CB69002B02D0C7
:10B300001A6812191A6010BD80B51120FFF7E6FE09
:10B3100001BD80B51420FFF7E1FE01BD70B504004A
:10B32000C148006800280CD0A1696069BE4A126853
:10B33000904705002E00002E02D0300000F034FBB4
:10B3400002E0A0696169884770BD00001CED00E063
:10B35000F8B57A480068002837D00024FFF76BFF63
:10B360005F490968FFF76AFF050074480668002E08
:10B3700011D0306885420ED330682D1A30682418F9
:10B380003700F669387C0028F1D000203874380086
:10B39000FFF7C4FFEBE7A5480078C9490978884260
:10B3A0000BD1C7480078401CC5490870C4480078D4
:10B3B000022802D10020C2490870C248C049097859
:10B3C000042251434450FFF7A4FFF1BD00E100E027
:10B3D00080E100E000E200E080E200E00024F40010
:10B3E00000B5010091480078B54A1278904220D00B
:10B3F0008E480078401C8D4A10708C4800780228D6
:10B4000002D10020894A1070AE48884A127804237D
:10B410005A4380580860324800680A688018304AE9
:10B4200010602F4800680002000A2D4A10600120B9
:10B4300002E000200860002000BD000000E400E001
:10B44000C0180020081501404413014004130140B6
:10B45000001001404813014070B5C14806783748D4
:10B4600004683000BE494978C0B2884226D0BC4842
:10B470004068F6B2182171434518761C3000B8496F
:10B480008978C0B2884201D10020060028780228BD
:10B4900002D0032804D010E06868FFF70AFFE0E755
:10B4A00026480068002807D024480068002101745D
:10B4B000C06922490860F3E7D3E7D2E71F48006874
:10B4C000A04201D0012000E00020C0B270BD000009
:10B4D00049200020081301400410014008100140D9
:10B4E0001C200020F0B50023144C2468002C20D030
:10B4F000124C24682568A84203D225682D1A2560BD
:10B5000017E02568401B25685B19002525600B4D59
:10B510002D68E669094F3E60E668002EE4D0CE183B
:10B520003602360A6660E668A6601668E66115604F
:10B53000DAE7F0BD04150140401501401820002055
:10B540004A20002070B5040039480668002C05D157
:10B55000834800788249497888425CD0002C03D027
:10B560002500E86904002AE07D4840687C490978A4
:10B570001822514340187A490978491C784A1170B9
:10B5800077490978764A9278914202D10021744A2B
:10B59000117045680178012902D1297C002900D069
:10B5A000D4E781686960C168A9600169E96041699F
:10B5B000A961C1490978002901D000216960686842
:10B5C0009C490968401A0002000A9B49884208D237
:10B5D000984801686868FFF731FEA968401828603C
:10B5E0000DE0696893480068FFF728FEA968884263
:10B5F00003D2A968081A286001E000212960002010
:10B6000068600020A860012028740020E8612800FC
:10B61000FFF71BFE9AE706480068B04201D0012000
:10B6200000E00020C0B270BD202000204720002094
:10B6300018200020F1B584B0AF48006800283AD047
:10B64000AD48006800680190FFF7F5FD06007948F5
:10B65000046821003000FFF7F1FD0500ED1CC6482D
:10B660000078002801D1FFF7AEFD0198854201D294
:10B67000019800E0280020180002000A00900098BD
:10B68000FFF7E0FDFFF7D7FD070031000098FFF757
:10B69000D5FD040031003800FFF7D0FDC01C844206
:10B6A0000BD2FFF7C8FDFFF7CDFD2F20FFF76EFD92
:10B6B000FFF72AFE01E0FFF79FFD05B0F0BD000097
:10B6C00048200020F01F0020F0B583B0002000903B
:10B6D000584807688848056801A8FFF781FE0600FA
:10B6E000FFF7BAFE0400F6B2002E06D06A46390013
:10B6F0000198FFF7F7FE012004000098FFF722FFF2
:10B70000002801D001200400E4B2002C02D028005F
:10B71000FFF790FF002068490870F7BD974948700F
:10B72000704710B5010095484278521C1000934BA9
:10B730009B78C0B2984201D10020020010008F4BCC
:10B740001B78C0B2984201D1002007E00A708B48F4
:10B7500040688A4B5B7818246343C01810BD000012
:10B76000E81F0020F7B504001F00002500206946EF
:10B770000870684600F070F900A8401CFFF7D1FF80
:10B780000600002E02D1042005000EE001203070DA
:10B790007460FFF750FDB0600198F060029830616E
:10B7A000776168464078FFF7B9FF6846007800F097
:10B7B00059F9002D01D1FFF7ACFD2800FEBDF8B509
:10B7C00004000F000025002069460870684600F05C
:10B7D00043F900A8401CFFF7A4FF0600002E02D189
:10B7E0000420050005E03770746068464078FFF774
:10B7F00095FF6846007800F035F9002D01D1FFF77C
:10B8000088FD2800F2BD80B500205D490860002059
:10B810005C49086000205C49086000205B490860C2
:10B8200000205B49086000205A490860FFF790FD3E
:10B8300001BD00001C200020FFFF7F0080B5FFF746
:10B8400043FF01BDF8B505000C0016001F003000D5
:10B85000FFF794FC002801D107202CE0002E01D135
:10B86000072028E0FFF7C8FC4B4807600020434949
:10B870000870002041494870404884703F48466045
:10B8800000201D49086000204449087000204449F8
:10B8900008701420FFF729FC03211420FFF72CFC6B
:10B8A0001420FFF70DFC2800FFF784FCFFF7C3FC12
:10B8B0003C4908600020F2BD4A20002010B503007A
:10B8C0002E484068002801D1082014E0100000280C
:10B8D00001D107200FE0002B01D107200BE01868F1
:10B8E000007C002801D0082005E01C68002020749E
:10B8F00061746261002010BD18200020F8B50600B8
:10B900000C00170000961D484068002801D108204F
:10B910001AE0002E01D1082016E0052C01D20720E4
:10B9200012E000984069002801D108200CE000983E
:10B93000407C012801D1250000E000253B002A00C1
:10B9400021000098FFF70EFFF2BD38B50400250076
:10B950000A484068002801D108200CE0002C02D0E1
:10B960006869002801D1082005E000202874022120
:10B970002800FFF724FF32BD49200020E81F0020E7
:10B980004011014044110140481101404C11014057
:10B990000011014004110140202000204720002018
:10B9A000482000201C20002010B584B00400684608
:10B9B0000C2100F087F802946A460021014800F04B
:10B9C00091F81FBD01400000EFF3108072B6704780
:10B9D00062B6704738B50400FFF7F6FF05001A4855
:10B9E000406800280ED101201749486017480068B8
:10B9F00017490140144801601548144908600020A7
:10BA0000207001E001202070002D01D1FFF7E0FF40
:10BA1000002032BD38B504000B484068002810D023
:10BA2000E4B2002C0DD1FFF7CFFF050006480068F7
:10BA300008490860002004494860002D01D1FFF743
:10BA4000C7FF002032BD0000F81F002080E100E0A9
:10BA5000FC06FFBC00E100E010B504002000FFF789
:10BA6000B9FF10BD10B504002000C0B2FFF7D2FF2F
:10BA700010BDFEE71206130A1A43130C1A4300BF47
:10BA8000094205D0830705D00270401C491EF9D138
:10BA900070470000130030B414001500103902D3B1
:10BAA00010393CC0FCD2490700D30CC000D504C0FB
:10BAB000890002D30280801C002900D5027030BCAE
:10BAC000704700000022E5E700B5BFF34F8F034841
:10BAD00003490860BFF34F8F00BFFDE70400FA057C
:10BAE0000CED00E070B504000D001600FFF7ECFF50
:10BAF00070BDFEE700B5BFF34F8F9F489F490860B8
:10BB0000BFF34F8F00BFFDE70100A020C0057047C5
:10BB1000F3B581B017001C00089D099E01A8FFF72E
:10BB2000F3FF6946097AFFB27A000A43E4B2A10042
:10BB30001143EDB22A020A43F6B2330413430199CA
:10BB4000042251434118E022D2008B50F7BD1CB5AE
:10BB50000400002001900020009000230122012118
:10BB60002000FFF7D5FF13BD30B583B005000C00F2
:10BB700000200190002000902300DBB20022002171
:10BB80002800FFF7C5FF37BD11B581B001A8FFF749
:10BB9000BBFF0400012101988140200000F022F841
:10BBA00013BD11B581B001A8FFF7AEFF040001215C
:10BBB00001988140200000F019F813BD11B581B043
:10BBC00001A8FFF7A1FF0400200000F007F8010022
:10BBD0000198C1400800C007C00F16BDA221C900CE
:10BBE00040587047A122D20081507047C54A815009
:10BBF0007047000000B5A74900280ED0C24A12685D
:10BC000000BF00BF00BF00BF00BF00BF00BF00BF3C
:10BC10008A4200D000BF0138F2D100BD10B5040047
:10BC2000FA2080006043FFF7E5FF10BD80B51520C6
:10BC3000FFF78DFF1520FFF7A7FF01BD80B5152089
:10BC4000FFF785FF1520FFF7ACFF01BD38B50120D8
:10BC500069460870684600780007000F102101430C
:10BC6000684601700B22BF4968467CDF040025004E
:10BC7000002D02D02800FFF797FE31BDF0B591B03E
:10BC800004270020694608703C25002402AE2200EB
:10BC900029003000FFF7EEFE684603900220694657
:10BCA000087202A8C77069460020085677DF002195
:10BCB00002A800F0EFFE0190019E002E02D030009D
:10BCC000FFF772FE18240025BA4E2A00210030002A
:10BCD000FFF7D0FE0320B74908700020B54948603F
:10BCE0000020B4490872C8208000B24908820020B0
:10BCF000B049488211B0F0BD70B5AE4873DF0400A2
:10BD00002500002D02D02800FFF74EFE0220010082
:10BD1000002005002E00002E02D03000FFF744FE68
:10BD200070BD70B586B0A44800680090002348221A
:10BD3000AA49684600F0F0FF04002500002D02D05B
:10BD40002800FFF731FE01AA0021002001F03EF893
:10BD500005002E00002E02D03000FFF725FE01A8BE
:10BD600001F051F804002600002E02D03000FFF749
:10BD70001BFE06B070BD00000400FA050CED00E0EB
:10BD8000F8B504002078002800D081E0A948AD492A
:10BD90000978401801F01BF9A648AA490978405CC7
:10BDA000242802D02A280DD04EE00020A649087091
:10BDB0000120A649087024209E4908700120A1494D
:10BDC000087065E0A0480078032839D199489D495A
:10BDD00009784018401E0078412814D19C4800780A
:10BDE000401C9B4908709A480078042828D10020FC
:10BDF0009749087000F070F80020964908700220FA
:10BE00009C4908701CE093480078782813D100F012
:10BE100063F800208F4908701025974E854F2A003F
:10BE20003100380001F004F9102086490870022022
:10BE30009049087004E087480078401C85490870E4
:10BE400000208249087023E08048007801281AD138
:10BE50007C480078052816DB76484078472812D1C0
:10BE6000744880784E280ED17248C07852280AD182
:10BE7000704800794D2806D16E484079432802D198
:10BE80000320714908706F480078401C6D490870A4
:10BE9000F1BD00000024F40030B58BB004A88E4939
:10BEA000182201F0D9F88D480090802040000190C0
:10BEB0008B4802908020400003900323A94A6946E2
:10BEC00004A801F022F804002500002D02D028006B
:10BED000FFF76AFD0BB030BD80B50020A2490860B5
:10BEE0000B20FFF734FE0B20FFF74EFE01BD80B59F
:10BEF00004209D4908600B20FFF729FE0B20FFF767
:10BF000050FE01BD0C050000C018002038B548DF08
:10BF100004002500002D02D02800FFF745FD31BDAB
:10BF200038B5A2480068FFF710FD04002500002D79
:10BF300002D02800FFF738FD31BD10B504009C4841
:10BF40000078401E9A49087099480078002807D167
:10BF5000FFF7E6FFFFF7CBFF96480078944908709B
:10BF600010BD000044F6010038B5002214009248CC
:10BF70000068002180221202002301F087F8FA22D3
:10BF80005200002312184B4110001900FA229200AF
:10BF9000002301F094F80100220088480068FFF7B0
:10BFA000ADFC04002500002D02D02800FFF7FCFCAA
:10BFB00031BD0000701F002088F6010038B5002256
:10BFC000802109027E480068FFF798FC04002500E4
:10BFD000002D02D02800FFF7E7FC31BD441E0020F1
:10BFE00080B578480078401C76490870754800781C
:10BFF0003C281ED100207349087073480078401C0B
:10C00000714908707148007801F032F96E48007883
:10C010003C280ED100206C4908706D480078401C07
:10C020006B4908706A480078182802D100206849D6
:10C03000087001BDCC19002010B50400FFF7D0FF37
:10C0400010BD00004F20002052200020532000206F
:10C05000582000205420002010B501215E4801F036
:10C060007EF90400002C02D02000FFF79DFC01F0B7
:10C0700034F910BD572000208C18002010B50400A2
:10C08000FFF7EAFF10BDF8B50023544A0521002050
:10C09000FFF7D8FB04002500002D02D02800FFF791
:10C0A00083FC4F4A01214148FFF708FC07004D4A35
:10C0B00001214348FFF702FC05004B4A0121454896
:10C0C000FFF7FCFB060000960098002802D00098BD
:10C0D000FFF76AFCF1BD00002CF60100CC1A00202D
:10C0E000CC1B002080B5FFF705FD01BD38B505006C
:10C0F0000C00E4B2012C12D1EDB22800062802D0C7
:10C10000162803D00BE001F086FC08E003209349D9
:10C11000087093480078401C91490870FFE731BDD2
:10C1200070B59049012001F02FFD04002500002D7D
:10C1300002D02800FFF738FC322202218A4801F0A1
:10C14000E1FD05002E00002E02D03000FFF72CFC90
:10C1500001F01BFE04002600002E02D03000FFF785
:10C1600023FC70BD81BD01000025004070B584B086
:10C1700068467E491CC91CC00C390C387C4968468D
:10C1800001F00EF804002500002D02D02800FFF772
:10C190000BFC784801F035F805002E00002E02D087
:10C1A0003000FFF701FC01F021F87FBD7CF60100B3
:10C1B000C7180020C6180020841800207CF6010053
:10C1C00080F6010050200020C418002051200020DB
:10C1D000C518002084F6010040200020CC1D00205E
:10C1E0003BBF010039C001007DC0010080B50321C3
:10C1F0001720FFF7B9FC1720FFF7E0FC002801D05B
:10C20000012000E0002002BD80B5FFF73CFFFFF7F2
:10C2100088FDFFF71BFDFFF731FDFFF7A7FFFFF7D5
:10C220003BFEFFF759FEFFF767FD01F0E1FBFFF76B
:10C2300077FF01F023FEFFF7F9FCFFF7BFFEFFF7E2
:10C2400093FE4648007801281FD07BD303283DD0B9
:10C2500002D3042876D075E0192247480178474870
:10C2600001F033FEFFF7EAFC4548027892B2002164
:10C27000444801F068F900203F4908700020404917
:10C2800008700120354908705CE03F48FFF7C6FCA4
:10C290003848007800F0ECFF3C48007800280BD0CC
:10C2A0003A48027892B23A493A4801F08EFE0028A4
:10C2B00002D000203549087004202849087001F098
:10C2C00097FBFFF7B3FCFFF74FFE3BE02E48FFF76D
:10C2D000A5FC2848007800F0CBFF2148007803280F
:10C2E00029D1FFF71DFEFFF7F7FD00202449087054
:10C2F0000120294908700120274948702748007803
:10C3000025498870264800782349C87019220421DD
:10C31000214801F0DAFDFFF791FC1948027892B24A
:10C320000021184801F00FF900201549087001207C
:10C330000A49087002E004200849087000200849F2
:10C340000870FFE7FFF752FF002802D101F09EFDC1
:10C3500001E001F0A3FDFFF7D9FD72E757200020AF
:10C3600055200020881F00209C18002050F6010056
:10C37000E5C00100512000204F200020CC190020F2
:10C380004E200020CC180020B80B000063200020B5
:10C390007C180020CC1C0020881800205020002091
:10C3A00056200020020010000870100080B2000A21
:10C3B000487002207047F4B584B004000D00684650
:10C3C000008A29880931884201D20C2030E002A875
:10C3D00071DF0600002E01D0300029E008202988F6
:10C3E00060542888401C28801B2029886054288895
:10C3F000401C28800620019002A8401C009028883C
:10C400002718019A0099380000F012FE2888801D34
:10C4100028806846007A002803D1002029886054CB
:10C4200002E00120298860542888401C28800020D0
:10C4300005B0F0BDF8B582B003000C0018780128F3
:10C4400004D15878002801D1072057E068460089B8
:10C450001188891C88420AD31878012809D16846B6
:10C46000008911885D784919891C884201D20C2005
:10C4700044E0684600891188401A851E6846058098
:10C48000694610882018801C7DDF0100002901D03A
:10C49000080033E01878022807D128006E46368855
:10C4A00080B2B04201D309260FE00826187801288F
:10C4B00009D128005F7880B2BFB2B84203D3587860
:10C4C0006F46388001E06846058068460088FF288E
:10C4D00001D30C2012E068460088401C1788E05504
:10C4E0001088401C1080108826541088401C108032
:10C4F00010886F463F88C01910800020FEBDF8B537
:10C5000006000C001700BFB22088001D874201D230
:10C510000C201DE0684679DF0500002D01D02800C1
:10C5200016E00320218870542088401C20801920A8
:10C53000218870542088401C20802088311868464B
:10C540000088FFF72FFF2188C0B208182080002044
:10C55000F2BD30B504009BB21088C01C834201D2EA
:10C560000C2011E00220158848551088401C1080CE
:10C570000120158848551088401C108010880C54E4
:10C580001088401C1080002030BD30B504009BB2E4
:10C590001088C01C834201D20C2011E002201588B3
:10C5A00048551088401C10800A201588485510886E
:10C5B000401C108010880C541088401C10800020F3
:10C5C00030BDFFB583B00C9B0024188869464880B5
:10C5D000002503980088854249DA02A80399496832
:10C5E00004226A4389180A8802804A88428000220D
:10C5F000694602A865DF0600002E01D030004DE03C
:10C60000684600786946097D88422ED1E4B2002C44
:10C6100001D0002700E002276846818E18886A460C
:10C6200012788018FFB2C019814201DA0C2035E07F
:10C63000E4B2002C0CD11888401C18806846007C9D
:10C6400006991A8888541888401C18800120040014
:10C65000069819884218694602A865DF00281DD18E
:10C6600019886A461278891819806D1CB1E7E4B2FE
:10C67000002C12D0684619886A465288891A491EC9
:10C68000818068468088FF2801DD0C2006E068462E
:10C69000808806996A4652888854002007B0F0BD09
:10C6A000F7B582B01F000A9E0B9D280080B2019052
:10C6B00000963B0002226846017B0298FFF781FF4B
:10C6C0000400002C01D0200010E0280080B201906E
:10C6D00000963B0010226846017C0298FFF771FF2C
:10C6E0000100002901D0080000E0002005B0F0BDE5
:10C6F00000B501000888062807DB0888124A904226
:10C7000005DB0888114A904201D007201BE04888C9
:10C71000062807DB48880C4A904205DB48880B4A0C
:10C72000904201D007200EE00888084A904209D0C4
:10C730004888064A904205D048880A88904201D22B
:10C74000072000E0002000BD810C0000FFFF00007A
:10C75000F8B507000E001400684600882188891D7E
:10C76000884201D20C2026E03800FFF7C1FF050007
:10C77000002D01D028001EE005202188705420885B
:10C78000401C20801220218870542088401C20806A
:10C79000208831183888FFF705FE2188C0B20818B4
:10C7A0002080208831187888FFF7FCFD2188C0B2EE
:10C7B000081820800020F2BDFAB583B005001400EF
:10C7C000AE88B61C6846008A21888919891C88426F
:10C7D00001D20C2035E0FF2E01D30C2031E03000D7
:10C7E000401C0399228888542088401C2080FF2008
:10C7F0000399228888542088401C2080039821882F
:10C8000041182888FFF7CEFD2188C0B20818208083
:10C81000A888002814D0A868002801D1072010E0BB
:10C82000A8880190A8680090039821884718019A69
:10C830000099380000F0FCFB2088A988401820806F
:10C84000002005B0F0BDFBB584B014000498806AE8
:10C85000002801D1072049E00026300004992C224D
:10C86000895CC0B2884240D20498806AF6B20C213A
:10C8700071434518A888801C00900098FF2801D3B8
:10C880000C2033E00098401C0599228888542088A9
:10C89000401C208016200599228888542088401C3E
:10C8A00020800598218841182888FFF77BFD218882
:10C8B000C0B208182080A888002814D0A8680028D2
:10C8C00001D1072012E0A8880290A868019005987D
:10C8D00021884718029A0199380000F0A9FB2088A6
:10C8E000A98840182080761CB7E7002007B0F0BD6B
:10C8F000F2B582B005001600002437880020308091
:10C900002D20285C00280AD03A0092B2310002980B
:10C91000FFF751FD0400002C01D02000A7E0A8780B
:10C9200000280AD03A0092B231000298FFF7E7FDE2
:10C930000400002C01D0200099E0E87800280CD0F9
:10C940003B009BB232000299E87840B2FFF701FE4B
:10C950000400002C01D0200089E0686800280FD076
:10C960003B009BB2320002998C4668680021405619
:10C970006146FFF70AFE0400002C01D0200076E09B
:10C98000288900280FD0380080B201900096029BC1
:10C990000622022128000830FFF782FE0400002C46
:10C9A00001D0200063E0288A00280FD0380080B230
:10C9B00001900096029B0722032128001030FFF708
:10C9C0006FFE0400002C01D0200050E0288B0028CE
:10C9D0000FD0380080B201900096029B15221421DE
:10C9E00028001830FFF75CFE0400002C01D0200066
:10C9F0003DE0286A00280BD03B009BB23200029930
:10CA0000286AFFF7A5FE0400002C01D020002EE0CC
:10CA1000686A00280BD03B009BB232000299686A1A
:10CA2000FFF7CAFE0400002C01D020001FE02C20DC
:10CA3000285C00280BD03B009BB2320002992800F2
:10CA4000FFF701FF0400002C01D020000FE0287840
:10CA500000280BD03B009BB2320002992800FFF760
:10CA6000E9FC0400002C01D0200000E02000FEBD05
:10CA700000B50100C878400701D4072000E000207D
:10CA800000BD00B50100C878002801D0072000E0F3
:10CA9000002000BDF1B592B00F001F20694648800C
:10CAA0001F20694608801298002814D01298FFF7BA
:10CAB000DFFF0500002D01D0280032E000AA921C03
:10CAC00009A91298FFF714FF0400002C01D02000E0
:10CAD00027E009AD03E00025002069464880002FCB
:10CAE00013D03800FFF7CDFF0600002E01D0300034
:10CAF00017E06A4601A93800FFF7FAFE0400002C8F
:10CB000001D020000DE001AA03E0002200206946C8
:10CB1000088068460388DBB268464188C9B22800AD
:10CB200072DF13B0F0BDFEE70121C206D20E9140C4
:10CB3000954A116070470121C206D20E9140934A76
:10CB40001160704700B540B2002811D5714940B25C
:10CB50000207120F083A920804235A4389588007A3
:10CB6000800F08225043C14088098007800F0DE0E4
:10CB7000874940B2820804235A4389588007800FAE
:10CB800008225043C14088098007800F00BD00B5CE
:10CB9000800701D1012000E00020C0B200BD00B537
:10CBA000010049B2202905DA844ACA401000C007B2
:10CBB000C00F00E0012000BD00B50100042901D331
:10CBC000002006E0002901D0022901D1002000E068
:10CBD000012000BD10B50400200040B2FFF7DFFFC8
:10CBE000002801D1764824E0200040B2FFF7AAFFD8
:10CBF000FFF7E2FF002801D172481AE0724840684E
:10CC0000002811D0704864B2610904225143405891
:10CC10000121E206D20E914001436B4864B26209E1
:10CC200004235A43815003E0200040B2FFF77CFF09
:10CC3000002010BD544940B2420904235A43895888
:10CC4000C006C00EC1400800C007C00F704770B5D5
:10CC500006000D001400220029003000FEF742FFFC
:10CC600070BD7CB57048007800284DD000266F4814
:10CC70000068002801D1012400E00024F6B2002E53
:10CC80001CD16B48007800283ED101A852DF050076
:10CC9000052D02D10120060010E0002D03D0280050
:10CCA000FEF782FE0AE0019801F08AFA6148006806
:10CCB000002803D001985F4909688847E4B2002C36
:10CCC0001CD15B48007800281ED15B48008869466B
:10CCD000088069465948006861DF0500052D02D1CA
:10CCE000012004000AE0002D03D02800FEF75CFEBE
:10CCF00004E0524800684D4909688847F6B2002EA2
:10CD0000BCD0E4B2002CB9D073BD4748007870475E
:10CD1000000000001CED00E0FEB507000C00002C38
:10CD200001D107202FE02000FFF731FF002801D1BB
:10CD3000072028E041480460684680883E49088012
:10CD400002983F4908600020FFF774FF0500EDB22C
:10CD5000002D02D00020FFF7EEFE3A49380010DF28
:10CD60000600002E07D0EDB2002D02D00020FFF704
:10CD7000DBFE300007E001202B49087001F028FAA3
:10CD80001620FFF727FFFEBD00E100E080E100E094
:10CD900000E400E038B52A48006800280AD0284896
:10CDA0000068804704002500002D02D02800FEF70F
:10CDB000FBFD01E0FFF755FF31BD0000FC06FFBCA5
:10CDC0000120000002200000F81F0020F1B50C0037
:10CDD0001500142600273A0031002800FEF74AFE0D
:10CDE0000120288000202861287BFE210140297332
:10CDF0002C72684600786872687A002801D0012099
:10CE0000A8720020F2BD00B583B002000E48009069
:10CE10000098019001A9100060DF0199009B9942E0
:10CE200000D100280EBD00005A200020382000202C
:10CE30005B2000203C2000204220002034200020E5
:10CE4000302000204FCC0100701800208168C0689D
:10CE5000401A70477CB504000D00207800283FD0B0
:10CE600002282ED050D260680178684801F010FA8C
:10CE70000600002E08D00120694608700196684619
:10CE80006349096888470BE06048FFF7DFFF002827
:10CE900006D000206946087068465D4909688847E1
:10CEA0005A48FFF7D3FF59498988814205D30122A7
:10CEB0005849594801F070FC02E0012057490870B8
:10CEC00022E0022069460870E06801900122514981
:10CED000514801F061FC68464D490968884713E0F4
:10CEE0004F49504801F0E6F9002805D101224C498C
:10CEF000494801F08FFB06E0032069460870684648
:10CF0000434909688847FFE773BDFCB589B0040051
:10CF10000E0009983E490860002E01D1072054E018
:10CF2000726892B23168394801F098F90500002D15
:10CF300001D0280049E0F26892B2B168394801F0A6
:10CF40008DF90700002F01D038003EE068463649D1
:10CF5000202200F081F860690690207C002801D131
:10CF6000002000E00120694608750AA8007869469B
:10CF70000877607C002801D00E2000E00020694680
:10CF80004875E0680290A06803902068019060688E
:10CF90000090264A6946204801F0A7FA0500002DB6
:10CFA00001D0280011E000201C49087020680021F1
:10CFB000C943884208D0184801F028FC01221549CD
:10CFC000154801F0E9FB00E000200BB0F0BDF8B51A
:10CFD00007001248057839000C4801F06BF904008D
:10CFE000EDB2002D0FD000200C4908700122094934
:10CFF000094801F0D1FB060000960098002802D0F5
:10D000000098FEF7D1FC2000F2BD0000C81F0020F0
:10D01000242000204C200020701800204D200020EB
:10D020004B200020D81F0020D0F5010055CE010074
:10D03000124207D08B0706D00B78491C0370401CA6
:10D04000521EF7D87047830706D00B78491C03702F
:10D05000401C521EF9D1704770B4103A03D378C9FE
:10D06000103A78C0FBD2530701D318C918C001D5B4
:10D0700008C908C0D20704D30B880380891C801C10
:10D08000002A01D50B78037070BC704730B443435D
:10D0900051435D18010C0C00130C5C432D1980B238
:10D0A000434392B251430024C918644124040B0441
:10D0B000090C09195043C018694130BC704712422D
:10D0C00024D0994228D970B500251B4202D00C000B
:10D0D000002109E00024012649186441944200D34C
:10D0E000A41A7641F8D33100012601E0764109D235
:10D0F000001864416D41A41A9D41F7D2A4185D4106
:10D10000B619F5D3300022002B0070BD1B42D8D1D8
:10D1100008B5C046C04608BD01D19042D3D2020036
:10D120000B00002100207047C0B2464908607047DC
:10D130000121454AC0B2115070470021424A00B255
:10D140001150704741490860704700B53F49096870
:10D150000840002801D0012000E00020C0B200BD3E
:10D160003B49086070473B490968012282400A43F5
:10D1700038490A6070473849384AC0B204234343EB
:10D18000D150704780B50120FFF7DFFF012806D19D
:10D1900080204000FFF7D1FF31480068804701BD83
:10D1A00038B504000D002E4805602E480078002890
:10D1B00005D101202B490870002C04D101E0082082
:10D1C00013E0294804002078FFF7AEFF6068802153
:10D1D00009024843FA21890001F00AFCFFF7C0FF69
:10D1E000217A102001F0B6FC002032BD80B501206C
:10D1F000FFF7A8FF0020FFF79BFF022019490870E6
:10D2000001BD38B504000020694608706846FEF785
:10D2100023FC1648006808280CD2144800682070C7
:10D2200012480068401C114908602078FFF79BFFF6
:10D23000002500E0042568460078FEF713FC28006E
:10D2400032BD00000C050140000001400403014014
:10D2500004050140080501403546526E00060140B4
:10D2600028200020592000205CF601002C200020FE
:10D2700010B504002000C0B2FFF77DFF10BDFEE72F
:10D2800054480068704701206E49086070476E4935
:10D290000860704700216B4A00B21150704700B51A
:10D2A000684900B20858002801D0012000E00020A1
:10D2B000C0B200BD654908607047654908607047A5
:10D2C0000121604AC0B211507047012061490860D5
:10D2D000704700205F490860704780B5FFF7D3FFB3
:10D2E00001BD10B580204000FFF7D4FFFFF7F1FF2C
:10D2F000FFF7C6FF5849C968574A527C02235A4370
:10D3000088525548407C401C534948745248407CE0
:10D310005149097C884220D200244F4880684068E7
:10D32000002804D14C4840684B49886006E04A48D0
:10D330008068406848498860012004004648806849
:10D340000068FFF7A4FFFFF7C0FFE4B2002C02D093
:10D350000020FFF7B5FF002000E0012010BD38B528
:10D3600005000C003C48807C022801D111202FE0F0
:10D37000022039498874384840683749886020005D
:10D38000354908740020344948743348C560324830
:10D3900080680068FFF77BFF80204000FFF77AFF7E
:10D3A000FFF793FF2C480068002803D00120FFF707
:10D3B00081FF0CE080204000FFF771FF0028F9D0CA
:10D3C000FFF78FFF0028F5D0012023498874002043
:10D3D00032BD000008750040E0B51F48C068002855
:10D3E00017D180204000FFF755FF0120FFF765FFB0
:10D3F000FFF76FFF012069460870FFF741FF69469C
:10D400008880012014498874684613490968884750
:10D4100017E0FFF766FF002813D00120FFF74DFF4C
:10D420000020694608700C48C06801900A48007CDA
:10D4300069460881012008498874684606490968D8
:10D44000884707BD00700040047500400473004029
:10D450000873004000750040A01F00200100A020BC
:10D46000C0057047F3B581B017001C00089D099EE8
:10D4700001A8FFF7F3FF6946097AFFB27A000A4371
:10D48000E4B2A1001143EDB22A020A43F6B233041A
:10D4900013430199042251434118E022D2008B50DA
:10D4A000F7BD1CB50400002001900020009000236F
:10D4B000012201212000FFF7D5FF13BD30B583B055
:10D4C00005000C0000200190002000902300DBB23A
:10D4D000002200212800FFF7C5FF37BD11B581B03C
:10D4E00001A8FFF7BBFF0400012101988140200043
:10D4F00000F022F813BD11B581B001A8FFF7AEFF0F
:10D500000400012101988140200000F019F813BDAA
:10D5100011B581B001A8FFF7A1FF0400200000F0C1
:10D5200007F801000198C1400800C007C00F16BDF0
:10D53000A221C90040587047A122D20081507047F3
:10D54000834A81507047F2B582B00700160001206F
:10D55000804908701920FFF7CEFFB6B2FF2E0ADC13
:10D560003200D2B20021380000F09BF979480078EF
:10D570000028FBD12BE068460489FF2568466946F0
:10D580000989320089180170200069460978C0B203
:10D5900088421CD268460078E4B2001BFF2803DCF6
:10D5A00068460078001B05002A00D2B22100C9B2EB
:10D5B000380000F076F9674800780028FBD164193C
:10D5C000C82000F042F8C82000F03FF8DCE719203E
:10D5D000FFF784FFF7BD80B51C20FFF762FF002036
:10D5E000FFF75FFF1D20FFF75CFF03211E20FFF701
:10D5F00065FF1C20FFF772FF0020FFF77CFF1D2056
:10D60000FFF76CFF01BD80B51220FFF74AFF122023
:10D61000FFF771FF0720FFF744FF1920FFF741FFD5
:10D620000720FFF75BFF1920FFF765FF01BD80B5FD
:10D630000720FFF760FFC82000F007F80720FFF77A
:10D640004DFFC82000F001F801BD00B50200501EDA
:10D65000002A06D000221100C9B26429F6DA491C5A
:10D66000FAE700BD38B504000025EDB2082D11DA47
:10D67000200603D51D20FFF731FF02E01D20FFF734
:10D680003AFF0020FFF72AFF64000020FFF733FF76
:10D690006D1CEAE731BD38B500240025EDB2082D38
:10D6A00010DA0020FFF71AFF64001E20FFF730FF9A
:10D6B000002802D02000012404430020FFF71BFFB4
:10D6C0006D1CEBE72000C0B232BD38B504001C2051
:10D6D000FFF711FF6006400EFFF7C4FFFFF7DBFF07
:10D6E00005001C20FFF7FAFE2800C0B232BD38B595
:10D6F00005000C001C20FFF7FEFE80202843C0B26E
:10D70000FFF7B0FF2000C0B2FFF7ACFF1C20FFF70F
:10D71000E5FE31BD80B5B44801780620FFF7E7FF8C
:10D72000B14841780720FFF7E2FFAF488178082031
:10D73000FFF7DDFF01BD10B5040087214D20FFF785
:10D74000D6FFAA48E4B2015D0920FFF7D0FF10BD63
:10D750000C0500006220002038B50500032000F011
:10D76000EBF91E20FFF7B1FF0007000F2C01044367
:10D770002100C9B21E20FFF7BAFF31BD38B5050040
:10D780001D20FFF7A2FFF12101406C000C43210096
:10D79000C9B21D20FFF7ABFF31BD38B505001E2013
:10D7A000FFF793FFFB210140AC000C432100C9B2FD
:10D7B0001E20FFF79CFF31BD38B505000120FFF7A3
:10D7C00084FFF82404402C432100C9B20120FFF754
:10D7D0008EFF31BD38B505000120FFF776FF440606
:10D7E000640E2C432100C9B20120FFF780FF31BD38
:10D7F00038B505001D20FFF768FF0007000F2C015A
:10D8000004432100C9B21D20FFF771FF31BD38B5B7
:10D8100005001D20FFF759FFFE2404402C43210082
:10D82000C9B21D20FFF763FF31BD10B50400210010
:10D83000C9B22220FFF75BFF10BD10B582B0040013
:10D840001E20FFF742FF694608701F20FFF73DFFCB
:10D850006946487068460078FC210140200A80072C
:10D86000800F084369460870200069464870684682
:10D8700001781E20FFF73BFF684641781F20FFF725
:10D8800036FF13BD38B505002620FFF71EFFF72130
:10D890000140EC000C432100C9B22620FFF727FF0E
:10D8A00031BDF8B504000E0017000120FFF784FF1A
:10D8B00000212420FFF71BFFF7211120FFF717FF9E
:10D8C0003900C9B22220FFF712FF00210E20FFF716
:10D8D0000EFF00210D20FFF70AFF1C20FFF70BFEB3
:10D8E0008020FFF7BFFEF6B2A419002528003900FA
:10D8F000C0B2C9B2884205D22078FFF7B3FE641CDB
:10D900006D1CF3E71C20FFF7E9FD40214020FFF7E5
:10D91000EEFE00214120FFF7EAFE0320FFF74CFF57
:10D92000F1BD80B50120FFF747FF9F211120FFF7D0
:10D93000DEFEFF212420FFF7DAFE00214020FFF762
:10D94000D6FE00214120FFF7D2FE0520FFF734FF6D
:10D9500001BD80B50120FFF72FFFFF211120FFF748
:10D96000C6FE00214020FFF7C2FE00214120FFF744
:10D97000BEFE0020FFF720FF01BD80B50020FFF7AD
:10D980001BFF8020FFF726FF0120FFF715FF002176
:10D990004020FFF7ACFE00214120FFF7A8FEFFF773
:10D9A000B9FE57480078FFF7C6FE56480078FFF7E3
:10D9B000D3FE55480078FFF7E1FE0120FFF7EDFEAA
:10D9C00052480078FFF714FF0020FFF720FFFF20E8
:10D9D000FFF72BFF4E48FFF730FF0120FFF752FF04
:10D9E000FFF7B7FF01BD0000AC180020B018002001
:10D9F00080B5FFF7F0FDFFF706FEFFF718FEC82021
:10DA0000FFF723FEFFF7B9FFC820FFF71EFEC8206F
:10DA1000FFF71BFE01BD10B51220FFF756FE3D4972
:10DA200008703C48007840063BD51E20FFF74DFEAD
:10DA3000394908703848007840072FD500210D205B
:10DA4000FFF755FE1320FFF740FE344908701C20F5
:10DA5000FFF751FD0020FFF705FE002420002F49AD
:10DA60000978C0B2884206D2FFF715FE2C49E4B20D
:10DA70000855641CF2E7294800782A49087000F02C
:10DA800069F82949087000F06BF82849087000F01F
:10DA90006DF8274908701C20FFF720FDFFF759FF9C
:10DAA00029E01C480078000705D5FFF73AFF002061
:10DAB000204908701FE017480078400719D515481D
:10DAC0000078C00702D5FFF744FF14E00120FFF7FC
:10DAD00073FEFF211120FFF70AFE00214020FFF70F
:10DAE00006FE00214120FFF702FE0020FFF764FE42
:10DAF00001E0FFF72EFFFF211220FFF7F8FD10BD18
:10DB0000CB180020C8180020C9180020CA1800200F
:10DB1000FF0300005F200020602000206120002023
:10DB2000CC1C0020632000205C2000205D20002011
:10DB30005E2000206220002038B505003120FFF76C
:10DB4000C4FDF82404402C432100C9B23120FFF762
:10DB5000CEFD31BD80B51920FFF7B7FDC0B202BDC3
:10DB600080B51A20FFF7B1FDC0B202BD80B51B2001
:10DB7000FFF7ABFDC0B202BD00B5800701D10120A7
:10DB800000E00020C0B200BDF1B584B00D0000245B
:10DB9000002D01D107202EE02800FFF7EDFF00281F
:10DBA00001D1072027E0174805606846007C14492A
:10DBB0000870002011490870042002900020019094
:10DBC000114E019A02993000FDF754FF0C4800787D
:10DBD00018214843009000260A480768320000993F
:10DBE0003800FDF747FF01F0AFF9002802D101F03E
:10DBF0007CF90400200005B0F0BD000046200020A4
:10DC0000452000201020002014200020F1B582B013
:10DC10000024200066490978C0B288423CD2654899
:10DC20000068E4B208216143461801273078874034
:10DC300061480068384000282CD05F480068B8432D
:10DC40005D490860307801F027FA05005B480068FC
:10DC50000121327891400140EDB2327828009040A5
:10DC6000814217D17078012801D1012000E0002005
:10DC7000EDB2C0B26840002801D1012000E00020D0
:10DC8000C0B200907068002804D00099C9B2307802
:10DC900072689047641CBCE7F7BDF8B506000F003A
:10DCA0000124B44046480068FDF74FFE0500002DF2
:10DCB00027D141480068204000281DD1300001F0E4
:10DCC000EBF9002805D03D48006820433B49086037
:10DCD00004E03A480068A0433849086036480068C4
:10DCE00020433549086000223648016834480068FE
:10DCF000FDF704FE050004E02F480068A0432E490C
:10DD00000860F1BDF0B583B006000C001700052FC8
:10DD100001D2072038E001F017F9002806D101F000
:10DD2000E4F80500002D01D028002DE02148066010
:10DD30001F48047023480760002020490860002025
:10DD40001D4908602000441EC0B2002817D0E4B26C
:10DD500008206043301800901B480068019000982C
:10DD6000807801A94870194A01A90098007801F04B
:10DD7000F9F80500002D01D0280005E0E2E7144A7B
:10DD800000210F48FDF79AFDFEBD10B5002408489C
:10DD90000078844209D201210648006808226243C3
:10DDA000805C01F01FF9641CF1E7002010BD000049
:10DDB00044200020002000200C200020082000200B
:10DDC00074F601000420002078F601009BDC0100BD
:10DDD0000DDC01000100A020C0057047F3B581B043
:10DDE00017001C00089D099E01A8FFF7F3FF694674
:10DDF000097AFFB27A000A43E4B2A1001143EDB2FE
:10DE00002A020A43F6B23304134301990422514310
:10DE10004118E022D2008B50F7BD1CB50400002051
:10DE20000190002000900023012201212000FFF733
:10DE3000D5FF13BD11B581B001A8FFF7CBFF0400DA
:10DE4000012101988140200000F00EF813BD11B5AA
:10DE500081B001A8FFF7BEFF0400012101988140B5
:10DE6000200000F005F813BDA122D20081507047B8
:10DE7000014A8150704700000C05000080B5122057
:10DE8000FFF7CBFF1220FFF7E2FF01BD80B51420A2
:10DE9000FFF7C3FF1420FFF7CDFF01BD80B51420AD
:10DEA000FFF7BBFF1420FFF7D2FF01BD10B5020042
:10DEB00050780223C9B28C1EA34204DA0400D05C5D
:10DEC00060405B1CF6E7C0B210BDF8B506000C0060
:10DED0001700002063490870AF206349614A127837
:10DEE000885460480078401C5E490870002008286B
:10DEF0000BDA5E49095C5C4A12185170594909787D
:10DF0000491C584A1170401CF1E757485549097897
:10DF1000475454480078401C5249087052485149AF
:10DF2000097844544F480078401C4E49087000203E
:10DF3000E4B2A0420ADA315C4B4A1218D172494964
:10DF40000978491C474A1170401CF1E748480068AD
:10DF50000090474800680021C943884202D101204F
:10DF6000434908600020C0B204280FDA6946C0B2F5
:10DF700042428918C9783C4A3A4B1B78D1543949F6
:10DF80000978491C374A1170401CECE73548057880
:10DF90002800401C3349087021000F31C9B23248B3
:10DFA000FFF784FF3049EDB248553C202E492D4AF9
:10DFB000127888542B480078401C2A4908702C4855
:10DFC0000068401C2A490860F1BDF4B582B0040025
:10DFD0000F002078AF2801D0002041E00026012169
:10DFE000092909DA605C7A18521E1278904201D031
:10DFF000002035E0491CF3E7092568460089854281
:10E0000015DA605D3C2810D12900491CC9B22000F6
:10E01000FFF74CFF01006219521E1278C9B29142FB
:10E0200003D12900491C0E0001E06D1CE5E7F6B2A2
:10E03000002E14D0607AA17AE27AC0B280280CD186
:10E04000C9B2012909D1D2B2792A06DAD2B2002A9C
:10E0500003D0084B1A70084B1A70C0B200E00020C1
:10E06000FEBD00004E200020CC1800207C180020AF
:10E0700078180020C6180020C71800202E49086014
:10E08000704700218022D20500B21150704700B5C0
:10E090008021C90500B20858002801D0012000E005
:10E0A0000020C0B200BDC0B28107890F234A1160B1
:10E0B0007047234940B2420904235A438958C00695
:10E0C000C00EC1400800C007C00F704780B50020D7
:10E0D000FFF7EFFF002803D10321002000F03AFDF5
:10E0E00001BD10B5002421480078002802D0852009
:10E0F000040017E000201D49886000201B4948608B
:10E1000000201A49086100201849C860FFF7DEFFA7
:10E11000FEF7FBFD002802D10120FFF7C4FF01201C
:10E1200012490870200010BD00B5010008680028E1
:10E1300001D002680A6000BD0803004018050040D5
:10E1400000E100E070B50400E4B2002C01D12E4DD6
:10E1500000E02C4D2800FFF7E7FF0600002E04D05A
:10E160002000C0B271688847F4E770BDB41F00207A
:10E1700080B580204000FFF78AFF00280CD0802067
:10E180004000FFF77EFF0120FFF778FF01201F49C5
:10E1900048700020FFF7D6FF82204000FFF777FF8E
:10E1A00000280CD082204000FFF76BFF0220FFF711
:10E1B00065FF0120154988700120FFF7C3FF01BDED
:10E1C00010B50400002C02D10020FFF7BBFF10BDEA
:10E1D00080B50020694608706846FDF73DFC0B4895
:10E1E0000078002801D1FFF77CFF0848C068401C78
:10E1F0000649C86001200549887068460078FDF727
:10E2000031FC01BDC41F0020BC1F0020B41F002032
:10E210008168C068401A704710B40268C368848877
:10E220002340D154C268521CC26010BC704730B445
:10E230000368846889B2641885882C401B5D13705C
:10E2400030BC704738B504000D002A0000212000C2
:10E25000FFF7EDFFA068401CA06031BD00B50300D2
:10E26000002901D10E2012E092B2002A05D092B20C
:10E27000501E92B21040002801D0092007E019601A
:10E28000501E9880002098600020D860002000BDBB
:10E2900038B505000C002800FFF7BAFFA9888142B5
:10E2A00006D32100C9B22800FFF7B6FF002000E026
:10E2B000042032BD38B505000C002800FFF7A8FF88
:10E2C000002805D021002800FFF7BCFF002000E057
:10E2D000052032BD002209B24250704700B509B294
:10E2E0004058002801D0012000E00020C0B200BD4D
:10E2F000C12292008150704700B5C122920080581F
:10E300000140002901D0012000E00020C0B200BD82
:10E31000C22292008150704701009020C00008582E
:10E320009022D200885070470421A022D200815050
:10E330007047844BC250844BC1507047A123DB000F
:10E34000C150A223DB00C2507047A321C90040582E
:10E35000C0B27047C9B27D4A815070470122C9B22C
:10E360004250704710B4C9B2D2B213000B43784C7C
:10E37000035110BC7047774A815070470100080B69
:10E3800040B270470100A020C0057047F3B581B0CE
:10E3900017001C00089D099E01A8FFF7F3FF6946BE
:10E3A000097AFFB27A000A43E4B2A1001143EDB248
:10E3B0002A020A43F6B2330413430199042251435B
:10E3C0004118E022D2008B50F7BD1CB5040000209C
:10E3D0000190002000900023012201212000FFF77E
:10E3E000D5FF13BD30B583B005000C0000200190AF
:10E3F000002000902300DBB2002200212800FFF75C
:10E40000C5FF37BD11B581B001A8FFF7BBFF040000
:10E41000012101988140200000F001F813BDA122E4
:10E42000D2008150704738B505000C0020680021EB
:10E43000C943884205D02068FFF7E4FF2068FFF752
:10E44000C4FF60680021C943884203D0002160688E
:10E45000FFF7C8FFA1692868FFF78DFF227D617D66
:10E460002868FFF77FFF626821682868FFF761FF6F
:10E47000207D012818D1A0680021C943884203D01B
:10E480000021A068FFF7AEFFE0680021C943884281
:10E4900005D0E068FFF7B6FFE068FFF796FFA268D7
:10E4A000E1682868FFF74AFF31BD38B504000D0068
:10E4B0008E2149002068FFF70DFFA2214900206846
:10E4C000FFF708FF66492068FFF712FF2068FFF793
:10E4D00055FF2900C9B240B200F03CFB31BD10B578
:10E4E00004002068FFF720FF10BDF4B504000E0003
:10E4F000A84821791C22514345180027E87E0028AE
:10E5000001D008201CE031002000FFF78CFF0098AC
:10E510006860306928606868002803D0317F200077
:10E52000FFF7C3FF2000FFF7DAFF0020E8750020A7
:10E5300028760020A8750120E8760020A87638000B
:10E54000F2BD0000140500000C0500001C050000D1
:10E550006C0500002405000070B504000D008E213C
:10E5600049002000FFF7B6FEA868A98A465CA88A81
:10E57000401CA8823100C9B22000FFF7EBFE70BD3D
:10E5800070B50400834821791C22514345180026A8
:10E590008E2149002068FFF79DFE08212068FFF7C3
:10E5A000DDFE29002068FFF7D7FF686800282FD11B
:10E5B000A88AA97D89B2884215D28E214900206897
:10E5C000FFF78CFE002804D1A88A802149008842E8
:10E5D000F3D1A88A802149008842E9D02900206827
:10E5E000FFF7BAFFE4E7A88A80214900884202D1F8
:10E5F0000F2006000AE08E2149002068FFF76EFE1A
:10E600000028F8D00C212068FFF7A8FE0020A8758C
:10E61000300070BDF8B504000F0015005D48217989
:10E620001C2251434618200000F00CF8002801D0AD
:10E63000112006E0B575B7600020B0822000FFF71A
:10E640009FFFF2BD00B5534900791C2250430818C2
:10E65000807D002801D0012000E00020C0B200BD74
:10E660008000020010B50400922149002068FFF7E5
:10E6700031FE842149002068FFF72CFE002120682C
:10E68000FFF76CFE10BD70B504000D00E87D00289A
:10E6900008D1842149002000FFF71CFE2000FFF76D
:10E6A00054FE0EE0842149002000FFF713FE6E7E29
:10E6B0002000FFF74AFEE968F6B28855687E401CE4
:10E6C000687670BDFEB582B00400324821791C2204
:10E6D00051434518A87E002806D16846007C0028D2
:10E6E00002D12000FFF7BEFF6868002849D1A221AF
:10E6F00049002068FFF7EEFD922149002068FFF7EE
:10E70000EDFD0600842149002068FFF7E7FD69461A
:10E710000870A22149002068FFF7E0FD0700684665
:10E720000078002805D1FFB2002F02D1F6B2002EEA
:10E73000E2D0F6B2002E02D1FFB2002F00D007E0E7
:10E7400029002068FFF79FFF687EE97D8842D3D3C8
:10E750000020E875F6B2002E01D0032017E0FFB2CA
:10E76000002F01D00F2012E0A87E002804D0002145
:10E770002068FFF7F3FD09E004212068FFF7EEFDB4
:10E7800004E0812189002068FFF7B2FD002005B078
:10E79000F0BD0000541F0020F2B50500170092489C
:10E7A00029791C225143441800266068002804D0AF
:10E7B000812189002868FFF7ABFDE07D00280ED09D
:10E7C000207E002809D06068002804D081218900BB
:10E7D0002868FFF78DFD112017E001200600F6B232
:10E7E000002E07D1E7750098E060002060760020D9
:10E7F000207602E00098206127763300DBB23A00F1
:10E80000D2B200992800FFF75DFFF2BD10B50400F9
:10E81000754821791C2251434018807E002809D177
:10E820002000FFF71FFF704821791C225143401838
:10E830000121817610BD7FB504000D001600012076
:10E8400069460870684605720196216868466268E4
:10E8500090477FBD30B585B004000D0000206946AB
:10E86000087068460572A06801900020A0752168B4
:10E8700068466268904705B030BDF0B585B00500C8
:10E880000C00802189002800FFF736FD00282CD0DD
:10E89000922149002800FFF721FD002825D0922170
:10E8A00049002800FFF716FD812189002800FFF7A5
:10E8B0002FFDA07E002803D104212800FFF74EFD84
:10E8C0000220694608702800FFF726FD0390E07DCE
:10E8D00069460872E06801900020E075002020760B
:10E8E00021686846626890473BE004212800FFF7F2
:10E8F00003FD002835D0842149002800FFF7EEFCF5
:10E9000000282ED021002800FFF7BDFEE07D617EAB
:10E91000884226D1207E002810D0E768667E207EBF
:10E92000E0752069E06000202076002060763A00E3
:10E930003100C9B22000FFF77EFF12E0A07E002860
:10E9400003D104212800FFF709FD81218900280057
:10E95000FFF7DEFC0020E075E268617E2000FFF733
:10E960006AFF8E2149002800FFF7B8FC002815D067
:10E97000A08AA17D89B2884204D221002800FFF735
:10E98000EBFD0BE08E2149002800FFF7A3FCA07DE2
:10E99000002803D0A17D2000FFF75CFFA2214900E1
:10E9A0002800FFF79BFC002815D0A2214900280071
:10E9B000FFF790FCA07E002803D000212800FFF77D
:10E9C000CDFCE07D002806D00020E075E268617E85
:10E9D0002000FFF730FF05B0F0BD80B502490348C5
:10E9E000FFF74BFF01BD0000541F00200020004036
:10E9F0000022030A8B420BD203098B4219D243082F
:10EA00008B422ED2411A00D2014652411046704725
:10EA1000FF2209023FD012068B4205D312120902CF
:10EA20008B4201D31212090203098B4219D300E071
:10EA3000090AC3098B4201D3CB01C01A5241830991
:10EA40008B4201D38B01C01A524143098B4201D33F
:10EA50004B01C01A524103098B4201D30B01C01A6A
:10EA60005241C3088B4201D3CB00C01A52418308E4
:10EA70008B4201D38B00C01A524143088B4201D311
:10EA80004B00C01A5241884200D3401A5241CFD2A3
:10EA900001461046704708B5C046C04608BDFEE7AF
:10EAA0000121C206D20E9140264A11607047012111
:10EAB000C206D20E9140244A11607047F0B540B2B0
:10EAC000002821D5214C40B20207120F083A9508C0
:10EAD000042255431D4A40B203071B0F083B9B0805
:10EAE00004267343D258FF238607B60F08277E43B8
:10EAF000B3409A438B01DBB28607B60F08277E43EB
:10EB0000B340134363511AE0114A40B2830804240E
:10EB10006343D258FF238407A40F08256C43A34006
:10EB20009A438B01DBB28407A40F08256C43A340F2
:10EB30001343074A40B2840804256C431351F0BDC7
:10EB40000000000000E100E080E200E01CED00E0D9
:10EB500000E400E038B505000C00E4B22100280014
:10EB600040B2FFF7ABFF280040B2FFF7A0FF28003C
:10EB700040B2FFF795FF31BD10B50400200000B290
:10EB800000F011F80068012801D1012000E0002008
:10EB9000C0B210BD10B50400200000B200F003F8B0
:10EBA0000021016010BD00B25A49401870477849F1
:10EBB0000860704776490968084070477549042223
:10EBC0004243895801220A43724904234343CA50ED
:10EBD000704770B46F4B042444431B59784C1C405D
:10EBE0006C4B042545435C516A4B042444431C5937
:10EBF0000B02F8256D011D40D2B21604C0239B0202
:10EC000033402B432343634C04254543635170BC7D
:10EC100070476049042250430858000AC006C00EDD
:10EC200070475C49042250430858000C8007800F4D
:10EC300070470100A020C0057047F3B581B01700F0
:10EC40001C00089D099E01A8FFF7F3FF6946097A99
:10EC5000FFB27A000A43E4B2A1001143EDB22A02E6
:10EC60000A43F6B233041343019904225143411875
:10EC7000E022D2008B50F7BD30B583B005000C0008
:10EC800000200190002000902300DBB20022002130
:10EC90002800FFF7D2FF37BD01B56846FFF7C9FF6F
:10ECA0000099042251434118E022D20089580222DF
:10ECB0009143009A04235A438218E023DB00D15089
:10ECC00001BD11B581B00C0001A8FFF7B2FF019999
:10ECD000042251434118E022D2008958994A0A403F
:10ECE0000199042359434118E023DB00CA500199DC
:10ECF000042251434118E022D2008958E4B2220490
:10ED00000A430199042359434118E023DB00CA5008
:10ED100013BD00000060004011B581B001A8FFF7ED
:10ED200088FF0400200000F016F801000198C1409F
:10ED30000800C007C00F16BD01B56846FFF779FF90
:10ED40000099042251434018E021C9004058000CAA
:10ED50008007800F02BDA221C90040587047F8B556
:10ED600004000F00150068467C490A68026026000E
:10ED7000E019864209D26846042171434058FFF7E2
:10ED8000EAFF28602D1D761CF2E7F1BD00000000AF
:10ED90000463004010650040C2084007400F012393
:10EDA0008340885C1840704710B4C2084007400F89
:10EDB0008B5C012484401C438C5410BC70470000C1
:10EDC000FFE0FCFF00B5664909182022895600299A
:10EDD00007D46349081820214056042801DA01208D
:10EDE00000E00020002801D0012000E00020C0B297
:10EDF00000BD00B55A49081820214056042801DBFF
:10EE0000012000E00020C0B200BD00B55449081840
:10EE100020214056002801D4012000E00020C0B28B
:10EE200000BD000070B50C004D4D2D182026AC55CE
:10EE30004B4C04254D436251DBB2002B04D104003E
:10EE4000474D6D183C26AC5570BD0021C943444A5E
:10EE500012182023D15470474149081820214056E8
:10EE600070473F4904225043085870470000F7B5E7
:10EE70000027FF436846007A002801D0002600E002
:10EE800004266846007A002801D0042500E0082501
:10EE90003400AC4213D2324804216143405800216F
:10EEA000C943884209D16846037A019A2100009833
:10EEB000FFF7B8FF2000070001E0641CE9E7380015
:10EEC00040B2FEBD00B50021C943254AC0B20423AB
:10EED0004343D150C0B2042806DB0021C943204A75
:10EEE000C0B212183C23D15400BD38B53C4800785C
:10EEF000002801D0082023E00025EDB2202D05DAFE
:10EF0000EDB22800FFF7A1FF6D1CF6E70024E4B284
:10EF1000082C05DA2000C0B2FFF7D4FF641CF6E726
:10EF200003210620FFF716FEBE204000FFF732FE49
:10EF300080200006FFF73BFE0120294908700020D1
:10EF400032BD0000FFFFFCFF00B525480078002817
:10EF500001D0012000E00020C0B200BD8CF601000D
:10EF60008C1E0020F4B506000C0000273000FFF7CF
:10EF70004CFF002802D0082007002FE0E27800991B
:10EF80003000FFF774FF05006DB20020C0438542DA
:10EF900022D0A078002803D03000FFF77DFE03E0E8
:10EFA00061783000FFF768FEE078002806D022780C
:10EFB00031006DB22800FFF70CFE0FE035486DB24E
:10EFC00040193C21415C20788001084331496DB2F1
:10EFD00049193C22885401E0042007003800F2BDA2
:10EFE000D01E0020F8B505000F002800FFF701FF34
:10EFF000002826D02800FFF72FFF6946254A40B297
:10F0000010183C22805C0870684600780600F6B252
:10F01000B609F6B2032E08D12800FFF77DFE0028BE
:10F0200001D0032407E0022405E0F6B2012E01D14D
:10F03000022400E003242100C9B22800FFF741FEAA
:10F0400027E02800FFF7BEFE002822D02800FFF7A7
:10F0500003FF04006846042161438022520089189E
:10F0600001802000FFF7AAFD009800B2FFF792FD93
:10F07000FFB2002F0DD02800FFF7EEFE40B2FFF7E1
:10F08000F0FE06003000002803D00120A040FFF76A
:10F090008EFDF1BD8C1E002010B504002000FFF78E
:10F0A0003BFE002801D0012000E00020C0B210BDCE
:10F0B000F0B58BB00020049005A8002101608020ED
:10F0C000400069468880012002900025042D1CD252
:10F0D000019800B2FFF750FD00280CD00298FFF70E
:10F0E00069FD002807D0019800B2FFF753FD04988E
:10F0F00002990143049102984000029068460199E8
:10F1000009B2091D81806D1CE0E7BE204000FFF7B9
:10F1100033FD00280DD0BE204000FFF73BFD0498D2
:10F12000802109060143049105AA01210020FFF76F
:10F1300016FE04980007000F002822D0012002903C
:10F1400000200500042D1CD20298049901400029DA
:10F1500012D02800FFF75DFD06002800FFF761FDD3
:10F1600007002800FFF77DFE04002000002803D0E0
:10F170003900C9B23000A0470298400002906D1CCF
:10F18000E0E70498002800D4C1E000206946087038
:10F1900007A8002101600024002C07D10020C043F3
:10F1A00006A9042262438850641CF5E700206946E2
:10F1B000087000200500042D6AD268465549491997
:10F1C0004022895CC1706846C078C02188430390A2
:10F1D00050484019402140560021C943884255D02B
:10F1E00006A90398FFF7D8FD00284FD06846694666
:10F1F000C978C9B2890941700398FFF72DFE40B262
:10F20000FFF72FFE07003800002803D1684640783A
:10F2100003283BD168464078032803D107A9039807
:10F22000FFF7C2FD0398FFF787FD6946887005A9BF
:10F230000398FFF7B1FD08900898002803D06846AE
:10F240008078022806D0089800281FD16846807868
:10F2500003281BD168464078032810D1684680787F
:10F26000022801D1032600E002263100C9B203982A
:10F27000FFF727FD684669460978491C0170380088
:10F28000002803D0684641780398B8476D1C92E780
:10F2900068460078002835D0012609AA01210020FF
:10F2A000FFF75DFD00200400002C0ED109A8042109
:10F2B0006143405805A9042262438958884202D01C
:10F2C0000020060001E0641CEEE7F6B2002E03D039
:10F2D00000206946087015E000200400002C11D1C0
:10F2E00009A804216143405805A9042262438850BB
:10F2F00007A804216143405806A9042262438850AC
:10F30000641CEBE768460078002800D04EE70BB09D
:10F31000F0BD00008C1E002080B500F023F800280E
:10F3200006D04F484F490860802000024E490860CF
:10F3300000F050F8002802D001204C49086000F08D
:10F3400065F800280DD04A480068012806D04948D1
:10F3500047490860464800680128FBD1C02046495B
:10F36000086001BD00B545480078C0B201282FD122
:10F37000434800780007000F002829D14148007851
:10F38000F0210140002907D13F480078F0210140D9
:10F39000002901D101201CE03A480078F021014009
:10F3A000102907D138480078F0210140002901D107
:10F3B00001200EE033480078F0210140302907D1C8
:10F3C00031480078F0210140002901D1012000E0FE
:10F3D000002000BD00B529480078C0B2012813D133
:10F3E000274800780007000F00280DD12548007835
:10F3F000F0210140402907D123480078F021014045
:10F40000002901D1012000E0002000BD00B51B480B
:10F410000078C0B2012821D1194800780007000FF8
:10F4200000281BD117480078F0210140A02907D1FE
:10F4300015480078F0210140002901D101200EE09B
:10F4400010480078F0210140D02907D10E480078FB
:10F45000F0210140002901D1012000E0002000BD81
:10F46000DFFF07C004050040186C0040080600409C
:10F4700000EC06407593000014EC0640E00F00F02D
:10F48000E40F00F0E80F00F0EC0F00F00020004067
:10F490000000000001000000836018100312000744
:10F4A00066210000010101014661696C65642074F8
:10F4B0006F206C6F6361746516000300EDC001007E
:10F4C00006010300EDC001006C8000008081818393
:10F4D0008485868788898A8B8C8D8E8F0024F400A2
:10F4E0003B0802020C02070F70B401000123002444
:10F4F00013E00A68091D1A4202D04D466D1E5219CA
:10F500001460121D001F0428FAD21500860701D5C9
:10F510001480AD1C184000D02C700868091D00280C
:10F52000E7D1080070BC704730B401220168001DAB
:10F5300000290FD00368C31844680830144202D071
:10F540004D466D1E64191D6825601B1D241D091F75
:10F55000ECD0F8E730BC70470321064802680A4344
:10F560000260054802680A43026004488047044874
:10F5700000470000240500405405004019F3010035
:10F5800069F6010010B5074979441831064C7C44EE
:10F59000163404E0081D0A68891888470100A14252
:10F5A000F8D110BD08000000280000003DFFFFFF5B
:10F5B00098070000CC180020000000006DFFFFFF3E
:10F5C0005C000000C8FEFFFF701800200000000073
:10F5D000FFFFFFFFFFFFFFFFFFFFFFFFFFFFFFFF3B
:10F5E000000000000000000000E0D7010300000060
:10F5F0000120C046002801D0FFF7C4FF002000BF53
:10F6000000BFFCF701FE00F000F880B500F002F842
:10F6100001BDFEE70746384600F002F8FBE7FEE7CB
:10F620002021090326311820ABBEF9E70A000000AB
:10F6300000000000080000000900000000000000B9
:10F640000050270055424950502D3130303037009E
:10F6500000000000A0860100030000000000000080
:10F66000A08601000300000000BF00BF00BF00BF74
:10F67000FFF7BEFFD41E002003000000F41E002090
:10F68000141F0020341F002001000007000000505C
:10F69000FEE7FEE7FEE7FEE7FEE7FEE7FEE7FEE742
:0EF6A000FEE7FEE7FEE7FEE7FEE7FEE7FEE719
:040000050001F66997
:00000001FF
