:020000040001F9
:10B00000F82E002001FA0100ABC2010027D6010092
:10B010000000000000000000000000000000000030
:10B020000000000000000000000000000FEE010022
:10B03000000000000000000015F9010003FB010002
:10B04000E5E401000FFB01004FED0100C1FB010031
:10B05000C3FB01000000000081F3010081D7010063
:10B06000C5FB0100C7FB0100C9FB0100CBFB0100D0
:10B07000CDFB0100CFFB0100D1FB0100D3FB0100A0
:10B08000E7D50100B3CF0100D5FB0100D7FB0100DC
:10B09000E9CF0100D9FB010019C50100DBFB01006C
:10B0A000DDFB0100DFFB01000000000000000000EC
:10B0B0000000000000000000000000000000000090
:10B0C00000B5BFF34F8F9F489F490860BFF34F8F74
:10B0D00000BFFDE70100A020C0057047F3B581B0B7
:10B0E00017001C00089D099E01A8FFF7F3FF6946A1
:10B0F000097AFFB27A000A43E4B2A1001143EDB22B
:10B100002A020A43F6B2330413430199042251433D
:10B110004118E022D2008B50F7BD1CB5040000207E
:10B120000190002000900023012201212000FFF760
:10B13000D5FF13BD30B583B005000C000020019091
:10B14000002000902300DBB2002200212800FFF73E
:10B15000C5FF37BD11B581B001A8FFF7BBFF0400E3
:10B16000012101988140200000F022F813BD11B5A3
:10B1700081B001A8FFF7AEFF0400012101988140D2
:10B18000200000F019F813BD11B581B001A8FFF738
:10B19000A1FF0400200000F007F801000198C14061
:10B1A0000800C007C00F16BDA221C9004058704753
:10B1B000A122D20081507047644A8150704700003C
:10B1C00000B5634900280ED0624A126800BF00BF74
:10B1D00000BF00BF00BF00BF00BF00BF8A4200D059
:10B1E00000BF0138F2D100BD10B50400FA20800084
:10B1F0006043FFF7E5FF10BD80B51520FFF78DFF19
:10B200001520FFF7A7FF01BD80B51520FFF785FFCB
:10B210001520FFF7ACFF01BD38B501206946087065
:10B22000684600780007000F10210143684601704E
:10B230000B22494968467CDF04002500002D02D01E
:10B24000280000F037FC31BDF0B591B00427002094
:10B25000694608703C25002402AE22002900300017
:10B2600000F038FC6846039002206946087202A884
:10B27000C77069460020085677DF002102A800F059
:10B28000CBFF0190019E002E02D0300000F012FC96
:10B2900018240025314E2A002100300000F01AFC4D
:10B2A00003202E49087000202C49486000202B49BB
:10B2B0000872C82080002949088200202749488256
:10B2C00011B0F0BD70B5254873DF04002500002DD6
:10B2D00002D0280000F0EEFB022001000020050053
:10B2E0002E00002E02D0300000F0E4FB70BD70B5DF
:10B2F00086B01B4800680090002348221949684620
:10B3000001F0CCF804002500002D02D0280000F048
:10B31000D1FB01AA0021002001F01AF905002E003E
:10B32000002E02D0300000F0C5FB01A801F044F966
:10B3300004002600002E02D0300000F0BBFB06B057
:10B3400070BD00000400FA050CED00E00C050000E3
:10B350000024F400B418002060FB0100F425002054
:10B36000ACFB0100C8240020F8B5040000206946A9
:10B3700008702078002800D085E1684601F017FAAF
:10B38000C1480078002814D0022856D037D30428AA
:10B3900000D18EE06FD3062800D1C6E000D2A6E02F
:10B3A000082800D140E100D22FE1092800D112E1A4
:10B3B00069E16846007824281DD10120B24908704F
:10B3C0000020C249087080256D000026C04F320061
:10B3D0002900380000F07EFB68460078BC49BB4A73
:10B3E00012788854B9480078401CB8490870002089
:10B3F000B849087002E00020A349087043E168469C
:10B400000078472815D102209F49087068460078C7
:10B41000AF49AE4A12788854AC480078401CAB491A
:10B420000870AC480078694609784140A948017025
:10B4300002E000209449087025E1684600784E2813
:10B4400015D103209049087068460078A0499F4AAA
:10B45000127888549D480078401C9C4908709D488B
:10B4600000786946097841409A48017002E000205E
:10B470008549087007E168460078472815D10420FF
:10B4800081490870684600789149904A127888543A
:10B490008E480078401C8D4908708E4800786946B7
:10B4A000097841408B48017002E00020764908701D
:10B4B000E9E068460078472815D1052072490870F0
:10B4C000684600788249814A127888547F4800781B
:10B4D000401C7E4908707F480078694609784140E1
:10B4E0007C48017002E0002067490870CBE06846A4
:10B4F0000078412815D10620634908706846007815
:10B500007349724A1278885470480078401C6F4919
:10B510000870704800786946097841406D480170AC
:10B5200002E0002058490870ADE0684600782A28FB
:10B530000ED1072054490870684600786449634A70
:10B540001278885461480078401C6049087041E0D6
:10B55000684600782C2821D106204B49087068469F
:10B5600000785B49594A1278885458480078401C42
:10B57000564908705748007869460978414055484F
:10B58000017085480078401C834908708248007823
:10B5900006281FD109203C4908701BE006203A49C3
:10B5A0000870684600784A49484A127888544748E3
:10B5B0000078401C4549087046480078694609787B
:10B5C00041404448017041480078802802DB002057
:10B5D0002D49087057E006202B490870684600780E
:10B5E0003B493A4A1278885438480078401C374919
:10B5F000087038480078694609784140354801703C
:10B6000068460078844908703DE008201E490870AB
:10B61000684600782E492D4A127888542B480078C5
:10B62000401C2A4908702EE000201749087068461F
:10B6300000782749254A1278885424480078401C0D
:10B6400022490870234800782149204A1278891835
:10B65000891E0978102251431D4A1C4B1B78D218B1
:10B66000521E127889186D4A891888420BD16A488F
:10B670000078312807D100206749087000F02CF8C5
:10B68000042090490870F1BDE826002030B58BB049
:10B6900004A87A49182201F0CFF879480090802058
:10B6A00040000190774802908020400003900323DF
:10B6B000964A694604A801F018F804002500002DF8
:10B6C00002D0280000F0F6F90BB030BDE0260020D3
:10B6D000D81F0020E926002080B500208C49086092
:10B6E0000B20FFF71AFD0B20FFF734FD01BD70B5ED
:10B6F0000420874908600B20FFF70FFD0B20FFF7A0
:10B7000036FD802464000025824E2A00210030008E
:10B7100000F0E0F970BD38B57F48006801F0EBFC3F
:10B7200004002500002D02D0280000F0C3F931BD2F
:10B7300010B50400FFF7EFFF7849032001F061FD29
:10B74000FFF7D5FF7749032001F05BFD10BD38B549
:10B750000022140072480068002180221202002397
:10B7600001F0DCFEFA225200002312184B411000B7
:10B770001900FA229200002301F0E9FE01002200E4
:10B780006948006801F090FC04002500002D02D0FB
:10B79000280000F08FF931BDE326002080B5644811
:10B7A0000078401C624908706248007801F034FF5C
:10B7B0005F4800783C281AD100205D4908705E4837
:10B7C0000078401C5C4908705B4800783C280ED12A
:10B7D00000205949087059480078401C57490870A2
:10B7E00056480078182802D100205449087001BD3D
:10B7F00010B50400FFF7D2FF10BD10B5012151486C
:10B8000001F081FF0400002C02D0200000F052F96A
:10B8100001F037FF10BD0000E4260020D0FCFFFF40
:10B8200010B50400FFF7E9FF10BDF8B50023464A44
:10B830000521002001F0DCFB04002500002D02D0D2
:10B84000280000F037F9414A0121334801F00CFC8F
:10B850000700894A0121354801F006FC0500874AA6
:10B860000121374801F000FC0600009600980028EE
:10B8700002D0009800F01EF9F1BD000034FB010079
:10B88000D8200020D821002038B505000C00E4B2F3
:10B89000012C15D1EDB22800062802D0162803D0BD
:10B8A0000EE002F062FA0BE00120754908700320F7
:10B8B0007449087074480078401C73490870FFE7A9
:10B8C00031BD0000DF26002070B57049012002F074
:10B8D00005FB04002500002D02D0280000F0EAF846
:10B8E000322202216A4802F0B7FB05002E00002E2A
:10B8F00002D0300000F0DEF802F0F1FB0400260078
:10B90000002E02D0300000F0D5F870BD69B3010000
:10B9100000250040D81F0020A0FB0100C0FA010054
:10B92000841800204CFB0100A0FB0100A4FB0100D7
:10B93000E1260020E2260020B8180020B9180020D7
:10B94000A8FB0100D0260020D823002031B7010039
:10B9500010B5012403211720FFF7ECFB1720FFF798
:10B9600013FC002801D1002004002000C0B210BD4B
:10B9700080B5FFF75AFFFFF7BAFCFFF74DFCFFF762
:10B9800063FCFFF79FFCFFF781FE01F0FBFFFFF771
:10B990009BFFFFF7DCFE3A48007801283BD1FFF718
:10B9A0009BFE3C48FFF720FC3B48007801F034FE4A
:10B9B0003548007803281ED1002031490870002046
:10B9C00036490870FFF720FC0A20FFF70DFC02F053
:10B9D000BDF919220421324802F0B5FB2F48027844
:10B9E00092B200212F4801F082FFFFF705FC0020F2
:10B9F0002A49087007E024480078052803D102F09E
:10BA00009FFCFFF75DFBFFF772FE00201E490870E8
:10BA100000201B49087024480078042821D1FFF732
:10BA2000F3FB02F093F9192220480178204802F034
:10BA30008AFB1A48027892B200211A4801F057FF97
:10BA4000FFF7DAFB0020184908700020174908703A
:10BA5000002012490870FFF77AFE0F48007801F0C5
:10BA6000DBFDFFF775FF002802D102F08FFC92E7A3
:10BA700002F094FC8FE70000F1B7010021B801004B
:10BA8000E5260020E7260020E62600200C260020E0
:10BA90008C180020B80B0000E2260020DE260020D3
:10BAA00088180020D81E0020DF260020E026002075
:10BAB000D81F002010B584B0040068460C2100F0A7
:10BAC00031F802946A460021014802F07DFC1FBD56
:10BAD000014000001206130A1A43130C1A4300BF58
:10BAE000094205D0830705D00270401C491EF9D1D8
:10BAF00070470000130030B414001500103902D351
:10BB000010393CC0FCD2490700D30CC000D504C09A
:10BB1000890002D30280801C002900D5027030BC4D
:10BB2000704700000022E5E70200100008701000D6
:10BB300080B2000A487002207047F4B584B0040057
:10BB40000D006846008A29880931884201D20C20FC
:10BB500030E002A871DF0600002E01D0300029E09D
:10BB60000820298860542888401C28801B202988A8
:10BB700060542888401C28800620019002A8401CA0
:10BB8000009028882718019A0099380000F040FE9C
:10BB90002888801D28806846007A002803D100206C
:10BBA0002988605402E00120298860542888401CBC
:10BBB0002880002005B0F0BDF8B582B003000C006D
:10BBC0001878012804D15878002801D1072057E0BF
:10BBD000684600891188891C88420AD31878012890
:10BBE00009D16846008911885D784919891C884205
:10BBF00001D20C2044E0684600891188401A851E55
:10BC000068460580694610882018801C7DDF010089
:10BC1000002901D0080033E01878022807D1280055
:10BC20006E46368880B2B04201D309260FE008265E
:10BC30001878012809D128005F7880B2BFB2B842D5
:10BC400003D358786F46388001E06846058068461F
:10BC50000088FF2801D30C2012E068460088401CB1
:10BC60001788E0551088401C1080108826541088D2
:10BC7000401C108010886F463F88C019108000203B
:10BC8000FEBDF8B506000C001700BFB22088001DED
:10BC9000874201D20C201DE0684679DF0500002DA7
:10BCA00001D0280016E00320218870542088401C11
:10BCB00020801920218870542088401C20802088F2
:10BCC000311868460088FFF72FFF2188C0B2081896
:10BCD00020800020F2BD30B504009BB21088C01C4B
:10BCE000834201D20C2011E00220158848551088AB
:10BCF000401C10800120158848551088401C108079
:10BD000010880C541088401C1080002030BD30B5C5
:10BD100004009BB21088C01C834201D20C2011E0A9
:10BD20000220158848551088401C10800A2015886C
:10BD300048551088401C108010880C541088401CF6
:10BD40001080002030BDFFB583B00C9B0024188804
:10BD500069464880002503980088854249DA02A890
:10BD60000399496804226A4389180A8802804A882C
:10BD700042800022694602A865DF0600002E01D03D
:10BD800030004DE0684600786946097D88422ED132
:10BD9000E4B2002C01D0002700E002276846818E23
:10BDA00018886A4612788018FFB2C019814201DAF9
:10BDB0000C2035E0E4B2002C0CD11888401C18800F
:10BDC0006846007C06991A8888541888401C188098
:10BDD00001200400069819884218694602A865DF08
:10BDE00000281DD119886A461278891819806D1C9F
:10BDF000B1E7E4B2002C12D0684619886A4652882E
:10BE0000891A491E818068468088FF2801DD0C2040
:10BE100006E06846808806996A4652888854002061
:10BE200007B0F0BDF7B582B01F000A9E0B9D280039
:10BE300080B2019000963B0002226846017B029886
:10BE4000FFF781FF0400002C01D0200010E0280043
:10BE500080B2019000963B0010226846017C029857
:10BE6000FFF771FF0100002901D0080000E0002069
:10BE700005B0F0BD00B501000888062807DB08887A
:10BE8000124A904205DB0888114A904201D00720EF
:10BE90001BE04888062807DB48880C4A904205DBEF
:10BEA00048880B4A904201D007200EE00888084AD3
:10BEB000904209D04888064A904205D048880A88AE
:10BEC000904201D2072000E0002000BD810C00005C
:10BED000FFFF0000F8B507000E0014006846008858
:10BEE0002188891D884201D20C2026E03800FFF706
:10BEF000C1FF0500002D01D028001EE0052021888B
:10BF000070542088401C2080122021887054208882
:10BF1000401C2080208831183888FFF705FE2188D2
:10BF2000C0B208182080208831187888FFF7FCFDFF
:10BF30002188C0B2081820800020F2BDFAB583B075
:10BF400005001400AE88B61C6846008A218889194D
:10BF5000891C884201D20C2035E0FF2E01D30C2031
:10BF600031E03000401C0399228888542088401C0E
:10BF70002080FF200399228888542088401C20803C
:10BF80000398218841182888FFF7CEFD2188C0B288
:10BF900008182080A888002814D0A868002801D19B
:10BFA000072010E0A8880190A868009003982188D5
:10BFB0004718019A0099380000F02AFC2088A988C7
:10BFC00040182080002005B0F0BDFBB584B01400FF
:10BFD0000498806A002801D1072049E0002630003B
:10BFE00004992C22895CC0B2884240D20498806AAD
:10BFF000F6B20C2171434518A888801C0090009867
:10C00000FF2801D30C2033E00098401C05992288BA
:10C0100088542088401C2080162005992288885446
:10C020002088401C20800598218841182888FFF727
:10C030007BFD2188C0B208182080A888002814D071
:10C04000A868002801D1072012E0A8880290A868FB
:10C050000190059821884718029A0199380000F04C
:10C06000D7FB2088A98840182080761CB7E70020DD
:10C0700007B0F0BDF2B582B0050016000024378885
:10C08000002030802D20285C00280AD03A0092B28F
:10C0900031000298FFF751FD0400002C01D0200070
:10C0A000A7E0A87800280AD03A0092B2310002989E
:10C0B000FFF7E7FD0400002C01D0200099E0E878AC
:10C0C00000280CD03B009BB232000299E87840B2C5
:10C0D000FFF701FE0400002C01D0200089E0686811
:10C0E00000280FD03B009BB2320002998C46686852
:10C0F000002140566146FFF70AFE0400002C01D0E3
:10C10000200076E0288900280FD0380080B2019006
:10C110000096029B0622022128000830FFF782FECB
:10C120000400002C01D0200063E0288A00280FD0F2
:10C13000380080B201900096029B0722032128005C
:10C140001030FFF76FFE0400002C01D0200050E0FB
:10C15000288B00280FD0380080B201900096029BF7
:10C160001522142128001830FFF75CFE0400002C73
:10C1700001D020003DE0286A00280BD03B009BB294
:10C1800032000299286AFFF7A5FE0400002C01D0B6
:10C1900020002EE0686A00280BD03B009BB23200E2
:10C1A0000299686AFFF7CAFE0400002C01D0200043
:10C1B0001FE02C20285C00280BD03B009BB23200F3
:10C1C00002992800FFF701FF0400002C01D0200095
:10C1D0000FE0287800280BD03B009BB23200029978
:10C1E0002800FFF7E9FC0400002C01D0200000E04B
:10C1F0002000FEBD00B50100C878400701D407202B
:10C2000000E0002000BD00B50100C878002801D082
:10C21000072000E0002000BDF1B592B00F001F2004
:10C22000694648801F20694608801298002814D06B
:10C230001298FFF7DFFF0500002D01D0280032E043
:10C2400000AA921C09A91298FFF714FF0400002C01
:10C2500001D0200027E009AD03E000250020694659
:10C260004880002F13D03800FFF7CDFF0600002EC6
:10C2700001D0300017E06A4601A93800FFF7FAFE46
:10C280000400002C01D020000DE001AA03E00022F0
:10C2900000206946088068460388DBB2684641880A
:10C2A000C9B2280072DF13B0F0BDFEE70121C2065B
:10C2B000D20E9140954A116070470121C206D20EFC
:10C2C0009140934A1160704700B540B2002811D5E3
:10C2D000714940B20207120F083A920804235A43E8
:10C2E00089588007800F08225043C1408809800781
:10C2F000800F0DE0874940B2820804235A438958D1
:10C300008007800F08225043C14088098007800FB2
:10C3100000BD00B5800701D1012000E00020C0B2BF
:10C3200000BD00B5010049B2202905DA844ACA409F
:10C330001000C007C00F00E0012000BD00B50100E3
:10C34000042901D3002006E0002901D0022901D1EF
:10C35000002000E0012000BD10B50400200040B224
:10C36000FFF7DFFF002801D1764824E0200040B22B
:10C37000FFF7AAFFFFF7E2FF002801D172481AE099
:10C3800072484068002811D0704864B261090422E4
:10C39000514340580121E206D20E914001436B48BF
:10C3A00064B2620904235A43815003E0200040B282
:10C3B000FFF77CFF002010BD544940B2420904231E
:10C3C0005A438958C006C00EC1400800C007C00FBC
:10C3D000704770B506000D001400220029003000DF
:10C3E00001F0F2FF70BD7CB56F48007800284DD099
:10C3F00000266E480068002801D1012400E00024D6
:10C40000F6B2002E1CD16A48007800283ED101A85F
:10C4100052DF0500052D02D10120060010E0002D9D
:10C4200003D02800FFF746FB0AE0019802F082F8EB
:10C4300060480068002803D001985E490968884771
:10C44000E4B2002C1CD15A48007800281ED16D4857
:10C4500000886946088069466B48006861DF05000E
:10C46000052D02D1012004000AE0002D03D0280090
:10C47000FFF720FB04E0644800684C4909688847DE
:10C48000F6B2002EBCD0E4B2002CB9D073BD464841
:10C4900000787047000000001CED00E0FEB50700CA
:10C4A0000C00002C01D107202FE02000FFF731FF06
:10C4B000002801D1072028E053480460684680889E
:10C4C000504908800298514908600020FFF774FF26
:10C4D0000500EDB2002D02D00020FFF7EEFE4C4922
:10C4E000380010DF0600002E07D0EDB2002D02D07C
:10C4F0000020FFF7DBFE300007E001202A4908702A
:10C5000002F020F81620FFF727FFFEBD00E100E053
:10C5100080E100E000E400E038B53C480068002815
:10C520000AD03A480068804704002500002D02D058
:10C530002800FFF7BFFA01E0FFF755FF31BD00000B
:10C54000FC06FFBC01200000022000008C26002019
:10C55000F1B50C001500142600273A003100280020
:10C56000FFF7B8FA0120288000202861287BFE21EF
:10C57000014029732C72684600786872687A002836
:10C5800001D00120A8720020F2BD22480168224893
:10C59000026808005043704710B58024A405FFF7D7
:10C5A000F4FF201810BD0000EC260020C826002053
:10C5B000ED260020CC26002030B583B005001748BA
:10C5C0000190019800906946280060DF04000098FF
:10C5D000019988420DD0009A1149022000F042FED4
:10C5E000FFF7DAFF0099421A0E49022000F03AFEE6
:10C5F00006E0002C04D022000B49012000F032FE9E
:10C6000020003EBDD2260020C4260020C0260020E7
:10C61000D3C301003800001034000010701800204F
:10C6200018F901009CF901002CFA01008168C0682A
:10C63000401A70477CB504000D00207800283FD0D8
:10C6400002282ED050D260680178684801F0DAFFE5
:10C650000600002E08D00120694608700196684641
:10C660006349096888470BE06048FFF7DFFF00284F
:10C6700006D000206946087068465D490968884709
:10C680005A48FFF7D3FF59498988814205D30122CF
:10C690005849594802F03AFA02E001205749087017
:10C6A00022E0022069460870E068019001225149A9
:10C6B000514802F02BFA68464D490968884713E053
:10C6C0004F49504801F0B0FF002805D101224C49E4
:10C6D000494802F059F906E00320694608706846A7
:10C6E000434909688847FFE773BDFCB589B004007A
:10C6F0000E0009983E490860002E01D1072054E041
:10C70000726892B23168394801F062FF0500002D6D
:10C7100001D0280049E0F26892B2B168394801F0CE
:10C7200057FF0700002F01D038003EE06846364929
:10C73000202200F081F860690690207C002801D159
:10C74000002000E00120694608750AA800786946C3
:10C750000877607C002801D00E2000E000206946A8
:10C760004875E0680290A0680390206801906068B6
:10C770000090264A6946204802F071F80500002D15
:10C7800001D0280011E000201C4908702068002119
:10C79000C943884208D0184802F0F2F9012215492D
:10C7A000154802F0B3F900E000200BB0F0BDF8B579
:10C7B00007001248057839000C4801F035FF0400E5
:10C7C000EDB2002D0FD000200C490870012209495C
:10C7D000094802F09BF9060000960098002802D054
:10C7E0000098FFF767F92000F2BD00004C260020FA
:10C7F000B8260020DC26002070180020DD2600204E
:10C80000DB2600205C260020A0FA010035C60100CE
:10C81000124207D08B0706D00B78491C0370401CCE
:10C82000521EF7D87047830706D00B78491C037057
:10C83000401C521EF9D1704770B4103A03D378C926
:10C84000103A78C0FBD2530701D318C918C001D5DC
:10C8500008C908C0D20704D30B880380891C801C38
:10C86000002A01D50B78037070BC70470121C20605
:10C87000D20E9140C04A116070470121C206D20E0B
:10C880009140BE4A116070470121C206D20E91400C
:10C89000BB4A116070470121C206D20E9140B94ACD
:10C8A00011607047F0B540B2002821D5924C40B2DB
:10C8B0000207120F083A9508042255438E4A40B2E7
:10C8C00003071B0F083B9B0804267343D258FF2322
:10C8D0008607B60F08277E43B3409A438B01DBB22D
:10C8E0008607B60F08277E43B340134363511AE00F
:10C8F000BD4A40B2830804246343D258FF2384070F
:10C90000A40F08256C43A3409A438B01DBB2840734
:10C91000A40F08256C43A3401343B34A40B28408D4
:10C9200004256C431351F0BD00B5800701D10120EF
:10C9300000E00020C0B200BD00B5934900280ED031
:10C94000AA4A126800BF00BF00BF00BF00BF00BFFF
:10C9500000BF00BF8A4200D000BF0138F2D100BD45
:10C9600010B50400A248046003211120FFF79AFFCC
:10C9700010BD80B5802040029E49086080204002A2
:10C980009D4908601120FFF786FF1120FFF76EFF19
:10C9900001209A4908602F20FFF7CEFF0120B749F8
:10C9A000087001BD80B51120FFF767FF80204002AD
:10C9B0009349086080204002B14908600120B149D4
:10C9C00008602F20FFF7B8FF0120AF490860002062
:10C9D000AE4908602F20FFF7AFFF0020A74908707D
:10C9E00001BDBF4800687047401A0002000A704746
:10C9F000BC490860704710B5BB490968002902D1DD
:10CA0000B94908602AE0B849096809680268914292
:10CA10000DD3B549096809680268891AB24A1268D3
:10CA20001160B1490968C161AF49086016E0016849
:10CA3000AD4A1268AC4B1B68002B07D01C688C42B7
:10CA400004D21C68091B1A00DB69F5E7002B02D031
:10CA50001C68641A1C600160C361D06110BD10B510
:10CA6000A14909680A00002A04D0824202D01100BC
:10CA7000D269F8E7002A1CD0914211D19A4B1B6869
:10CA8000DB69994C2360984B1B68002B08D101236C
:10CA90007D4C236000237D4C23600123934C237045
:10CAA0001468D369CB61CB69002B02D01A681219C4
:10CAB0001A6010BD80B51120FFF7E6FE01BD80B5FC
:10CAC0001420FFF7E1FE01BD70B50400C148006805
:10CAD00000280CD0A1696069BE4A12689047050021
:10CAE0002E00002E02D03000FEF7E4FF02E0A06925
:10CAF0006169884770BD00001CED00E0F8B57A4818
:10CB00000068002837D00024FFF76BFF5F490968F1
:10CB1000FFF76AFF050074480668002E11D03068E0
:10CB200085420ED330682D1A306824183700F66914
:10CB3000387C0028F1D0002038743800FFF7C4FF9B
:10CB4000EBE7A5480078C949097888420BD1C74866
:10CB50000078401CC5490870C4480078022802D1FA
:10CB60000020C2490870C248C049097804225143D4
:10CB70004450FFF7A4FFF1BD00E100E080E100E0D8
:10CB800000E200E080E200E00024F40000B50100D3
:10CB900091480078B54A1278904220D08E480078AB
:10CBA000401C8D4A10708C480078022802D1002069
:10CBB000894A1070AE48884A127804235A43805834
:10CBC0000860324800680A688018304A10602F48B0
:10CBD00000680002000A2D4A1060012002E00020D7
:10CBE0000860002000BD000000E400E0B418002050
:10CBF0000815014044130140041301400010014096
:10CC00004813014070B5C1480678374804683000C1
:10CC1000BE494978C0B2884226D0BC484068F6B2C6
:10CC2000182171434518761C3000B8498978C0B284
:10CC3000884201D1002006002878022802D003286B
:10CC400004D010E06868FFF70AFFE0E726480068B4
:10CC5000002807D02448006800210174C0692249D7
:10CC60000860F3E7D3E7D2E71F480068A04201D08D
:10CC7000012000E00020C0B270BD0000D9260020D5
:10CC8000081301400410014008100140B0260020A4
:10CC9000F0B50023144C2468002C20D0124C2468DA
:10CCA0002568A84203D225682D1A256017E025685B
:10CCB000401B25685B19002525600B4D2D68E66932
:10CCC000094F3E60E668002EE4D0CE183602360AE0
:10CCD0006660E668A6601668E6611560DAE7F0BD92
:10CCE0000415014040150140AC260020DA26002042
:10CCF00070B5040039480668002C05D183480078D7
:10CD00008249497888425CD0002C03D02500E8692C
:10CD100004002AE07D4840687C4909781822514384
:10CD200040187A490978491C784A1170774909787E
:10CD3000764A9278914202D10021744A1170456876
:10CD40000178012902D1297C002900D0D4E781682B
:10CD50006960C168A9600169E9604169A961C14967
:10CD60000978002901D00021696068689C49096838
:10CD7000401A0002000A9B49884208D2984801687C
:10CD80006868FFF731FEA968401828600DE06968FF
:10CD900093480068FFF728FEA968884203D2A96873
:10CDA000081A286001E00021296000206860002046
:10CDB000A860012028740020E8612800FFF71BFE0E
:10CDC0009AE706480068B04201D0012000E0002048
:10CDD000C0B270BDB4260020D7260020AC260020AB
:10CDE000F1B584B0AF48006800283AD0AD4800687B
:10CDF00000680190FFF7F5FD0600794804682100FE
:10CE00003000FFF7F1FD0500ED1CC6480078002852
:10CE100001D1FFF7AEFD0198854201D2019800E0F3
:10CE2000280020180002000A00900098FFF7E0FD9B
:10CE3000FFF7D7FD070031000098FFF7D5FD04008C
:10CE400031003800FFF7D0FDC01C84420BD2FFF741
:10CE5000C8FDFFF7CDFD2F20FFF76EFDFFF72AFE7F
:10CE600001E0FFF79FFD05B0F0BD0000D8260020CF
:10CE700084260020F0B583B0002000905848076851
:10CE80008848056801A8FFF781FE0600FFF7BAFE93
:10CE90000400F6B2002E06D06A4639000198FFF76A
:10CEA000F7FE012004000098FFF722FF002801D0C0
:10CEB00001200400E4B2002C02D02800FFF790FF0C
:10CEC000002068490870F7BD97494870704710B551
:10CED000010095484278521C1000934B9B78C0B2D9
:10CEE000984201D10020020010008F4B1B78C0B285
:10CEF000984201D1002007E00A708B4840688A4BB5
:10CF00005B7818246343C01810BD00007C26002005
:10CF1000F7B504001F000025002069460870684628
:10CF200001F068FF00A8401CFFF7D1FF0600002EAB
:10CF300002D1042005000EE0012030707460FFF77C
:10CF400050FDB0600198F0600298306177616846EA
:10CF50004078FFF7B9FF6846007801F051FF002DD7
:10CF600001D1FFF7ACFD2800FEBDF8B504000F00AD
:10CF70000025002069460870684601F03BFF00A8C4
:10CF8000401CFFF7A4FF0600002E02D1042005007C
:10CF900005E03770746068464078FFF795FF684693
:10CFA000007801F02DFF002D01D1FFF788FD28004A
:10CFB000F2BD80B500205D49086000205C49086032
:10CFC00000205C49086000205B49086000205B4944
:10CFD000086000205A490860FFF790FD01BD00007D
:10CFE000B0260020FFFF7F0080B5FFF743FF01BDA3
:10CFF000F8B505000C0016001F003000FFF794FC88
:10D00000002801D107202CE0002E01D1072028E0C4
:10D01000FFF7C8FC4B480760002043490870002018
:10D0200041494870404884703F48466000201D498F
:10D03000086000204449087000204449087014200A
:10D04000FFF729FC03211420FFF72CFC1420FFF725
:10D050000DFC2800FFF784FCFFF7C3FC3C49086087
:10D060000020F2BDDA26002010B503002E484068EB
:10D07000002801D1082014E01000002801D1072069
:10D080000FE0002B01D107200BE01868007C00287E
:10D0900001D0082005E01C680020207461746261E2
:10D0A000002010BDAC260020F8B506000C001700CB
:10D0B00000961D484068002801D108201AE0002E83
:10D0C00001D1082016E0052C01D2072012E00098BB
:10D0D0004069002801D108200CE00098407C01281C
:10D0E00001D1250000E000253B002A002100009826
:10D0F000FFF70EFFF2BD38B5040025000A4840686E
:10D10000002801D108200CE0002C02D0686900281A
:10D1100001D1082005E00020287402212800FFF733
:10D1200024FF32BDD92600207C260020401101407A
:10D1300044110140481101404C11014000110140CF
:10D1400004110140B4260020D7260020D826002054
:10D15000B026002080B5012001F05AFE02BDF2B5D4
:10D1600082B0401C0190012401250020694608700E
:10D17000684601F03FFE584800680299086056482A
:10D180008068401C54490968401A53494968461848
:10D1900001980719BE4227D2002E22D04F480168BD
:10D1A0000320814301200843042188433821884318
:10D1B000282101434A4808408005800D49490968F3
:10D1C000890201434448444A1368434A92681A401A
:10D1D00004235A438018C1603F480068401C3E4900
:10D1E00008600020050005E03B48006801994018F0
:10D1F000394908606846007801F002FE2800C0B294
:10D20000FEBDF8B506000C00002533488768694666
:10D210002800FFF7A4FF002823D03348016803202B
:10D220008143012008430421884338218843F6B212
:10D23000F200382111400143294A0A40A901F02097
:10D240008000084010438105890DA002084322494F
:10D25000009A3A4004235A438918C8600098401C39
:10D260000090F1BDF4B582B006000C0001251A480B
:10D27000876869462800FFF772FF00282BD01B48FB
:10D280000168032081430120084304218843382199
:10D290008843F6B2F200382111400143104A0A4097
:10D2A000A901F0208000084010438105890DA002EB
:10D2B00008430949009A3A4004235A438918C86030
:10D2C0000099491C00910449009A3A4004235A43AA
:10D2D0008918029ACA60F7BDC0180020B4FB01008B
:10D2E0003FFCFFFF9C180020B8FB0100BCFB0100C5
:10D2F00000B58448406883490968884201D101200B
:10D3000000E00020C0B200BDF0B593B0FFF7F0FF21
:10D31000002801D00020F2E07A484468794880680B
:10D3200005900C94774805992140042251434018F8
:10D33000C568641CA807800F002810D1A80DA90992
:10D340008905890D401824180C946E4805992140D0
:10D35000042251434018C0680500641CEAE700201D
:10D36000089028004007C00F002801D00020089036
:10D37000002069460874A807800F022800D088E0C2
:10D38000604805992140042251434018C0680B9021
:10D39000641CA80D0790A8098005800D0A900598C7
:10D3A000401C05992140401A0421484306900698E4
:10D3B000079988423CD20698002808D05148059920
:10D3C00021400422514340180C30099001E04E489E
:10D3D00009900698002803D006986946887402E0F0
:10D3E0000798694688740698002801D0464E00E0E8
:10D3F00000260698002805D068460799069A891ADB
:10D40000417402E00020694648746846407C0390FD
:10D4100002966846807C0190099800900A9B0B9ABE
:10D420000899E8084007400F384F3F68B84716E0B2
:10D430000020039000200290079801903148059940
:10D4400021400422514340180C3000900A9B0B9A53
:10D450000899E8084007400F2C4E3668B0470799F6
:10D46000884207D10799C91C8908641801216A46B6
:10D47000117436E0264929408201264D15400D439E
:10D4800020490C9A059B134004225343C918CD60D0
:10D4900027E00DAEA80A0390A8090007000F02902C
:10D4A000002001900198029988420DD215480599F3
:10D4B0002140042251434018C0683060641C361D6E
:10D4C0000198401C0190EDE7029800900DAB039A83
:10D4D0000899E8084007400F0F4F3F68B847694672
:10D4E00008746846007C002801D006484460FFF7B5
:10D4F000FFFE002801D1012000E00020C0B213B0DF
:10D50000F0BD0000C0180020CC180020D41C002062
:10D510003F00FFFFC0FF0000D01C002030B4434399
:10D5200051435D18010C0C00130C5C432D1980B2A3
:10D53000434392B251430024C918644124040B04AC
:10D54000090C09195043C018694130BC7047124298
:10D5500024D0994228D970B500251B4202D00C0076
:10D56000002109E00024012649186441944200D3B7
:10D57000A41A7641F8D33100012601E0764109D2A0
:10D58000001864416D41A41A9D41F7D2A4185D4171
:10D59000B619F5D3300022002B0070BD1B42D8D144
:10D5A00008B5C046C04608BD01D19042D3D20200A2
:10D5B0000B000021002070470021124A00B21150D8
:10D5C000704700B5104909680840002801D00120C3
:10D5D00000E00020C0B200BD0C490D4AC0B20423D7
:10D5E0004343D150704780B50120FFF7EAFF01287F
:10D5F00006D180204000FFF7DFFF06480068804723
:10D6000001BD000000000140040301403546526E98
:10D6100000060140BC26002010B504002000C0B266
:10D62000FFF7DAFF10BDFEE754480068704701209D
:10D630006E49086070476E490860704700216B4A68
:10D6400000B21150704700B5684900B20858002870
:10D6500001D0012000E00020C0B200BD6549086093
:10D6600070476549086070470121604AC0B2115097
:10D670007047012061490860704700205F490860D9
:10D68000704780B5FFF7D3FF01BD10B58020400083
:10D69000FFF7D4FFFFF7F1FFFFF7C6FF5849C9684E
:10D6A000574A527C02235A4388525548407C401CBA
:10D6B000534948745248407C5149097C884220D2E1
:10D6C00000244F4880684068002804D14C484068D6
:10D6D0004B49886006E04A4880684068484988604D
:10D6E00001200400464880680068FFF7A4FFFFF7A8
:10D6F000C0FFE4B2002C02D00020FFF7B5FF0020ED
:10D7000000E0012010BD38B505000C003C48807CCD
:10D71000022801D111202FE00220394988743848AD
:10D720004068374988602000354908740020344932
:10D7300048743348C560324880680068FFF77BFF53
:10D7400080204000FFF77AFFFFF793FF2C48006826
:10D75000002803D00120FFF781FF0CE0802040006B
:10D76000FFF771FF0028F9D0FFF78FFF0028F5D0F1
:10D77000012023498874002032BD00000875004054
:10D78000E0B51F48C068002817D180204000FFF78F
:10D7900055FF0120FFF765FFFFF76FFF0120694686
:10D7A0000870FFF741FF694688800120144988749A
:10D7B000684613490968884717E0FFF766FF0028A5
:10D7C00013D00120FFF74DFF0020694608700C4878
:10D7D000C06801900A48007C694608810120084918
:10D7E0008874684606490968884707BD007000408C
:10D7F0000475004004730040087300400075004049
:10D80000242600200100A020C0057047F3B581B098
:10D8100017001C00089D099E01A8FFF7F3FF694649
:10D82000097AFFB27A000A43E4B2A1001143EDB2D3
:10D830002A020A43F6B233041343019904225143E6
:10D840004118E022D2008B50F7BD1CB50400002027
:10D850000190002000900023012201212000FFF709
:10D86000D5FF13BD30B583B005000C00002001903A
:10D87000002000902300DBB2002200212800FFF7E7
:10D88000C5FF37BD11B581B001A8FFF7BBFF04008C
:10D89000012101988140200000F022F813BD11B54C
:10D8A00081B001A8FFF7AEFF04000121019881407B
:10D8B000200000F019F813BD11B581B001A8FFF7E1
:10D8C000A1FF0400200000F007F801000198C1400A
:10D8D0000800C007C00F16BDA221C90040587047FC
:10D8E000A122D200815070477C4A81507047F2B526
:10D8F00082B0070016000120794908701920FFF74F
:10D90000A4FF1920FFF7CBFFB6B2FF2E0ADC3200CE
:10D91000D2B20021380000F08AF97148007800285E
:10D92000FBD12BE068460489FF25684669460989D2
:10D93000320089180170200069460978C0B2884217
:10D940001CD268460078E4B2001BFF2803DC68465E
:10D950000078001B05002A00D2B22100C9B23800AD
:10D9600000F065F95E4800780028FBD16419C820F2
:10D9700000F031F8C82000F02EF8DCE71920FFF79E
:10D9800081FFF7BD80B51C20FFF75FFF0020FFF788
:10D990005CFF1D20FFF759FF03211E20FFF762FFE8
:10D9A0001C20FFF76FFF0020FFF779FF1D20FFF716
:10D9B00069FF01BD80B50720FFF747FF0720FFF78C
:10D9C0006EFFC82000F007F80720FFF75BFFC820B4
:10D9D00000F001F801BD00B50200501E002A06D07B
:10D9E00000221100C9B26429F6DA491CFAE700BD29
:10D9F00038B504000025EDB2082D11DA200603D554
:10DA00001D20FFF73FFF02E01D20FFF748FF002029
:10DA1000FFF738FF64000020FFF741FF6D1CEAE7C5
:10DA200031BD38B500240025EDB2082D10DA0020F4
:10DA3000FFF728FF64001E20FFF73EFF002802D0FA
:10DA40002000012404430020FFF729FF6D1CEBE7B1
:10DA50002000C0B232BD38B504001C20FFF71FFF04
:10DA60006006400EFFF7C4FFFFF7DBFF05001C2038
:10DA7000FFF708FF2800C0B232BD38B505000C0022
:10DA80001C20FFF70CFF80202843C0B2FFF7B0FF37
:10DA90002000C0B2FFF7ACFF1C20FFF7F3FE31BD42
:10DAA00080B5A84801780620FFF7E7FFA548417830
:10DAB0000720FFF7E2FFA34881780820FFF7DDFF8A
:10DAC00001BD10B5040087214D20FFF7D6FF9E4809
:10DAD000E4B2015D0920FFF7D0FF10BD0C05000086
:10DAE000F426002038B50500032000F0CFF91E20F1
:10DAF000FFF7B1FF0007000F2C0104432100C9B25A
:10DB00001E20FFF7BAFF31BD38B505001D20FFF715
:10DB1000A2FFF12101406C000C432100C9B21D207D
:10DB2000FFF7ABFF31BD38B505001E20FFF793FFAF
:10DB3000FB210140AC000C432100C9B21E20FFF7BD
:10DB40009CFF31BD38B505000120FFF784FFF824A4
:10DB500004402C432100C9B20120FFF78EFF31BDE4
:10DB600038B505000120FFF776FF4406640E2C430C
:10DB70002100C9B20120FFF780FF31BD38B5050093
:10DB80001D20FFF768FF0007000F2C010443210050
:10DB9000C9B21D20FFF771FF31BD38B505001D204A
:10DBA000FFF759FFFE2404402C432100C9B21D2079
:10DBB000FFF763FF31BD10B504002100C9B2222078
:10DBC000FFF75BFF10BD10B582B004001E20FFF709
:10DBD00042FF694608701F20FFF73DFF6946487005
:10DBE00068460078FC210140200A8007800F084326
:10DBF00069460870200069464870684601781E2012
:10DC0000FFF73BFF684641781F20FFF736FF13BD43
:10DC100038B505002620FFF71EFFF7210140EC0074
:10DC20000C432100C9B22620FFF727FF31BDF8B50C
:10DC300004000E0017000120FFF784FF00212420BC
:10DC4000FFF71BFFF7211120FFF717FF3900C9B2BB
:10DC50002220FFF712FF00210E20FFF70EFF002108
:10DC60000D20FFF70AFF1C20FFF719FE8020FFF7A9
:10DC7000BFFEF6B2A419002528003900C0B2C9B20F
:10DC8000884205D22078FFF7B3FE641C6D1CF3E7D1
:10DC90001C20FFF7F7FD40214020FFF7EEFE00219A
:10DCA0004120FFF7EAFE0320FFF74CFFF1BD80B5EE
:10DCB0000120FFF747FFFF211120FFF7DEFE0021C3
:10DCC0004020FFF7DAFE00214120FFF7D6FE0020BA
:10DCD000FFF738FF01BD80B50020FFF733FF80203C
:10DCE000FFF73EFF0120FFF72DFF00214020FFF747
:10DCF000C4FE00214120FFF7C0FEFFF7D1FE5548CA
:10DD00000078FFF7DEFE54480078FFF7EBFE53483B
:10DD10000078FFF7F9FE0120FFF705FF5048007873
:10DD2000FFF72CFF0020FFF738FFFF20FFF743FF2E
:10DD30004C48FFF748FF0120FFF76AFFFFF7B7FFE6
:10DD400001BD0000A0180020A418002080B5FFF736
:10DD500031FEC820FFF73FFEFFF7BDFFC820FFF7E9
:10DD60003AFEC820FFF737FE01BD10B51220FFF7BD
:10DD700072FE3D4908703C48007840063BD51E20A5
:10DD8000FFF769FE394908703848007840072FD5F9
:10DD900000210D20FFF771FE1320FFF75CFE3449D0
:10DDA00008701C20FFF77BFD0020FFF721FE0024F8
:10DDB00020002F490978C0B2884206D2FFF731FE11
:10DDC0002C49E4B20855641CF2E7294800782A4936
:10DDD000087000F069F82949087000F06BF82849CC
:10DDE000087000F06DF8274908701C20FFF74AFD05
:10DDF000FFF75DFF29E01C480078000705D50020EB
:10DE000021490870FFF753FF1FE0174800784007CB
:10DE100019D515480078C00702D5FFF748FF14E070
:10DE20000120FFF78FFEFF211120FFF726FE0021C2
:10DE30004020FFF722FE00214120FFF71EFE0020B8
:10DE4000FFF780FE01E0FFF732FFFF211220FFF70E
:10DE500014FE10BDBD180020BA180020BB18002009
:10DE6000BC180020FF030000F1260020F22600204D
:10DE7000F3260020D8220020F5260020EE260020E0
:10DE8000EF260020F0260020F426002038B50500FB
:10DE90003120FFF7E0FDF82404402C432100C9B2F3
:10DEA0003120FFF7EAFD31BD80B51920FFF7D3FD22
:10DEB000C0B202BD80B51A20FFF7CDFDC0B202BDD1
:10DEC00080B51B20FFF7C7FDC0B202BD00B58007BB
:10DED00001D1012000E00020C0B200BDF1B584B046
:10DEE0000D000024002D01D107202EE02800FFF7AF
:10DEF000EDFF002801D1072027E01748056068469C
:10DF0000007C144908700020114908700420029018
:10DF100000200190114E019A02993000FDF7DAFDC0
:10DF20000C48007818214843009000260A480768EA
:10DF3000320000993800FDF7CDFD01F06DF90028A1
:10DF400002D101F03AF90400200005B0F0BD000054
:10DF5000D6260020D5260020A4260020A8260020B2
:10DF6000F1B582B00024200066490978C0B2884229
:10DF70003CD265480068E4B2082161434618012795
:10DF80003078874061480068384000282CD05F48CE
:10DF90000068B8435D490860307801F0E5F9050094
:10DFA0005B4800680121327891400140EDB232783F
:10DFB00028009040814217D17078012801D10120BA
:10DFC00000E00020EDB2C0B26840002801D101207D
:10DFD00000E00020C0B200907068002804D00099D2
:10DFE000C9B2307872689047641CBCE7F7BDF8B5D9
:10DFF00006000F000124B44046480068FFF77BF894
:10E000000500002D27D141480068204000281DD17F
:10E01000300001F0A9F9002805D03D4800682043F0
:10E020003B49086004E03A480068A043384908606A
:10E0300036480068204335490860002236480168A8
:10E0400034480068FFF730F8050004E02F48006806
:10E05000A0432E490860F1BDF0B583B006000C0066
:10E060001700052F01D2072038E001F0D5F800286D
:10E0700006D101F0A2F80500002D01D028002DE006
:10E08000214806601F48047023480760002020498B
:10E09000086000201D4908602000441EC0B200280E
:10E0A00017D0E4B208206043301800901B48006885
:10E0B00001900098807801A94870194A01A9009838
:10E0C000007801F0B7F80500002D01D0280005E028
:10E0D000E2E7144A00210F48FEF7C6FFFEBD10B567
:10E0E000002408480078844209D2012106480068CB
:10E0F00008226243805C01F0DDF8641CF1E7002037
:10E1000010BD0000D426002094260020A026002068
:10E110009C26002098FB0100982600209CFB010013
:10E12000EFDF010061DF010010B50200507802232B
:10E13000C9B28C1EA34204DA0400D05C60405B1CB0
:10E14000F6E7C0B210BDF8B506000C0017000020BD
:10E150003D490870AF203D493B4A127888543A48FF
:10E160000078401C38490870002008280BDA38492C
:10E17000095C364A1218517033490978491C324AF1
:10E180001170401CF1E731482F49097847542E4857
:10E190000078401C2C4908702C482B4909784454BD
:10E1A00029480078401C284908700020E4B2A042A9
:10E1B0000ADA315C254A1218D17223490978491CC0
:10E1C000214A1170401CF1E7224800680090214864
:10E1D00000680021C943884202D101201D4908601E
:10E1E0000020C0B204280FDA6946C0B24242891842
:10E1F000C978164A144B1B78D15413490978491C25
:10E20000114A1170401CECE70F4805782800401CAB
:10E210000D49087021000F31C9B20C48FFF784FF87
:10E220000A49EDB248553C200849074A12788854FB
:10E2300005480078401C0449087006480068401CE6
:10E2400004490860F1BD0000DE260020D81E002031
:10E250007C180020781800200100A020C00570471D
:10E26000F3B581B017001C00089D099E01A8FFF7B7
:10E27000F3FF6946097AFFB27A000A43E4B2A100CB
:10E280001143EDB22A020A43F6B233041343019953
:10E29000042251434118E022D2008B50F7BD1CB537
:10E2A00004000020019000200090002301220121A1
:10E2B0002000FFF7D5FF13BD11B581B001A8FFF70E
:10E2C000CBFF0400012101988140200000F00EF8EE
:10E2D00013BD11B581B001A8FFF7BEFF04000121F5
:10E2E00001988140200000F005F813BDA122D20062
:10E2F000815070470B4A81507047000000B50A49B1
:10E3000000280ED0094A126800BF00BF00BF00BF3E
:10E3100000BF00BF00BF00BF8A4200D000BF01386D
:10E32000F2D100BD0C0500000024F400B418002058
:10E3300010B50400FA2080006043FFF7DFFF10BD36
:10E3400080B51220FFF7ABFF1220FFF7B5FFC82002
:10E35000FFF7EEFF1220FFF7BCFFC820FFF7E8FF32
:10E360001220FFF7A9FFC820FFF7E2FF1220FFF7F6
:10E37000B0FFC820FFF7DCFF1220FFF79DFFC82089
:10E38000FFF7D6FF1220FFF7A4FF01BD80B51420D0
:10E39000FFF785FF1420FFF78FFF01BD80B5142024
:10E3A000FFF77DFF1420FFF794FF01BD00B5BFF319
:10E3B0004F8F034803490860BFF34F8F00BFFDE74D
:10E3C0000400FA050CED00E070B505000C00160025
:10E3D00006490120FEF715FFFEF7BCFEFEF794FF8D
:10E3E0000028FBD100BEFFF7E1FF70BD1CFB010060
:10E3F0002E490860704700218022D20500B21150DA
:10E40000704700B58021C90500B20858002801D026
:10E41000012000E00020C0B200BDC0B28107890F1A
:10E42000234A11607047234940B2420904235A43EA
:10E430008958C006C00EC1400800C007C00F704711
:10E4400080B50020FFF7EFFF002803D10321002053
:10E4500001F024F901BD10B50024214800780028FE
:10E4600002D08520040017E000201D4988600020AC
:10E470001B49486000201A49086100201849C860FB
:10E48000FFF7DEFFFEF703F8002802D10120FFF7B7
:10E49000C4FF012012490870200010BD00B5010022
:10E4A0000868002801D002680A6000BD0803004027
:10E4B0001805004000E100E070B50400E4B2002C53
:10E4C00001D12E4D00E02C4D2800FFF7E7FF06009C
:10E4D000002E04D02000C0B271688847F4E770BDF8
:10E4E0003826002080B580204000FFF78AFF0028F2
:10E4F0000CD080204000FFF77EFF0120FFF778FF5F
:10E5000001201F4948700020FFF7D6FF82204000FD
:10E51000FFF777FF00280CD082204000FFF76BFF49
:10E520000220FFF765FF0120154988700120FFF7E1
:10E53000C3FF01BD10B50400002C02D10020FFF77D
:10E54000BBFF10BD80B5002069460870684600F02A
:10E5500051FC0B480078002801D1FFF77CFF0848E8
:10E56000C068401C0649C86001200549887068469B
:10E57000007800F045FC01BD482600204026002020
:10E58000382600208168C068401A704710B40268BD
:10E59000C36884882340D154C268521CC26010BC36
:10E5A000704730B40368846889B2641885882C4049
:10E5B0001B5D137030BC704738B504000D002A0095
:10E5C00000212000FFF7EDFFA068401CA06031BDD6
:10E5D00000B50300002901D10E2012E092B2002AFA
:10E5E00005D092B2501E92B21040002801D00920EE
:10E5F00007E01960501E9880002098600020D860C5
:10E60000002000BD38B505000C002800FFF7BAFF58
:10E61000A988814206D32100C9B22800FFF7B6FFBE
:10E62000002000E0042032BD38B505000C002800B1
:10E63000FFF7A8FF002805D021002800FFF7BCFF46
:10E64000002000E0052032BD002209B24250704790
:10E6500000B509B24058002801D0012000E0002098
:10E66000C0B200BDC12292008150704700B5C122E6
:10E67000920080580140002901D0012000E00020D4
:10E68000C0B200BDC22292008150704701009020AC
:10E69000C00008589022D200885070470421A02260
:10E6A000D20081507047844BC250844BC150704798
:10E6B000A123DB00C150A223DB00C2507047A3217D
:10E6C000C9004058C0B27047C9B27D4A81507047F6
:10E6D0000122C9B24250704710B4C9B2D2B213007D
:10E6E0000B43784C035110BC7047774A81507047F8
:10E6F0000100080B40B270470100A020C005704720
:10E70000F3B581B017001C00089D099E01A8FFF712
:10E71000F3FF6946097AFFB27A000A43E4B2A10026
:10E720001143EDB22A020A43F6B2330413430199AE
:10E73000042251434118E022D2008B50F7BD1CB592
:10E7400004000020019000200090002301220121FC
:10E750002000FFF7D5FF13BD30B583B005000C00D6
:10E7600000200190002000902300DBB20022002155
:10E770002800FFF7C5FF37BD11B581B001A8FFF72D
:10E78000BBFF0400012101988140200000F001F846
:10E7900013BDA122D2008150704738B505000C008E
:10E7A00020680021C943884205D02068FFF7E4FFB4
:10E7B0002068FFF7C4FF60680021C943884203D086
:10E7C00000216068FFF7C8FFA1692868FFF78DFF87
:10E7D000227D617D2868FFF77FFF626821682868D5
:10E7E000FFF761FF207D012818D1A0680021C943EF
:10E7F000884203D00021A068FFF7AEFFE068002147
:10E80000C943884205D0E068FFF7B6FFE068FFF72C
:10E8100096FFA268E1682868FFF74AFF31BD38B566
:10E8200004000D008E2149002068FFF70DFFA22192
:10E8300049002068FFF708FF66492068FFF712FFCC
:10E840002068FFF755FF2900C9B240B200F026FF4B
:10E8500031BD10B504002068FFF720FF10BDF4B5EE
:10E8600004000E00A84821791C22514345180027B6
:10E87000E87E002801D008201CE031002000FFF7CE
:10E880008CFF00986860306928606868002803D0B1
:10E89000317F2000FFF7C3FF2000FFF7DAFF0020E1
:10E8A000E875002028760020A8750120E876002071
:10E8B000A8763800F2BD0000140500000C05000029
:10E8C0001C0500006C0500002405000070B5040064
:10E8D0000D008E2149002000FFF7B6FEA868A98A26
:10E8E000465CA88A401CA8823100C9B22000FFF70C
:10E8F000EBFE70BD70B50400834821791C225143A2
:10E90000451800268E2149002068FFF79DFE08214A
:10E910002068FFF7DDFE29002068FFF7D7FF686851
:10E9200000282FD1A88AA97D89B2884215D28E21CC
:10E9300049002068FFF78CFE002804D1A88A8021B6
:10E9400049008842F3D1A88A802149008842E9D051
:10E9500029002068FFF7BAFFE4E7A88A8021490070
:10E96000884202D10F2006000AE08E21490020686B
:10E97000FFF76EFE0028F8D00C212068FFF7A8FEF4
:10E980000020A875300070BDF8B504000F00150018
:10E990005D4821791C2251434618200000F00CF8F4
:10E9A000002801D0112006E0B575B7600020B082C4
:10E9B0002000FFF79FFFF2BD00B5534900791C22EC
:10E9C00050430818807D002801D0012000E000207D
:10E9D000C0B200BD8000020010B5040092214900C1
:10E9E0002068FFF731FE842149002068FFF72CFEE4
:10E9F00000212068FFF76CFE10BD70B504000D000B
:10EA0000E87D002808D1842149002000FFF71CFE82
:10EA10002000FFF754FE0EE0842149002000FFF79C
:10EA200013FE6E7E2000FFF74AFEE968F6B28855B5
:10EA3000687E401C687670BDFEB582B00400324826
:10EA400021791C2251434518A87E002806D168462A
:10EA5000007C002802D12000FFF7BEFF6868002874
:10EA600049D1A22149002068FFF7EEFD922149001B
:10EA70002068FFF7EDFD0600842149002068FFF7BC
:10EA8000E7FD69460870A22149002068FFF7E0FD14
:10EA9000070068460078002805D1FFB2002F02D198
:10EAA000F6B2002EE2D0F6B2002E02D1FFB2002F55
:10EAB00000D007E029002068FFF79FFF687EE97D0E
:10EAC0008842D3D30020E875F6B2002E01D003208F
:10EAD00017E0FFB2002F01D00F2012E0A87E00281F
:10EAE00004D000212068FFF7F3FD09E0042120682D
:10EAF000FFF7EEFD04E0812189002068FFF7B2FDF9
:10EB0000002005B0F0BD0000D8250020F2B50500BA
:10EB10001700924829791C22514344180026606846
:10EB2000002804D0812189002868FFF7ABFDE07D33
:10EB300000280ED0207E002809D06068002804D06C
:10EB4000812189002868FFF78DFD112017E0012041
:10EB50000600F6B2002E07D1E7750098E0600020AD
:10EB600060760020207602E000982061277633004E
:10EB7000DBB23A00D2B200992800FFF75DFFF2BD88
:10EB800010B50400754821791C2251434018807E3D
:10EB9000002809D12000FFF71FFF704821791C22AF
:10EBA000514340180121817610BD7FB504000D004E
:10EBB00016000120694608706846057201962168B2
:10EBC0006846626890477FBD30B585B004000D008F
:10EBD00000206946087068460572A0680190002010
:10EBE000A075216868466268904705B030BDF0B5F1
:10EBF00085B005000C00802189002800FFF736FD54
:10EC000000282CD0922149002800FFF721FD002880
:10EC100025D0922149002800FFF716FD81218900A7
:10EC20002800FFF72FFDA07E002803D10421280033
:10EC3000FFF74EFD0220694608702800FFF726FD09
:10EC40000390E07D69460872E06801900020E0755D
:10EC50000020207621686846626890473BE00421E6
:10EC60002800FFF703FD002835D084214900280043
:10EC7000FFF7EEFC00282ED021002800FFF7BDFE94
:10EC8000E07D617E884226D1207E002810D0E76892
:10EC9000667E207EE0752069E060002020760020FE
:10ECA00060763A003100C9B22000FFF77EFF12E023
:10ECB000A07E002803D104212800FFF709FD81214F
:10ECC00089002800FFF7DEFC0020E075E268617E25
:10ECD0002000FFF76AFF8E2149002800FFF7B8FCEB
:10ECE000002815D0A08AA17D89B2884204D22100D3
:10ECF0002800FFF7EBFD0BE08E2149002800FFF70D
:10ED0000A3FCA07D002803D0A17D2000FFF75CFFBD
:10ED1000A22149002800FFF79BFC002815D0A22162
:10ED200049002800FFF790FCA07E002803D00021B6
:10ED30002800FFF7CDFCE07D002806D00020E0751C
:10ED4000E268617E2000FFF730FF05B0F0BD80B5BE
:10ED500002490348FFF74BFF01BD0000D825002002
:10ED600000200040EFF3108072B6704762B6704723
:10ED700038B50400FFF7F6FF05001A484068002880
:10ED80000ED1012017494860174800681749014013
:10ED9000144801601548144908600020207001E003
:10EDA00001202070002D01D1FFF7E0FF002032BDCF
:10EDB00038B504000B484068002810D0E4B2002C9D
:10EDC0000DD1FFF7CFFF050006480068084908602D
:10EDD000002004494860002D01D1FFF7C7FF002043
:10EDE00032BD00008C26002080E100E0FC06FFBC64
:10EDF00000E100E010B504002000FFF7B9FF10BDEE
:10EE000010B504002000C0B2FFF7D2FF10BDFEE72E
:10EE100010B504000A480078002807D020000949EE
:10EE20000978C0B2884201D1002007E000F07EFCE2
:10EE300001200349087003480470002010BD000041
:10EE4000EA260020EB26002010B50400200000B2C6
:10EE500000F011F80068012801D1012000E0002035
:10EE6000C0B210BD10B50400200000B200F003F8DD
:10EE70000021016010BD00B25A494018704778491E
:10EE80000860704776490968084070477549042250
:10EE90004243895801220A43724904234343CA501A
:10EEA000704770B46F4B042444431B59784C1C408A
:10EEB0006C4B042545435C516A4B042444431C5964
:10EEC0000B02F8256D011D40D2B21604C0239B022F
:10EED00033402B432343634C04254543635170BCAB
:10EEE00070476049042250430858000AC006C00E0B
:10EEF00070475C49042250430858000C8007800F7B
:10EF000070470100A020C0057047F3B581B017001D
:10EF10001C00089D099E01A8FFF7F3FF6946097AC6
:10EF2000FFB27A000A43E4B2A1001143EDB22A0213
:10EF30000A43F6B2330413430199042251434118A2
:10EF4000E022D2008B50F7BD30B583B005000C0035
:10EF500000200190002000902300DBB2002200215D
:10EF60002800FFF7D2FF37BD01B56846FFF7C9FF9C
:10EF70000099042251434118E022D200895802220C
:10EF80009143009A04235A438218E023DB00D150B6
:10EF900001BD11B581B00C0001A8FFF7B2FF0199C6
:10EFA000042251434118E022D2008958994A0A406C
:10EFB0000199042359434118E023DB00CA50019909
:10EFC000042251434118E022D2008958E4B22204BD
:10EFD0000A430199042359434118E023DB00CA5036
:10EFE00013BD00000060004011B581B001A8FFF71B
:10EFF00088FF0400200000F016F801000198C140CD
:10F000000800C007C00F16BD01B56846FFF779FFBD
:10F010000099042251434018E021C9004058000CD7
:10F020008007800F02BDA221C90040587047F8B583
:10F0300004000F00150068467C490A68026026003B
:10F04000E019864209D26846042171434058FFF70F
:10F05000EAFF28602D1D761CF2E7F1BD00000000DC
:10F060000463004010650040C2084007400F0123C0
:10F070008340885C1840704710B4C2084007400FB6
:10F080008B5C012484401C438C5410BC70470000EE
:10F09000FFE0FCFF00B566490918202289560029C7
:10F0A00007D46349081820214056042801DA0120BA
:10F0B00000E00020002801D0012000E00020C0B2C4
:10F0C00000BD00B55A49081820214056042801DB2C
:10F0D000012000E00020C0B200BD00B5544908186E
:10F0E00020214056002801D4012000E00020C0B2B9
:10F0F00000BD000070B50C004D4D2D182026AC55FC
:10F100004B4C04254D436251DBB2002B04D104006B
:10F11000474D6D183C26AC5570BD0021C943444A8B
:10F1200012182023D1547047414908182021405615
:10F1300070473F4904225043085870470000F7B514
:10F140000027FF436846007A002801D0002600E02F
:10F1500004266846007A002801D0042500E008252E
:10F160003400AC4213D2324804216143405800219C
:10F17000C943884209D16846037A019A2100009860
:10F18000FFF7B8FF2000070001E0641CE9E7380042
:10F1900040B2FEBD00B50021C943254AC0B20423D8
:10F1A0004343D150C0B2042806DB0021C943204AA2
:10F1B000C0B212183C23D15400BD38B53C48007889
:10F1C000002801D0082023E00025EDB2202D05DA2B
:10F1D000EDB22800FFF7A1FF6D1CF6E70024E4B2B2
:10F1E000082C05DA2000C0B2FFF7D4FF641CF6E754
:10F1F0000321062000F052FABE204000FFF732FE45
:10F2000080200006FFF73BFE0120294908700020FE
:10F2100032BD0000FFFFFCFF00B525480078002844
:10F2200001D0012000E00020C0B200BDB0FB010011
:10F2300010250020F4B506000C0000273000FFF771
:10F240004CFF002802D0082007002FE0E278009948
:10F250003000FFF774FF05006DB20020C043854207
:10F2600022D0A078002803D03000FFF77DFE03E015
:10F2700061783000FFF768FEE078002806D0227839
:10F2800031006DB22800FFF70CFE0FE035486DB27B
:10F2900040193C21415C20788001084331496DB21E
:10F2A00049193C22885401E0042007003800F2BDCF
:10F2B00054250020F8B505000F002800FFF701FFD6
:10F2C000002826D02800FFF72FFF6946254A40B2C4
:10F2D00010183C22805C0870684600780600F6B280
:10F2E000B609F6B2032E08D12800FFF77DFE0028EC
:10F2F00001D0032407E0022405E0F6B2012E01D17B
:10F30000022400E003242100C9B22800FFF741FED7
:10F3100027E02800FFF7BEFE002822D02800FFF7D4
:10F3200003FF0400684604216143802252008918CB
:10F3300001802000FFF7AAFD009800B2FFF792FDC0
:10F34000FFB2002F0DD02800FFF7EEFE40B2FFF70E
:10F35000F0FE06003000002803D00120A040FFF797
:10F360008EFDF1BD1025002010B504002000FFF730
:10F370003BFE002801D0012000E00020C0B210BDFB
:10F38000F0B58BB00020049005A80021016080201A
:10F39000400069468880012002900025042D1CD27F
:10F3A000019800B2FFF750FD00280CD00298FFF73B
:10F3B00069FD002807D0019800B2FFF753FD0498BB
:10F3C0000299014304910298400002906846019915
:10F3D00009B2091D81806D1CE0E7BE204000FFF7E7
:10F3E00033FD00280DD0BE204000FFF73BFD049800
:10F3F000802109060143049105AA01210020FFF79D
:10F4000016FE04980007000F002822D00120029069
:10F4100000200500042D1CD2029804990140002907
:10F4200012D02800FFF75DFD06002800FFF761FD00
:10F4300007002800FFF77DFE04002000002803D00D
:10F440003900C9B23000A0470298400002906D1CFC
:10F45000E0E70498002800D4C1E000206946087065
:10F4600007A8002101600024002C07D10020C04320
:10F4700006A9042262438850641CF5E7002069460F
:10F48000087000200500042D6AD2684655494919C4
:10F490004022895CC1706846C078C02188430390CF
:10F4A00050484019402140560021C943884255D058
:10F4B00006A90398FFF7D8FD00284FD06846694693
:10F4C000C978C9B2890941700398FFF72DFE40B28F
:10F4D000FFF72FFE07003800002803D16846407868
:10F4E00003283BD168464078032803D107A9039835
:10F4F000FFF7C2FD0398FFF787FD6946887005A9ED
:10F500000398FFF7B1FD08900898002803D06846DB
:10F510008078022806D0089800281FD16846807895
:10F5200003281BD168464078032810D168468078AC
:10F53000022801D1032600E002263100C9B2039857
:10F54000FFF727FD684669460978491C01703800B5
:10F55000002803D0684641780398B8476D1C92E7AD
:10F5600068460078002835D0012609AA012100202C
:10F57000FFF75DFD00200400002C0ED109A8042136
:10F580006143405805A9042262438958884202D049
:10F590000020060001E0641CEEE7F6B2002E03D066
:10F5A00000206946087015E000200400002C11D1ED
:10F5B00009A804216143405805A9042262438850E8
:10F5C00007A804216143405806A9042262438850D9
:10F5D000641CEBE768460078002800D04EE70BB0CB
:10F5E000F0BD0000102500200121C206D20E91407E
:10F5F000264A116070470121C206D20E9140244A6A
:10F6000011607047F0B540B2002821D5214C40B2BE
:10F610000207120F083A9508042255431D4A40B2CA
:10F6200003071B0F083B9B0804267343D258FF2394
:10F630008607B60F08277E43B3409A438B01DBB29F
:10F640008607B60F08277E43B340134363511AE081
:10F65000114A40B2830804246343D258FF2384072D
:10F66000A40F08256C43A3409A438B01DBB28407A7
:10F67000A40F08256C43A3401343074A40B28408F3
:10F6800004256C431351F0BD0000000000E100E0D0
:10F6900080E200E01CED00E000E400E038B5050089
:10F6A0000C00E4B22100280040B2FFF7ABFF2800B5
:10F6B00040B2FFF7A0FF280040B2FFF795FF31BD31
:10F6C00010B5144C02202061022060611248A06134
:10F6D0001248E0618020800020620020A0620020AB
:10F6E00060620020E0620C48A0640D48E0641020D5
:10F6F00020650020A065002060650020E06509A16C
:10F70000E01D00F01DF80849200000F019F8202045
:10F71000A07110BD5024002078FB0100D81C0020EF
:10F720006C2600205254540090FB010080B5034821
:10F730000078002801D1FFF7C3FF01BD502400204D
:10F74000002300E05B1CCA5C002AC254FAD1704757
:10F7500080B500F023F8002806D04F484F490860D4
:10F76000802000024E49086000F050F8002802D0C6
:10F7700001204C49086000F065F800280DD04A4887
:10F780000068012806D04948474908604648006893
:10F790000128FBD1C0204649086001BD00B545489D
:10F7A0000078C0B201282FD1434800780007000F2D
:10F7B000002829D141480078F0210140002907D1D3
:10F7C0003F480078F0210140002901D101201CE0D0
:10F7D0003A480078F0210140102907D138480078D4
:10F7E000F0210140002901D101200EE033480078CA
:10F7F000F0210140302907D131480078F021014043
:10F80000002901D1012000E0002000BD00B52948F9
:10F810000078C0B2012813D1274800780007000FF4
:10F8200000280DD125480078F0210140402907D15A
:10F8300023480078F0210140002901D1012000E097
:10F84000002000BD00B51B480078C0B2012821D1BE
:10F85000194800780007000F00281BD117480078CE
:10F86000F0210140A02907D115480078F02101407E
:10F87000002901D101200EE010480078F02101405C
:10F88000D02907D10E480078F0210140002901D18C
:10F89000012000E0002000BDDFFF07C0040500409C
:10F8A000186C00400806004000EC0640759300000C
:10F8B00014EC0640E00F00F0E40F00F0E80F00F059
:10F8C000EC0F00F0002000400000000001000000EC
:10F8D0008360181003120004961900000101010151
:10F8E0001600030089B801000601030089B8010071
:10F8F0006CFB01006C800000808181838485868799
:10F9000088898A8B8C8D8E8F0024F4003B080C0232
:10F91000070F0000FEE700005344483A5741524E9B
:10F92000494E473A73645F626C655F656E61626CF5
:10F93000653A2052414D2073746172742073686F70
:10F94000756C642062652061646A757374656420F7
:10F95000746F20307825780D0A00000070B4010023
:10F960000123002413E00A68091D1A4202D04D4603
:10F970006D1E52191460121D001F0428FAD21500C2
:10F98000860701D51480AD1C184000D02C70086883
:10F99000091D0028E7D1080070BC70475344483A5D
:10F9A0005741524E494E473A52414D2073697A654C
:10F9B0002073686F756C642062652061646A75737A
:10F9C00074656420746F2030782578200D0A00005B
:10F9D00030B401220168001D00290FD00368C3184C
:10F9E00044680830144202D04D466D1E64191D68EB
:10F9F00025601B1D241D091FECD0F8E730BC7047A3
:10FA00000321064802680A430260054802680A4367
:10FA10000260044880470448004700002405004075
:10FA20005405004051F7010085FB01005344483A5A
:10FA30004552524F523A73645F626C655F656E6106
:10FA4000626C653A206572726F7220307825780D8D
:10FA50000A00000010B5074979441831064C7C446F
:10FA6000163404E0081D0A68891888470100A1427D
:10FA7000F8D110BD0800000028000000E1FEFFFFE3
:10FA8000380E0000C01800200000000045FFFFFFF6
:10FA90005000000030FEFFFF701800200000000042
:10FAA000FFFFFFFFFFFFFFFFFFFFFFFFFFFFFFFF66
:10FAB000000000000000000000E0D701030000008B
:10FAC0003A494E464F3A6C6F636174696F6E5F746A
:10FAD000696D6572735F73746F700D0A00000000CA
:10FAE0000120C046002801D0FFF7B4FF002000BF6E
:10FAF00000BFFBF73DFF00F000F880B500F002F812
:10FB000001BDFEE70746384600F002F8FBE7FEE7D6
:10FB10002021090326311820ABBEF9E74150505F80
:10FB20004552524F523A4552524F523A46617461D1
:10FB30006C0D0A000A000000000000000000000038
:10FB40000000000000000000005027003A494E4627
:10FB50004F3A6770735F6F70656E0D0A00000000AA
:10FB600055424950502D3130303034004F76657257
:10FB7000666C6F770D0A00005465726D696E616C7A
:10FB80000000000000BF00BF00BF00BFFFF7A8FFDC
:10FB90005345474745520000582500200300000008
:10FBA0007825002098250020B825002001000007B6
:10FBB00000000050010000000100000001000000F2
:10FBC000FEE7FEE7FEE7FEE7FEE7FEE7FEE7FEE70D
:10FBD000FEE7FEE7FEE7FEE7FEE7FEE7FEE7FEE7FD
:040000050001FB8576
:00000001FF
