:020000040001F9
:10B00000D82F0020210402007FC301007FCD010062
:10B010000000000000000000000000000000000030
:10B0200000000000000000000000000067E90100CF
:10B030000000000000000000E7EB01006FEE0100DF
:10B0400021ED0100B7F00100BFF70100EFF80100AA
:10B050001FF901000000000059FE0100C9DD0100D8
:10B0600035030200530502005F0502005506020089
:10B0700057060200590602005B0602005D06020048
:10B0800085CC0100CFDA01005F06020061060200F4
:10B0900005DB01006306020015CB01006506020016
:10B0A00067060200690602000000000000000000C0
:10B0B0000000000000000000000000000000000090
:10B0C00000B5BFF34F8FA748A7490860BFF34F8F64
:10B0D00000BFFDE70100A020C0057047F3B581B0B7
:10B0E00017001C00089D099E01A8FFF7F3FF6946A1
:10B0F000097AFFB27A000A43E4B2A1001143EDB22B
:10B100002A020A43F6B2330413430199042251433D
:10B110004118E022D2008B50F7BD1CB5040000207E
:10B120000190002000900023012201212000FFF760
:10B13000D5FF13BD30B583B005000C000020019091
:10B14000002000902300DBB2002200212800FFF73E
:10B15000C5FF37BD11B581B001A8FFF7BBFF0400E3
:10B16000012101988140200000F022F813BD11B5A3
:10B1700081B001A8FFF7AEFF0400012101988140D2
:10B18000200000F019F813BD11B581B001A8FFF738
:10B19000A1FF0400200000F007F801000198C14061
:10B1A0000800C007C00F16BDA221C9004058704753
:10B1B000A122D20081507047B94A815070470000E7
:10B1C00000B56A4900280ED0C64A126800BF00BF09
:10B1D00000BF00BF00BF00BF00BF00BF8A4200D059
:10B1E00000BF0138F2D100BD10B50400FA20800084
:10B1F0006043FFF7E5FF10BD80B51520FFF78DFF19
:10B200001520FFF7A7FF01BD80B51520FFF785FFCB
:10B210001520FFF7ACFF01BD38B501206946087065
:10B22000684600780007000F10210143684601704E
:10B230000B22BD4968467CDF04002500002D02D0AA
:10B24000280000F0A1FC31BDF0B591B0042700202A
:10B25000694608703C25002402AE22002900300017
:10B2600000F0A2FC6846039002206946087202A81A
:10B27000C77069460020085677DF002102A801F058
:10B2800035F80190019E002E02D0300000F07CFCC9
:10B2900018240025BF4E2A002100300000F084FC55
:10B2A0000320BC4908700020BA4948600020B94911
:10B2B0000872C8208000B74908820020B54948823A
:10B2C00011B0F0BD70B5B34873DF04002500002D48
:10B2D00002D0280000F058FC0220010000200500E8
:10B2E0002E00002E02D0300000F04EFC70BD10B5D4
:10B2F0000400200001F08FFA10BD70B586B0A6489A
:10B300000068009000234822A449684601F0B8FB79
:10B3100004002500002D02D0280000F035FC01AA11
:10B320000021002001F012FC05002E00002E02D0AA
:10B33000300000F029FC01A801F03CFC04002600CC
:10B34000002E02D0300000F01FFCAC4801F0D4FB0E
:10B3500005002E00002E02D0300000F015FC06B0D3
:10B3600070BD00000400FA050CED00E00024F400BC
:10B3700010B504002078002800D090E09E480078A6
:10B3800001F0F6FC9E489F490978401801F0B9FD8C
:10B390009B489C490978405C242802D02A280DD07B
:10B3A00059E000209849087001209849087024202D
:10B3B0009349087001209349087070E09248007822
:10B3C000032844D19249032001F023FE8C488D4983
:10B3D00009784018401E0078412807D088488949DC
:10B3E00009784018401E0078442818D18949032064
:10B3F00001F00FFE88480078401C87490870864895
:10B4000000781E2823D100208349087000F06CF8D2
:10B4100000209749087002209649087017E0944868
:10B42000007878280BD100F05FF800209049087070
:10B4300000207949087002208E49087007E08C4886
:10B440000078401C8A490870002073490870002069
:10B450006E49087023E06D48007801281AD16948C8
:10B460000078052816DB66484078472812D16448E2
:10B4700080784E280ED16248C07852280AD16048A0
:10B4800000794D2806D15E484079432802D1032037
:10B490005D4908705B480078401C5A49087010BD2F
:10B4A0000C05000030B58BB004A88A49182201F0C1
:10B4B00051FF914800908020400001908F480290F9
:10B4C0008020400003900323A54A694604A801F0A8
:10B4D000B6FC04002500002D02D0280000F054FB2B
:10B4E0000BB030BDD418002080B50020844908601E
:10B4F0000B20FFF712FE0B20FFF72CFE01BD70B5ED
:10B5000004207F4908600B20FFF707FE0B20FFF7A0
:10B510002EFE802464000025394E2A0021003000D0
:10B5200000F042FB70BD0000D805020038B548DFCE
:10B5300004002500002D02D0280000F025FB31BDBD
:10B5400038B59848006802F064FB04002500002D1F
:10B5500002D0280000F018FB31BD10B5040081486E
:10B560000068401E7F4908602348007801F000FC15
:10B570007C48006800280BD1FFF7E2FF8A490320CE
:10B5800001F047FDFFF7BBFF9A49032001F041FDA1
:10B5900010BD0000AC2600204006020060250020FF
:10B5A00038B582488079E121090148437F494979CA
:10B5B0003C22514340187D49097940186949086087
:10B5C000684800682E2803D201206649086004E01C
:10B5D000644800682D386349086000228021090210
:10B5E0007048006802F0EEFA04002500002D02D039
:10B5F000280000F0C9FA31BDBF270020EFB20100DA
:10B6000008200020BD270020C0270020C1270020DF
:10B610008405020014050200C827002080B589486F
:10B620000078401C874908708748007801F0A0FB2B
:10B63000844800783C281AD1002082490870834849
:10B640000078401C81490870804800783C280ED161
:10B6500000207E4908707E480078401C7C490870B4
:10B660007B480078182802D100207949087001BD74
:10B67000C2270020C627002010B50400FFF7CEFF28
:10B6800010BD10B50121744802F061FB0400002CCC
:10B6900002D0200000F078FA02F017FB10BD10B5C0
:10B6A0000400FFF7EEFF10BD01216C4A11707047D6
:10B6B00038B56B48006802F0ACFA04000020674916
:10B6C00008702500002D02D0280000F05DFA31BD81
:10B6D000000000009C05020038B50022C02189024C
:10B6E0005F48006802F06EFA04002500002D02D0C9
:10B6F000280000F049FA31BD08210020082200206E
:10B7000000250040F8B50023564A0521002002F02C
:10B71000FDF904002500002D02D0280000F034FAC5
:10B72000514A01211F4802F02DFA00904F4A012191
:10B73000434802F027FA07004D4A0121454802F02C
:10B7400021FA05004B4A0021454802F01BFA060089
:10B7500000960098002802D0009800F015FAF1BD7C
:10B7600071B301008C18002038B505000C00E4B25C
:10B77000012C15D1EDB22800062802D0162803D0DE
:10B780000EE002F007FE0BE001203B4908700320A9
:10B790003A4908703A480078401C39490870FFE778
:10B7A00031BD000030060200F4040200DC26002057
:10B7B00070B53449012002F0EDFE04002500002D93
:10B7C00002D0280000F0E0F9322202212E4802F0D7
:10B7D0009FFF05002E00002E02D0300000F0D4F9AB
:10B7E00002F0D9FF04002600002E02D0300000F045
:10B7F000CBF970BDB405020080B503F065F801BD5A
:10B8000070B584B0684621491CC91CC00C390C387D
:10B810001F49684601F044FA04002500002D02D0BB
:10B82000280000F0B1F9084801F06BFA05002E007D
:10B83000002E02D0300000F0A7F901F057FA7FBDCA
:10B8400034060200BE270020BF270020D8180020A1
:10B85000D918002038060200AC270020C527002098
:10B860003C060200082400205BB5010079B6010007
:10B870009FB60100A9B60100C3270020C6270020FB
:10B88000C4270020C426002094180020E4050200EC
:10B89000F9B7010010B5012403211720FFF74AFC76
:10B8A0001720FFF771FC002801D1002004002000C0
:10B8B000C0B210BD10B5FFF725FFFFF71EFDFFF763
:10B8C000ABFCFFF7C1FC03F06BF803F0A1F8FFF746
:10B8D000F9FCFFF795FFFFF7E5FDFFF769FF04208F
:10B8E0009749087096480078022800D1A2E0032802
:10B8F00000D1E3E0042800D1CBE0062805D00728DA
:10B9000000D112E108287AD00FE1FFF7EDFDFFF733
:10B91000E3FE8C480078002803D18B48007801288A
:10B920006CD1FFF7C5FE87480078002862D08548B3
:10B93000027892B28549864803F01CF90400E4B20B
:10B940009E2C06D1022002F0F5FF04207C490870ED
:10B9500049E0E4B2902C46D10020C0B204280ADAB3
:10B960007B49C0B20918C97A7A4AC0B24342D21898
:10B97000D171401CF1E70521764803F01DF87548A8
:10B980008079E12109014843724949793C225143B8
:10B9900040187049097940186F4908606E4800687E
:10B9A0002E2803D201206C49086004E06A48006830
:10B9B0002D38694908600120684908700020C0B22C
:10B9C00004280DDA62495F4A1278D21EC0B2121AF8
:10B9D000895C624AC0B24342D2181171401CEEE742
:10B9E0000820574908700020564908700020564921
:10B9F00008708EE70220524908708AE795E0FFF749
:10BA000073FD5748007801F0B3F9FFF7FDFB554887
:10BA100002F053FD9F220521504803F022F85248BE
:10BA2000027892B20021514802F085FA042044497C
:10BA300008707AE04E480078022823DAFFF754FDB8
:10BA40004748007801F094F9FFF7DEFB454802F023
:10BA500034FD192247480178474803F002F842486C
:10BA6000027892B20021414802F065FA404800781D
:10BA7000401C3F490870414802F01FFD0620304934
:10BA8000087005E000203A49087004202C4908702D
:10BA90004BE0FFF7B1FB0020354908700020354925
:10BAA0000870002030490870FFF77AFD2C480078B4
:10BAB00001F05EF907202249087036E0FA20000103
:10BAC000FFF792FB2648007801F052F92C480078E5
:10BAD00003281BD1FFF734FDFFF706FD00202249A4
:10BAE00008700F220421274802F0BBFFFFF78CFBF0
:10BAF0001C4802F0E2FC1C48027892B200211B486C
:10BB000002F019FA00201849087007E01C48007874
:10BB1000052803D102F0D8FEFFF7D2FA0420084925
:10BB20000870002016490870FFE7FFF7B3FE0028F1
:10BB300002D102F0EFFED5E602F0F4FED2E60000FC
:10BB4000C6270020D6270020C52700208418002003
:10BB500008230020DC2600208C1800206427002009
:10BB6000BF270020E0841A1CBC270020081F0020EB
:10BB7000C7270020BD27002008200020A077171C21
:10BB8000C42700209018002010B584B00400684637
:10BB90000C2100F031F802946A460021014803F0BC
:10BBA00031F81FBD014000001206130A1A43130C9E
:10BBB0001A4300BF094205D0830705D00270401C1C
:10BBC000491EF9D170470000130030B4140015006D
:10BBD000103902D310393CC0FCD2490700D30CC045
:10BBE00000D504C0890002D30280801C002900D542
:10BBF000027030BC704700000022E5E70200100030
:10BC00000870100080B2000A487002207047F4B536
:10BC100084B004000D006846008A298809318842F2
:10BC200001D20C2030E002A871DF0600002E01D006
:10BC3000300029E00820298860542888401C28808A
:10BC40001B20298860542888401C288006200190E9
:10BC500002A8401C009028882718019A00993800F3
:10BC600001F064FB2888801D28806846007A00283F
:10BC700003D100202988605402E001202988605403
:10BC80002888401C2880002005B0F0BDF8B582B09F
:10BC900003000C001878012804D15878002801D13D
:10BCA000072057E0684600891188891C88420AD31A
:10BCB0001878012809D16846008911885D784919EA
:10BCC000891C884201D20C2044E068460089118812
:10BCD000401A851E68460580694610882018801C19
:10BCE0007DDF0100002901D0080033E01878022828
:10BCF00007D128006E46368880B2B04201D30926AB
:10BD00000FE008261878012809D128005F7880B252
:10BD1000BFB2B84203D358786F46388001E0684616
:10BD2000058068460088FF2801D30C2012E0684691
:10BD30000088401C1788E0551088401C108010882F
:10BD400026541088401C108010886F463F88C01908
:10BD500010800020FEBDF8B506000C001700BFB231
:10BD60002088001D874201D20C201DE0684679DF43
:10BD70000500002D01D0280016E003202188705412
:10BD80002088401C20801920218870542088401C65
:10BD900020802088311868460088FFF72FFF21880F
:10BDA000C0B2081820800020F2BD30B504009BB25C
:10BDB0001088C01C834201D20C2011E0022015889B
:10BDC00048551088401C108001201588485510885F
:10BDD000401C108010880C541088401C10800020DB
:10BDE00030BD30B504009BB21088C01C834201D224
:10BDF0000C2011E00220158848551088401C108046
:10BE00000A20158848551088401C108010880C5452
:10BE10001088401C1080002030BDFFB583B00C9B03
:10BE200000241888694648800025039800888542C8
:10BE300049DA02A80399496804226A4389180A88E2
:10BE400002804A8842800022694602A865DF060017
:10BE5000002E01D030004DE0684600786946097D2B
:10BE600088422ED1E4B2002C01D0002700E0022746
:10BE70006846818E18886A4612788018FFB2C01909
:10BE8000814201DA0C2035E0E4B2002C0CD1188894
:10BE9000401C18806846007C06991A8888541888C7
:10BEA000401C188001200400069819884218694631
:10BEB00002A865DF00281DD119886A461278891802
:10BEC00019806D1CB1E7E4B2002C12D068461988C5
:10BED0006A465288891A491E818068468088FF28F0
:10BEE00001DD0C2006E06846808806996A46528883
:10BEF0008854002007B0F0BDF7B582B01F000A9E3D
:10BF00000B9D280080B2019000963B0002226846FB
:10BF1000017B0298FFF781FF0400002C01D0200074
:10BF200010E0280080B2019000963B001022684685
:10BF3000017C0298FFF771FF0100002901D0080081
:10BF400000E0002005B0F0BD00B50100088806281B
:10BF500007DB0888124A904205DB0888114A9042A4
:10BF600001D007201BE04888062807DB48880C4AD8
:10BF7000904205DB48880B4A904201D007200EE032
:10BF80000888084A904209D04888064A904205D05D
:10BF900048880A88904201D2072000E0002000BDB6
:10BFA000810C0000FFFF0000F8B507000E00140030
:10BFB000684600882188891D884201D20C2026E02D
:10BFC0003800FFF7C1FF0500002D01D028001EE05A
:10BFD0000520218870542088401C20801220218850
:10BFE00070542088401C2080208831183888FFF742
:10BFF00005FE2188C0B20818208020883118788872
:10C00000FFF7FCFD2188C0B2081820800020F2BD97
:10C01000FAB583B005001400AE88B61C6846008AE5
:10C0200021888919891C884201D20C2035E0FF2E15
:10C0300001D30C2031E03000401C03992288885441
:10C040002088401C2080FF20039922888854208863
:10C05000401C20800398218841182888FFF7CEFDD6
:10C060002188C0B208182080A888002814D0A868A9
:10C07000002801D1072010E0A8880190A86800904E
:10C08000039821884718019A0099380001F04EF969
:10C090002088A98840182080002005B0F0BDFBB59D
:10C0A00084B014000498806A002801D1072049E078
:10C0B0000026300004992C22895CC0B2884240D20C
:10C0C0000498806AF6B20C2171434518A888801C38
:10C0D00000900098FF2801D30C2033E00098401C0A
:10C0E0000599228888542088401C208016200599B4
:10C0F000228888542088401C208005982188411877
:10C100002888FFF77BFD2188C0B208182080A88806
:10C11000002814D0A868002801D1072012E0A888C0
:10C120000290A8680190059821884718029A019901
:10C13000380001F0FBF82088A98840182080761C80
:10C14000B7E7002007B0F0BDF2B582B005001600D9
:10C1500000243788002030802D20285C00280AD059
:10C160003A0092B231000298FFF751FD0400002C12
:10C1700001D02000A7E0A87800280AD03A0092B2A7
:10C1800031000298FFF7E7FD0400002C01D02000E9
:10C1900099E0E87800280CD03B009BB2320002996D
:10C1A000E87840B2FFF701FE0400002C01D0200027
:10C1B00089E0686800280FD03B009BB232000299EA
:10C1C0008C466868002140566146FFF70AFE04006D
:10C1D000002C01D0200076E0288900280FD03800FC
:10C1E00080B201900096029B0622022128000830AE
:10C1F000FFF782FE0400002C01D0200063E0288AB3
:10C2000000280FD0380080B201900096029B0722D0
:10C21000032128001030FFF76FFE0400002C01D02E
:10C22000200050E0288B00280FD0380080B2019009
:10C230000096029B1522142128001830FFF75CFE9F
:10C240000400002C01D020003DE0286A00280BD01B
:10C250003B009BB232000299286AFFF7A5FE04005A
:10C26000002C01D020002EE0686A00280BD03B0093
:10C270009BB232000299686AFFF7CAFE0400002CE4
:10C2800001D020001FE02C20285C00280BD03B00B0
:10C290009BB2320002992800FFF701FF0400002C36
:10C2A00001D020000FE0287800280BD03B009BB283
:10C2B000320002992800FFF7E9FC0400002C01D0AD
:10C2C000200000E02000FEBD00B50100C878400756
:10C2D00001D4072000E0002000BD00B50100C878AF
:10C2E000002801D0072000E0002000BDF1B592B089
:10C2F0000F001F20694648801F2069460880129859
:10C30000002814D01298FFF7DFFF0500002D01D0A0
:10C31000280032E000AA921C09A91298FFF714FF26
:10C320000400002C01D0200027E009AD03E0002527
:10C33000002069464880002F13D03800FFF7CDFF5A
:10C340000600002E01D0300017E06A4601A938002F
:10C35000FFF7FAFE0400002C01D020000DE001AA36
:10C3600003E0002200206946088068460388DBB2AB
:10C3700068464188C9B2280072DF13B0F0BDFEE7FD
:10C3800000B5A34800680021C943884204D1A148F0
:10C3900000688021C900484300BDF2B584B00400A4
:10C3A000102500266F46320029003800FFF7FCFBFD
:10C3B000207A012802D0022809D014E00020694622
:10C3C000087020690290A08A694688810BE00120EC
:10C3D00069460870A089E189401A69460881A089E8
:10C3E00069464881FFE7606801906846017C6846BD
:10C3F00022689268904705B0F0BD00B501000029A1
:10C4000009D085480068814205D3B7480068814259
:10C4100001D2012000E0002000BD38B50300988A59
:10C42000D98A401AFF2803DC988AD98A421A01E087
:10C430008022520092B2D868D98A04244C43011950
:10C440001869DC8A04256543401929DF32BD0100E3
:10C45000888928DF704700B5A448406E401EA34974
:10C460004866A248406E002805D1A1480078FD2109
:10C4700001409F4801709D48006E401C9B49086622
:10C480009A48006E042802D100209849086600BD31
:10C4900038B596489549096E182251434518934876
:10C4A000406E002826D0287A012802D0022805D024
:10C4B00009E02800FFF7B1FF040006E02800FFF7BD
:10C4C000C6FF040001E009200400112C0CD18848AB
:10C4D0000078FD21014086480170854800780421DC
:10C4E00001438348017005E0002C03D00921280096
:10C4F000FFF753FF31BD80B57D480078062101402C
:10C50000002907D17A480078022101437848017058
:10C51000FFF7BEFF01BD38B5040000209B4908703D
:10C52000207A012802D0022819D029E0A08AE18AC5
:10C53000401AFF2803DCA08AE18A451A01E0802521
:10C540006D00E08A4019E082E08AA18A884205D124
:10C5500000212000FFF721FFFFF77DFF10E0A089F9
:10C56000401CA081E089401CE081E089218A88424A
:10C5700005D100212000FFF710FFFFF76CFFFFE758
:10C5800031BD10B5040081480078401C7F49087017
:10C590007E480078042808DB00207C4908700821C8
:10C5A0002000FFF7FAFEFFF756FF10BDF1B54F4828
:10C5B000406E042801D1002029E04C48006E4B4910
:10C5C000496E4018042805D24848006E4749496E14
:10C5D000441805E04548006E4449496E4418241F3C
:10C5E0004248406E401C41494866182500263F4895
:10C5F000182161434718320029003800FFF7D4FAA8
:10C600003A48182161434018009908600120F2BDA2
:10C61000141000101400001078180020FEB5964881
:10C620009649401A0009019093489449401A040918
:10C63000FFF7A6FE01002E480078C00701D50020B4
:10C6400050E00020019A90420DD28D4A12681023CA
:10C650004343D2181368002B03D05368002B00D03B
:10C66000641E401CEEE70020A04234D2844A1268C7
:10C6700010234343D218029200226B461A70020024
:10C680000023019DAB4216D27D4D2D6810265E43DE
:10C69000AD192E68002E02D06E68002E09D16E46AC
:10C6A00036786F7BBE4204D26E466F7B37701E00B9
:10C6B00032005B1CE5E7724B1B68D2B21025554374
:10C6C0005B1959601D7B6F4E75434D191D601B68CA
:10C6D0001900401CC8E706480078012202430448BC
:10C6E00002700020FEBD00007C180020F82400200D
:10C6F000BA270020F4B582B004000D001F00089E88
:10C7000061480078C00701D401203EE02000FFF717
:10C7100074FE002801D1022037E00298002801D0E1
:10C72000002D01D1032030E00298800702D12800BB
:10C73000800701D0062028E02068854206D3606883
:10C74000BFB2042179436918884201D205201CE058
:10C75000BFB2002F01D1042017E06846FFF726FF83
:10C76000002801D1072010E000984660009804607E
:10C7700001200099087202980099C860009805612C
:10C7800000988782FFF7B7FE0020FEBDBB27002080
:10C79000F8B504000D0016001F003B480078C007E4
:10C7A00001D4012036E02000FFF727FE002801D148
:10C7B00002202FE0002D01D103202BE0A80501D09D
:10C7C000062027E02068854207D36068B6B2802142
:10C7D000C90071436918884201D205201AE0B6B237
:10C7E000002E01D1042015E06846FFF7DFFE002887
:10C7F00001D107200EE000984760009804600220F5
:10C8000000990872A80A0099888100980682FFF7AB
:10C8100072FE0020F2BD38B504001C481B49096EA9
:10C820001822514345181848007880070DD520007C
:10C83000022802D0032804D01BE02800FFF76BFE7B
:10C8400017E02800FFF79DFE13E00F48007840072F
:10C850000FD50D480078FB2101400B4801700B48B3
:10C86000406E002805D008480078022101430648A0
:10C870000170FFF70DFE31BDF0180020E018002018
:10C880007818002000FCFFFFBA270020F8240020C1
:10C890000121C206D20E9140954A116070470121D4
:10C8A000C206D20E9140934A1160704700B540B263
:10C8B000002811D5714940B20207120F083A9208B8
:10C8C00004235A4389588007800F08225043C140EF
:10C8D00088098007800F0DE08D4940B2820804234B
:10C8E0005A4389588007800F08225043C140880965
:10C8F0008007800F00BD00B5800701D1012000E056
:10C900000020C0B200BD00B5010049B2202905DAFF
:10C910008A4ACA401000C007C00F00E0012000BDD5
:10C9200000B50100042901D3002006E0002901D050
:10C93000022901D1002000E0012000BD10B5040053
:10C94000200040B2FFF7DFFF002801D17C4824E03F
:10C95000200040B2FFF7AAFFFFF7E2FF002801D155
:10C9600078481AE078484068002811D0764864B2C8
:10C9700061090422514340580121E206D20E914040
:10C980000143714864B2620904235A43815003E0B1
:10C99000200040B2FFF77CFF002010BD544940B298
:10C9A000420904235A438958C006C00EC1400800FA
:10C9B000C007C00F704770B506000D0014002200BC
:10C9C0002900300002F01EF970BD7CB57548007872
:10C9D00000284DD0002674480068002801D10124A9
:10C9E00000E00024F6B2002E1CD170480078002828
:10C9F0003ED101A852DF0500052D02D1012006001D
:10CA000010E0002D03D02800FFF7BEF80AE00198DF
:10CA100002F0AEF966480068002803D00198644926
:10CA200009688847E4B2002C1CD1604800780028CF
:10CA30001ED17348008869460880694671480068BD
:10CA400061DF0500052D02D1012004000AE0002D60
:10CA500003D02800FFF798F804E06A4800685249BC
:10CA600009688847F6B2002EBCD0E4B2002CB9D0D9
:10CA700073BD4C4800787047000000001CED00E0DA
:10CA8000FEB507000C00002C01D107202FE020008C
:10CA9000FFF731FF002801D1072028E05948046042
:10CAA00068468088564908800298574908600020E7
:10CAB000FFF774FF0500EDB2002D02D00020FFF754
:10CAC000EEFE5249380010DF0600002E07D0EDB20E
:10CAD000002D02D00020FFF7DBFE300007E0012030
:10CAE0003049087002F04CF91620FFF727FFFEBD11
:10CAF00000E100E080E100E000B50100080000284E
:10CB000001D10E2002E02A480160002000BD000093
:10CB100000E400E038B53C48006800280AD03A48F4
:10CB20000068804704002500002D02D02800FFF790
:10CB30002BF801E0FFF749FF31BD0000FC06FFBC08
:10CB400001200000022000005C270020F1B50C004D
:10CB50001500142600273A0031002800FFF724F8BA
:10CB60000120288000202861287BFE2101402973B4
:10CB70002C72684600786872687A002801D001201B
:10CB8000A8720020F2BD224801682248026808000D
:10CB90005043704710B58024A405FFF7F4FF201818
:10CBA00010BD0000CD270020A4270020CE270020A4
:10CBB000A827002030B583B00500174801900198E0
:10CBC00000906946280060DF0400009801998842BF
:10CBD0000DD0009A1149022000F04CFAFFF7DAFF5D
:10CBE0000099421A0E49022000F044FA06E0002C97
:10CBF00004D022000B49012000F03CFA20003EBD89
:10CC0000AE270020A02700209C270020B7C90100E4
:10CC100038000010340000107018002038030200A3
:10CC2000BC0302004C040200C0B2464908607047D1
:10CC30000121454AC0B2115070470021424A00B25A
:10CC40001150704741490860704700B53F49096875
:10CC50000840002801D0012000E00020C0B200BD43
:10CC60003B49086070473B490968012282400A43FA
:10CC700038490A6070473849384AC0B204234343F0
:10CC8000D150704780B50120FFF7DFFF012806D1A2
:10CC900080204000FFF7D1FF31480068804701BD88
:10CCA00038B504000D002E4805602E480078002895
:10CCB00005D101202B490870002C04D101E0082087
:10CCC00013E0294804002078FFF7AEFF6068802158
:10CCD00009024843FA21890002F072F8FFF7C0FF09
:10CCE000217A102002F01EF9002032BD80B501200B
:10CCF000FFF7A8FF0020FFF79BFF022019490870EB
:10CD000001BD38B50400002069460870684602F08D
:10CD100063F91648006808280CD21448006820708F
:10CD200012480068401C114908602078FFF79BFFFB
:10CD3000002500E004256846007802F053F9280039
:10CD400032BD00000C050140000001400403014019
:10CD500004050140080501403546526E00060140B9
:10CD600094270020CA270020F00502009827002001
:10CD700010B504002000C0B2FFF77DFF10BDFEE734
:10CD80008168C068401A70477CB504000D002078A7
:10CD900000283FD002282ED050D260680178684821
:10CDA00002F067F90600002E08D0012069460870DD
:10CDB000019668466349096888470BE06048FFF7B9
:10CDC000DFFF002806D000206946087068465D49EC
:10CDD000096888475A48FFF7D3FF59498988814233
:10CDE00005D301225849594802F0C8FB02E001204E
:10CDF0005749087022E0022069460870E0680190F7
:10CE000001225149514802F0B9FB68464D49096871
:10CE1000884713E04F49504802F03DF9002805D1FA
:10CE200001224C49494802F0E7FA06E0032069462E
:10CE300008706846434909688847FFE773BDFCB539
:10CE400089B004000E0009983E490860002E01D107
:10CE5000072054E0726892B23168394802F0EFF866
:10CE60000500002D01D0280049E0F26892B2B168B7
:10CE7000394802F0E4F80700002F01D038003EE006
:10CE800068463649202200F065FA60690690207CE9
:10CE9000002801D1002000E00120694608750AA899
:10CEA000007869460877607C002801D00E2000E0F9
:10CEB000002069464875E0680290A06803902068E9
:10CEC000019060680090264A6946204802F0FFF908
:10CED0000500002D01D0280011E000201C49087039
:10CEE00020680021C943884208D0184802F080FB1E
:10CEF00001221549154802F041FB00E000200BB06B
:10CF0000F0BDF8B507001248057839000C4802F06A
:10CF1000C2F80400EDB2002D0FD000200C490870BB
:10CF200001220949094802F029FB060000960098F1
:10CF3000002802D00098FEF727FE2000F2BD000076
:10CF40001C27002090270020B82700207018002000
:10CF5000B9270020B72700202C270020D404020086
:10CF600089CD010080B5012002F034FC02BDF2B58C
:10CF700082B0401C01900124012500206946087000
:10CF8000684602F029F85848006802990860564837
:10CF90008068401C54490968401A5349496846183A
:10CFA00001980719BE4227D2002E22D04F480168AF
:10CFB000032081430120084304218843382188430A
:10CFC000282101434A4808408005800D49490968E5
:10CFD000890201434448444A1368434A92681A400C
:10CFE00004235A438018C1603F480068401C3E49F2
:10CFF00008600020050005E03B48006801994018E2
:10D00000394908606846007801F0ECFF2800C0B29A
:10D01000FEBDF8B506000C00002533488768694658
:10D020002800FFF7A4FF002823D03348016803201D
:10D030008143012008430421884338218843F6B204
:10D04000F200382111400143294A0A40A901F02089
:10D050008000084010438105890DA0020843224941
:10D06000009A3A4004235A438918C8600098401C2B
:10D070000090F1BDF4B582B006000C0001251A48FD
:10D08000876869462800FFF772FF00282BD01B48ED
:10D09000016803208143012008430421884338218B
:10D0A0008843F6B2F200382111400143104A0A4089
:10D0B000A901F0208000084010438105890DA002DD
:10D0C00008430949009A3A4004235A438918C86022
:10D0D0000099491C00910449009A3A4004235A439C
:10D0E0008918029ACA60F7BDF018002048060200AD
:10D0F0003FFCFFFFBC1800204C0602005006020057
:10D1000000B58448406883490968884201D10120FC
:10D1100000E00020C0B200BDF0B593B0FFF7F0FF13
:10D12000002801D00020F2E07A48446879488068FD
:10D1300005900C94774805992140042251434018EA
:10D14000C568641CA807800F002810D1A80DA90984
:10D150008905890D401824180C946E4805992140C2
:10D16000042251434018C0680500641CEAE700200F
:10D17000089028004007C00F002801D00020089028
:10D18000002069460874A807800F022800D088E0B4
:10D19000604805992140042251434018C0680B9013
:10D1A000641CA80D0790A8098005800D0A900598B9
:10D1B000401C05992140401A0421484306900698D6
:10D1C000079988423CD20698002808D05148059912
:10D1D00021400422514340180C30099001E04E4890
:10D1E00009900698002803D006986946887402E0E2
:10D1F0000798694688740698002801D0464E00E0DA
:10D2000000260698002805D068460799069A891ACC
:10D21000417402E00020694648746846407C0390EF
:10D2200002966846807C0190099800900A9B0B9AB0
:10D230000899E8084007400F384F3F68B84716E0A4
:10D240000020039000200290079801903148059932
:10D2500021400422514340180C3000900A9B0B9A45
:10D260000899E8084007400F2C4E3668B0470799E8
:10D27000884207D10799C91C8908641801216A46A8
:10D28000117436E0264929408201264D15400D4390
:10D2900020490C9A059B134004225343C918CD60C2
:10D2A00027E00DAEA80A0390A8090007000F02901E
:10D2B000002001900198029988420DD215480599E5
:10D2C0002140042251434018C0683060641C361D60
:10D2D0000198401C0190EDE7029800900DAB039A75
:10D2E0000899E8084007400F0F4F3F68B847694664
:10D2F00008746846007C002801D006484460FFF7A7
:10D30000FFFE002801D1012000E00020C0B213B0D0
:10D31000F0BD0000F0180020FC180020041D0020C3
:10D320003F00FFFFC0FF0000001D0020124207D099
:10D330008B0706D00B78491C0370401C521EF7D88F
:10D340007047830706D00B78491C0370401C521E9F
:10D35000F9D1704770B4103A03D378C9103A78C045
:10D36000FBD2530701D318C918C001D508C908C09A
:10D37000D20704D30B880380891C801C002A01D5A6
:10D380000B78037070BC70470121C206D20E914029
:10D39000C04A116070470121C206D20E9140BE4AB8
:10D3A000116070470121C206D20E9140BB4A116044
:10D3B00070470121C206D20E9140B94A11607047F0
:10D3C000F0B540B2002821D5924C40B20207120FAE
:10D3D000083A9508042255438E4A40B203071B0FB2
:10D3E000083B9B0804267343D258FF238607B60FD9
:10D3F00008277E43B3409A438B01DBB28607B60F02
:10D4000008277E43B340134363511AE0BD4A40B23C
:10D41000830804246343D258FF238407A40F0825FC
:10D420006C43A3409A438B01DBB28407A40F082509
:10D430006C43A3401343B34A40B2840804256C43B1
:10D440001351F0BD00B5800701D1012000E000209C
:10D45000C0B200BD00B5934900280ED0AA4A126898
:10D4600000BF00BF00BF00BF00BF00BF00BF00BFC4
:10D470008A4200D000BF0138F2D100BD10B50400CF
:10D48000A248046003211120FFF79AFF10BD80B568
:10D49000802040029E490860802040029D4908602B
:10D4A0001120FFF786FF1120FFF76EFF01209A4938
:10D4B00008602F20FFF7CEFF0120B749087001BD9B
:10D4C00080B51120FFF767FF802040029349086074
:10D4D00080204002B14908600120B14908602F2036
:10D4E000FFF7B8FF0120AF4908600020AE4908608F
:10D4F0002F20FFF7AFFF0020A749087001BDBF48EC
:10D5000000687047401A0002000A7047BC49086072
:10D51000704710B5BB490968002902D1B9490860B4
:10D520002AE0B84909680968026891420DD3B549F3
:10D53000096809680268891AB24A12681160B1491B
:10D540000968C161AF49086016E00168AD4A126818
:10D55000AC4B1B68002B07D01C688C4204D21C68A3
:10D56000091B1A00DB69F5E7002B02D01C68641A5E
:10D570001C600160C361D06110BD10B5A14909688C
:10D580000A00002A04D0824202D01100D269F8E7D2
:10D59000002A1CD0914211D19A4B1B68DB69994C2F
:10D5A0002360984B1B68002B08D101237D4C23601E
:10D5B00000237D4C23600123934C23701468D369AE
:10D5C000CB61CB69002B02D01A6812191A6010BD0A
:10D5D00080B51120FFF7E6FE01BD80B51420FFF7EE
:10D5E000E1FE01BD70B50400C148006800280CD000
:10D5F000A1696069BE4A1268904705002E00002E9E
:10D6000002D03000FEF7C0FA02E0A06961698847E5
:10D6100070BD00001CED00E0F8B57A4800680028F5
:10D6200037D00024FFF76BFF5F490968FFF76AFFF7
:10D63000050074480668002E11D0306885420ED36C
:10D6400030682D1A306824183700F669387C0028B5
:10D65000F1D0002038743800FFF7C4FFEBE7A5488D
:10D660000078C949097888420BD1C7480078401C26
:10D67000C5490870C4480078022802D10020C24978
:10D680000870C248C0490978042251434450FFF74A
:10D69000A4FFF1BD00E100E080E100E000E200E075
:10D6A00080E200E00024F40000B501009148007819
:10D6B000B54A1278904220D08E480078401C8D4A9E
:10D6C00010708C480078022802D10020894A10701E
:10D6D000AE48884A127804235A438058086032487A
:10D6E00000680A688018304A10602F4800680002FD
:10D6F000000A2D4A1060012002E00020086000208E
:10D7000000BD000000E400E0D4180020081501402E
:10D71000441301400413014000100140481301402C
:10D7200070B5C1480678374804683000BE4949786A
:10D73000C0B2884226D0BC484068F6B21821714376
:10D740004518761C3000B8498978C0B2884201D1AA
:10D75000002006002878022802D0032804D010E018
:10D760006868FFF70AFFE0E726480068002807D04E
:10D770002448006800210174C06922490860F3E769
:10D78000D3E7D2E71F480068A04201D0012000E0A3
:10D790000020C0B270BD0000B52700200813014072
:10D7A000041001400810014088270020F0B5002334
:10D7B000144C2468002C20D0124C24682568A84200
:10D7C00003D225682D1A256017E02568401B2568BF
:10D7D0005B19002525600B4D2D68E669094F3E60F9
:10D7E000E668002EE4D0CE183602360A6660E66897
:10D7F000A6601668E6611560DAE7F0BD0415014021
:10D800004015014084270020B627002070B5040091
:10D8100039480668002C05D1834800788249497848
:10D8200088425CD0002C03D02500E86904002AE07F
:10D830007D4840687C4909781822514340187A494C
:10D840000978491C784A117077490978764A9278A4
:10D85000914202D10021744A117045680178012972
:10D8600002D1297C002900D0D4E781686960C168B1
:10D87000A9600169E9604169A961C1490978002984
:10D8800001D00021696068689C490968401A00025B
:10D89000000A9B49884208D2984801686868FFF7E7
:10D8A00031FEA968401828600DE069689348006857
:10D8B000FFF728FEA968884203D2A968081A2860E1
:10D8C00001E000212960002068600020A86001209C
:10D8D00028740020E8612800FFF71BFE9AE706483D
:10D8E0000068B04201D0012000E00020C0B270BD4D
:10D8F0008C270020B327002084270020F1B584B0B6
:10D90000AF48006800283AD0AD4800680068019030
:10D91000FFF7F5FD06007948046821003000FFF7A5
:10D92000F1FD0500ED1CC6480078002801D1FFF785
:10D93000AEFD0198854201D2019800E02800201830
:10D940000002000A00900098FFF7E0FDFFF7D7FD06
:10D95000070031000098FFF7D5FD040031003800C2
:10D96000FFF7D0FDC01C84420BD2FFF7C8FDFFF7C4
:10D97000CDFD2F20FFF76EFDFFF72AFE01E0FFF738
:10D980009FFD05B0F0BD0000B42700205427002003
:10D99000F0B583B0002000905848076888480568B3
:10D9A00001A8FFF781FE0600FFF7BAFE0400F6B2F9
:10D9B000002E06D06A4639000198FFF7F7FE0120D5
:10D9C00004000098FFF722FF002801D00120040086
:10D9D000E4B2002C02D02800FFF790FF0020684935
:10D9E0000870F7BD97494870704710B50100954819
:10D9F0004278521C1000934B9B78C0B2984201D1E0
:10DA00000020020010008F4B1B78C0B2984201D159
:10DA1000002007E00A708B4840688A4B5B78182426
:10DA20006343C01810BD00004C270020F7B5040068
:10DA30001F000025002069460870684601F0CCFAF6
:10DA400000A8401CFFF7D1FF0600002E02D10420E1
:10DA500005000EE0012030707460FFF750FDB060EB
:10DA60000198F06002983061776168464078FFF76E
:10DA7000B9FF6846007801F0B5FA002D01D1FFF733
:10DA8000ACFD2800FEBDF8B504000F000025002005
:10DA900069460870684601F09FFA00A8401CFFF72D
:10DAA000A4FF0600002E02D10420050005E0377017
:10DAB000746068464078FFF795FF6846007801F08B
:10DAC00091FA002D01D1FFF788FD2800F2BD80B545
:10DAD00000205D49086000205C49086000205C4926
:10DAE000086000205B49086000205B490860002056
:10DAF0005A490860FFF790FD01BD0000882700200B
:10DB0000FFFF7F0080B5FFF743FF01BDF8B50500BB
:10DB10000C0016001F003000FFF794FC002801D114
:10DB200007202CE0002E01D1072028E0FFF7C8FCD9
:10DB30004B48076000204349087000204149487065
:10DB4000404884703F48466000201D49086000201E
:10DB5000444908700020444908701420FFF729FC4C
:10DB600003211420FFF72CFC1420FFF70DFC2800E4
:10DB7000FFF784FCFFF7C3FC3C4908600020F2BDBE
:10DB8000B627002010B503002E484068002801D1B8
:10DB9000082014E01000002801D107200FE0002B1E
:10DBA00001D107200BE01868007C002801D0082074
:10DBB00005E01C680020207461746261002010BDC3
:10DBC00084270020F8B506000C00170000961D48B9
:10DBD0004068002801D108201AE0002E01D1082059
:10DBE00016E0052C01D2072012E0009840690028B9
:10DBF00001D108200CE00098407C012801D12500CB
:10DC000000E000253B002A0021000098FFF70EFFEE
:10DC1000F2BD38B5040025000A484068002801D14B
:10DC200008200CE0002C02D06869002801D10820EF
:10DC300005E00020287402212800FFF724FF32BDF0
:10DC4000B52700204C27002040110140441101401D
:10DC5000481101404C1101400011014004110140E4
:10DC60008C270020B3270020B4270020882700201D
:10DC700054480068704701206E49086070476E493B
:10DC80000860704700216B4A00B21150704700B520
:10DC9000684900B20858002801D0012000E00020A7
:10DCA000C0B200BD654908607047654908607047AB
:10DCB0000121604AC0B211507047012061490860DB
:10DCC000704700205F490860704780B5FFF7D3FFB9
:10DCD00001BD10B580204000FFF7D4FFFFF7F1FF32
:10DCE000FFF7C6FF5849C968574A527C02235A4376
:10DCF00088525548407C401C534948745248407CE7
:10DD00005149097C884220D200244F4880684068ED
:10DD1000002804D14C4840684B49886006E04A48D6
:10DD2000806840684849886001200400464880684F
:10DD30000068FFF7A4FFFFF7C0FFE4B2002C02D099
:10DD40000020FFF7B5FF002000E0012010BD38B52E
:10DD500005000C003C48807C022801D111202FE0F6
:10DD60000220394988743848406837498860200063
:10DD7000354908740020344948743348C560324836
:10DD800080680068FFF77BFF80204000FFF77AFF84
:10DD9000FFF793FF2C480068002803D00120FFF70D
:10DDA00081FF0CE080204000FFF771FF0028F9D0D0
:10DDB000FFF78FFF0028F5D0012023498874002049
:10DDC00032BD000008750040E0B51F48C06800285B
:10DDD00017D180204000FFF755FF0120FFF765FFB6
:10DDE000FFF76FFF012069460870FFF741FF6946A2
:10DDF0008880012014498874684613490968884757
:10DE000017E0FFF766FF002813D00120FFF74DFF52
:10DE10000020694608700C48C06801900A48007CE0
:10DE200069460881012008498874684606490968DE
:10DE3000884707BD0070004004750040047300402F
:10DE40000873004000750040F42600200100A02067
:10DE5000C0057047F3B581B017001C00089D099EEE
:10DE600001A8FFF7F3FF6946097AFFB27A000A4377
:10DE7000E4B2A1001143EDB22A020A43F6B2330420
:10DE800013430199042251434118E022D2008B50E0
:10DE9000F7BD1CB504000020019000200090002375
:10DEA000012201212000FFF7D5FF13BD30B583B05B
:10DEB00005000C0000200190002000902300DBB240
:10DEC000002200212800FFF7C5FF37BD11B581B042
:10DED00001A8FFF7BBFF0400012101988140200049
:10DEE00000F022F813BD11B581B001A8FFF7AEFF15
:10DEF0000400012101988140200000F019F813BDB1
:10DF000011B581B001A8FFF7A1FF0400200000F0C7
:10DF100007F801000198C1400800C007C00F16BDF6
:10DF2000A221C90040587047A122D20081507047F9
:10DF3000894A81507047F2B582B00700160001206F
:10DF4000864908701920FFF7CEFFB6B2FF2E0ADC13
:10DF50003200D2B20021380000F0A7F97F480078E3
:10DF60000028FBD12BE068460489FF2568466946F6
:10DF70000989320089180170200069460978C0B209
:10DF800088421CD268460078E4B2001BFF2803DCFC
:10DF900068460078001B05002A00D2B22100C9B2F1
:10DFA000380000F082F96D4800780028FBD1641930
:10DFB000C82000F039F8C82000F036F8DCE7F7BDDB
:10DFC00080B51C20FFF765FF0020FFF762FF1D20D2
:10DFD000FFF75FFF03211E20FFF768FF1C20FFF7FC
:10DFE00075FF0020FFF77FFF1D20FFF76FFF01BDCA
:10DFF00080B50720FFF74DFF0720FFF767FF1920C7
:10E00000FFF747FF1920FFF76EFF01BD80B507201E
:10E01000FFF769FFC82000F007F80720FFF756FF59
:10E02000C82000F001F801BD00B50200501E002A12
:10E0300006D000221100C9B26429F6DA491CFAE7B9
:10E0400000BD38B504000025EDB2082D11DA200618
:10E0500003D51D20FFF73AFF02E01D20FFF743FF25
:10E060000020FFF733FF64000020FFF73CFF6D1C2A
:10E07000EAE731BD38B500240025EDB2082D10DAED
:10E080000020FFF723FF64001E20FFF739FF002860
:10E0900002D02000012404430020FFF724FF6D1C60
:10E0A000EBE72000C0B232BD38B504001C20FFF7FA
:10E0B0001AFF6006400EFFF7C4FFFFF7DBFF050005
:10E0C0001C20FFF703FF2800C0B232BD38B50500A1
:10E0D0000C001C20FFF707FF80202843C0B2FFF789
:10E0E000B0FF2000C0B2FFF7ACFF1C20FFF7EEFE30
:10E0F00031BD10B501F08AFB0022A44B01F096FB64
:10E1000001F0F6FB04002000000C9F490870200A73
:10E110009D49487020009C4988709B4801780620E2
:10E12000FFF7D4FF984841780720FFF7CFFF9648C4
:10E1300081780820FFF7CAFF10BD10B504008721C1
:10E140004D20FFF7C3FF9248E4B2015D0920FFF7BD
:10E15000BDFF10BD000000000C050000D527002009
:10E1600038B50500032000F088F91E20FFF79CFF5A
:10E170000007000F2C0104432100C9B21E20FFF745
:10E18000A5FF31BD38B505001D20FFF78DFFF1213A
:10E1900001406C000C432100C9B21D20FFF796FF1F
:10E1A00031BD38B505001E20FFF77EFFFB21014081
:10E1B000AC000C432100C9B21E20FFF787FF31BD20
:10E1C00038B505000120FFF76FFFF82404402C4309
:10E1D0002100C9B20120FFF779FF31BD38B5050034
:10E1E0000120FFF761FF4406640E2C432100C9B2F1
:10E1F0000120FFF76BFF31BD38B505001D20FFF78B
:10E2000053FF0007000F2C0104432100C9B21D2059
:10E21000FFF75CFF31BD38B505001D20FFF744FF57
:10E22000FE2404402C432100C9B21D20FFF74EFFFD
:10E2300031BD10B504002100C9B22220FFF746FF0E
:10E2400010BD10B582B004001E20FFF72DFF6946F7
:10E2500008701F20FFF728FF69464870684600785D
:10E26000FC210140200A8007800F0843694608709E
:10E27000200069464870684601781E20FFF726FF97
:10E28000684641781F20FFF721FF13BD38B5050010
:10E290002620FFF709FFF7210140EC000C43210085
:10E2A000C9B22620FFF712FF31BDF8B504000E00F9
:10E2B00017000120FFF784FF00212420FFF706FF4D
:10E2C000F7211120FFF702FF3900C9B22220FFF722
:10E2D000FDFE00210E20FFF7F9FE00210D20FFF7C3
:10E2E000F5FE1C20FFF7FFFD8020FFF7AAFEF6B227
:10E2F000A419002528003900C0B2C9B2884205D24D
:10E300002078FFF79EFE641C6D1CF3E71C20FFF7CE
:10E31000DDFD40214020FFF7D9FE00214120FFF71D
:10E32000D5FE0320FFF74CFFF1BD80B50120FFF7BC
:10E3300047FF9F211120FFF7C9FEFF212420FFF78F
:10E34000C5FE00214020FFF7C1FE00214120FFF75C
:10E35000BDFE0520FFF734FF1920FFF7B7FD01BD13
:10E3600080B50120FFF72CFFFF211120FFF7AEFE43
:10E3700000214020FFF7AAFE00214120FFF7A6FE62
:10E380000020FFF71DFF01BDC018002080844E4013
:10E39000C418002010B51220FFF786FE70490870DF
:10E3A0006F48007840063BD51E20FFF77DFE6D4983
:10E3B00008706C48007840072FD500210D20FFF72A
:10E3C00085FE1320FFF770FE674908701C20FFF7D9
:10E3D0008AFD0020FFF735FE0024200062490978FD
:10E3E000C0B2884206D2FFF745FE6049E4B2085544
:10E3F000641CF2E75C4800785D49087000F04BF857
:10E400005C49087000F04DF85B49087000F04FF867
:10E410005A4908701C20FFF759FDFFF7A1FF27E0BC
:10E420004F480078000703D50020554908701FE0C9
:10E430004B480078400719D549480078C00702D5F5
:10E44000FFF78EFF14E00120FFF7BAFEFF21112035
:10E45000FFF73CFE00214020FFF738FE002141205D
:10E46000FFF734FE0020FFF7ABFE01E0FFF778FF77
:10E47000FF211220FFF72AFE10BD38B5050031201C
:10E48000FFF712FEF82404402C432100C9B23120CA
:10E49000FFF71CFE31BD80B51920FFF705FEC0B2A5
:10E4A00002BD80B51A20FFF7FFFDC0B202BD80B5E6
:10E4B0001B20FFF7F9FDC0B202BD10B50400FFF745
:10E4C0007FFDFFF795FDFFF7A1FDC820FFF7ACFD2D
:10E4D0000020FFF775FE8020FFF780FE0120FFF788
:10E4E0006FFE00214020FFF7F1FD00214120FFF7E2
:10E4F000EDFD2000FFF7FDFD14480078FFF71DFE3D
:10E5000013480078FFF72CFE12480078FFF73AFE18
:10E510000120FFF746FE10480078FFF76DFE00204F
:10E52000FFF779FEFF20FFF784FE0C48FFF789FE16
:10E530000120FFF7ABFEFFF7F8FEC820FFF774FDE0
:10E54000C820FFF771FD10BD00000000DD1800209D
:10E55000DA180020DB180020DC180020FF03000080
:10E56000D2270020D3270020D42700200823002012
:10E57000D6270020CF270020D0270020D127002039
:10E58000D527002000B5800701D1012000E0002040
:10E59000C0B200BDF1B584B00D000024002D01D142
:10E5A00007202EE02800FFF7EDFF002801D107200B
:10E5B00027E0174805606846007C14490870002071
:10E5C000114908700420029000200190114E019A18
:10E5D00002993000FDF7E8FA0C480078182148430A
:10E5E000009000260A480768320000993800FDF7BD
:10E5F000DBFA01F07DFB002802D101F04AFB0400A8
:10E60000200005B0F0BD0000B2270020B127002097
:10E610007C27002080270020F1B582B00024200054
:10E6200066490978C0B288423CD265480068E4B2C5
:10E630000821614346180127307887406148006807
:10E64000384000282CD05F480068B8435D49086016
:10E65000307801F0F5FB05005B4800680121327855
:10E6600091400140EDB2327828009040814217D1AC
:10E670007078012801D1012000E00020EDB2C0B285
:10E680006840002801D1012000E00020C0B20090C5
:10E690007068002804D00099C9B230787268904739
:10E6A000641CBCE7F7BDF8B506000F000124B440B8
:10E6B00046480068FFF7ADFA0500002D27D1414814
:10E6C0000068204000281DD1300001F0B9FB00286F
:10E6D00005D03D48006820433B49086004E03A48C3
:10E6E0000068A0433849086036480068204335492F
:10E6F000086000223648016834480068FFF762FA73
:10E70000050004E02F480068A0432E490860F1BDD1
:10E71000F0B583B006000C001700052F01D20720CA
:10E7200038E001F0E5FA002806D101F0B2FA050060
:10E73000002D01D028002DE0214806601F480470FC
:10E740002348076000202049086000201D49086018
:10E750002000441EC0B2002817D0E4B20820604355
:10E76000301800901B48006801900098807801A93B
:10E770004870194A01A90098007801F0C7FA05000D
:10E78000002D01D0280005E0E2E7144A00210F48DF
:10E79000FFF7F8F9FEBD10B5002408480078844260
:10E7A00009D201210648006808226243805C01F01A
:10E7B000EDFA641CF1E7002010BD0000B027002036
:10E7C0006C270020782700207427002028060200EC
:10E7D000702700202C060200A7E6010019E60100C0
:10E7E0000100A020C0057047F3B581B017001C00E0
:10E7F000089D099E01A8FFF7F3FF6946097AFFB259
:10E800007A000A43E4B2A1001143EDB22A020A439E
:10E81000F6B2330413430199042251434118E02214
:10E82000D2008B50F7BD1CB50400002001900020E1
:10E8300000900023012201212000FFF7D5FF13BD26
:10E8400011B581B001A8FFF7CBFF040001210198A9
:10E850008140200000F00EF813BD11B581B001A871
:10E86000FFF7BEFF0400012101988140200000F065
:10E8700005F813BDA122D200815070470B4A815088
:10E880007047000000B50A4900280ED0094A1268F6
:10E8900000BF00BF00BF00BF00BF00BF00BF00BF80
:10E8A0008A4200D000BF0138F2D100BD0C05000043
:10E8B0000024F400D418002010B50400FA208000D1
:10E8C0006043FFF7DFFF10BD80B51220FFF7ABFFFD
:10E8D0001220FFF7B5FFC820FFF7EEFF1220FFF769
:10E8E000BCFFC820FFF7E8FF1220FFF7A9FFC820F0
:10E8F000FFF7E2FF1220FFF7B0FFC820FFF7DCFFB1
:10E900001220FFF79DFFC820FFF7D6FF1220FFF768
:10E91000A4FF01BD80B51420FFF785FF1420FFF789
:10E920008FFF01BD80B51420FFF77DFF1420FFF796
:10E9300094FF01BD38B504001320FFF774FF2500D4
:10E94000EDB2002D0ED01320FFF77AFFC820400053
:10E95000FFF7B2FF1320FFF780FFC820FFF7ACFFDF
:10E960006D1EEDE731BDFEE700B5C9B2002902D149
:10E970000022304B1A7000BD10B501202D490870DF
:10E98000002301222C4801682B48FDF701FF0400F9
:10E9900028480078012802D1FCF7C8FDF8E710BD2F
:10E9A00038B5FDF73BFE0400E4B22500002D02D08F
:10E9B0002800FDF7E9F831BD70B582B005000C0004
:10E9C000FFF7DAFF01201B490870002000902300A8
:10E9D0009BB22A00184801681748FDF78BFE060015
:10E9E00014480078012802D1FCF7A0FDF8E773BDB8
:10E9F00010B5002289B28A4209DA0F4B1B68042441
:10EA000054431B59042454430351521CF2E710BDD4
:10EA100080B505210948FFF7EBFF08480078A328D7
:10EA200003D005210648FFF7C7FF05210348FFF77C
:10EA3000DFFF01BDC9270020E0180020DC260020F0
:10EA4000A418002010B5020050780223C9B28C1E11
:10EA5000A34204DA0400D05C60405B1CF6E7C0B25D
:10EA600010BDF8B506000C00170000203D490870E5
:10EA7000AF203D493B4A127888543A480078401C00
:10EA800038490870002008280BDA3849095C364AF2
:10EA90001218517033490978491C324A1170401CD0
:10EAA000F1E731482F49097847542E480078401C37
:10EAB0002C4908702C482B4909784454294800787F
:10EAC000401C284908700020E4B2A0420ADA315CF8
:10EAD000254A1218D17223490978491C214A11701C
:10EAE000401CF1E72248006800902148006800219E
:10EAF000C943884202D101201D4908600020C0B2EC
:10EB000004280FDA6946C0B242428918C978164A09
:10EB1000144B1B78D15413490978491C114A1170C0
:10EB2000401CECE70F4805782800401C0D49087090
:10EB300021001131C9B20C48FFF784FF0A49EDB238
:10EB400048553C200849074A1278885405480078FF
:10EB5000401C0449087006480068401C04490860CD
:10EB6000F1BD0000BC270020081F002084180020F1
:10EB700080180020F4B504000F002078AF2801D0E1
:10EB800000202FE000260121092909DA605C7A18AB
:10EB9000521E1278904201D0002023E0491CF3E776
:10EBA000092568460088854215DA605D3C2810D149
:10EBB0002900491CC9B22000FFF744FF0100621977
:10EBC000521E1278C9B2914203D12900491C0E008D
:10EBD00001E06D1CE5E7F6B2002E02D0607AC0B20B
:10EBE00000E00020F2BDFEE700B5BFF34F8F034801
:10EBF00003490860BFF34F8F00BFFDE70400FA052B
:10EC00000CED00E070B505000C001600064901206F
:10EC1000FEF7FFF9FEF7A6F9FEF77EFA0028FBD112
:10EC200000BEFFF7E1FF70BD6C0502002E490860D1
:10EC3000704700218022D20500B21150704700B504
:10EC40008021C90500B20858002801D0012000E049
:10EC50000020C0B200BDC0B28107890F234A1160F5
:10EC60007047234940B2420904235A438958C006D9
:10EC7000C00EC1400800C007C00F704780B500201B
:10EC8000FFF7EFFF002803D10321002000F04AF92D
:10EC900001BD10B5002421480078002802D085204D
:10ECA000040017E000201D49886000201B494860CF
:10ECB00000201A49086100201849C860FFF7DEFFEC
:10ECC000FDF7D7FE002802D10120FFF7C4FF012085
:10ECD00012490870200010BD00B501000868002826
:10ECE00001D002680A6000BD08030040180500401A
:10ECF00000E100E070B50400E4B2002C01D12E4D1B
:10ED000000E02C4D2800FFF7E7FF0600002E04D09E
:10ED10002000C0B271688847F4E770BD0827002062
:10ED200080B580204000FFF78AFF00280CD08020AB
:10ED30004000FFF77EFF0120FFF778FF01201F4909
:10ED400048700020FFF7D6FF82204000FFF777FFD2
:10ED500000280CD082204000FFF76BFF0220FFF755
:10ED600065FF0120154988700120FFF7C3FF01BD31
:10ED700010B50400002C02D10020FFF7BBFF10BD2E
:10ED800080B5002069460870684600F025F90B48F8
:10ED90000078002801D1FFF77CFF0848C068401CBC
:10EDA0000649C8600120054988706846007800F06F
:10EDB00019F901BD1827002010270020082700207E
:10EDC0000022030A8B420BD203098B4219D243085B
:10EDD0008B422ED2411A00D2014652411046704752
:10EDE000FF2209023FD012068B4205D312120902FC
:10EDF0008B4201D31212090203098B4219D300E09E
:10EE0000090AC3098B4201D3CB01C01A52418309BD
:10EE10008B4201D38B01C01A524143098B4201D36B
:10EE20004B01C01A524103098B4201D30B01C01A96
:10EE30005241C3088B4201D3CB00C01A5241830810
:10EE40008B4201D38B00C01A524143088B4201D33D
:10EE50004B00C01A5241884200D3401A5241CFD2CF
:10EE600001461046704708B5C046C04608BDFEE7DB
:10EE70000121C206D20E9140264A1160704701213D
:10EE8000C206D20E9140244A11607047F0B540B2DC
:10EE9000002821D5214C40B20207120F083A9508EC
:10EEA000042255431D4A40B203071B0F083B9B0831
:10EEB00004267343D258FF238607B60F08277E43E4
:10EEC000B3409A438B01DBB28607B60F08277E4317
:10EED000B340134363511AE0114A40B2830804243B
:10EEE0006343D258FF238407A40F08256C43A34033
:10EEF0009A438B01DBB28407A40F08256C43A3401F
:10EF00001343074A40B2840804256C431351F0BDF3
:10EF10000000000000E100E080E200E01CED00E005
:10EF200000E400E038B505000C00E4B22100280040
:10EF300040B2FFF7ABFF280040B2FFF7A0FF280068
:10EF400040B2FFF795FF31BDEFF3108072B6704706
:10EF500062B6704738B50400FFF7F6FF05001A489F
:10EF6000406800280ED10120174948601748006802
:10EF700017490140144801601548144908600020F1
:10EF8000207001E001202070002D01D1FFF7E0FF8B
:10EF9000002032BD38B504000B484068002810D06E
:10EFA000E4B2002C0DD1FFF7CFFF05000648006842
:10EFB00008490860002004494860002D01D1FFF78E
:10EFC000C7FF002032BD00005C27002080E100E088
:10EFD000FC06FFBC00E100E010B504002000FFF7D4
:10EFE000B9FF10BD10B504002000C0B2FFF7D2FF7A
:10EFF00010BD8168C068401A704710B40268C368C9
:10F0000084882340D154C268521CC26010BC70472F
:10F0100030B40368846889B2641885882C401B5D0D
:10F02000137030BC704738B504000D002A00002171
:10F030002000FFF7EDFFA068401CA06031BD00B5C7
:10F040000300002901D10E2012E092B2002A05D05F
:10F0500092B2501E92B21040002801D0092007E061
:10F060001960501E9880002098600020D860002011
:10F0700000BD38B505000C002800FFF7BAFFA988CD
:10F08000814206D32100C9B22800FFF7B6FF002055
:10F0900000E0042032BD38B505000C002800FFF761
:10F0A000A8FF002805D021002800FFF7BCFF0020A2
:10F0B00000E0052032BDFEE7002209B24250704751
:10F0C00000B509B24058002801D0012000E000201E
:10F0D000C0B200BDC12292008150704700B5C1226C
:10F0E000920080580140002901D0012000E000205A
:10F0F000C0B200BDC2229200815070470100902032
:10F10000C00008589022D200885070470421A022E5
:10F11000D20081507047844BC250844BC15070471D
:10F12000A123DB00C150A223DB00C2507047A32102
:10F13000C9004058C0B27047C9B27D4A815070477B
:10F140000122C9B24250704710B4C9B2D2B2130002
:10F150000B43784C035110BC7047774A815070477D
:10F160000100080B40B270470100A020C0057047A5
:10F17000F3B581B017001C00089D099E01A8FFF798
:10F18000F3FF6946097AFFB27A000A43E4B2A100AC
:10F190001143EDB22A020A43F6B233041343019934
:10F1A000042251434118E022D2008B50F7BD1CB518
:10F1B0000400002001900020009000230122012182
:10F1C0002000FFF7D5FF13BD30B583B005000C005C
:10F1D00000200190002000902300DBB200220021DB
:10F1E0002800FFF7C5FF37BD11B581B001A8FFF7B3
:10F1F000BBFF0400012101988140200000F001F8CC
:10F2000013BDA122D2008150704738B505000C0013
:10F2100020680021C943884205D02068FFF7E4FF39
:10F220002068FFF7C4FF60680021C943884203D00B
:10F2300000216068FFF7C8FFA1692868FFF78DFF0C
:10F24000227D617D2868FFF77FFF6268216828685A
:10F25000FFF761FF207D012818D1A0680021C94374
:10F26000884203D00021A068FFF7AEFFE0680021CC
:10F27000C943884205D0E068FFF7B6FFE068FFF7B2
:10F2800096FFA268E1682868FFF74AFF31BD38B5EC
:10F2900004000D008E2149002068FFF70DFFA22118
:10F2A00049002068FFF708FF66492068FFF712FF52
:10F2B0002068FFF755FF2900C9B240B2FFF732FEC0
:10F2C00031BD10B504002068FFF720FF10BDF4B574
:10F2D00004000E00A84821791C225143451800273C
:10F2E000E87E002801D008201CE031002000FFF754
:10F2F0008CFF00986860306928606868002803D037
:10F30000317F2000FFF7C3FF2000FFF7DAFF002066
:10F31000E875002028760020A8750120E8760020F6
:10F32000A8763800F2BD0000140500000C050000AE
:10F330001C0500006C0500002405000070B50400E9
:10F340000D008E2149002000FFF7B6FEA868A98AAB
:10F35000465CA88A401CA8823100C9B22000FFF791
:10F36000EBFE70BD70B50400834821791C22514327
:10F37000451800268E2149002068FFF79DFE0821D0
:10F380002068FFF7DDFE29002068FFF7D7FF6868D7
:10F3900000282FD1A88AA97D89B2884215D28E2152
:10F3A00049002068FFF78CFE002804D1A88A80213C
:10F3B00049008842F3D1A88A802149008842E9D0D7
:10F3C00029002068FFF7BAFFE4E7A88A80214900F6
:10F3D000884202D10F2006000AE08E2149002068F1
:10F3E000FFF76EFE0028F8D00C212068FFF7A8FE7A
:10F3F0000020A875300070BDF8B504000F0015009E
:10F400005D4821791C2251434618200000F00CF879
:10F41000002801D0112006E0B575B7600020B08249
:10F420002000FFF79FFFF2BD00B5534900791C2271
:10F4300050430818807D002801D0012000E0002002
:10F44000C0B200BD8000020010B504009221490046
:10F450002068FFF731FE842149002068FFF72CFE69
:10F4600000212068FFF76CFE10BD70B504000D0090
:10F47000E87D002808D1842149002000FFF71CFE08
:10F480002000FFF754FE0EE0842149002000FFF722
:10F4900013FE6E7E2000FFF74AFEE968F6B288553B
:10F4A000687E401C687670BDFEB582B004003248AC
:10F4B00021791C2251434518A87E002806D16846B0
:10F4C000007C002802D12000FFF7BEFF68680028FA
:10F4D00049D1A22149002068FFF7EEFD92214900A1
:10F4E0002068FFF7EDFD0600842149002068FFF742
:10F4F000E7FD69460870A22149002068FFF7E0FD9A
:10F50000070068460078002805D1FFB2002F02D11D
:10F51000F6B2002EE2D0F6B2002E02D1FFB2002FDA
:10F5200000D007E029002068FFF79FFF687EE97D93
:10F530008842D3D30020E875F6B2002E01D0032014
:10F5400017E0FFB2002F01D00F2012E0A87E0028A4
:10F5500004D000212068FFF7F3FD09E004212068B2
:10F56000FFF7EEFD04E0812189002068FFF7B2FD7E
:10F57000002005B0F0BD000090260020F2B5050087
:10F580001700924829791C225143441800266068CC
:10F59000002804D0812189002868FFF7ABFDE07DB9
:10F5A00000280ED0207E002809D06068002804D0F2
:10F5B000812189002868FFF78DFD112017E00120C7
:10F5C0000600F6B2002E07D1E7750098E060002033
:10F5D00060760020207602E00098206127763300D4
:10F5E000DBB23A00D2B200992800FFF75DFFF2BD0E
:10F5F00010B50400754821791C2251434018807EC3
:10F60000002809D12000FFF71FFF704821791C2234
:10F61000514340180121817610BD7FB504000D00D3
:10F620001600012069460870684605720196216837
:10F630006846626890477FBD30B585B004000D0014
:10F6400000206946087068460572A0680190002095
:10F65000A075216868466268904705B030BDF0B576
:10F6600085B005000C00802189002800FFF736FDD9
:10F6700000282CD0922149002800FFF721FD002806
:10F6800025D0922149002800FFF716FD812189002D
:10F690002800FFF72FFDA07E002803D104212800B9
:10F6A000FFF74EFD0220694608702800FFF726FD8F
:10F6B0000390E07D69460872E06801900020E075E3
:10F6C0000020207621686846626890473BE004216C
:10F6D0002800FFF703FD002835D0842149002800C9
:10F6E000FFF7EEFC00282ED021002800FFF7BDFE1A
:10F6F000E07D617E884226D1207E002810D0E76818
:10F70000667E207EE0752069E06000202076002083
:10F7100060763A003100C9B22000FFF77EFF12E0A8
:10F72000A07E002803D104212800FFF709FD8121D4
:10F7300089002800FFF7DEFC0020E075E268617EAA
:10F740002000FFF76AFF8E2149002800FFF7B8FC70
:10F75000002815D0A08AA17D89B2884204D2210058
:10F760002800FFF7EBFD0BE08E2149002800FFF792
:10F77000A3FCA07D002803D0A17D2000FFF75CFF43
:10F78000A22149002800FFF79BFC002815D0A221E8
:10F7900049002800FFF790FCA07E002803D000213C
:10F7A0002800FFF7CDFCE07D002806D00020E075A2
:10F7B000E268617E2000FFF730FF05B0F0BD80B544
:10F7C00002490348FFF74BFF01BD000090260020CF
:10F7D0000020004010B504000A480078002807D037
:10F7E000200009490978C0B2884201D1002007E011
:10F7F00000F09CFC012003490870034804700020BD
:10F8000010BD0000CB270020CC27002001004222A1
:10F810001201D21E004207D002D4521E0018FCD59D
:10F82000C10A40051205891870470000F0B40E00A7
:10F830005E400125ED072E40B446AE0ADF184C1895
:10F84000F4423BD2F74241D2640D43D07F0D38D011
:10F85000E41BC902DB0229432B43CF0ADB0A060063
:10F86000B61A9F4104D2641EB6197F41B6185F4193
:10F870006812800D24180018844222DAE80C002156
:10F88000B6197F41B61A9F4102D2B6185F413F1C9C
:10F8900040414941F4D3241C21DD2405B6197F41A0
:10F8A000B61A9F4105D33743C60737430026012FB9
:10F8B0007041614166463143F0BC7047FCD1F7426C
:10F8C00005D20020C14349054908F3E704D00020D0
:10F8D000C143F1E77F0DFAD000206146ECE72442F6
:10F8E000FAD1401C61410F03F6D30020E2E7FEE7A6
:10F8F0004A1812D2400DC90208430121C907084322
:10F90000520D40210901521A521C06D452421F3294
:10F9100001D4D0407047C017704700207047FEE701
:10F9200010B50400200000B200F011F800680128B2
:10F9300001D1012000E00020C0B210BD10B50400CC
:10F94000200000B200F003F80021016010BD00B2F9
:10F950005A494018704778490860704776490968E5
:10F9600008407047754904224243895801220A43DE
:10F97000724904234343CA50704770B46F4B042448
:10F9800044431B59784C1C406C4B042545435C5147
:10F990006A4B042444431C590B02F8256D011D4099
:10F9A000D2B21604C0239B0233402B432343634C43
:10F9B00004254543635170BC70476049042250439D
:10F9C0000858000AC006C00E70475C490422504324
:10F9D0000858000C8007800F70470100A020C00568
:10F9E0007047F3B581B017001C00089D099E01A85F
:10F9F000FFF7F3FF6946097AFFB27A000A43E4B2DF
:10FA0000A1001143EDB22A020A43F6B233041343B4
:10FA10000199042251434118E022D2008B50F7BDD6
:10FA200030B583B005000C0000200190002000904C
:10FA30002300DBB2002200212800FFF7D2FF37BDF0
:10FA400001B56846FFF7C9FF0099042251434118E8
:10FA5000E022D200895802229143009A04235A439B
:10FA60008218E023DB00D15001BD11B581B00C003C
:10FA700001A8FFF7B2FF0199042251434118E02287
:10FA8000D2008958994A0A400199042359434118E0
:10FA9000E023DB00CA500199042251434118E022BF
:10FAA000D2008958E4B222040A430199042359433D
:10FAB0004118E023DB00CA5013BD00000060004085
:10FAC00011B581B001A8FFF788FF0400200000F005
:10FAD00016F801000198C1400800C007C00F16BD0C
:10FAE00001B56846FFF779FF009904225143401899
:10FAF000E021C9004058000C8007800F02BDA22100
:10FB0000C90040587047F8B504000F00150068465A
:10FB10007C490A6802602600E019864209D26846DC
:10FB2000042171434058FFF7EAFF28602D1D761C21
:10FB3000F2E7F1BD000000000463004010650040E2
:10FB4000C2084007400F01238340885C184070477B
:10FB500010B4C2084007400F8B5C012484401C4352
:10FB60008C5410BC70470000FFE0FCFF00B56649F4
:10FB7000091820228956002907D463490818202132
:10FB80004056042801DA012000E00020002801D0BE
:10FB9000012000E00020C0B200BD00B55A4908189D
:10FBA00020214056042801DB012000E00020C0B2E3
:10FBB00000BD00B55449081820214056002801D442
:10FBC000012000E00020C0B200BD000070B50C00B4
:10FBD0004D4D2D182026AC554B4C04254D436251FC
:10FBE000DBB2002B04D10400474D6D183C26AC5508
:10FBF00070BD0021C943444A12182023D1547047D4
:10FC0000414908182021405670473F49042250437B
:10FC1000085870470000F7B50027FF436846007A90
:10FC2000002801D0002600E004266846007A00285B
:10FC300001D0042500E008253400AC4213D232483C
:10FC40000421614340580021C943884209D16846D4
:10FC5000037A019A21000098FFF7B8FF20000700FF
:10FC600001E0641CE9E7380040B2FEBD00B50021A8
:10FC7000C943254AC0B204234343D150C0B204282B
:10FC800006DB0021C943204AC0B212183C23D154DC
:10FC900000BD38B53C480078002801D0082023E09A
:10FCA0000025EDB2202D05DAEDB22800FFF7A1FF07
:10FCB0006D1CF6E70024E4B2082C05DA2000C0B27F
:10FCC000FFF7D4FF641CF6E703210620FFF72AF9AB
:10FCD000BE204000FFF732FE80200006FFF73BFE0B
:10FCE000012029490870002032BD0000FFFFFCFF01
:10FCF00000B525480078002801D0012000E0002050
:10FD0000C0B200BD44060200A8250020F4B50600DC
:10FD10000C0000273000FFF74CFF002802D008201D
:10FD200007002FE0E27800993000FFF774FF05002C
:10FD30006DB20020C043854222D0A078002803D0B5
:10FD40003000FFF77DFE03E061783000FFF768FECA
:10FD5000E078002806D0227831006DB22800FFF745
:10FD60000CFE0FE035486DB240193C21415C207813
:10FD70008001084331496DB249193C22885401E0A1
:10FD8000042007003800F2BDEC250020F8B505007E
:10FD90000F002800FFF701FF002826D02800FFF7FA
:10FDA0002FFF6946254A40B210183C22805C08703B
:10FDB000684600780600F6B2B609F6B2032E08D1FE
:10FDC0002800FFF77DFE002801D0032407E002246D
:10FDD00005E0F6B2012E01D1022400E00324210047
:10FDE000C9B22800FFF741FE27E02800FFF7BEFE5A
:10FDF000002822D02800FFF703FF040068460421F2
:10FE0000614380225200891801802000FFF7AAFD7B
:10FE1000009800B2FFF792FDFFB2002F0DD028002E
:10FE2000FFF7EEFE40B2FFF7F0FE060030000028BC
:10FE300003D00120A040FFF78EFDF1BDA8250020D2
:10FE400010B504002000FFF73BFE002801D0012080
:10FE500000E00020C0B210BDF0B58BB000200490CF
:10FE600005A80021016080204000694688800120AB
:10FE700002900025042D1CD2019800B2FFF750FD1E
:10FE800000280CD00298FFF769FD002807D00198E0
:10FE900000B2FFF753FD04980299014304910298C0
:10FEA000400002906846019909B2091D81806D1CCD
:10FEB000E0E7BE204000FFF733FD00280DD0BE2054
:10FEC0004000FFF73BFD049880210906014304919F
:10FED00005AA01210020FFF716FE04980007000F75
:10FEE000002822D00120029000200500042D1CD201
:10FEF000029804990140002912D02800FFF75DFD07
:10FF000006002800FFF761FD07002800FFF77DFECF
:10FF100004002000002803D03900C9B23000A047F7
:10FF20000298400002906D1CE0E70498002800D47D
:10FF3000C1E000206946087007A800210160002484
:10FF4000002C07D10020C04306A904226243885038
:10FF5000641CF5E700206946087000200500042DA8
:10FF60006AD26846554949194022895CC170684681
:10FF7000C078C02188430390504840194021405622
:10FF80000021C943884255D006A90398FFF7D8FD40
:10FF900000284FD068466946C978C9B289094170BE
:10FFA0000398FFF72DFE40B2FFF72FFE0700380041
:10FFB000002803D16846407803283BD16846407842
:10FFC000032803D107A90398FFF7C2FD0398FFF7A1
:10FFD00087FD6946887005A90398FFF7B1FD089071
:10FFE0000898002803D068468078022806D0089830
:10FFF00000281FD16846807803281BD168464078C6
:020000040002F8
:10000000032810D168468078022801D1032600E039
:1000100002263100C9B20398FFF727FD68466946FA
:100020000978491C01703800002803D068464178DF
:100030000398B8476D1C92E768460078002835D0D1
:10004000012609AA01210020FFF75DFD0020040020
:10005000002C0ED109A804216143405805A90422AF
:1000600062438958884202D00020060001E0641CE7
:10007000EEE7F6B2002E03D000206946087015E0C6
:1000800000200400002C11D109A80421614340582C
:1000900005A904226243885007A8042161434058FF
:1000A00006A9042262438850641CEBE76846007886
:1000B000002800D04EE70BB0F0BD0000A8250020BE
:1000C00010B5144C02202061022060611248A0612A
:1000D0001248E0618020800020620020A0620020A1
:1000E00060620020E0620C48A0640D48E0641020CB
:1000F00020650020A065002060650020E06509A162
:10010000E01D00F01DF80849200000F019F820203B
:10011000A07110BD8024002008060200081D0020E8
:100120003C270020525454002006020080B50348AA
:100130000078002801D1FFF7C3FF01BD8024002013
:10014000002300E05B1CCA5C002AC254FAD170474D
:1001500080B500F023F8002806D04F484F490860CA
:10016000802000024E49086000F050F8002802D0BC
:1001700001204C49086000F065F800280DD04A487D
:100180000068012806D04948474908604648006889
:100190000128FBD1C0204649086001BD00B5454893
:1001A0000078C0B201282FD1434800780007000F23
:1001B000002829D141480078F0210140002907D1C9
:1001C0003F480078F0210140002901D101201CE0C6
:1001D0003A480078F0210140102907D138480078CA
:1001E000F0210140002901D101200EE033480078C0
:1001F000F0210140302907D131480078F021014039
:10020000002901D1012000E0002000BD00B52948EF
:100210000078C0B2012813D1274800780007000FEA
:1002200000280DD125480078F0210140402907D150
:1002300023480078F0210140002901D1012000E08D
:10024000002000BD00B51B480078C0B2012821D1B4
:10025000194800780007000F00281BD117480078C4
:10026000F0210140A02907D115480078F021014074
:10027000002901D101200EE010480078F021014052
:10028000D02907D10E480078F0210140002901D182
:10029000012000E0002000BDDFFF07C00405004092
:1002A000186C00400806004000EC06407593000002
:1002B00014EC0640E00F00F0E40F00F0E80F00F04F
:1002C000EC0F00F00020004000000000E0180020CB
:1002D000F0180020010000008360181003120004D1
:1002E00014000000010101011600030069B70100BC
:1002F0000601030069B70100A30000003C000000F4
:100300008877000018F6000075E0000C0202070074
:10031000FC0502006C8000008081818384858687D3
:1003200088898A8B8C8D8E8F0024F4003B080C0208
:10033000070F0000FEE700005344483A5741524E71
:10034000494E473A73645F626C655F656E61626CCB
:10035000653A2052414D2073746172742073686F46
:10036000756C642062652061646A757374656420CD
:10037000746F20307825780D0A00000070B40100F9
:100380000123002413E00A68091D1A4202D04D46D9
:100390006D1E52191460121D001F0428FAD2150098
:1003A000860701D51480AD1C184000D02C70086859
:1003B000091D0028E7D1080070BC70475344483A33
:1003C0005741524E494E473A52414D2073697A6522
:1003D0002073686F756C642062652061646A757350
:1003E00074656420746F2030782578200D0A000031
:1003F00030B401220168001D00290FD00368C31822
:1004000044680830144202D04D466D1E64191D68C0
:1004100025601B1D241D091FECD0F8E730BC704778
:100420000321064802680A430260054802680A433D
:10043000026004488047044800470000240500404B
:100440005405004051010200150602005344483A89
:100450004552524F523A73645F626C655F656E61DC
:10046000626C653A206572726F7220307825780D63
:100470000A00000010B5074979441831064C7C4445
:10048000163404E0081D0A68891888470100A14253
:10049000F8D110BD080000003C000000E1FEFFFFA5
:1004A000E80E0000F01800200000000045FFFFFFEC
:1004B0007000000010FEFFFF701800200000000018
:1004C00031FFFFFF1000000000010000E0180020D5
:1004D00000000000FFFFFFFFFFFFFFFFFFFFFFFF28
:1004E000FFFFFFFF000000000000000000E0D70158
:1004F000030000003A494E464F3A6C6F63617469DD
:100500006F6E5F74696D6572735F73746F700D0ADF
:10051000000000003A494E464F3A6C6F63617469BF
:100520006F6E207375636365737366756C0D0A0077
:100530000120C046002801D0FFF79CFF002000BF2B
:1005400000BFFBF7B7F900F000F880B500F002F843
:1005500001BDFEE70746384600F002F8FBE7FEE77C
:100560002021090326311820ABBEF9E74150505F26
:100570004552524F523A4552524F523A4661746177
:100580006C0D0A003A494E464F3A636D645F6E75D2
:100590006D6265723D3D330D0A0000000A000000E7
:1005A000000000000000000000000000000000004B
:1005B000005027003A494E464F3A6770735F6F709C
:1005C000656E0D0A00000000000000000000000041
:1005D00069E9010001FE000055424950502D3130BB
:1005E000303034000000000060EA0000030000002A
:1005F0000000000060EA0000030000004F76657212
:10060000666C6F770D0A00005465726D696E616CDF
:100610000000000000BF00BF00BF00BFFFF788FF61
:100620005345474745520000F025002003000000D5
:1006300010260020302600205026002070260020A2
:100640000100000700000050010000000100000050
:1006500001000000FEE7FEE7FEE7FEE7FEE7FEE73B
:0A066000FEE7FEE7FEE7FEE7FEE717
:0400000500020615DA
:00000001FF
