:020000040001F9
:10B00000682C0020B5200200D7C00100B7C10100A4
:10B010000000000000000000000000000000000030
:10B0200000000000000000000000000033C201002A
:10B030000000000000000000E3C4010037C501006B
:10B0400061040200F7DD01004F0E0200F7E7010086
:10B0500033030200000000009D130200C1F4010050
:10B0600047070200EF220200FB2202007F230200BA
:10B07000A1230200A3230200A5230200A7230200AC
:10B08000FDE6010023F10100A9230200AB23020029
:10B0900059F10100AD2302008DE50100AF2302004C
:10B0A000B1230200B32302000000000000000000F2
:10B0B0000000000000000000000000000000000090
:10B0C000F0B5A3B006000C00289D00BF75A003C812
:10B0D0006F4603C7069404A83B21455400200F90F7
:10B0E0001700029312E03D000396060029780698A7
:10B0F000039A90470690002800D1B7E00F98401CB3
:10B100000F906D1C761EF1D1039E3F1938782528CB
:10B1100008D1002009900A900B900C900D900E9091
:10B120003C000FE06A460021C943380001F027F8CF
:10B13000040001D10F989BE0D5D50124E5E701007B
:10B1400001200843641C21782029F8D023290FD03E
:10B150002B2904D02D2907D030290CD08AE00100FA
:10B160000220084380B2EDE7020004201043F9E713
:10B1700001000820F5E701001020F2E700211191FD
:10B180000AE0119A464B9A4205DA93009A18520047
:10B19000511830391191641C21780A00303A0A2A7A
:10B1A000EFD321782E2903D00021C943109128E044
:10B1B000641C22782A2A0AD102990968029A11602D
:10B1C0000A68091D029B19601092641C19E02D2A5F
:10B1D00001D1641C00E00022002110910CE0002A43
:10B1E00009D1109B2E4DAB4205DA9D00EB185B0098
:10B1F000591830391091641C21780B00303B0A2B10
:10B20000EDD304A908872578290000BF27A000F006
:10B21000C7FF002801D0641C00E0002504A83A21E3
:10B220004554405C682804D12178682901D1622006
:10B2300005E06C2807D120786C2804D1712004A97E
:10B240003A228854641C14A808902378029A04A90E
:10B25000300000F069F8671C002807D114AA04A97F
:10B26000300000F001FA002800D44FE70020C0436E
:10B2700023B0F0BD2A2900D080E702990968029A1C
:10B2800011600A68091D029B19601192002A05D5F8
:10B290005142119102000420104380B2641C80E7E7
:10B2A000CBCCCC0C0000000000000000686A6C747D
:10B2B0007A4C00000B0062281CD068280DD06A2848
:10B2C00003D06C2823D0712821D11A68D21D072001
:10B2D00082431A6003CA1A607047002A196819600D
:10B2E000086803D0091D196000B217E0091D196034
:10B2F00080B217E0002A19681960086803D0091D98
:10B30000196040B20AE0091D1960C0B20AE0002AC3
:10B3100019681960086803D0091D1960C1177047C2
:10B32000091D196000217047F0B583B00C001600AC
:10B330001F0025693900253900D14DE11C3900D1A4
:10B3400084E0091F022900D880E00E3900D106E10F
:10B35000491F59D0093979D0891E16D0491E34D0D9
:10B36000491E022972D9091F2FD0491F00D196E02A
:10B37000491E49D0491E00D1E1E0C91E00D1FDE0BF
:10B38000891E41D0C91E3FD02CE13A21615C6C2955
:10B3900009D06069411C6161316831600A68091D2A
:10B3A00031602A5428E1316831600A68091D316032
:10B3B000009200210191C94321636A46210000F0F7
:10B3C000D5F9002800D417E103E1012231003A2029
:10B3D000205CFFF76FFF03C4083C002904DA6069B2
:10B3E000411C61612D210DE0208F810704D560692A
:10B3F000411C61612B2105E0C00722D56069411C19
:10B400006161202129541CE0002231003A20205C97
:10B41000FFF750FF03C4083C3820205C000710D51C
:10B4200003CC083C002901D100280AD02020384351
:10B43000782806D1606930212954401C411C616183
:10B440002F5460692818E060390084E03268D21D0A
:10B4500007208243326003CA326003C4083C03CC35
:10B46000083CC80F04D06069411C61612D210DE0CA
:10B47000208F810704D56069411C61612B2105E0A3
:10B48000C00704D56069411C6161202129546069AD
:10B490002818E0603900200000F08CFAACE03B2076
:10B4A000205C002804D00024E44300BF54A074E0D2
:10B4B0003A20205C622808D0682823D06A2812D05D
:10B4C0006C282ED071280ED02BE0306830600168D7
:10B4D000001D3060002903D10024E4434EA05CE04D
:10B4E000E06A087088E0306830600268001D3060F3
:10B4F000002A03D10024E44347A04EE0E06AC117CC
:10B5000003C279E0306830600168001D30600029B6
:10B5100004D10024E44300BF3FA03EE0E06A08807D
:10B520006AE0306830600168001D3060002903D196
:10B530000024E44338A030E0E06A08605CE0306852
:10B5400030600268001D30600020C043104003C41A
:10B55000083CE5607821200000F06CF94CE06C219B
:10B560003A22A154316831600A68091D3160002A0D
:10B570002AD10024E44300BF2DA00EE03A21615CF3
:10B580006C29EFD0306830600568001D3060E560E0
:10B59000002D06D10024E4432CA000F00DFE201A5B
:10B5A0002BE0266B002E03D5280000F029FE09E0D1
:10B5B00032000021280000F02BFE002801D0401BA3
:10B5C00000E03000A06117E0210000F0CFF8002873
:10B5D00012D50020C04310E06069411C6161252143
:10B5E000295409E06069411C616125222A54380010
:10B5F00002D0481C60616F54002003B0F0BD000011
:10B600007072696E74665F733A20256E2064697388
:10B61000616C6C6F776564007072696E74663A2055
:10B6200062616420256E20617267756D656E7400BD
:10B630007072696E74665F733A2062616420256C73
:10B640007320617267756D656E7400007072696E4B
:10B6500074665F733A2062616420257320617267AB
:10B66000756D656E74000000F8B506000C001700DB
:10B67000606B6169401A216A401AA169401A616AC7
:10B68000401AE169401AA16A401A00903820205CF3
:10B6900040070ED4009800280BDD05462021A06845
:10B6A000B047A06000285DD0E06A401CE0626D1EDB
:10B6B000F4D13A0063692100300000F0F2FC002868
:10B6C00050D1256A002D0ADD3021A068B047A06066
:10B6D000002847D0E06A401CE0626D1EF4D1A369E7
:10B6E000E2682100300000F0DCFC00283AD1656AF5
:10B6F000002D0ADD3021A068B047A060002831D0BD
:10B70000E06A401CE0626D1EF4D1E369E068A16963
:10B7100042182100300000F0C4FC002822D1A56AA4
:10B72000002D0ADD3021A068B047A060002819D0A4
:10B73000E06A401CE0626D1EF4D13820205C4007B6
:10B740000ED5009800280BDD05462021A068B047E3
:10B75000A060002806D0E06A401CE0626D1EF4D1B3
:10B760000020F2BD0020C043F2BD0000F0B5A7B03C
:10B7700007000C001500266B002E00D58A4E00F045
:10B7800053FD616B0A1800BF28A003C803AB03C3B5
:10B79000812A48D20020059700940290002E31DDC6
:10B7A00003AA296801A800F0EFFC04003BD4286834
:10B7B000002801D1641E36D4A64223DB00984069DC
:10B7C000001981280DD300200099486306AA00992A
:10B7D0000598FFF749FF0290002813D40020009934
:10B7E000486100984769220001A906A8C01900F025
:10B7F00021FD3819009948612868002802D02D1DC4
:10B80000361BCBE7059B009C0298002804D106AAB2
:10B8100021001800FFF728FF002802D100216161F4
:10B82000616327B0F0BD0020C043FAE700000000CC
:10B8300000000000F2B588B0040027690A466F2AAC
:10B8400001D1082507E0084620210143782901D0CD
:10B850000A2500E010253C2603CC083C06AB03C3B8
:10B86000642A01D0692A09D1002907DA06A803C889
:10B8700000220023121A8B4106A80CC006A803C898
:10B88000002920D100281ED1206B00281BD1082DB3
:10B8900058D13820205C000754D53B26302050E09A
:10B8A00000290ED53821615C14220A40102A08D1E3
:10B8B000616B6269891A226A891A081A002800DDF8
:10B8C000206209B0F0BD049401970395009606A884
:10B8D00030C80098401E02900090039EF717200089
:10B8E000290032003B0000F0D3FC3032D2B23A2AB9
:10B8F00003DB08A8007851381218019802994254C5
:10B900002000290032003B0000F0C2FC04000D00C2
:10B9100001D1002C06D00498C0680199009A8918BA
:10B920008842D6D3049C019F0398009E082809D121
:10B930003820205C000705D5B85D302802D0761E7F
:10B940003020B8553C20801BA061B919E160216B03
:10B950008842A5DA081A2062208F14490140218705
:10B96000AFE7F8B50024124D06000F00009214E076
:10B97000C00707D522002B003000390000F0BDFCC5
:10B9800006000F00009840100090200029002200BF
:10B990002B0000F0B2FC04000D0000980028E7D155
:10B9A00030003900F4BD0000FFFFFF7FEFFF000013
:10B9B00000002440F3B591B006AA03C802AB03C34C
:10B9C000202012A909780843019061280CD0119811
:10B9D000006B002801D5062004E005D101986728F6
:10B9E00002D1012011990863119803C84C00641515
:10B9F000641C13D10B0311D003201199886112A884
:10BA0000007861381A2804D252497944FF3147310D
:10BA100016E051497944FF31413111E04C00641581
:10BA2000641C13D10B0311D103201199886112A852
:10BA3000007861381A2816D348497944FF311F31FC
:10BA400003221198C06800F0F5FBCBE104000D0063
:10BA500092A003C82940002680277F03B94207D25D
:10BA6000002069400DE03E497944FF310B39E7E79A
:10BA7000080D884E3618200029008A4D0D40864951
:10BA80002943119B03C30198612813D11198C06801
:10BA900030210170811C119BD96012A9097861299C
:10BAA00001D1782100E05821417011984069801C33
:10BAB00011994861119830C878A003C820402940E6
:10BAC00004D1002802D16B46988082E10198612858
:10BAD00000D0ADE01198006B002801D5212000E0D6
:10BAE000401C04900498401C019002A803C8002246
:10BAF000002300F0C4FC02D2802000064540361F1F
:10BB0000009669460A7606A8461C0198002800DCC3
:10BB10006FE120002900002280235B0300F0C8FCB5
:10BB200000D966E16900490D0A001C32002919D0CC
:10BB3000002A17DDBA498A4206DB0805290080225F
:10BB400012061140014311E05649294010050843EF
:10BB500005000DE0C0670000C0670000C46700007A
:10BB6000BC670000290080221206114000240D004D
:10BB70002000290000F0B6FC07000198C01F0190CA
:10BB800000280ADD380000F0E7FC02000B0020006E
:10BB9000290000F048FD04000D00F01D072104E01D
:10BBA000401E0F223A4002703F11002F01DD491E56
:10BBB000F6D5491E00D517E1401E00220270F8E7B5
:10BBC0000021030006ACE41801E0401E641E5B1E69
:10BBD00025788D42F9D00F2906D106A9491CC95CE8
:10BBE000491C06AC641CE154002B04D506AA401C79
:10BBF0000099091D0091431E11D4D41812A9097887
:10BC000025783035EDB2392D02DD0E003A3EAD1902
:10BC100025705B1E641E002BF2D512AB19701199B2
:10BC2000096B002900D4D1E0411E119B1963CDE0BE
:10BC300002A803C80022002300F021FC06D202A8BB
:10BC400003C880221206514002AA03C2754930007F
:10BC50004843754900F074FD009007200099401A90
:10BC6000049005DD024602A803C8FFF77AFE0AE049
:10BC7000424200206D49FFF774FE02000B0002A84B
:10BC800003C800F0B7FD019A662A0DD1009A0A3266
:10BC90000BE000BF02FCFFFF0000E03FFFFFFFFFE3
:10BCA000FFFFFF7FFFFF0F800622119B1B6B9A187F
:10BCB000142A00DD142230236C46237606AB5C1C6C
:10BCC00002E002A803C8049A002A3FDD02AB03C3C6
:10BCD000049202A803C800F017FC1090064608342E
:10BCE0000420059030000A2100F02DFD0F003000E7
:10BCF0000A2100F028FD06003037601E0770300072
:10BD00000A2100F020FD0F0030000A2100F01BFD89
:10BD10000600A41E303727700598401E0590E1D11B
:10BD200008340498083804900028CADD109800F000
:10BD300003FC02000B0002A803C800F074FC002200
:10BD40003B4B00F0DAFA02AA03C2C2E706A8401C85
:10BD5000211A06A8421C009802E0491E401E521CEF
:10BD60001378302BF9D000900198662802D1009802
:10BD7000401C05E00198652801D1012000E0002069
:10BD8000119B1B6B1818814200DA481E00281DD435
:10BD9000884204DA115C352901DB392300E03023C5
:10BDA0000400511E0D1901E0401E6D1E641E2E7808
:10BDB0009E42F9D0392B02D1135D5B1C1355002C28
:10BDC00004D50A00401C0099491C009169468880EE
:10BDD000009800B20090019B1BB212A80178119844
:10BDE00000F028F813B0F0BDC61D0198002800DD52
:10BDF0008FE606A8401C311A06A8421C049881420E
:10BE000000DC0800002800D509E7884200DBD7E6FF
:10BE100006A9491C095C072900DCD1E60F21D0E600
:10BE2000FF07000097750000A08601000000F03FAA
:10BE300084D79741F4B584B004000E001D0000F0D3
:10BE4000A9F96946406A00780870276B002D03DC69
:10BE5000012500BF9FA0049020203043662803D115
:10BE60000A9E36B2761C19E0672800D082E00A9854
:10BE700000B20321C943884200DA7FE0B8427DDA8C
:10BE80000A9E36B2761C3820205C000702D4BD42E0
:10BE900000DA2F0036B2BF1B00D50027A169E06889
:10BEA000401836B2002E25DC491C30220270002FCB
:10BEB00003DC3820205C000704D568460078E2687F
:10BEC0005054491CA1617042874200DA7E4236B26A
:10BED00070426062BE19AE4200DA35002DB2E561F3
:10BEE0002A000499E068A369C01800F0A3F9701B48
:10BEF000A062C0E03200954217DA2A00049900F0EF
:10BF000099F9A0694019A061711B6162002F03DCDF
:10BF10003821615C090706D569460978E268115441
:10BF2000E069401CE061A762A5E0049900F082F995
:10BF3000A0698019AD1B002F03DC3821615C090763
:10BF400004D569460978E2681154401CA0612DB2FD
:10BF5000AF4200DA3D002DB22A0004988119E06852
:10BF6000A369C01800F066F9A0694019A061781BA8
:10BF7000606280E0612E11D1702612E0BD4204DAC9
:10BF80003821615C090700D42F007F1E00D50027EF
:10BF9000672E01D1652604E0452602E0412E00D13E
:10BFA0005026A069411CA161049A1278E3681A54D2
:10BFB0000498401C0490002F03DC3820205C00070C
:10BFC00018D5481CA0616A461278E3685A54002FBD
:10BFD00010DD6D1E2DB2AF4200DA3D002DB22A00F9
:10BFE0000499E368181800F025F9A0694019A061C8
:10BFF000781B6062E068A169401806700A9909B26E
:10C00000002903D42B214170851C07E02D214170AC
:10C01000851C68460A9909B24A420285002701A98F
:10C020000A9800B207E00A2100F08AFB009B197011
:10C030007F1C0099491C009100B20028F3DC012FFD
:10C0400006DC20203043652802D1302028706D1C8A
:10C05000002F09D1302028706D1C07E07F1E01A839
:10C06000C05D303028706D1C002FF7DCE068A169DE
:10C070004018281AE0613820205C14210140102962
:10C080000DD16069A1694018616A4018E1694018E2
:10C09000A16A4018616B884201DA081A206205B073
:10C0A000F0BDF8B50026002B12D000900F00140050
:10C0B0001D002178B868009A9047B860002806D023
:10C0C000F86A401CF862641C6D1E01D0F1E7F6436B
:10C0D0003000F2BD3000FEE7613807E005E0010006
:10C0E00061391A2901D20120704741381A2880414C
:10C0F000C00F7047010021390F290AD301003A39D6
:10C10000062906D901005B39062902D37B380428A9
:10C11000EDE7012070472048704730B45368D418C9
:10C12000042B0BDA002909D0057825700578002D3D
:10C1300004D05B1C491E641C401CF1E7536030BCFA
:10C14000704738B500290ED01D001400FFF7E5FF39
:10C15000616820006A6B90470122D243811A02D0A5
:10C16000491E02D004E0012000E00020C04332BD9F
:10C170000021616032BD80B5DA6B904702BD80B5A9
:10C18000054BFFF7DEFF02BD80B5034BFFF7F3FF62
:10C1900002BD00000148704714190020DC1800207F
:10C1A00000BFC9B200E0401C02788A4202D0002AD7
:10C1B000F9D100207047FEE780B5002801D100BF0B
:10C1C00007A006490B68002B03D0222200219847C4
:10C1D00001E000F070FB222002BD000034240020AA
:10C1E000636F6E73747261696E742068616E646CE3
:10C1F00065723A20626164206D65737361676500E2
:10C20000010000E0491C0A78002AFBD1081A704797
:10C21000C9B201E0401C521E002A03D003788B42B1
:10C22000F8D170470020704780B5FFF774FF006CAD
:10C2300002BDFEE7124207D08B0706D00B78491CDF
:10C240000370401C521EF7D87047830706D00B7846
:10C25000491C0370401C521EF9D1704770B4103A4B
:10C2600003D378C9103A78C0FBD2530701D318C959
:10C2700018C001D508C908C0D20704D30B880380B1
:10C28000891C801C002A01D50B78037070BC704794
:10C29000124224D0994228D970B500251B4202D001
:10C2A0000C00002109E00024012649186441944251
:10C2B00000D3A41A7641F8D33100012601E076417B
:10C2C00009D2001864416D41A41A9D41F7D2A41807
:10C2D0005D41B619F5D3300022002B0070BD1B4222
:10C2E000D8D108B5C046C04608BD01D19042D3D2CE
:10C2F00002000B00002100207047F0B50E005E40E8
:10C300000125ED072E40B446AE0ADF184C18F44262
:10C3100008D2F7420ED2640D01D07F0D12D1002059
:10C320006146F0BD05D1F74201D87F0D05D100204F
:10C33000C143F0BDFBD1640DF9D00020C1434905D4
:10C3400049088FE0E419C902DB0229432B43DB0AC9
:10C35000460DC00231438E4630B487B295B27D435C
:10C360002E0CADB2140C7C43A419260C24042543D6
:10C370009CB27C43A419190C7943270CC919A4B2A7
:10C380000F043C43090C000C97B247432E0CBE1916
:10C390003543ADB2170C4743360CBF19A6B2BF19CF
:10C3A0003E043543240C3E0C36199FB24743BF1957
:10C3B000BCB23E0C89191F0C47437F183E0434431E
:10C3C000390C704680B297B247432E0CBE193543E4
:10C3D000ADB2170C4743360CBF19A6B2BF193E04C5
:10C3E0003543240C3E0C36199FB24743BF19BCB2EB
:10C3F0003E0C89191F0C47437F183E043443390C07
:10C4000077463F0C90B278432E0C80190604ADB2EB
:10C410002E43050CA0B22D18120C7A435019020CB1
:10C4200080B2240CA4189AB27A431219140420433F
:10C43000120C89181B0C7B43C91830BCEF0A394217
:10C4400003D1B61940414941641E6F12BF0DE41B70
:10C450000BDBFF19BC4211DA240500274208AE416C
:10C460007841614166463143F0BD641C05D1401CF2
:10C470006141CF0201D34908F4E750E75DE730B4EA
:10C48000012464054D00EC420BD85D00EC4208D855
:10C490000C001C4364000443144304D2994200D1AD
:10C4A000904230BC7047FCD08B42FAD18242F8E710
:10C4B00030B4012464054D00EC420BD85D00EC4221
:10C4C00008D80C001C4364000443144304D28B427C
:10C4D00000D1824230BC7047FCD09942FAD19042E0
:10C4E000F8E7FEE7F4464A1805D200F00FF801D548
:10C4F00080174008604700F009F80121C907884209
:10C5000000D90800404260474A1812D2400DC902C3
:10C5100008430121C9070843520D40210901521A5D
:10C52000521C06D452421F3201D4D0407047C0176B
:10C53000704700207047FEE7010042221201D21E20
:10C54000004207D002D4521E0018FCD5C10A400593
:10C5500012058918704700000100EED54042F446EC
:10C56000FFF7EBFF0122D207114360478B4200D156
:10C57000824205D98446100062468C461900634603
:10C58000DF184C18640D7F0D3AD0661C760537D045
:10C59000E61B352E34DCDB022B43DB0A0C0DC90213
:10C5A0002943C912202E0DDB1700203E06D01F00A4
:10C5B000F741F3405F400026012A7741C0187141DE
:10C5C0000DD217E01700F741F2405740F3415A40AF
:10C5D000B340F3405A400026801859410AD3A21CA8
:10C5E00052050FD0C207012F724117004008CB0738
:10C5F00018434908641C24054208AF417041614159
:10C60000F0BC7047641C21050020F9E76B4010E086
:10C610006B40ABE7F742F3D1E943F1E72442EFD1B6
:10C6200000200021ECE7F0B40125ED070F005F408A
:10C63000EED40C00871A9C4105D2C01BA141D2192F
:10C64000634169406B40AE0ADF184C18F442E1D2F6
:10C65000640D7F0DE2D0E61B362ED1DCDB022B43CE
:10C66000DB0AA4460C0DC9022943C90A012E28DCA5
:10C6700004D1D6075208DF073A435B08EF0A764237
:10C680009041994114D039423BD1B61940414941BA
:10C69000761C394204D1761C001849413942FAD03F
:10C6A000B9436746B74208D9A41B24052143A7E72D
:10C6B0000042EAD13642E8D1A2E7E40AE1070020CD
:10C6C0009EE7202E0BDD203E1F00F340F7415F4028
:10C6D000012A002257417E42984191410BE0170008
:10C6E000F741F2405740F3415A40B340F3405A40BB
:10C6F0007E42904199410A0303D2641EB61940411B
:10C7000049410027641E24054208AE417841614139
:10C71000F0BC7047F446002804D4494200F013F8F6
:10C72000404260474042002905D45FD000F00BF83A
:10C73000404249426047494200F005F8494260479B
:10C7400003460B43E6D40022030A8B420BD20309B3
:10C750008B4219D243088B422ED2411A00D2014695
:10C76000524110467047FF2209023FD012068B4209
:10C7700005D3121209028B4201D3121209020309D6
:10C780008B4219D300E0090AC3098B4201D3CB01C4
:10C79000C01A524183098B4201D38B01C01A524106
:10C7A00043098B4201D34B01C01A524103098B420A
:10C7B00001D30B01C01A5241C3088B4201D3CB00F5
:10C7C000C01A524183088B4201D38B00C01A5241D8
:10C7D00043088B4201D34B00C01A5241884200D318
:10C7E000401A5241CFD201461046704708B5C046A4
:10C7F000C04608BDF0B40E005E400125ED072E4096
:10C80000B446AE0ADF184C18F4423BD2F74241D28C
:10C81000640D43D07F0D38D0E41BC902DB022943ED
:10C820002B43CF0ADB0A0600B61A9F4104D2641ECE
:10C83000B6197F41B6185F416812800D24180018A0
:10C84000844222DAE80C0021B6197F41B61A9F41D2
:10C8500002D2B6185F413F1C40414941F4D3241C29
:10C8600021DD2405B6197F41B61A9F4105D3374310
:10C87000C60737430026012F7041614166463143A8
:10C88000F0BC7047FCD1F74205D20020C1434905F6
:10C890004908F3E704D00020C143F1E77F0DFAD047
:10C8A00000206146ECE72442FAD1401C61410F03AD
:10C8B000F6D30020E2E780B5012000F001F801BDC9
:10C8C0002021090326311820ABBEF9E700B5BFF3DC
:10C8D0004F8FAA48AA490860BFF34F8F00BFFDE7FA
:10C8E0000100A020C0057047F3B581B017001C00FF
:10C8F000089D099E01A8FFF7F3FF6946097AFFB278
:10C900007A000A43E4B2A1001143EDB22A020A43BD
:10C91000F6B2330413430199042251434118E02233
:10C92000D2008B50F7BD1CB5040000200190002000
:10C9300000900023012201212000FFF7D5FF13BD45
:10C9400030B583B005000C0000200190002000905D
:10C950002300DBB2002200212800FFF7C5FF37BD0E
:10C9600011B581B001A8FFF7BBFF040001210198B8
:10C970008140200000F022F813BD11B581B001A85C
:10C98000FFF7AEFF0400012101988140200000F074
:10C9900019F813BD11B581B001A8FFF7A1FF04007C
:10C9A000200000F007F801000198C1400800C0070E
:10C9B000C00F16BDA221C90040587047A122D20065
:10C9C00081507047B84A81507047000000B56D49EA
:10C9D00000280ED0C54A126800BF00BF00BF00BFCC
:10C9E00000BF00BF00BF00BF8A4200D000BF0138B7
:10C9F000F2D100BD10B50400FA2080006043FFF7BB
:10CA0000E5FF10BD80B51520FFF78DFF1520FFF75E
:10CA1000A7FF0020BD49087001BD80B51520FFF7B4
:10CA200082FF1520FFF7A9FF0120B849087001BD5A
:10CA300038B5012069460870684600780007000F85
:10CA400010210143684601700B22BD4968467CDF16
:10CA500004002500002D02D0280000F0D1FD31BDDA
:10CA6000F0B591B004270020694608703C250024E9
:10CA700002AE22002900300000F0D2FD684603908B
:10CA800002206946087202A8C7706946002008564D
:10CA900077DF002102A801F065F90190019E002EC8
:10CAA00002D0300000F0ACFD18240025BB4E2A0057
:10CAB0002100300000F0B4FD0320B84908700020C8
:10CAC000B64948600020B5490872C8208000B349C3
:10CAD00008820020B149488211B0F0BD70B5AF485E
:10CAE00073DF04002500002D02D0280000F088FD2F
:10CAF00002200100002005002E00002E02D0300090
:10CB000000F07EFD70BD10B50400200001F0BFFBF9
:10CB100010BD70B586B0A24800680090002348227E
:10CB2000A049684601F0E8FC04002500002D02D071
:10CB3000280000F065FD01AA0021002001F042FD5F
:10CB400005002E00002E02D0300000F059FD01A893
:10CB500001F06CFD04002600002E02D0300000F031
:10CB60004FFDA84801F004FD05002E00002E02D064
:10CB7000300000F045FD06B070BD00000400FA056D
:10CB80000CED00E00024F40010B50400207800282B
:10CB900000D088E09A48007801F026FE9A48B24911
:10CBA0000978401801F0E9FE9748AF490978405CE0
:10CBB000242802D02A280DD051E000209349087083
:10CBC00001209349087024208F4908700120A6494C
:10CBD000087068E08D48007803283CD18A48A24953
:10CBE00009784018401E0078412807D086489E49A1
:10CBF00009784018401E0078442814D19B480078DA
:10CC0000401C9A490870994800781E2823D10020BA
:10CC10009649087000F06CF80020954908700220D1
:10CC20009449087017E09248007878280BD100F0FA
:10CC30005FF800208E49087000208C49087002209F
:10CC40008C49087007E08A480078401C88490870C1
:10CC500000208649087000206D49087023E06C4868
:10CC6000007801281AD180480078052816DB66482C
:10CC70004078472812D1644880784E280ED1624807
:10CC8000C07852280AD1604800794D2806D15E4804
:10CC90004079432802D103205C490870724800782B
:10CCA000401C7149087010BD0C05000030B58BB0F8
:10CCB00004A887491822FFF7D1FA864800908020FF
:10CCC000400001908448029080204000039003239C
:10CCD000A24A694604A801F0EEFD04002500002DDB
:10CCE00002D0280000F08CFC0BB030BDD81800201A
:10CCF00080B500208B4908600B20FFF714FE0B2045
:10CD0000FFF72EFE00209649087001BD4B2400203D
:10CD100070B50420834908600B20FFF704FE0B2048
:10CD2000FFF72BFE01208E49087080246400002547
:10CD3000354E2A002100300000F072FC70BD00006A
:10CD40002423020038B548DF04002500002D02D05E
:10CD5000280000F055FC31BD38B5A548006802F048
:10CD600082FA04002500002D02D0280000F048FCC3
:10CD700031BD10B5040085480068401E8349086035
:10CD80001F48007801F030FD80480068002803D17A
:10CD9000FFF7E2FFFFF7BCFF10BD000034230020C7
:10CDA00098230200CC21002038B579488079E12110
:10CDB00009014843764949793C2251434018744956
:10CDC0000979401871490860704800682E2803D21C
:10CDD00001206E49086004E06C4800682D386B49FA
:10CDE00008600022802109028148006802F014FADC
:10CDF00004002500002D02D0280000F001FC31BD08
:10CE00004C24002007CB0100741C00204D2400207E
:10CE10004E24002080B586480078401C8449087064
:10CE20008448007801F0E0FC814800783C281AD161
:10CE300000207F49087092480078401C9049087093
:10CE40008F4800783C280ED100208D490870A048FA
:10CE50000078401C9E4908709D480078182802D12F
:10CE600000209B49087001BD492400205724002060
:10CE70004F2400205424002010B50400FFF7CAFFFF
:10CE800010BD80B502F078FA01BD10B5040020781D
:10CE900000281AD132480078002814D18E48007832
:10CEA000002810D160680021405EAA2189008842D4
:10CEB00003DA1B208949087002E0202087490870A6
:10CEC0000A2087490870FFF7DCFF10BD0000000052
:10CED000FC220200741D0020741E002038B5814819
:10CEE0000078694608708049684602F026FA040016
:10CEF0002500002D02D0280000F082FB7B4802F0C4
:10CF00004CFA31BD10B5FFF7E9FF0121784802F076
:10CF100099FA0400002C02D0200000F071FB02F00E
:10CF20004FFA10BD0025004010B50400FFF7EAFFDE
:10CF300010BD01216F4A1170704738B56E48006806
:10CF400002F091F9040000206A4908702500002DC4
:10CF500002D0280000F054FB31BD000089CB010055
:10CF60004A24002038B50020624908700022902130
:10CF7000C9026148006802F04FF904002500002D45
:10CF800002D0280000F03CFB31BD00008C180020CE
:10CF900064230020F8B50023584A0521002002F040
:10CFA000DFF804002500002D02D0280000F028FB47
:10CFB000534A01210E4802F00FF90090514A012115
:10CFC0002E4802F009F907004F4A0121414802F0BA
:10CFD00003F905004D4A0021474802F0FDF806001C
:10CFE00000960098002802D0009800F009FBF1BDDF
:10CFF0008823020038B505000C00E4B2012C15D1DD
:10D00000EDB22800062802D0162803D00EE002F068
:10D010003FFD0BE001203E490870032030490870B5
:10D020003C480078401C3B490870FFE731BD0000D8
:10D03000522400204C24002070B53749012002F012
:10D0400027FE04002500002D02D0280000F0D8FAA9
:10D0500032220221314802F0D9FE05002E00002EB6
:10D0600002D0300000F0CCFA02F013FF04002600DA
:10D07000002E02D0300000F0C3FA70BD8C230200F5
:10D080005D19002080B5022002F09CFF01BD70B543
:10D0900084B0684622491CC91CC00C390C3821498F
:10D0A000684601F039FB04002500002D02D028005D
:10D0B00000F0A6FA1C4801F060FB05002E00002ECF
:10D0C00002D0300000F09CFA01F04CFB7FBD000064
:10D0D0005E190020902302004B2400205C190020E0
:10D0E00054240020B42302008BCE010094180020A9
:10D0F00038240020532400209423020074200020B0
:10D1000073CD010079CE010029CF010033CF01009A
:10D1100050240020512400204C2300209C18002083
:10D120003023020085D001004C24002010B50124DA
:10D1300003211720FFF704FC1720FFF72BFC002822
:10D1400001D1002004002000C0B210BD38B500207D
:10D1500002F062FF04002500002D02D0280000F03C
:10D160004FFAFFF717FFFFF7D4FCFFF761FCFFF75B
:10D1700077FC02F0BBFF02F0F1FFFFF7AFFCFFF717
:10D1800086FFFFF793FDFFF757FF0420C84908709B
:10D19000C849032002F073FFC5480078022800D177
:10D1A00007E1032800D155E1042800D136E1062823
:10D1B0003AD0072800D1D9E1082800D1D8E00928C1
:10D1C00000D191E10A2800D0D7E1BB49032002F049
:10D1D00056FFFFF717FCFFF78BFDFFF793FEFA20D2
:10D1E000C000FFF707FCB5480078B54909788842C8
:10D1F00016D0B34800781B2804D1A0200001B14903
:10D20000486005E0AE480078202801D102F0A6FF72
:10D21000AB480078A94908700920A549087002E0C8
:10D220000420A3490870A8E1CE49032002F027FF9B
:10D23000FFF75EFDFFF796FECB48007801F0D4FAC9
:10D24000D3480078002803D1D24800780028F7D0CE
:10D25000D149032002F013FF0020CE490870FFF7E8
:10D260006CFECB480078002867D0C948027892B29B
:10D27000CA49CB4803F024F80500EDB29E2D07D132
:10D28000C849032002F0FBFE0A20894908704DE0DE
:10D29000EDB2902D4AD1C449032002F0F0FE0020E7
:10D2A000C0B204280ADABE49C0B20918C97A854A50
:10D2B000C0B24342D218D171401CF1E70521814828
:10D2C00002F020FF7F488079E121090148437D4930
:10D2D00049793C22514340187A4909794018B349A9
:10D2E0000860B24800682E2803D20120AF490860C8
:10D2F00004E0AE4800682D38AC4908600120AC4914
:10D3000008700020C0B204280DDAA549A04A12789E
:10D31000D21EC0B2121A895CA54AC0B24342D218CA
:10D320001171401CEEE708206149087000209849FF
:10D33000087000209749087016E09E480078002881
:10D3400007D09D49032002F09AFE02205849087038
:10D350000AE09A480078002806D09949032002F094
:10D360008EFE09205249087000208A49087004E1A5
:10D370009449032002F083FEFFF7BAFCFFF742FB5B
:10D380007948007801F030FAFFF747FB8E4802F049
:10D3900012FC9F220521864802F009FF8B48027883
:10D3A00092B200218A4802F044F9042040490870F2
:10D3B000E3E08849032002F062FE7E4800780228FC
:10D3C00025DAFFF795FCFFF71DFB6748007801F0B1
:10D3D0000BFAFFF722FB7C4802F0EDFB19227E4896
:10D3E00001787E4802F0E3FE7848027892B200218C
:10D3F000774802F01EF96F480078401C6D490870AC
:10D40000774802F0D8FB06202949087005E0002083
:10D41000684908700A2026490870AEE07149032067
:10D4200002F02DFEFFF7EEFA00206249087000209E
:10D43000624908700020684908700020634908703C
:10D44000FFF7B2FC4848007801F0CEF907201849F0
:10D45000087092E06449032002F011FEFA200001F6
:10D46000FFF7C8FA4048007801F0BEF95F4800783D
:10D47000032829D1FFF770FCFFF73AFCFFF7C2FA47
:10D480000020524908700F220421594802F08FFEF3
:10D49000FFF7C3FA4C4802F08EFB4C48027892B278
:10D4A00000214B4802F0C5F800204849087014E0FC
:10D4B0005424002080210200E02002005824002093
:10D4C0005C1900206423002048480078052804D116
:10D4D000032002F077FDFFF7F9F9042045490870B1
:10D4E00000204249087048E04349032002F0C7FD8C
:10D4F0003248007802282DDAFFF7FAFBFFF782FAAC
:10D500000020324908701848007801F06DF90A22AD
:10D5100001213A4802F04BFEFFF77FFA2A4802F059
:10D520004AFB26480078401C244908700020214905
:10D5300008702648027892B20021254802F079F856
:10D54000274802F038FB00202049087006202949AE
:10D55000087005E00020194908700420254908706A
:10D560000BE000BF082102004C2400202348007873
:10D570001B2802D1012002F025FDFFF7D7FD00286E
:10D5800002D102F039FD07E602F03EFD04E600BFDD
:10D5900066240020532400207822020084180020F2
:10D5A000741F00205C2002003C2202008C18002026
:10D5B000EC23002055240020941F02005624002054
:10D5C000C81F0200FC1F0200E0841A1C482400202F
:10D5D000741B00203021020049240020741C00200C
:10D5E000A077171C2C200200A42102005124002047
:10D5F0009018002054240020C82102005C1900204B
:10D6000010B584B0040068460C2100F031F8029493
:10D610006A460021014802F09BFE1FBD0140000048
:10D620001206130A1A43130C1A4300BF094205D00D
:10D63000830705D00270401C491EF9D170470000D5
:10D64000130030B414001500103902D310393CC057
:10D65000FCD2490700D30CC000D504C0890002D316
:10D660000280801C002900D5027030BC7047000089
:10D670000022E5E7020010000870100080B2000AE6
:10D68000487002207047F4B584B004000D0068466D
:10D69000008A29880931884201D20C2030E002A892
:10D6A00071DF0600002E01D0300029E00820298813
:10D6B00060542888401C28801B20298860542888B2
:10D6C000401C28800620019002A8401C0090288859
:10D6D0002718019A00993800FEF7ACFD2888801DB4
:10D6E00028806846007A002803D1002029886054E9
:10D6F00002E00120298860542888401C28800020EE
:10D7000005B0F0BDF8B582B003000C001878012810
:10D7100004D15878002801D1072057E068460089D5
:10D720001188891C88420AD31878012809D16846D3
:10D73000008911885D784919891C884201D20C2022
:10D7400044E0684600891188401A851E68460580B5
:10D75000694610882018801C7DDF0100002901D057
:10D76000080033E01878022807D128006E46368872
:10D7700080B2B04201D309260FE0082618780128AC
:10D7800009D128005F7880B2BFB2B84203D358787D
:10D790006F46388001E06846058068460088FF28AB
:10D7A00001D30C2012E068460088401C1788E05521
:10D7B0001088401C1080108826541088401C10804F
:10D7C00010886F463F88C01910800020FEBDF8B554
:10D7D00006000C001700BFB22088001D874201D24E
:10D7E0000C201DE0684679DF0500002D01D02800DF
:10D7F00016E00320218870542088401C20801920C6
:10D80000218870542088401C208020883118684668
:10D810000088FFF72FFF2188C0B208182080002061
:10D82000F2BD30B504009BB21088C01C834201D207
:10D830000C2011E00220158848551088401C1080EB
:10D840000120158848551088401C108010880C5401
:10D850001088401C1080002030BD30B504009BB201
:10D860001088C01C834201D20C2011E002201588D0
:10D8700048551088401C10800A201588485510888B
:10D88000401C108010880C541088401C1080002010
:10D8900030BDFFB583B00C9B0024188869464880D2
:10D8A000002503980088854249DA02A8039949684F
:10D8B00004226A4389180A8802804A88428000222A
:10D8C000694602A865DF0600002E01D030004DE059
:10D8D000684600786946097D88422ED1E4B2002C62
:10D8E00001D0002700E002276846818E18886A462A
:10D8F00012788018FFB2C019814201DA0C2035E09D
:10D90000E4B2002C0CD11888401C18806846007CBA
:10D9100006991A8888541888401C18800120040031
:10D92000069819884218694602A865DF00281DD1AB
:10D9300019886A461278891819806D1CB1E7E4B21B
:10D94000002C12D0684619886A465288891A491EE6
:10D95000818068468088FF2801DD0C2006E068464B
:10D96000808806996A4652888854002007B0F0BD26
:10D97000F7B582B01F000A9E0B9D280080B201906F
:10D9800000963B0002226846017B0298FFF781FF68
:10D990000400002C01D0200010E0280080B201908B
:10D9A00000963B0010226846017C0298FFF771FF49
:10D9B0000100002901D0080000E0002005B0F0BD02
:10D9C00000B501000888062807DB0888124A904243
:10D9D00005DB0888114A904201D007201BE04888E7
:10D9E000062807DB48880C4A904205DB48880B4A2A
:10D9F000904201D007200EE00888084A904209D0E2
:10DA00004888064A904205D048880A88904201D248
:10DA1000072000E0002000BD810C0000FFFF000097
:10DA2000F8B507000E001400684600882188891D9B
:10DA3000884201D20C2026E03800FFF7C1FF050024
:10DA4000002D01D028001EE0052021887054208878
:10DA5000401C20801220218870542088401C208087
:10DA6000208831183888FFF705FE2188C0B20818D1
:10DA70002080208831187888FFF7FCFD2188C0B20B
:10DA8000081820800020F2BDFAB583B0050014000C
:10DA9000AE88B61C6846008A21888919891C88428C
:10DAA00001D20C2035E0FF2E01D30C2031E03000F4
:10DAB000401C0399228888542088401C2080FF2025
:10DAC0000399228888542088401C2080039821884C
:10DAD00041182888FFF7CEFD2188C0B208182080A1
:10DAE000A888002814D0A868002801D1072010E0D9
:10DAF000A8880190A8680090039821884718019A87
:10DB000000993800FEF796FB2088A98840182080ED
:10DB1000002005B0F0BDFBB584B014000498806A05
:10DB2000002801D1072049E00026300004992C226A
:10DB3000895CC0B2884240D20498806AF6B20C2157
:10DB400071434518A888801C00900098FF2801D3D5
:10DB50000C2033E00098401C0599228888542088C6
:10DB6000401C208016200599228888542088401C5B
:10DB700020800598218841182888FFF77BFD21889F
:10DB8000C0B208182080A888002814D0A8680028EF
:10DB900001D1072012E0A8880290A868019005989A
:10DBA00021884718029A01993800FEF743FB208824
:10DBB000A98840182080761CB7E7002007B0F0BD88
:10DBC000F2B582B0050016000024378800203080AE
:10DBD0002D20285C00280AD03A0092B23100029829
:10DBE000FFF751FD0400002C01D02000A7E0A87829
:10DBF00000280AD03A0092B231000298FFF7E7FD00
:10DC00000400002C01D0200099E0E87800280CD016
:10DC10003B009BB232000299E87840B2FFF701FE68
:10DC20000400002C01D0200089E0686800280FD093
:10DC30003B009BB2320002998C4668680021405636
:10DC40006146FFF70AFE0400002C01D0200076E0B8
:10DC5000288900280FD0380080B201900096029BDE
:10DC60000622022128000830FFF782FE0400002C63
:10DC700001D0200063E0288A00280FD0380080B24D
:10DC800001900096029B0722032128001030FFF725
:10DC90006FFE0400002C01D0200050E0288B0028EB
:10DCA0000FD0380080B201900096029B15221421FB
:10DCB00028001830FFF75CFE0400002C01D0200083
:10DCC0003DE0286A00280BD03B009BB2320002994D
:10DCD000286AFFF7A5FE0400002C01D020002EE0EA
:10DCE000686A00280BD03B009BB232000299686A38
:10DCF000FFF7CAFE0400002C01D020001FE02C20FA
:10DD0000285C00280BD03B009BB23200029928000F
:10DD1000FFF701FF0400002C01D020000FE028785D
:10DD200000280BD03B009BB2320002992800FFF77D
:10DD3000E9FC0400002C01D0200000E02000FEBD22
:10DD400000B50100C878400701D4072000E000209A
:10DD500000BD00B50100C878002801D0072000E010
:10DD6000002000BDF1B592B00F001F206946488029
:10DD70001F20694608801298002814D01298FFF7D7
:10DD8000DFFF0500002D01D0280032E000AA921C20
:10DD900009A91298FFF714FF0400002C01D02000FD
:10DDA00027E009AD03E00025002069464880002FE8
:10DDB00013D03800FFF7CDFF0600002E01D0300051
:10DDC00017E06A4601A93800FFF7FAFE0400002CAC
:10DDD00001D020000DE001AA03E0002200206946E6
:10DDE000088068460388DBB268464188C9B22800CB
:10DDF00072DF13B0F0BDFEE700B5A3480068002154
:10DE0000C943884204D1A14800688021C900484321
:10DE100000BDF2B584B00400102500266F46320024
:10DE200029003800FFF7FCFB207A012802D00228E5
:10DE300009D014E000206946087020690290A08A89
:10DE4000694688810BE0012069460870A089E18954
:10DE5000401A69460881A08969464881FFE76068E1
:10DE600001906846017C684622689268904705B038
:10DE7000F0BD00B50100002909D085480068814245
:10DE800005D3B7480068814201D2012000E000209C
:10DE900000BD38B50300988AD98A401AFF2803DCF0
:10DEA000988AD98A421A01E08022520092B2D86838
:10DEB000D98A04244C4301191869DC8A0425654376
:10DEC000401929DF32BD0100888928DF704700B57D
:10DED000A448406E401EA3494866A248406E0028F0
:10DEE00005D1A1480078FD2101409F4801709D485F
:10DEF000006E401C9B4908669A48006E042802D1B7
:10DF000000209849086600BD38B596489549096EC5
:10DF10001822514345189348406E002826D0287A8D
:10DF2000012802D0022805D009E02800FFF7B1FF40
:10DF3000040006E02800FFF7C6FF040001E0092006
:10DF40000400112C0CD188480078FD21014086483E
:10DF5000017085480078042101438348017005E081
:10DF6000002C03D009212800FFF753FF31BD80B5F5
:10DF70007D48007806210140002907D17A480078C1
:10DF80000221014378480170FFF7BEFF01BD38B59B
:10DF9000040000209B490870207A012802D0022842
:10DFA00019D029E0A08AE18A401AFF2803DCA08A60
:10DFB000E18A451A01E080256D00E08A4019E0827F
:10DFC000E08AA18A884205D100212000FFF721FFC5
:10DFD000FFF77DFF10E0A089401CA081E089401C74
:10DFE000E081E089218A884205D100212000FFF7E5
:10DFF00010FFFFF76CFFFFE731BD10B5040081484B
:10E000000078401C7F4908707E480078042808DBAF
:10E0100000207C49087008212000FFF7FAFEFFF776
:10E0200056FF10BDF1B54F48406E042801D10020C5
:10E0300029E04C48006E4B49496E4018042805D22F
:10E040004848006E4749496E441805E04548006E4F
:10E050004449496E4418241F4248406E401C4149BF
:10E060004866182500263F481821614347183200AA
:10E0700029003800FFF7D4FA3A48182161434018C4
:10E08000009908600120F2BD141000101400001067
:10E0900078180020FEB596489649401A000901906C
:10E0A00093489449401A0409FFF7A6FE01002E4840
:10E0B0000078C00701D5002050E00020019A90426E
:10E0C0000DD28D4A126810234343D2181368002BD7
:10E0D00003D05368002B00D0641E401CEEE70020E4
:10E0E000A04234D2844A126810234343D2180292C9
:10E0F00000226B461A7002000023019DAB4216D22B
:10E100007D4D2D6810265E43AD192E68002E02D07D
:10E110006E68002E09D16E4636786F7BBE4204D2FF
:10E120006E466F7B37701E0032005B1CE5E7724B5A
:10E130001B68D2B2102555435B1959601D7B6F4E89
:10E1400075434D191D601B681900401CC8E706483F
:10E15000007801220243044802700020FEBD000046
:10E160007C1800206421002046240020F4B582B0F1
:10E1700004000D001F00089E61480078C00701D40C
:10E1800001203EE02000FFF774FE002801D10220AC
:10E1900037E00298002801D0002D01D1032030E0A3
:10E1A0000298800702D12800800701D0062028E0CD
:10E1B0002068854206D36068BFB20421794369189C
:10E1C000884201D205201CE0BFB2002F01D10420FB
:10E1D00017E06846FFF726FF002801D1072010E06E
:10E1E0000098466000980460012000990872029827
:10E1F0000099C8600098056100988782FFF7B7FE14
:10E200000020FEBD47240020F8B504000D001600D4
:10E210001F003B480078C00701D4012036E02000F1
:10E22000FFF727FE002801D102202FE0002D01D1A9
:10E2300003202BE0A80501D0062027E020688542B6
:10E2400007D36068B6B28021C9007143691888425B
:10E2500001D205201AE0B6B2002E01D1042015E04B
:10E260006846FFF7DFFE002801D107200EE0009886
:10E27000476000980460022000990872A80A00997B
:10E28000888100980682FFF772FE0020F2BD38B543
:10E2900004001C481B49096E1822514345181848B0
:10E2A000007880070DD52000022802D0032804D072
:10E2B0001BE02800FFF76BFE17E02800FFF79DFE2C
:10E2C00013E00F48007840070FD50D480078FB2178
:10E2D00001400B4801700B48406E002805D00848EB
:10E2E00000780221014306480170FFF70DFE31BDA1
:10E2F00074190020641900207818002000FCFFFF2A
:10E3000046240020642100200121C206D20E914043
:10E31000954A116070470121C206D20E9140934A7E
:10E320001160704700B540B2002811D5714940B264
:10E330000207120F083A920804235A4389588007AB
:10E34000800F08225043C14088098007800F0DE0EC
:10E350008D4940B2820804235A4389588007800FB0
:10E3600008225043C14088098007800F00BD00B5D6
:10E37000800701D1012000E00020C0B200BD00B53F
:10E38000010049B2202905DA8A4ACA401000C007B4
:10E39000C00F00E0012000BD00B50100042901D339
:10E3A000002006E0002901D0022901D1002000E070
:10E3B000012000BD10B50400200040B2FFF7DFFFD0
:10E3C000002801D17C4824E0200040B2FFF7AAFFDA
:10E3D000FFF7E2FF002801D178481AE0784840684A
:10E3E000002811D0764864B2610904225143405894
:10E3F0000121E206D20E91400143714864B26209E4
:10E4000004235A43815003E0200040B2FFF77CFF11
:10E41000002010BD544940B2420904235A43895890
:10E42000C006C00EC1400800C007C00F704770B5DD
:10E4300006000D00140022002900300001F088FFC2
:10E4400070BD7CB57548007800284DD00026744812
:10E450000068002801D1012400E00024F6B2002E5B
:10E460001CD17048007800283ED101A852DF050079
:10E47000052D02D10120060010E0002D03D0280058
:10E48000FFF7BEF80AE0019802F012F8664800684B
:10E49000002803D00198644909688847E4B2002C39
:10E4A0001CD16048007800281ED173480088694656
:10E4B000088069467148006861DF0500052D02D1BA
:10E4C000012004000AE0002D03D02800FFF798F88F
:10E4D00004E06A480068524909688847F6B2002E8D
:10E4E000BCD0E4B2002CB9D073BD4C480078704762
:10E4F000000000001CED00E0FEB507000C00002C41
:10E5000001D107202FE02000FFF731FF002801D1C3
:10E51000072028E0594804606846808856490880EA
:10E520000298574908600020FFF774FF0500EDB21C
:10E53000002D02D00020FFF7EEFE5249380010DF18
:10E540000600002E07D0EDB2002D02D00020FFF70C
:10E55000DBFE300007E001203049087001F0B0FF19
:10E560001620FFF727FFFEBD00E100E080E100E09C
:10E5700000B501000800002801D10E2002E02A4861
:10E580000160002000BD000000E400E038B53C4818
:10E59000006800280AD03A48006880470400250037
:10E5A000002D02D02800FFF72BF801E0FFF749FF0C
:10E5B00031BD0000FC06FFBC01200000022000006D
:10E5C000E4230020F1B50C001500142600273A00C2
:10E5D00031002800FFF724F801202880002028615E
:10E5E000287BFE21014029732C72684600786872EE
:10E5F000687A002801D00120A8720020F2BD2248CC
:10E6000001682248026808005043704710B5802412
:10E61000A405FFF7F4FF201810BD00005D240020C2
:10E620002C2400205E2400203024002030B583B04C
:10E63000050017480190019800906946280060DFA6
:10E6400004000098019988420DD0009A11490220D7
:10E6500001F020FDFFF7DAFF0099421A0E4902206F
:10E6600001F018FD06E0002C04D022000B49012027
:10E6700001F010FD20003EBD3A2400202824002097
:10E68000242400202FE40100380000103400001082
:10E6900070180020981E02005C1F020088200200F3
:10E6A000C0B24649086070470121454AC0B21150C6
:10E6B00070470021424A00B211507047414908603A
:10E6C000704700B53F4909680840002801D0012083
:10E6D00000E00020C0B200BD3B49086070473B49E4
:10E6E0000968012282400A4338490A607047384964
:10E6F000384AC0B204234343D150704780B501204B
:10E70000FFF7DFFF012806D180204000FFF7D1FF8F
:10E7100031480068804701BD38B504000D002E481F
:10E7200005602E480078002805D101202B4908708B
:10E73000002C04D101E0082013E0294804002078CF
:10E74000FFF7AEFF6068802109024843FA21890083
:10E75000FDF7F9FFFFF7C0FF217A102001F02AFF33
:10E76000002032BD80B50120FFF7A8FF0020FFF791
:10E770009BFF02201949087001BD38B50400002034
:10E7800069460870684601F06FFF1648006808285F
:10E790000CD214480068207012480068401C1149CF
:10E7A00008602078FFF79BFF002500E004256846FD
:10E7B000007801F05FFF280032BD00000C05014029
:10E7C0000000014004030140040501400805014028
:10E7D0003546526E000601401C2400205A240020B9
:10E7E0003C2302002024002010B504002000C0B209
:10E7F000FFF77DFF10BDFEE78168C068401A7047D3
:10E800007CB504000D00207800283FD002282ED0CF
:10E8100050D260680178684801F073FF0600002E4E
:10E8200008D0012069460870019668466349096866
:10E8300088470BE06048FFF7DFFF002806D0002084
:10E840006946087068465D49096888475A48FFF775
:10E85000D3FF59498988814205D301225849594833
:10E8600002F0D4F902E001205749087022E00220AA
:10E8700069460870E068019001225149514802F050
:10E88000C5F968464D490968884713E04F49504823
:10E8900001F049FF002805D101224C49494802F006
:10E8A000F3F806E0032069460870684643490968A2
:10E8B0008847FFE773BDFCB589B004000E000998D6
:10E8C0003E490860002E01D1072054E0726892B2E0
:10E8D0003168394801F0FBFE0500002D01D0280009
:10E8E00049E0F26892B2B168394801F0F0FE0700E1
:10E8F000002F01D038003EE0684636492022FDF75F
:10E90000ADFC60690690207C002801D1002000E069
:10E910000120694608750AA8007869460877607C76
:10E92000002801D00E2000E0002069464875E0680C
:10E930000290A06803902068019060680090264AC9
:10E940006946204802F00BF80500002D01D0280090
:10E9500011E000201C49087020680021C94388424A
:10E9600008D0184802F08CF901221549154802F028
:10E970004DF900E000200BB0F0BDF8B507001248DB
:10E98000057839000C4801F0CEFE0400EDB2002DF0
:10E990000FD000200C49087001220949094802F0F3
:10E9A00035F9060000960098002802D00098FEF77E
:10E9B00027FE2000F2BD0000A42300201824002020
:10E9C0004424002070180020452400204324002007
:10E9D000B42300201C22020001E801000121C2062C
:10E9E000D20E9140C04A116070470121C206D20E7A
:10E9F0009140BE4A116070470121C206D20E91407B
:10EA0000BB4A116070470121C206D20E9140B94A3B
:10EA100011607047F0B540B2002821D5924C40B249
:10EA20000207120F083A9508042255438E4A40B255
:10EA300003071B0F083B9B0804267343D258FF2390
:10EA40008607B60F08277E43B3409A438B01DBB29B
:10EA50008607B60F08277E43B340134363511AE07D
:10EA6000BD4A40B2830804246343D258FF2384077D
:10EA7000A40F08256C43A3409A438B01DBB28407A3
:10EA8000A40F08256C43A3401343B34A40B2840843
:10EA900004256C431351F0BD00B5800701D101205E
:10EAA00000E00020C0B200BD00B5934900280ED0A0
:10EAB000AA4A126800BF00BF00BF00BF00BF00BF6E
:10EAC00000BF00BF8A4200D000BF0138F2D100BDB4
:10EAD00010B50400A248046003211120FFF79AFF3B
:10EAE00010BD80B5802040029E4908608020400211
:10EAF0009D4908601120FFF786FF1120FFF76EFF88
:10EB000001209A4908602F20FFF7CEFF0120B74966
:10EB1000087001BD80B51120FFF767FF802040021B
:10EB20009349086080204002B14908600120B14942
:10EB300008602F20FFF7B8FF0120AF4908600020D0
:10EB4000AE4908602F20FFF7AFFF0020A7490870EB
:10EB500001BDBF4800687047401A0002000A7047B4
:10EB6000BC490860704710B5BB490968002902D14B
:10EB7000B94908602AE0B849096809680268914201
:10EB80000DD3B549096809680268891AB24A126842
:10EB90001160B1490968C161AF49086016E00168B8
:10EBA000AD4A1268AC4B1B68002B07D01C688C4226
:10EBB00004D21C68091B1A00DB69F5E7002B02D0A0
:10EBC0001C68641A1C600160C361D06110BD10B57F
:10EBD000A14909680A00002A04D0824202D011002B
:10EBE000D269F8E7002A1CD0914211D19A4B1B68D8
:10EBF000DB69994C2360984B1B68002B08D10123DB
:10EC00007D4C236000237D4C23600123934C2370B3
:10EC10001468D369CB61CB69002B02D01A68121932
:10EC20001A6010BD80B51120FFF7E6FE01BD80B56A
:10EC30001420FFF7E1FE01BD70B50400C148006873
:10EC400000280CD0A1696069BE4A1268904705008F
:10EC50002E00002E02D03000FEF7D2FC02E0A069A8
:10EC60006169884770BD00001CED00E0F8B57A4886
:10EC70000068002837D00024FFF76BFF5F49096860
:10EC8000FFF76AFF050074480668002E11D030684F
:10EC900085420ED330682D1A306824183700F66983
:10ECA000387C0028F1D0002038743800FFF7C4FF0A
:10ECB000EBE7A5480078C949097888420BD1C748D5
:10ECC0000078401CC5490870C4480078022802D169
:10ECD0000020C2490870C248C04909780422514343
:10ECE0004450FFF7A4FFF1BD00E100E080E100E047
:10ECF00000E200E080E200E00024F40000B5010042
:10ED000091480078B54A1278904220D08E48007819
:10ED1000401C8D4A10708C480078022802D10020D7
:10ED2000894A1070AE48884A127804235A438058A2
:10ED30000860324800680A688018304A10602F481E
:10ED400000680002000A2D4A1060012002E0002045
:10ED50000860002000BD000000E400E0D81800209A
:10ED60000815014044130140041301400010014004
:10ED70004813014070B5C148067837480468300030
:10ED8000BE494978C0B2884226D0BC484068F6B235
:10ED9000182171434518761C3000B8498978C0B2F3
:10EDA000884201D1002006002878022802D00328DA
:10EDB00004D010E06868FFF70AFFE0E72648006823
:10EDC000002807D02448006800210174C069224946
:10EDD0000860F3E7D3E7D2E71F480068A04201D0FC
:10EDE000012000E00020C0B270BD000041240020DE
:10EDF00008130140041001400810014010240020B5
:10EE0000F0B50023144C2468002C20D0124C246848
:10EE10002568A84203D225682D1A256017E02568C9
:10EE2000401B25685B19002525600B4D2D68E669A0
:10EE3000094F3E60E668002EE4D0CE183602360A4E
:10EE40006660E668A6601668E6611560DAE7F0BD00
:10EE500004150140401501400C24002042240020EC
:10EE600070B5040039480668002C05D18348007845
:10EE70008249497888425CD0002C03D02500E8699B
:10EE800004002AE07D4840687C49097818225143F3
:10EE900040187A490978491C784A117077490978ED
:10EEA000764A9278914202D10021744A11704568E5
:10EEB0000178012902D1297C002900D0D4E781689A
:10EEC0006960C168A9600169E9604169A961C149D6
:10EED0000978002901D00021696068689C490968A7
:10EEE000401A0002000A9B49884208D298480168EB
:10EEF0006868FFF731FEA968401828600DE069686E
:10EF000093480068FFF728FEA968884203D2A968E1
:10EF1000081A286001E000212960002068600020B4
:10EF2000A860012028740020E8612800FFF71BFE7C
:10EF30009AE706480068B04201D0012000E00020B6
:10EF4000C0B270BD142400203F2400200C240020F7
:10EF5000F1B584B0AF48006800283AD0AD480068E9
:10EF600000680190FFF7F5FD06007948046821006C
:10EF70003000FFF7F1FD0500ED1CC64800780028C1
:10EF800001D1FFF7AEFD0198854201D2019800E062
:10EF9000280020180002000A00900098FFF7E0FD0A
:10EFA000FFF7D7FD070031000098FFF7D5FD0400FB
:10EFB00031003800FFF7D0FDC01C84420BD2FFF7B0
:10EFC000C8FDFFF7CDFD2F20FFF76EFDFFF72AFEEE
:10EFD00001E0FFF79FFD05B0F0BD000040240020D8
:10EFE000DC230020F0B583B000200090584807686B
:10EFF0008848056801A8FFF781FE0600FFF7BAFE02
:10F000000400F6B2002E06D06A4639000198FFF7D8
:10F01000F7FE012004000098FFF722FF002801D02E
:10F0200001200400E4B2002C02D02800FFF790FF7A
:10F03000002068490870F7BD97494870704710B5BF
:10F04000010095484278521C1000934B9B78C0B247
:10F05000984201D10020020010008F4B1B78C0B2F3
:10F06000984201D1002007E00A708B4840688A4B23
:10F070005B7818246343C01810BD0000D42300201F
:10F08000F7B504001F000025002069460870684697
:10F0900001F0EAFA00A8401CFFF7D1FF0600002E9D
:10F0A00002D1042005000EE0012030707460FFF7EB
:10F0B00050FDB0600198F060029830617761684659
:10F0C0004078FFF7B9FF6846007801F0D3FA002DC9
:10F0D00001D1FFF7ACFD2800FEBDF8B504000F001C
:10F0E0000025002069460870684601F0BDFA00A8B6
:10F0F000401CFFF7A4FF0600002E02D104200500EB
:10F1000005E03770746068464078FFF795FF684601
:10F11000007801F0AFFA002D01D1FFF788FD28003B
:10F12000F2BD80B500205D49086000205C490860A0
:10F1300000205C49086000205B49086000205B49B2
:10F14000086000205A490860FFF790FD01BD0000EB
:10F1500010240020FFFF7F0080B5FFF743FF01BDB3
:10F16000F8B505000C0016001F003000FFF794FCF6
:10F17000002801D107202CE0002E01D1072028E033
:10F18000FFF7C8FC4B480760002043490870002087
:10F1900041494870404884703F48466000201D49FE
:10F1A0000860002044490870002044490870142079
:10F1B000FFF729FC03211420FFF72CFC1420FFF794
:10F1C0000DFC2800FFF784FCFFF7C3FC3C490860F6
:10F1D0000020F2BD4224002010B503002E484068F4
:10F1E000002801D1082014E01000002801D10720D8
:10F1F0000FE0002B01D107200BE01868007C0028ED
:10F2000001D0082005E01C68002020746174626150
:10F21000002010BD0C240020F8B506000C001700DB
:10F2200000961D484068002801D108201AE0002EF1
:10F2300001D1082016E0052C01D2072012E0009829
:10F240004069002801D108200CE00098407C01288A
:10F2500001D1250000E000253B002A002100009894
:10F26000FFF70EFFF2BD38B5040025000A484068DC
:10F27000002801D108200CE0002C02D06869002889
:10F2800001D1082005E00020287402212800FFF7A2
:10F2900024FF32BD41240020D4230020401101402E
:10F2A00044110140481101404C110140001101403E
:10F2B00004110140142400203F2400204024002099
:10F2C000102400200121C206D20E91407A4A11601A
:10F2D00070477A4800687047012094490860704779
:10F2E0009349086070470021904A00B2115070475E
:10F2F00000B58E4900B20858002801D0012000E076
:10F300000020C0B200BD8B49086070478A49086080
:10F3100070470121854AC0B21150704701208749CA
:10F3200008607047002085490860704710B50400E8
:10F33000200040B2FFF7C6FF10BD38B504000D0035
:10F340007F48807C002801D0082014E08020400005
:10F35000FFF7C9FF2800002807D0002C01D1794809
:10F3600004002178072001F025F975480560012087
:10F3700073498874002032BD80B500207049486010
:10F380000720FFF7D3FF0120FFF7C0FF0420FFF79E
:10F39000C0FF00206A49887401BD00B500214160AA
:10F3A00067494968002902D16549486007E0644916
:10F3B00049684A68002A01D04968FAE7486000BDF8
:10F3C00080B5FFF789FF01BD10B580204000FFF731
:10F3D0008AFFFFF7A7FFFFF77CFF5949C968584A22
:10F3E000527C02235A4388525548407C401C544961
:10F3F00048745348407C5249097C884220D20024FA
:10F400004F4880684068002804D14D4840684C4906
:10F41000886006E04A488068406849498860012061
:10F420000400474880680068FFF75AFFFFF776FF3F
:10F43000E4B2002C02D00020FFF76BFF002000E0B8
:10F44000012010BD38B505000C003D48807C022825
:10F4500001D111202FE002203949887438484068D2
:10F4600037498860200036490874002034494874C0
:10F470003348C560324880680068FFF731FF80205C
:10F480004000FFF730FFFFF749FF2D4800680028D4
:10F4900003D00120FFF737FF0CE080204000FFF78A
:10F4A00027FF0028F9D0FFF78FFF0028F5D00120B3
:10F4B00023498874002032BD80E100E008750040D7
:10F4C000E0B51F48C068002817D180204000FFF732
:10F4D0000AFF0120FFF71AFFFFF724FF012069460A
:10F4E0000870FFF7F6FE6946888001201449887489
:10F4F000684613490968884717E0FFF765FF002849
:10F5000013D00120FFF702FF0020694608700C4865
:10F51000C06801900A48007C6946088101200849BA
:10F520008874684606490968884707BD007000402E
:10F5300004750040047300400873004000750040EB
:10F540007C230020B52302000100A020C0057047E5
:10F55000F3B581B017001C00089D099E01A8FFF7B4
:10F56000F3FF6946097AFFB27A000A43E4B2A100C8
:10F570001143EDB22A020A43F6B233041343019950
:10F58000042251434118E022D2008B50F7BD1CB534
:10F59000040000200190002000900023012201219E
:10F5A0002000FFF7D5FF13BD30B583B005000C0078
:10F5B00000200190002000902300DBB200220021F7
:10F5C0002800FFF7C5FF37BD11B581B001A8FFF7CF
:10F5D000BBFF0400012101988140200000F022F8C7
:10F5E00013BD11B581B001A8FFF7AEFF04000121E2
:10F5F00001988140200000F019F813BD11B581B0C9
:10F6000001A8FFF7A1FF0400200000F007F80100A7
:10F610000198C1400800C007C00F16BDA221C90053
:10F6200040587047A122D20081507047894A8150CA
:10F630007047F2B582B007001600012086490870B5
:10F640001920FFF7CEFFB6B2FF2E0ADC3200D2B28D
:10F650000021380000F0A7F97F4800780028FBD18E
:10F660002BE068460489FF2568466946098932000F
:10F6700089180170200069460978C0B288421CD2FE
:10F6800068460078E4B2001BFF2803DC6846007877
:10F69000001B05002A00D2B22100C9B2380000F0D8
:10F6A00082F96D4800780028FBD16419C82000F069
:10F6B00039F8C82000F036F8DCE7F7BD80B51C202B
:10F6C000FFF765FF0020FFF762FF1D20FFF75FFFD8
:10F6D00003211E20FFF768FF1C20FFF775FF0020A5
:10F6E000FFF77FFF1D20FFF76FFF01BD80B50720EB
:10F6F000FFF74DFF0720FFF767FF1920FFF747FFD0
:10F700001920FFF76EFF01BD80B50720FFF769FFE5
:10F71000C82000F007F80720FFF756FFC82000F0C8
:10F7200001F801BD00B50200501E002A06D00022DB
:10F730001100C9B26429F6DA491CFAE700BD38B5F0
:10F7400004000025EDB2082D11DA200603D51D2096
:10F75000FFF73AFF02E01D20FFF743FF0020FFF70D
:10F7600033FF64000020FFF73CFF6D1CEAE731BD6A
:10F7700038B500240025EDB2082D10DA0020FFF77F
:10F7800023FF64001E20FFF739FF002802D020006D
:10F79000012404430020FFF724FF6D1CEBE7200049
:10F7A000C0B232BD38B504001C20FFF71AFF600656
:10F7B000400EFFF7C4FFFFF7DBFF05001C20FFF73B
:10F7C00003FF2800C0B232BD38B505000C001C2074
:10F7D000FFF707FF80202843C0B2FFF7B0FF2000EB
:10F7E000C0B2FFF7ACFF1C20FFF7EEFE31BD10B535
:10F7F000FCF7A2FE0022A44BFCF7FCFFFCF784FE02
:10F8000004002000000C9F490870200A9D494870A0
:10F8100020009C4988709B4801780620FFF7D4FFA0
:10F82000984841780720FFF7CFFF96488178082055
:10F83000FFF7CAFF10BD10B5040087214D20FFF768
:10F84000C3FF9248E4B2015D0920FFF7BDFF10BD80
:10F85000000000000C0500006524002038B50500FC
:10F86000032000F088F91E20FFF79CFF0007000F1F
:10F870002C0104432100C9B21E20FFF7A5FF31BDB2
:10F8800038B505001D20FFF78DFFF12101406C0008
:10F890000C432100C9B21D20FFF796FF31BD38B5DA
:10F8A00005001E20FFF77EFFFB210140AC000C434A
:10F8B0002100C9B21E20FFF787FF31BD38B5050012
:10F8C0000120FFF76FFFF82404402C432100C9B248
:10F8D0000120FFF779FF31BD38B505000120FFF7A2
:10F8E00061FF4406640E2C432100C9B20120FFF7DA
:10F8F0006BFF31BD38B505001D20FFF753FF000732
:10F90000000F2C0104432100C9B21D20FFF75CFF4A
:10F9100031BD38B505001D20FFF744FFFE2404402B
:10F920002C432100C9B21D20FFF74EFF31BD10B599
:10F9300004002100C9B22220FFF746FF10BD10B518
:10F9400082B004001E20FFF72DFF694608701F20BB
:10F95000FFF728FF6946487068460078FC2101409F
:10F96000200A8007800F0843694608702000694616
:10F970004870684601781E20FFF726FF68464178E8
:10F980001F20FFF721FF13BD38B505002620FFF724
:10F9900009FFF7210140EC000C432100C9B22620E9
:10F9A000FFF712FF31BDF8B504000E00170001206B
:10F9B000FFF784FF00212420FFF706FFF721112025
:10F9C000FFF702FF3900C9B22220FFF7FDFE002138
:10F9D0000E20FFF7F9FE00210D20FFF7F5FE1C2099
:10F9E000FFF7FFFD8020FFF7AAFEF6B2A41900255D
:10F9F00028003900C0B2C9B2884205D22078FFF78A
:10FA00009EFE641C6D1CF3E71C20FFF7DDFD40210A
:10FA10004020FFF7D9FE00214120FFF7D5FE03204B
:10FA2000FFF74CFFF1BD80B50120FFF747FF9F2195
:10FA30001120FFF7C9FEFF212420FFF7C5FE00219A
:10FA40004020FFF7C1FE00214120FFF7BDFE052049
:10FA5000FFF734FF1920FFF7B7FD01BD80B5012086
:10FA6000FFF72CFFFF211120FFF7AEFE0021402001
:10FA7000FFF7AAFE00214120FFF7A6FE0020FFF7B6
:10FA80001DFF01BDC418002080844E40C81800200E
:10FA900010B51220FFF786FE704908706F48007895
:10FAA00040063BD51E20FFF77DFE6D4908706C486F
:10FAB000007840072FD500210D20FFF785FE132089
:10FAC000FFF770FE674908701C20FFF78AFD0020D1
:10FAD000FFF735FE0024200062490978C0B2884251
:10FAE00006D2FFF745FE6049E4B20855641CF2E710
:10FAF0005C4800785D49087000F04BF85C4908707C
:10FB000000F04DF85B49087000F04FF85A49087052
:10FB10001C20FFF759FDFFF7A1FF27E04F480078B1
:10FB2000000703D50020554908701FE04B480078B6
:10FB3000400719D549480078C00702D5FFF78EFF66
:10FB400014E00120FFF7BAFEFF211120FFF73CFE71
:10FB500000214020FFF738FE00214120FFF734FE4E
:10FB60000020FFF7ABFE01E0FFF778FFFF21122036
:10FB7000FFF72AFE10BD38B505003120FFF712FE51
:10FB8000F82404402C432100C9B23120FFF71CFEA9
:10FB900031BD80B51920FFF705FEC0B202BD80B5AA
:10FBA0001A20FFF7FFFDC0B202BD80B51B20FFF792
:10FBB000F9FDC0B202BD10B50400FFF77FFDFFF7ED
:10FBC00095FDFFF7A1FDC820FFF7ACFD0020FFF772
:10FBD00075FE8020FFF780FE0120FFF76FFE0021F9
:10FBE0004020FFF7F1FD00214120FFF7EDFD20004F
:10FBF000FFF7FDFD14480078FFF71DFE134800785D
:10FC0000FFF72CFE12480078FFF73AFE0120FFF7BD
:10FC100046FE10480078FFF76DFE0020FFF779FEE2
:10FC2000FF20FFF784FE0C48FFF789FE0120FFF755
:10FC3000ABFEFFF7F8FEC820FFF774FDC820FFF702
:10FC400071FD10BD00000000621900205F19002046
:10FC50006019002061190020FF03000062240020C9
:10FC60006324002064240020741F002066240020E8
:10FC70005F240020602400206124002065240020EF
:10FC800000B5800701D1012000E00020C0B200BD16
:10FC9000F1B584B00D000024002D01D107202EE025
:10FCA0002800FFF7EDFF002801D1072027E01748C3
:10FCB00005606846007C14490870002011490870EE
:10FCC0000420029000200190114E019A0299300008
:10FCD000FDF7A6FC0C480078182148430090002648
:10FCE0000A480768320000993800FDF799FC01F0D6
:10FCF000A1FA002802D101F06EFA0400200005B03C
:10FD0000F0BD00003E2400203D24002004240020FB
:10FD100008240020F1B582B000242000664909784B
:10FD2000C0B288423CD265480068E4B20821614311
:10FD3000461801273078874061480068384000281D
:10FD40002CD05F480068B8435D490860307801F006
:10FD500019FB05005B4800680121327891400140A1
:10FD6000EDB2327828009040814217D17078012896
:10FD700001D1012000E00020EDB2C0B268400028AF
:10FD800001D1012000E00020C0B20090706800287E
:10FD900004D00099C9B2307872689047641CBCE7FF
:10FDA000F7BDF8B506000F000124B44046480068CE
:10FDB000FFF759FA0500002D27D14148006820407F
:10FDC00000281DD1300001F0DDFA002805D03D48A3
:10FDD000006820433B49086004E03A480068A043BB
:10FDE00038490860364800682043354908600022D9
:10FDF0003648016834480068FFF70EFA050004E051
:10FE00002F480068A0432E490860F1BDF0B583B0CB
:10FE100006000C001700052F01D2072038E001F082
:10FE200009FA002806D101F0D6F90500002D01D00D
:10FE300028002DE0214806601F4804702348076011
:10FE400000202049086000201D4908602000441E51
:10FE5000C0B2002817D0E4B20820604330180090E8
:10FE60001B48006801900098807801A94870194AE1
:10FE700001A90098007801F0EBF90500002D01D0F0
:10FE8000280005E0E2E7144A00210F48FFF7A4F933
:10FE9000FEBD10B5002408480078844209D2012133
:10FEA0000648006808226243805C01F011FA641C75
:10FEB000F1E7002010BD00003C240020F4230020C6
:10FEC00000240020FC23002080230200F8230020CF
:10FED00084230200A3FD010015FD01000100A02004
:10FEE000C0057047F3B581B017001C00089D099E3E
:10FEF00001A8FFF7F3FF6946097AFFB27A000A43C7
:10FF0000E4B2A1001143EDB22A020A43F6B233046F
:10FF100013430199042251434118E022D2008B502F
:10FF2000F7BD1CB5040000200190002000900023C4
:10FF3000012201212000FFF7D5FF13BD11B581B0CB
:10FF400001A8FFF7CBFF04000121019881402000A8
:10FF500000F00EF813BD11B581B001A8FFF7BEFF88
:10FF60000400012101988140200000F005F813BD34
:10FF7000A122D200815070470B4A81507047000087
:10FF800000B50A4900280ED0094A126800BF00BF18
:10FF900000BF00BF00BF00BF00BF00BF8A4200D04B
:10FFA00000BF0138F2D100BD0C0500000024F400B0
:10FFB000D818002010B50400FA2080006043FFF735
:10FFC000DFFF10BD38B504001220FFF7AAFF25009F
:10FFD000EDB2002D0FD01220FFF7B0FFFA20400045
:10FFE000FFF7E8FF1220FFF7B6FFFA204000FFF707
:10FFF000E1FF6D1EECE731BD80B51420FFF791FFE6
:020000040002F8
:100000001420FFF79BFF01BD80B51420FFF789FF87
:100010001420FFF7A0FF01BD70B50600012001F01C
:10002000F1FA0400002C08D101F013FD050001F0E5
:100030000EFD3200290000F002F8200070BD70B5FE
:1000400005000C0016002100280000F001F870BD2A
:10005000174A5061164A91617047F3B583B0160094
:100060001D0000200190002400953300049A210017
:100070006846007B0E4F7F69B84705B0F0BD38B5C4
:1000800005000C000023002221002800C0B2FFF769
:10009000E4FF31BD70B582B006000D00140000947D
:1000A00001236A4629003000C0B2FFF7D6FF73BDB6
:1000B0001823002000B5C9B2002902D10022304B1C
:1000C0001A7000BD10B501202D49087000230122CF
:1000D0002C4801682B48FEF797F804002848007860
:1000E000012802D1FCF72EFEF8E710BD38B5FDF768
:1000F000D1FF0400E4B22500002D02D02800FDF756
:100100007FFA31BD70B582B005000C00FFF7DAFF51
:1001100001201B4908700020009023009BB22A0098
:10012000184801681748FEF721F8060014480078BF
:10013000012802D1FCF706FEF8E773BD10B50022D6
:1001400089B28A4209DA0F4B1B68042454431B59B5
:10015000042454430351521CF2E710BD80B505211D
:100160000948FFF7EBFF08480078A32803D00521D2
:100170000648FFF7C7FF05210348FFF7DFFF01BD72
:10018000592400206419002064230020AC180020AA
:1001900010B5020050780223C9B28C1EA34204DAC3
:1001A0000400D05C60405B1CF6E7C0B210BDF8B53F
:1001B00006000C00170000203D490870AF203D49A3
:1001C0003B4A127888543A480078401C38490870F5
:1001D000002008280BDA3849095C364A1218517099
:1001E00033490978491C324A1170401CF1E7314803
:1001F0002F49097847542E480078401C2C49087034
:100200002C482B490978445429480078401C284937
:1002100008700020E4B2A0420ADA315C254A1218C4
:10022000D17223490978491C214A1170401CF1E719
:10023000224800680090214800680021C943884294
:1002400002D101201D4908600020C0B204280FDA45
:100250006946C0B242428918C978164A144B1B78C5
:10026000D15413490978491C114A1170401CECE71C
:100270000F4805782800401C0D49087021001131F5
:10028000C9B20C48FFF784FF0A49EDB248553C203B
:100290000849074A1278885405480078401C0449E8
:1002A000087006480068401C04490860F1BD000061
:1002B00048240020741B002084180020801800208F
:1002C000F4B504000F002078AF2801D000202FE003
:1002D00000260121092909DA605C7A18521E127879
:1002E000904201D0002023E0491CF3E7092568462D
:1002F0000088854215DA605D3C2810D12900491C30
:10030000C9B22000FFF744FF01006219521E1278A3
:10031000C9B2914203D12900491C0E0001E06D1CB5
:10032000E5E7F6B2002E02D0607AC0B200E000200D
:10033000F2BDFEE700B5BFF34F8F034803490860E5
:10034000BFF34F8F00BFFDE70400FA050CED00E09E
:1003500070B505000C00160003490120FFF78FFE61
:10036000FFF7E8FF70BD00BF5C2202002E49086065
:10037000704700218022D20500B21150704700B5AD
:100380008021C90500B20858002801D0012000E0F2
:100390000020C0B200BDC0B28107890F234A11609E
:1003A0007047234940B2420904235A438958C00682
:1003B000C00EC1400800C007C00F704780B50020C4
:1003C000FFF7EFFF002803D10321002000F0F2F82F
:1003D00001BD10B5002421480078002802D08520F6
:1003E000040017E000201D49886000201B49486078
:1003F00000201A49086100201849C860FFF7DEFF95
:10040000FEF773F8002802D10120FFF7C4FF012096
:1004100012490870200010BD00B5010008680028CE
:1004200001D002680A6000BD0803004018050040C2
:1004300000E100E070B50400E4B2002C01D12E4DC3
:1004400000E02C4D2800FFF7E7FF0600002E04D047
:100450002000C0B271688847F4E770BD9023002087
:1004600080B580204000FFF78AFF00280CD0802054
:100470004000FFF77EFF0120FFF778FF01201F49B2
:1004800048700020FFF7D6FF82204000FFF777FF7B
:1004900000280CD082204000FFF76BFF0220FFF7FE
:1004A00065FF0120154988700120FFF7C3FF01BDDA
:1004B00010B50400002C02D10020FFF7BBFF10BDD7
:1004C00080B5002069460870684600F0CDF80B48FA
:1004D0000078002801D1FFF77CFF0848C068401C65
:1004E0000649C8600120054988706846007800F018
:1004F000C1F801BDA02300209823002090230020F4
:100500000121C206D20E9140264A11607047012196
:10051000C206D20E9140244A11607047F0B540B235
:10052000002821D5214C40B20207120F083A950845
:10053000042255431D4A40B203071B0F083B9B088A
:1005400004267343D258FF238607B60F08277E433D
:10055000B3409A438B01DBB28607B60F08277E4370
:10056000B340134363511AE0114A40B28308042494
:100570006343D258FF238407A40F08256C43A3408C
:100580009A438B01DBB28407A40F08256C43A34078
:100590001343074A40B2840804256C431351F0BD4D
:1005A0000000000000E100E080E200E01CED00E05F
:1005B00000E400E038B505000C00E4B2210028009A
:1005C00040B2FFF7ABFF280040B2FFF7A0FF2800C2
:1005D00040B2FFF795FF31BDEFF3108072B6704760
:1005E00062B6704738B50400FFF7F6FF05001A48F9
:1005F000406800280ED1012017494860174800685C
:10060000174901401448016015481449086000204A
:10061000207001E001202070002D01D1FFF7E0FFE4
:10062000002032BD38B504000B484068002810D0C7
:10063000E4B2002C0DD1FFF7CFFF0500064800689B
:1006400008490860002004494860002D01D1FFF7E7
:10065000C7FF002032BD0000E423002080E100E05D
:10066000FC06FFBC00E100E010B504002000FFF72D
:10067000B9FF10BD10B504002000C0B2FFF7D2FFD3
:1006800010BD8168C068401A704710B40268C36822
:1006900084882340D154C268521CC26010BC704789
:1006A00030B40368846889B2641885882C401B5D67
:1006B000137030BC704738B504000D002A000021CB
:1006C0002000FFF7EDFFA068401CA06031BD00B521
:1006D0000300002901D10E2012E092B2002A05D0B9
:1006E00092B2501E92B21040002801D0092007E0BB
:1006F0001960501E9880002098600020D86000206B
:1007000000BD38B505000C002800FFF7BAFFA98826
:10071000814206D32100C9B22800FFF7B6FF0020AE
:1007200000E0042032BD38B505000C002800FFF7BA
:10073000A8FF002805D021002800FFF7BCFF0020FB
:1007400000E0052032BDFEE7002209B242507047AA
:1007500000B509B24058002801D0012000E0002077
:10076000C0B200BDC12292008150704700B5C122C5
:10077000920080580140002901D0012000E00020B3
:10078000C0B200BDC222920081507047010090208B
:10079000C00008589022D200885070470421A0223F
:1007A000D20081507047844BC250844BC150704777
:1007B000A123DB00C150A223DB00C2507047A3215C
:1007C000C9004058C0B27047C9B27D4A81507047D5
:1007D0000122C9B24250704710B4C9B2D2B213005C
:1007E0000B43784C035110BC7047774A81507047D7
:1007F0000100080B40B270470100A020C0057047FF
:10080000F3B581B017001C00089D099E01A8FFF7F1
:10081000F3FF6946097AFFB27A000A43E4B2A10005
:100820001143EDB22A020A43F6B23304134301998D
:10083000042251434118E022D2008B50F7BD1CB571
:1008400004000020019000200090002301220121DB
:100850002000FFF7D5FF13BD30B583B005000C00B5
:1008600000200190002000902300DBB20022002134
:100870002800FFF7C5FF37BD11B581B001A8FFF70C
:10088000BBFF0400012101988140200000F001F825
:1008900013BDA122D2008150704738B505000C006D
:1008A00020680021C943884205D02068FFF7E4FF93
:1008B0002068FFF7C4FF60680021C943884203D065
:1008C00000216068FFF7C8FFA1692868FFF78DFF66
:1008D000227D617D2868FFF77FFF626821682868B4
:1008E000FFF761FF207D012818D1A0680021C943CE
:1008F000884203D00021A068FFF7AEFFE068002126
:10090000C943884205D0E068FFF7B6FFE068FFF70B
:1009100096FFA268E1682868FFF74AFF31BD38B545
:1009200004000D008E2149002068FFF70DFFA22171
:1009300049002068FFF708FF66492068FFF712FFAB
:100940002068FFF755FF2900C9B240B2FFF732FE19
:1009500031BD10B504002068FFF720FF10BDF4B5CD
:1009600004000E00A84821791C2251434518002795
:10097000E87E002801D008201CE031002000FFF7AD
:100980008CFF00986860306928606868002803D090
:10099000317F2000FFF7C3FF2000FFF7DAFF0020C0
:1009A000E875002028760020A8750120E876002050
:1009B000A8763800F2BD0000140500000C05000008
:1009C0001C0500006C0500002405000070B5040043
:1009D0000D008E2149002000FFF7B6FEA868A98A05
:1009E000465CA88A401CA8823100C9B22000FFF7EB
:1009F000EBFE70BD70B50400834821791C22514381
:100A0000451800268E2149002068FFF79DFE082129
:100A10002068FFF7DDFE29002068FFF7D7FF686830
:100A200000282FD1A88AA97D89B2884215D28E21AB
:100A300049002068FFF78CFE002804D1A88A802195
:100A400049008842F3D1A88A802149008842E9D030
:100A500029002068FFF7BAFFE4E7A88A802149004F
:100A6000884202D10F2006000AE08E21490020684A
:100A7000FFF76EFE0028F8D00C212068FFF7A8FED3
:100A80000020A875300070BDF8B504000F001500F7
:100A90005D4821791C2251434618200000F00CF8D3
:100AA000002801D0112006E0B575B7600020B082A3
:100AB0002000FFF79FFFF2BD00B5534900791C22CB
:100AC00050430818807D002801D0012000E000205C
