:020000040001F9
:10B00000404C002051540200D7C0010019540200E6
:10B010000000000000000000000000000000000030
:10B02000000000000000000000000000CB4E020005
:10B030000000000000000000CD4E0200B7C101007A
:10B04000C115020033C20100BD51020019530200B4
:10B05000E3C4010000000000194D020037C50100E3
:10B06000B7C8010087F101005B1A02008F1E0200C1
:10B070000F300200D33E0200333F0200874302003C
:10B08000074902003D440200F74F02004F540200FE
:10B090002F5502003B5502006F0B0200875502003E
:10B0A000895502008B5502000000000000000000DE
:10B0B0000000000000000000000000000000000090
:10B0C000F0B5A3B006000C00289D00BF75A003C812
:10B0D0006F4603C7069404A83B21455400200F90F7
:10B0E0001700029312E03D000396060029780698A7
:10B0F000039A90470690002800D1B7E00F98401CB3
:10B100000F906D1C761EF1D1039E3F1938782528CB
:10B1100008D1002009900A900B900C900D900E9091
:10B120003C000FE06A460021C943380001F027F8CF
:10B13000040001D10F989BE0D5D50124E5E701007B
:10B1400001200843641C21782029F8D023290FD03E
:10B150002B2904D02D2907D030290CD08AE00100FA
:10B160000220084380B2EDE7020004201043F9E713
:10B1700001000820F5E701001020F2E700211191FD
:10B180000AE0119A464B9A4205DA93009A18520047
:10B19000511830391191641C21780A00303A0A2A7A
:10B1A000EFD321782E2903D00021C943109128E044
:10B1B000641C22782A2A0AD102990968029A11602D
:10B1C0000A68091D029B19601092641C19E02D2A5F
:10B1D00001D1641C00E00022002110910CE0002A43
:10B1E00009D1109B2E4DAB4205DA9D00EB185B0098
:10B1F000591830391091641C21780B00303B0A2B10
:10B20000EDD304A908872578290000BF27A000F006
:10B21000C7FF002801D0641C00E0002504A83A21E3
:10B220004554405C682804D12178682901D1622006
:10B2300005E06C2807D120786C2804D1712004A97E
:10B240003A228854641C14A808902378029A04A90E
:10B25000300000F069F8671C002807D114AA04A97F
:10B26000300000F001FA002800D44FE70020C0436E
:10B2700023B0F0BD2A2900D080E702990968029A1C
:10B2800011600A68091D029B19601192002A05D5F8
:10B290005142119102000420104380B2641C80E7E7
:10B2A000CBCCCC0C0000000000000000686A6C747D
:10B2B0007A4C00000B0062281CD068280DD06A2848
:10B2C00003D06C2823D0712821D11A68D21D072001
:10B2D00082431A6003CA1A607047002A196819600D
:10B2E000086803D0091D196000B217E0091D196034
:10B2F00080B217E0002A19681960086803D0091D98
:10B30000196040B20AE0091D1960C0B20AE0002AC3
:10B3100019681960086803D0091D1960C1177047C2
:10B32000091D196000217047F0B583B00C001600AC
:10B330001F0025693900253900D14DE11C3900D1A4
:10B3400084E0091F022900D880E00E3900D106E10F
:10B35000491F59D0093979D0891E16D0491E34D0D9
:10B36000491E022972D9091F2FD0491F00D196E02A
:10B37000491E49D0491E00D1E1E0C91E00D1FDE0BF
:10B38000891E41D0C91E3FD02CE13A21615C6C2955
:10B3900009D06069411C6161316831600A68091D2A
:10B3A00031602A5428E1316831600A68091D316032
:10B3B000009200210191C94321636A46210000F0F7
:10B3C000D5F9002800D417E103E1012231003A2029
:10B3D000205CFFF76FFF03C4083C002904DA6069B2
:10B3E000411C61612D210DE0208F810704D560692A
:10B3F000411C61612B2105E0C00722D56069411C19
:10B400006161202129541CE0002231003A20205C97
:10B41000FFF750FF03C4083C3820205C000710D51C
:10B4200003CC083C002901D100280AD02020384351
:10B43000782806D1606930212954401C411C616183
:10B440002F5460692818E060390084E03268D21D0A
:10B4500007208243326003CA326003C4083C03CC35
:10B46000083CC80F04D06069411C61612D210DE0CA
:10B47000208F810704D56069411C61612B2105E0A3
:10B48000C00704D56069411C6161202129546069AD
:10B490002818E0603900200000F08CFAACE03B2076
:10B4A000205C002804D00024E44300BF54A074E0D2
:10B4B0003A20205C622808D0682823D06A2812D05D
:10B4C0006C282ED071280ED02BE0306830600168D7
:10B4D000001D3060002903D10024E4434EA05CE04D
:10B4E000E06A087088E0306830600268001D3060F3
:10B4F000002A03D10024E44347A04EE0E06AC117CC
:10B5000003C279E0306830600168001D30600029B6
:10B5100004D10024E44300BF3FA03EE0E06A08807D
:10B520006AE0306830600168001D3060002903D196
:10B530000024E44338A030E0E06A08605CE0306852
:10B5400030600268001D30600020C043104003C41A
:10B55000083CE5607821200000F06CF94CE06C219B
:10B560003A22A154316831600A68091D3160002A0D
:10B570002AD10024E44300BF2DA00EE03A21615CF3
:10B580006C29EFD0306830600568001D3060E560E0
:10B59000002D06D10024E4432CA000F00DFE201A5B
:10B5A0002BE0266B002E03D5280000F029FE09E0D1
:10B5B00032000021280000F02BFE002801D0401BA3
:10B5C00000E03000A06117E0210000F0CFF8002873
:10B5D00012D50020C04310E06069411C6161252143
:10B5E000295409E06069411C616125222A54380010
:10B5F00002D0481C60616F54002003B0F0BD000011
:10B600007072696E74665F733A20256E2064697388
:10B61000616C6C6F776564007072696E74663A2055
:10B6200062616420256E20617267756D656E7400BD
:10B630007072696E74665F733A2062616420256C73
:10B640007320617267756D656E7400007072696E4B
:10B6500074665F733A2062616420257320617267AB
:10B66000756D656E74000000F8B506000C001700DB
:10B67000606B6169401A216A401AA169401A616AC7
:10B68000401AE169401AA16A401A00903820205CF3
:10B6900040070ED4009800280BDD05462021A06845
:10B6A000B047A06000285DD0E06A401CE0626D1EDB
:10B6B000F4D13A0063692100300000F0F2FC002868
:10B6C00050D1256A002D0ADD3021A068B047A06066
:10B6D000002847D0E06A401CE0626D1EF4D1A369E7
:10B6E000E2682100300000F0DCFC00283AD1656AF5
:10B6F000002D0ADD3021A068B047A060002831D0BD
:10B70000E06A401CE0626D1EF4D1E369E068A16963
:10B7100042182100300000F0C4FC002822D1A56AA4
:10B72000002D0ADD3021A068B047A060002819D0A4
:10B73000E06A401CE0626D1EF4D13820205C4007B6
:10B740000ED5009800280BDD05462021A068B047E3
:10B75000A060002806D0E06A401CE0626D1EF4D1B3
:10B760000020F2BD0020C043F2BD0000F0B5A7B03C
:10B7700007000C001500266B002E00D58A4E00F045
:10B7800053FD616B0A1800BF28A003C803AB03C3B5
:10B79000812A48D20020059700940290002E31DDC6
:10B7A00003AA296801A800F0EFFC04003BD4286834
:10B7B000002801D1641E36D4A64223DB00984069DC
:10B7C000001981280DD300200099486306AA00992A
:10B7D0000598FFF749FF0290002813D40020009934
:10B7E000486100984769220001A906A8C01900F025
:10B7F00021FD3819009948612868002802D02D1DC4
:10B80000361BCBE7059B009C0298002804D106AAB2
:10B8100021001800FFF728FF002802D100216161F4
:10B82000616327B0F0BD0020C043FAE700000000CC
:10B8300000000000F2B588B0040027690A466F2AAC
:10B8400001D1082507E0084620210143782901D0CD
:10B850000A2500E010253C2603CC083C06AB03C3B8
:10B86000642A01D0692A09D1002907DA06A803C889
:10B8700000220023121A8B4106A80CC006A803C898
:10B88000002920D100281ED1206B00281BD1082DB3
:10B8900058D13820205C000754D53B26302050E09A
:10B8A00000290ED53821615C14220A40102A08D1E3
:10B8B000616B6269891A226A891A081A002800DDF8
:10B8C000206209B0F0BD049401970395009606A884
:10B8D00030C80098401E02900090039EF717200089
:10B8E000290032003B0000F0D3FC3032D2B23A2AB9
:10B8F00003DB08A8007851381218019802994254C5
:10B900002000290032003B0000F0C2FC04000D00C2
:10B9100001D1002C06D00498C0680199009A8918BA
:10B920008842D6D3049C019F0398009E082809D121
:10B930003820205C000705D5B85D302802D0761E7F
:10B940003020B8553C20801BA061B919E160216B03
:10B950008842A5DA081A2062208F14490140218705
:10B96000AFE7F8B50024124D06000F00009214E076
:10B97000C00707D522002B003000390000F0BDFCC5
:10B9800006000F00009840100090200029002200BF
:10B990002B0000F0B2FC04000D0000980028E7D155
:10B9A00030003900F4BD0000FFFFFF7FEFFF000013
:10B9B00000002440F3B591B006AA03C802AB03C34C
:10B9C000202012A909780843019061280CD0119811
:10B9D000006B002801D5062004E005D101986728F6
:10B9E00002D1012011990863119803C84C00641515
:10B9F000641C13D10B0311D003201199886112A884
:10BA0000007861381A2804D252497944FF3147310D
:10BA100016E051497944FF31413111E04C00641581
:10BA2000641C13D10B0311D103201199886112A852
:10BA3000007861381A2816D348497944FF311F31FC
:10BA400003221198C06800F0F5FBCBE104000D0063
:10BA500092A003C82940002680277F03B94207D25D
:10BA6000002069400DE03E497944FF310B39E7E79A
:10BA7000080D884E3618200029008A4D0D40864951
:10BA80002943119B03C30198612813D11198C06801
:10BA900030210170811C119BD96012A9097861299C
:10BAA00001D1782100E05821417011984069801C33
:10BAB00011994861119830C878A003C820402940E6
:10BAC00004D1002802D16B46988082E10198612858
:10BAD00000D0ADE01198006B002801D5212000E0D6
:10BAE000401C04900498401C019002A803C8002246
:10BAF000002300F0C4FC02D2802000064540361F1F
:10BB0000009669460A7606A8461C0198002800DCC3
:10BB10006FE120002900002280235B0300F0C8FCB5
:10BB200000D966E16900490D0A001C32002919D0CC
:10BB3000002A17DDBA498A4206DB0805290080225F
:10BB400012061140014311E05649294010050843EF
:10BB500005000DE0009A0000009A0000049A000021
:10BB6000FC990000290080221206114000240D00DB
:10BB70002000290000F0B6FC07000198C01F0190CA
:10BB800000280ADD380000F0E7FC02000B0020006E
:10BB9000290000F048FD04000D00F01D072104E01D
:10BBA000401E0F223A4002703F11002F01DD491E56
:10BBB000F6D5491E00D517E1401E00220270F8E7B5
:10BBC0000021030006ACE41801E0401E641E5B1E69
:10BBD00025788D42F9D00F2906D106A9491CC95CE8
:10BBE000491C06AC641CE154002B04D506AA401C79
:10BBF0000099091D0091431E11D4D41812A9097887
:10BC000025783035EDB2392D02DD0E003A3EAD1902
:10BC100025705B1E641E002BF2D512AB19701199B2
:10BC2000096B002900D4D1E0411E119B1963CDE0BE
:10BC300002A803C80022002300F021FC06D202A8BB
:10BC400003C880221206514002AA03C2754930007F
:10BC50004843754900F074FD009007200099401A90
:10BC6000049005DD024602A803C8FFF77AFE0AE049
:10BC7000424200206D49FFF774FE02000B0002A84B
:10BC800003C800F0B7FD019A662A0DD1009A0A3266
:10BC90000BE000BF02FCFFFF0000E03FFFFFFFFFE3
:10BCA000FFFFFF7FFFFF0F800622119B1B6B9A187F
:10BCB000142A00DD142230236C46237606AB5C1C6C
:10BCC00002E002A803C8049A002A3FDD02AB03C3C6
:10BCD000049202A803C800F017FC1090064608342E
:10BCE0000420059030000A2100F0FAFD0F0030001A
:10BCF0000A2100F0F5FD06003037601E07703000A5
:10BD00000A2100F0EDFD0F0030000A2100F0E8FDEF
:10BD10000600A41E303727700598401E0590E1D11B
:10BD200008340498083804900028CADD109800F000
:10BD300003FC02000B0002A803C800F074FC002200
:10BD40003B4B00F0DAFA02AA03C2C2E706A8401C85
:10BD5000211A06A8421C009802E0491E401E521CEF
:10BD60001378302BF9D000900198662802D1009802
:10BD7000401C05E00198652801D1012000E0002069
:10BD8000119B1B6B1818814200DA481E00281DD435
:10BD9000884204DA115C352901DB392300E03023C5
:10BDA0000400511E0D1901E0401E6D1E641E2E7808
:10BDB0009E42F9D0392B02D1135D5B1C1355002C28
:10BDC00004D50A00401C0099491C009169468880EE
:10BDD000009800B20090019B1BB212A80178119844
:10BDE00000F028F813B0F0BDC61D0198002800DD52
:10BDF0008FE606A8401C311A06A8421C049881420E
:10BE000000DC0800002800D509E7884200DBD7E6FF
:10BE100006A9491C095C072900DCD1E60F21D0E600
:10BE2000FF07000097750000A08601000000F03FAA
:10BE300084D79741F4B584B004000E001D0000F0D3
:10BE4000A9F96946406A00780870276B002D03DC69
:10BE5000012500BF9FA0049020203043662803D115
:10BE60000A9E36B2761C19E0672800D082E00A9854
:10BE700000B20321C943884200DA7FE0B8427DDA8C
:10BE80000A9E36B2761C3820205C000702D4BD42E0
:10BE900000DA2F0036B2BF1B00D50027A169E06889
:10BEA000401836B2002E25DC491C30220270002FCB
:10BEB00003DC3820205C000704D568460078E2687F
:10BEC0005054491CA1617042874200DA7E4236B26A
:10BED00070426062BE19AE4200DA35002DB2E561F3
:10BEE0002A000499E068A369C01800F0A3F9701B48
:10BEF000A062C0E03200954217DA2A00049900F0EF
:10BF000099F9A0694019A061711B6162002F03DCDF
:10BF10003821615C090706D569460978E268115441
:10BF2000E069401CE061A762A5E0049900F082F995
:10BF3000A0698019AD1B002F03DC3821615C090763
:10BF400004D569460978E2681154401CA0612DB2FD
:10BF5000AF4200DA3D002DB22A0004988119E06852
:10BF6000A369C01800F066F9A0694019A061781BA8
:10BF7000606280E0612E11D1702612E0BD4204DAC9
:10BF80003821615C090700D42F007F1E00D50027EF
:10BF9000672E01D1652604E0452602E0412E00D13E
:10BFA0005026A069411CA161049A1278E3681A54D2
:10BFB0000498401C0490002F03DC3820205C00070C
:10BFC00018D5481CA0616A461278E3685A54002FBD
:10BFD00010DD6D1E2DB2AF4200DA3D002DB22A00F9
:10BFE0000499E368181800F025F9A0694019A061C8
:10BFF000781B6062E068A169401806700A9909B26E
:10C00000002903D42B214170851C07E02D214170AC
:10C01000851C68460A9909B24A420285002701A98F
:10C020000A9800B207E00A2100F046FC009B197054
:10C030007F1C0099491C009100B20028F3DC012FFD
:10C0400006DC20203043652802D1302028706D1C8A
:10C05000002F09D1302028706D1C07E07F1E01A839
:10C06000C05D303028706D1C002FF7DCE068A169DE
:10C070004018281AE0613820205C14210140102962
:10C080000DD16069A1694018616A4018E1694018E2
:10C09000A16A4018616B884201DA081A206205B073
:10C0A000F0BDF8B50026002B12D000900F00140050
:10C0B0001D002178B868009A9047B860002806D023
:10C0C000F86A401CF862641C6D1E01D0F1E7F6436B
:10C0D0003000F2BD3000FEE7613807E005E0010006
:10C0E00061391A2901D20120704741381A2880414C
:10C0F000C00F7047010021390F290AD301003A39D6
:10C10000062906D901005B39062902D37B380428A9
:10C11000EDE7012070472048704730B45368D418C9
:10C12000042B0BDA002909D0057825700578002D3D
:10C1300004D05B1C491E641C401CF1E7536030BCFA
:10C14000704738B500290ED01D001400FFF7E5FF39
:10C15000616820006A6B90470122D243811A02D0A5
:10C16000491E02D004E0012000E00020C04332BD9F
:10C170000021616032BD80B5DA6B904702BD80B5A9
:10C18000054BFFF7DEFF02BD80B5034BFFF7F3FF62
:10C1900002BD000001487047C42000208C20002010
:10C1A00000BFC9B200E0401C02788A4202D0002AD7
:10C1B000F9D100207047FEE780B5002801D100BF0B
:10C1C00007A006490B68002B03D0222200219847C4
:10C1D00001E000F0A0FB222002BD0000304400205E
:10C1E000636F6E73747261696E742068616E646CE3
:10C1F00065723A20626164206D65737361676500E2
:10C20000010000E0491C0A78002AFBD1081A704797
:10C21000C9B201E0401C521E002A03D003788B42B1
:10C22000F8D170470020704780B5FFF774FF006CAD
:10C2300002BDFEE7124207D08B0706D00B78491CDF
:10C240000370401C521EF7D87047830706D00B7846
:10C25000491C0370401C521EF9D1704770B4103A4B
:10C2600003D378C9103A78C0FBD2530701D318C959
:10C2700018C001D508C908C0D20704D30B880380B1
:10C28000891C801C002A01D50B78037070BC704794
:10C29000124224D0994228D970B500251B4202D001
:10C2A0000C00002109E00024012649186441944251
:10C2B00000D3A41A7641F8D33100012601E076417B
:10C2C00009D2001864416D41A41A9D41F7D2A41807
:10C2D0005D41B619F5D3300022002B0070BD1B4222
:10C2E000D8D108B5C046C04608BD01D19042D3D2CE
:10C2F00002000B00002100207047F0B50E005E40E8
:10C300000125ED072E40B446AE0ADF184C18F44262
:10C3100008D2F7420ED2640D01D07F0D12D1002059
:10C320006146F0BD05D1F74201D87F0D05D100204F
:10C33000C143F0BDFBD1640DF9D00020C1434905D4
:10C3400049088FE0E419C902DB0229432B43DB0AC9
:10C35000460DC00231438E4630B487B295B27D435C
:10C360002E0CADB2140C7C43A419260C24042543D6
:10C370009CB27C43A419190C7943270CC919A4B2A7
:10C380000F043C43090C000C97B247432E0CBE1916
:10C390003543ADB2170C4743360CBF19A6B2BF19CF
:10C3A0003E043543240C3E0C36199FB24743BF1957
:10C3B000BCB23E0C89191F0C47437F183E0434431E
:10C3C000390C704680B297B247432E0CBE193543E4
:10C3D000ADB2170C4743360CBF19A6B2BF193E04C5
:10C3E0003543240C3E0C36199FB24743BF19BCB2EB
:10C3F0003E0C89191F0C47437F183E043443390C07
:10C4000077463F0C90B278432E0C80190604ADB2EB
:10C410002E43050CA0B22D18120C7A435019020CB1
:10C4200080B2240CA4189AB27A431219140420433F
:10C43000120C89181B0C7B43C91830BCEF0A394217
:10C4400003D1B61940414941641E6F12BF0DE41B70
:10C450000BDBFF19BC4211DA240500274208AE416C
:10C460007841614166463143F0BD641C05D1401CF2
:10C470006141CF0201D34908F4E750E75DE730B4EA
:10C48000012464054D00EC420BD85D00EC4208D855
:10C490000C001C4364000443144304D2994200D1AD
:10C4A000904230BC7047FCD08B42FAD18242F8E710
:10C4B00030B4012464054D00EC420BD85D00EC4221
:10C4C00008D80C001C4364000443144304D28B427C
:10C4D00000D1824230BC7047FCD09942FAD19042E0
:10C4E000F8E7FEE7F4464A1805D200F00FF801D548
:10C4F00080174008604700F009F80121C907884209
:10C5000000D90800404260474A1812D2400DC902C3
:10C5100008430121C9070843520D40210901521A5D
:10C52000521C06D452421F3201D4D0407047C0176B
:10C53000704700207047FEE7010042221201D21E20
:10C54000004207D002D4521E0018FCD5C10A400593
:10C5500012058918704700000100EED54042F446EC
:10C56000FFF7EBFF0122D207114360478B4200D156
:10C57000824205D98446100062468C461900634603
:10C58000DF184C18640D7F0D3AD0661C760537D045
:10C59000E61B352E34DCDB022B43DB0A0C0DC90213
:10C5A0002943C912202E0DDB1700203E06D01F00A4
:10C5B000F741F3405F400026012A7741C0187141DE
:10C5C0000DD217E01700F741F2405740F3415A40AF
:10C5D000B340F3405A400026801859410AD3A21CA8
:10C5E00052050FD0C207012F724117004008CB0738
:10C5F00018434908641C24054208AF417041614159
:10C60000F0BC7047641C21050020F9E76B4010E086
:10C610006B40ABE7F742F3D1E943F1E72442EFD1B6
:10C6200000200021ECE7F0B40125ED070F005F408A
:10C63000EED40C00871A9C4105D2C01BA141D2192F
:10C64000634169406B40AE0ADF184C18F442E1D2F6
:10C65000640D7F0DE2D0E61B362ED1DCDB022B43CE
:10C66000DB0AA4460C0DC9022943C90A012E28DCA5
:10C6700004D1D6075208DF073A435B08EF0A764237
:10C680009041994114D039423BD1B61940414941BA
:10C69000761C394204D1761C001849413942FAD03F
:10C6A000B9436746B74208D9A41B24052143A7E72D
:10C6B0000042EAD13642E8D1A2E7E40AE1070020CD
:10C6C0009EE7202E0BDD203E1F00F340F7415F4028
:10C6D000012A002257417E42984191410BE0170008
:10C6E000F741F2405740F3415A40B340F3405A40BB
:10C6F0007E42904199410A0303D2641EB61940411B
:10C7000049410027641E24054208AE417841614139
:10C71000F0BC7047F446002804D4494200F013F8F6
:10C72000404260474042002905D45FD000F00BF83A
:10C73000404249426047494200F005F8494260479B
:10C7400003460B43E6D40022030A8B420BD20309B3
:10C750008B4219D243088B422ED2411A00D2014695
:10C76000524110467047FF2209023FD012068B4209
:10C7700005D3121209028B4201D3121209020309D6
:10C780008B4219D300E0090AC3098B4201D3CB01C4
:10C79000C01A524183098B4201D38B01C01A524106
:10C7A00043098B4201D34B01C01A524103098B420A
:10C7B00001D30B01C01A5241C3088B4201D3CB00F5
:10C7C000C01A524183088B4201D38B00C01A5241D8
:10C7D00043088B4201D34B00C01A5241884200D318
:10C7E000401A5241CFD201461046704708B5C046A4
:10C7F000C04608BDF0B40E005E400125ED072E4096
:10C80000B446AE0ADF184C18F4423BD2F74241D28C
:10C81000640D43D07F0D38D0E41BC902DB022943ED
:10C820002B43CF0ADB0A0600B61A9F4104D2641ECE
:10C83000B6197F41B6185F416812800D24180018A0
:10C84000844222DAE80C0021B6197F41B61A9F41D2
:10C8500002D2B6185F413F1C40414941F4D3241C29
:10C8600021DD2405B6197F41B61A9F4105D3374310
:10C87000C60737430026012F7041614166463143A8
:10C88000F0BC7047FCD1F74205D20020C1434905F6
:10C890004908F3E704D00020C143F1E77F0DFAD047
:10C8A00000206146ECE72442FAD1401C61410F03AD
:10C8B000F6D30020E2E7FEE7CA0F00D0494203109A
:10C8C0005A400DD004B500D3404200F009F8009A58
:10C8D000D20701D34942124200D5404204BD0000B4
:10C8E000094214D088420FD30122030C01D1000465
:10C8F0001204002300185B418B4200D35B1A5241A3
:10C90000F8D319001000704701000020704708B5E7
:10C91000C046C04608BD80B5012000F001F801BD49
:10C920002021090326311820ABBEF9E738B50400F1
:10C930000025A748A90040184168002901D020001F
:10C9400088476D1C082DF4D331BD8188A14A9142DE
:10C9500004D00088002802D0012000E00020C0B2EE
:10C960007047BCB517008022D20082180025040051
:10C9700008340220088000910192019884421DD25F
:10C9800020680021C943884218D02000FFF7DDFF4E
:10C99000002807D0AE48416AA268914200D2110037
:10C9A000416200E001256088810064180C34009920
:10C9B0000988C01C081800990880DEE7002F00D005
:10C9C0003D70B3BD02001389C81C1818108150892E
:10C9D000401AC01E5081704780B50020009002238D
:10C9E00001A29B4841690AE0DEC0ADDEFF011EF1F5
:10C9F00080B5010000200090022300BF02A29548EC
:10CA000000F018FF02BD0000DEC0ADDEFE011EF129
:10CA100070B5C21C92B2FE2A01DB092070BD002055
:10CA200000238D4C1D0164192578002D06D126891F
:10CA300095196689AD19ADB2FF2D04DD5B1C022B83
:10CA4000EFDB072070BD0B8061898918618170BDA3
:10CA5000814A090151184A89101AC01E488170473D
:10CA600070B582B00C0021687B4A0001101846683E
:10CA7000002903D0488880000D1805E035000835EE
:10CA800003E0688880002D180C358020C000301825
:10CA900085420CD228680021C943884207D028006B
:10CAA000FFF753FF0028ECD02560012076BD002061
:10CAB00076BD70B582B005000E00686800240028BD
:10CAC00021D0644A136898421DD3526882421AD317
:10CAD000810718D129895E4A1289914213D12968A8
:10CAE000826891420FD100225B490B1D15015B59F1
:10CAF000834204D28025ED005B19984216D3521C64
:10CB0000022AF2DB1BE03480009469463088FFF78C
:10CB1000A7FF00280DD00098806829688842F4D1CA
:10CB2000009868604A480089288100E0328001202E
:10CB300076BD3088401C308080B20228E4DB0020C3
:10CB400076BDF8B5424D2C7CA40701D40220F2BD7D
:10CB50000092002A04D01C000E000700002C05D112
:10CB60000520F2BD2060A088401CA080A08802287B
:10CB700021DA96490001085C0028F4D12100A08840
:10CB8000FFF76EFF0028EDD02068002F03D08288C9
:10CB90003B889A42F2D1002E03D0028833889A4211
:10CBA000ECD18168009A1160009948602889009949
:10CBB00008810020F2BD0A20F2BD0168AA4A1300D4
:10CBC0003833994202D008310160704702607047E3
:10CBD000D0420020FFFF0000F0B583B00B0015002D
:10CBE00000260021A14F7A6F032A2FD801939E4C73
:10CBF0000822D21A636C9A4228D30100786F3A6FE8
:10CC000080188007800F1C2250433818FFF726FB3E
:10CC1000786F401C78670198002816D02F00606C50
:10CC2000216C40184007800E20180090019DF000F4
:10CC3000381803C8009A03C26846FFF7BEFF761C87
:10CC4000AE42F4D3606C4019606401210800FEBD5F
:10CC5000A84200201421002078420020F0B583B0C3
:10CC60000026002469460C704C8002250027FF43F3
:10CC70003E4800686946498889024018611C89B2AB
:10CC800001915249220189180268A44B9A4227D186
:10CC90004268A34BD21A02D0521E0BD020E00A7079
:10CCA00048600A000E320831FFF75BFE30000226B2
:10CCB000064342E06A461278002A05D00D704B4ABE
:10CCC00052694A600D81019C48494861002295499A
:10CCD000FFF747FE4548008B02281ED104201DE0C7
:10CCE00000229300C358BB4225D1521CFF2AF8D919
:10CCF0003E4A5269002A06D00D7048600D813B48BB
:10CD00004480019C05E0394948610D830120694652
:10CD1000087030000126064303E0082031000600B9
:10CD20000E43684669464988491C4180408802286C
:10CD30009EDDF0B2FEBD03200870019CF1E700000B
:10CD400010B582B00C0000210091012308A201005F
:10CD5000064800F06FFD002801D00E2016BD01200E
:10CD60001A49220189188873002016BD1421002059
:10CD70000000FFFF10B51D4C608814490001091820
:10CD8000B3488A89002A07D100230122496800F0AC
:10CD900093FD0421217010BD052121700221218302
:10CDA00000230122616900F087FD10BD80B50F48A6
:10CDB00041684B88DB1C03210170002100919BB26C
:10CDC00042684169008B8000091818E6784200200B
:10CDD00080B50648011D4088FFF742FE002802D0BA
:10CDE000FFF7E4FF02BDFFF7C5FF02BDA842002028
:10CDF00030B501220223BE49BE480478002C09D078
:10CE0000E41E18D0641E1ED0641E012C27D9A41E57
:10CE100028D030BD03895B1C03810023438003734A
:10CE20001C010C5D641EA441E40FC518AC725B1CB0
:10CE3000022BF5DB16E0018B42685288D21C891860
:10CE40000183037030BD42694488240109194C688C
:10CE500044614A60028B0A810383062100E00721B6
:10CE6000017030BD027030BD48400020BC3E002043
:10CE7000F8B502000F209F4C257CFE232B40002A92
:10CE800002D023740120F2BD00910125984E0027A5
:10CE90000979002905D002291CD007D3032922D003
:10CEA00034E0FFF799FD00990D712FE000203178F3
:10CEB000022906D10501301D4059FFF799FD77552C
:10CEC00024E00120317C0229F4D002201843207490
:10CED0008948F2BD002301226169884800F0ECFC1A
:10CEE0000221218310E06069FFF782FD6288616999
:10CEF0001201331D9B181D6865611960B118228BE2
:10CF00000A81022222830F7000990F71002804D039
:10CF1000207CFE21014021740E20F2BDDEC0ADDE7A
:10CF2000FE011EF1C0420020F0B583B00C00704A33
:10CF3000618A090151180191002805D0E188019802
:10CF4000FFF740FD0120FEBD4868098989004518AA
:10CF500001260627207C062873D801A1095C8F448E
:10CF600022AA3E5E06CCDC0000209062A0695062DE
:10CF70001100203110002430FFF79BFD002801D163
:10CF80000A20FEBD002000900123221D2900304808
:10CF900000F050FC02212174002835D00E2551E00C
:10CFA00000200090012322000C322900083128487B
:10CFB00000F040FCA17D002900D00326267433E058
:10CFC0000027B948416C002908D0026CD300C7186B
:10CFD000521C5207520F0264491E41640020009007
:10CFE000BB883A68A08A80002918194800F022FC02
:10CFF000A18ABA888918A182A17D491EA175090656
:10D0000000D126740028C9D100251FE0002000901F
:10D01000012322000832291D0D4800F00BFC217865
:10D02000032900D1052727740028B7D1ECE7118C1C
:10D03000906AFFF785FE0500277403D106E02E4DA8
:10D0400000E00F25E1880198FFF7BCFC2800FEBD39
:10D050001421002038B5002801D0012032BD254C14
:10D060000025207B002801D0257301E0FFF7C0FEDA
:10D070001F492078401E062833D801A2125C97442D
:10D080000666363C6042540000202218937A002B3A
:10D090000AD0957202010B000C339B5A002B03D16E
:10D0A0008A18927B012A1ED0401C0228EDDB2570D5
:10D0B00065806560104832BDFFF778FE32BDFFF72E
:10D0C00059FE32BD06202070081D618809014058B4
:10D0D000FFF78EFC32BD072020706560FFF77CFCF7
:10D0E00032BD0F2032BD6080FFF772FE32BD0000FE
:10D0F00078420020A84200201D1D000014210020BD
:10D10000F0B585B0B44E316F1C2251437418B34F43
:10D1100001252278521E08D0521E012A11D9921ED2
:10D12000012A12D9921E4FD051E02100FFF7A0FE34
:10D13000002800D1A9E00021A94A904249D10191DB
:10D1400056E02100FFF7F0FEF2E7002801D00120B1
:10D15000F1E7207900281BD0022801D002D331E06A
:10D160009F48E5E73B001C336A460021A01DFFF7FE
:10D17000E8FC002804D1398C0198FFF7E1FD04E0B8
:10D1800039001C31002200230CC10A28D0D1E7E766
:10D1900001A80C2100F064FCE0680190694601A838
:10D1A000FFF787FC002809D002988188E180018878
:10D1B000218169460988FFF7C3FD00E00A200221AA
:10D1C0002171B5E70F20B3E7FFF744FFB0E70F2069
:10D1D000B1E701902078022801D0032808D1324815
:10D1E000026CA37DD2180264426CA37DD21A426401
:10D1F00068462278521E052A2AD801A39B5C9F44C8
:10D200004C3C20140804052121E004220270E2882D
:10D210008281C1811CE003210170E1888181218923
:10D2200011E00222027022898281A288C281E26812
:10D230000292227C062A00D00025057408E00570C1
:10D2400021898181A188C181E068029000E001709C
:10D250006846FFF76BFB1C21306F1C2250433018CF
:10D2600000F0FCFB706F00280BD0316F491C890760
:10D27000890F3167401E706703D00020FFF740FF21
:10D2800003E0387CFB210140397405B0F0BD534800
:10D29000017C4A0700D5704780B504220A43027416
:10D2A0000020FFF72DFF01BD4840002080B5080099
:10D2B000FFF726FF01BDF9B58DB0130000240194DE
:10D2C000464E307C800701D4022071E00F0001D16E
:10D2D00005206DE03888A649884202D07888002869
:10D2E00001D1042064E0388903907968029100221A
:10D2F0000490032500E0521C049882425AD2D000C8
:10D3000008582842F7D0032052E0029A121DC300A9
:10D31000D25A891889B2401C039A9042F5D30191E0
:10D320006946019880B2FFF773FB002805D03FE003
:10D33000188869460880588801900EA8007805A9C9
:10D3400008700C746A4612884A823A898A758D82FE
:10D35000726A521C726208923A880A817A888A80BC
:10D36000019ACA80032804D1042008740D9800682B
:10D370000B904C817A68398905A8FFF72DFC0028AD
:10D3800007D168460188019880B2FFF761FB082049
:10D390000EE00D98002808D0446008980D990860A8
:10D3A0000D98847230890D990881FFF770FF002075
:10D3B0000FB0F0BD002BBBD100200021ACE78E499F
:10D3C0000A78082A01D10C2070479300CB185860C6
:10D3D000521C0A7000207047BC3E0020A84200206A
:10D3E0001D1D0000F0B58DB06846142100F038FB1B
:10D3F000604C207C81071ED4C1072FD401273843FD
:10D40000207400F0BDF905AD2F700226FFF726FC51
:10D410000B281CD801A1095C8F4400BF0C220C22F0
:10D420003230103032262C260B2018E0207CFE21D2
:10D4300001400E4326746846FFF778FA0EE000209C
:10D4400000E00320287102E02E7100E02F7100221D
:10D45000002105A8FFF7C0FBFFF719FF00200DB062
:10D46000F0BD38B5040001D00D0001D1052032BD5A
:10D470006946FFF71EFB00280FD0606870496A46B6
:10D480001288120189180A88521C0A8028600C3000
:10D4900068600120A072002032BD0A2032BD10B5A4
:10D4A00082B0040001D1052016BD6946FFF701FBDB
:10D4B000002811D06348694609880901401881890C
:10D4C000002907D0A27A002A04D0491E81810020B9
:10D4D000A07216BD062016BD0A2016BD38B55A4AE0
:10D4E000127C920701D4022032BD040001D1052034
:10D4F00032BD0D0069462800FFF78AFA002803D1E3
:10D50000694609882180658032BD10B51949097CBA
:10D51000890701D4022010BD040001D1052010BDEF
:10D52000218802290DDC6088464B0A019A1852892D
:10D53000121AD21E05D4FFF78BFA002020806080DB
:10D5400010BD042010BD80B502230CE080B5002A78
:10D5500001D1052002BD022306E080B5002801D1DB
:10D56000052002BD03230022FFF7A5FE02BD000037
:10D57000FFFF0000A842002000B587B03249097CB7
:10D58000890701D4022016E03049884201D10420E5
:10D5900011E0694605220A7001220A71C880002242
:10D5A00000216846FFF718FB002803D0FFF76FFE45
:10D5B000002000E0082007B000BD10B588B0224C64
:10D5C000207C800701D4022013E006206946087001
:10D5D000002200216846FFF7FFFA002808D02078D3
:10D5E000002801D001202073FFF751FE002000E049
:10D5F000082008B010BD0000D042002003B581B063
:10D6000002A901A8FFF79DFA0EBD01B513000A009B
:10D6100069460020FFF795FA02BD01B513000A0024
:10D6200000216846FFF78DFA02BD002801D00029CD
:10D6300001D1052070470068086000207047000095
:10D640008442002078420020A8420020FFFF000012
:10D650007FB502006846002300240025002678C01C
:10D660006846137A012B02D0022B06D00DE004701D
:10D6700013690293938A838107E0012303709389DE
:10D68000D4891B1B038193894381506801906846AC
:10D690001268926890477FBD002808D0AA494A685E
:10D6A000904204D38968884201D20120704700204B
:10D6B0007047A648416E491E416604D1A2490A78C6
:10D6C000FD2313400B70016E491C042900D1002179
:10D6D0000166704738B59D48016E182251434318C2
:10D6E000406E002826D0187A012802D002280FD0D8
:10D6F0001CE0D88A9C8AE832251A954200DA221A60
:10D70000800092B2D96809181C69201829DF01E04D
:10D71000988928DF112807D18B480178FD220A401B
:10D7200004211143017031BD002803D009211800E4
:10D73000FFF78EFF31BD8448017806220A4000D0F1
:10D74000704780B502220A430270FFF7C3FF01BD94
:10D7500038B50400A448416E042901D1002032BD2F
:10D76000026E5218042A00D3121F491C4166182168
:10D770004A438518280000F071F92560012032BD68
:10D780007FB59A489A49401A0409200099490968C6
:10D790000022D243914202D1974909688902974AEF
:10D7A0001278D30743D40023944D6D6801950AE0A5
:10D7B000019D1E01AD192E68002E03D06D68002D4D
:10D7C00000D0401E5B1CA342F2D323000390002034
:10D7D0001FE0019B26019B191E68002E02D05E6887
:10D7E000002E07D15B7B6E4636789E4202D26D4694
:10D7F0002B702500641C029B9C42EAD3019C2D06E1
:10D800002D0D64196160257BAD026E42891921607E
:10D81000401C039CA04206D200260500002402936F
:10D820006B461E70E7E70120104374490870002022
:10D8300004B070BDF8B50D0017001E006F490978DF
:10D84000C90701D40120F2BD0400FFF725FF00281D
:10D8500001D10220F2BD002F01D0002D01D1032003
:10D86000F2BD0320074201D1054201D00620F2BDDE
:10D870002068854204D36068B1006918884201D2EB
:10D880000520F2BD300001D10420F2BD6846FFF74B
:10D890005FFF002801D10720F2BD0698009948607B
:10D8A000009804600120009908720098C7600098F1
:10D8B00005610098868239E0F8B50D0016001F005A
:10D8C00021490978C90701D40120F2BD0400FFF7FE
:10D8D000E3FE002801D10220F2BD280001D103207F
:10D8E000F2BDA90501D00620F2BD21688D4204D306
:10D8F0006168B202A818814201D20520F2BD300051
:10D9000001D10420F2BD6846FFF722FF002801D1B3
:10D910000720F2BD0098476000980460022000993B
:10D920000872A80A0099888100980682FFF703FF11
:10D930000020F2BD002801D1032070472A49496E1A
:10D94000016000207047000014200020343F0020B8
:10D9500038B50100244B186E182250431818274A76
:10D96000147802252C4231D00023022902D0032949
:10D970001FD035E05370017A01290CD002292FD134
:10D980008189491C8181C189491CC181028A89B26E
:10D99000914225D10BE0C18A828AEB01541A9C4244
:10D9A00000DA531AC918C18289B2914218D10021F4
:10D9B00007E05178491C5170C9B2042910DB53703B
:10D9C0000821FFF745FEFFF774FE09E0600707D561
:10D9D000FB2020401070596E002901D005431570BE
:10D9E000FFF778FE31BD0000343F002024210020E5
:10D9F0001421002014100010140000101420002026
:10DA00001206130A1A43130C1A4300BF094205D029
:10DA100083070BD00270401C491EF9D170470000EB
:10DA20001206130A1A43130C1A4300BF130030B432
:10DA300014001500103902D310393CC0FCD249073C
:10DA400000D30CC000D504C0890002D30280801C22
:10DA5000002900D5027030BC704700000022D5E7D5
:10DA60000022E3E710B582B0040020780E283AD8EF
:10DA700001A1095C8F4400BF106E1A6E3244646EBF
:10DA8000606E6452646E5A0017A1032000F0F2FC2D
:10DA900013BD608800F08CFE217A0091638802003B
:10DAA0001EA1032000F01EFD13BD00BF2DA00078B5
:10DAB00069460870608801F0EDF813BDFFF77DFD41
:10DAC0000E2810D008280ED009E0032001F0D0F96C
:10DAD00005E001F0E3F813BD206900E0A06800282C
:10DAE00001D001F00DFB13BD4150503A494E464F55
:10DAF0003A436F6E6E656374656420746F206120B5
:10DB000070726576696F75736C7920626F6E64658B
:10DB100064206465766963652E0D0A004150503AB1
:10DB2000494E464F3A436F6E6E656374696F6E205F
:10DB3000736563757265642E20526F6C653A20259B
:10DB4000642E20636F6E6E5F68616E646C653A2050
:10DB500025642C2050726F6365647572653A2025C8
:10DB6000640D0A00000010B5A64C210020009C3076
:10DB700001F0E1FAC1B22000843001F0F2FB00288C
:10DB800009D0082807D0A049884204D0BB49884260
:10DB900001D001F0B5FA10BD38B59A4D2900103109
:10DBA0002800A43001F0C7FA0100B54C6069401CA0
:10DBB000606189B22800203001F058FD002809D0AA
:10DBC000082807D09049884204D0AC49884201D047
:10DBD00001F096FA60690321FEF782FE080000D08A
:10DBE0000120207431BDA649087C002800D170476F
:10DBF00010B5844C2000AC3001F09DFA81B22000B9
:10DC0000203001F05FFD10BD80B5BB480178491E92
:10DC10008941C90F01700178B8482222815401BDA1
:10DC2000F0B59BB0032069460870142106A8FFF7E1
:10DC300017FF00240694012706A80771694608917A
:10DC40001125057344738473C57304746D4E06A95E
:10DC50003000203001F0DDFC002801D001F050FA46
:10DC6000142101A8FFF7FCFE01A845738573C47356
:10DC700005740194077103946421017301A93000B4
:10DC8000843001F04CFB002801D001F039FA40212A
:10DC90000BA8FFF7E5FE00BF08A10BA801F049FDA6
:10DCA0000BA83C2145543D21445401F0A4FD00281B
:10DCB00001D001F025FA1BB0F0BD00004E6F726478
:10DCC000696353656D69636F6E647563746F720029
:10DCD0000078002800D0704780B53B219D4800881F
:10DCE00076DF12E080B501F00BFA01BD80B50020AF
:10DCF00001F088FF002801D001F002FA02F036F8A6
:10DD0000002801D001F0FCF93CDF002801D001F02F
:10DD1000F7F901BD80B500280DD003280DD100BF53
:10DD200006A100F0A7FB022001F06CFF002804D040
:10DD300001F0E6F901BDFFF7D9FF01BD4150503AAE
:10DD4000494E464F3A46617374204164766572735A
:10DD5000746973696E670D0A0000000030B589B000
:10DD600004007C4D2088022823D0102808D01128D8
:10DD700013D03A2819D051281FD0552815D03EE08D
:10DD800022A1032000F076FB072001F03BFF0028D2
:10DD900001D001F0B5F9A08805E000BF21A1032062
:10DDA00000F068FB6C48288029E01321A08876DF0A
:10DDB00021E00021288867DF1DE06846A11D1022B0
:10DDC000FEF738FA68460078002818D06846007ACE
:10DDD000042803D0062801D0052810D104A86946DC
:10DDE0000978022900D001210170C12149008180F8
:10DDF00004A9A088A8DF002801D001F081F909B0AA
:10DE000030BD0000003B0020043000004150503A7B
:10DE1000494E464F3A436F6E6E65637465640D0AF2
:10DE2000000000004150503A494E464F3A44697351
:10DE3000636F6E6E65637465640D0A0038B5040027
:10DE400000F03EFC200000F0C1FE444D21002800FF
:10DE5000203001F0D0FA21002800843001F094F93C
:10DE6000200002F079F8200001F091FF2000FFF778
:10DE700075FF200001F0E4F831BD0000013400001E
:10DE80002020002010B50400FFF762FD200001F003
:10DE900002F910BD80B50020009069463048006846
:10DEA00002F0DCF90098002808D0802040052D49B8
:10DEB000086040BFBFF34F8FBFF36F8F002002BDDC
:10DEC00080B5010023480088042906D0072907D01F
:10DED0000A2910D1FFF70AFF01BD132176DF04E004
:10DEE0001D49884207D101F0EFF8082803D0002827
:10DEF00001D001F005F901BD77380020203B00205A
:10DF000010B598B03C2109A8FFF7AAFD09A8022185
:10DF10000170012484700621C1700321018212481E
:10DF20000E90202101A8FFF79BFD01A8C470962048
:10DF300040000590B420069000200090C24B01AA3A
:10DF4000002109A800F0EDFE002801D001F0D8F86A
:10DF500018B010BD0C210020FFFF0000003B002086
:10DF6000803B002004ED00E038200020F0B587B0B1
:10DF7000B64C00232200BC320521002002F0E7FA53
:10DF8000002801D001F0BCF8B14800900023012224
:10DF9000FA21C900AF4802F0C1FB2067AE480090EB
:10DFA00000230122FA218900ACA002F0B7FB6067D0
:10DFB000AB4800900023012296214900B2A002F054
:10DFC000ADFBA067B148009000230122B049B1A089
:10DFD00002F0A4FBE067216F002907D0616F0029E0
:10DFE00004D0A16F002901D0002802D1042001F043
:10DFF00087F8A94AA949032001F010FE002801D0A2
:10E0000001F07EF86946002001F0FCFE002801D0F6
:10E0100001F076F8002668460078022801D1012533
:10E0200000E000258FA0006800909D4B48229A20B8
:10E0300040002118684602F066FD002801D001F07A
:10E040005FF801AA0121002002F09FFD002801D005
:10E0500001F056F801A802F0B9FD002801D001F046
:10E060004FF8904802F073FD002801D001F048F805
:10E070008D4802F074FD002801D001F041F800F055
:10E08000B5FD002801D001F03BF8002D05D000F0CF
:10E090001FFE002801D001F033F805216846FFF784
:10E0A000DFFC684631210170072141701021817029
:10E0B0000327C17803220A43C270017903220A436D
:10E0C000027100F0DDFD002801D001F019F8A84828
:10E0D00000F0C4FD002801D001F012F811206946BB
:10E0E00008700A22AFA168467CDF002801D001F049
:10E0F00007F8A04878DF002801D001F001F801A856
:10E100000021002206C001A8A02149000180C831D9
:10E11000418086807839C1807ADF002801D000F004
:10E12000EFFFFFF7EDFEFFF77BFD51202060642538
:10E1300065600120A0602073210020009C3000F069
:10E14000EFFF8C202061A03060610A20A06126775B
:10E15000210010312000A43000F0E2FF86490D605C
:10E16000FA2040004860012088600E732000AC3027
:10E1700000F0D6FF1C216846FFF772FC0096444869
:10E1800001907E48029068460773A18DC181067494
:10E190007B4805907B480690684601F08BFE00287E
:10E1A00001D000F0ADFF02F04CFF02000220009011
:10E1B00000230121206F02F0CEFA012802D00420B2
:10E1C00000F09EFF02F03DFF0221009100230200BB
:10E1D0000121606F02F0BFFA012802D0042000F094
:10E1E0008FFF02F02EFF0221009100230200012187
:10E1F000A06F02F0B0FA012802D0042000F080FFE6
:10E2000002F01FFF02210091002302000121E06FB4
:10E2100002F0A1FA012802D0042000F071FF0320CF
:10E2200000F026FE002801D000F06AFF0023002243
:10E23000D24300218020205802F03AF80028F5D07F
:10E2400002F020FCF2E7000015DD0100003B002099
:10E2500067DB01007855020099DB01004852540049
:10E26000E7DB010001000007704780B500F074F99A
:10E270000028FBD102F0F0FDF8E780B542480068C5
:10E2800002F031FE01BD00005252540009DC0100D1
:10E290008813000053435400C1DE0100CD0C000080
:10E2A00095DE01003DDE010085DE010030B585B060
:10E2B00003F016F9002801D000F022FF032200210C
:10E2C000012001F00BFF314C80216050002802D169
:10E2D000042000F015FF002000F072F8002801D0A3
:10E2E00000F00EFF80256D000020039002902000BA
:10E2F000B43001900220009000232A0024A1254878
:10E3000002F014FD012802D0042000F0F9FE0020E4
:10E31000039002902000B83001900220009000236A
:10E320002A0000BF22A11C4802F000FD012802D0F3
:10E33000042000F0E5FE00200390029012480190B6
:10E340000120009000232A001BA1144802F0EEFCDB
:10E35000012802D0042000F0D3FE114801680422F5
:10E360000A43026002F0E8FD0F2000F0C9FEFBE75F
:10E3700065DA010041030000202000203075000014
:10E38000D1DC0100E5DC010028440020003B002036
:10E39000424C45006DDF010069E201006BE20100C3
:10E3A00010ED00E04E6F726469635F48524D0000EB
:10E3B0004C4F5241000000004C4F4747455200006F
:10E3C00070B50600002003F047F9040008D103F0FF
:10E3D00082FA050003F07DFA3200290000F007F808
:10E3E000200070BD80B5012003F036F902BD80B574
:10E3F000564AFF23936000231360536000F001F836
:10E4000001BD534A1060516070470000F8B50F001D
:10E41000441C0125002669460E70684603F06EFA1A
:10E420004C49086838608B680A68581C801A4F6825
:10E43000C719601C87420FD2002F0BD013409800E1
:10E44000081800BF08A2920229231343C36008687A
:10E45000401C0860002501E010190860684600783B
:10E4600003F063FA2800F2BD4F766572666C6F7731
:10E470000D0A0000F8B506000C00364DAF6869467D
:10E480000020FFF7C3FF00280AD000980740B8001B
:10E4900028187107890EA2020A4301211143C160A5
:10E4A000F1BDF4B582B006000C002A4DAF68694694
:10E4B0000120FFF7ABFF002813D002992A000C328D
:10E4C00000983840800073079B0EA4021C43412330
:10E4D0002343135028000C30009A521C1740BA00F6
:10E4E0008150F7BDFEB506000C001A4DAF686946B5
:10E4F0000320FFF78BFF002827D0089801992B00F5
:10E500000C33009A3A4092007607B60EA4023443C8
:10E51000C12626439E50009A521C00922A000C32BB
:10E52000009B3B409B00D1500099491C0091290061
:10E530000C31009A3A409200029B8B5029000C311A
:10E54000009A521C1740BA008850F7BD2C310020A9
:10E550003C3500202C310020F0B58DB0554C616861
:10E560002068814200D19FE0A76820000C303A006B
:10E570000A40920080584E1C0322079109E0681857
:10E580003618079620000C30390031408900405879
:10E59000761C83099905890D850D1042EFD00597EA
:10E5A00006906846069FBF067F0F07748220C00052
:10E5B0002018019006980240022A4FD120000C300A
:10E5C000059A324092008258761C0B960A910B995C
:10E5D000059808400599491C091A890023000C3345
:10E5E00080001818019B5B680993A94216D2002984
:10E5F00005D120000C3008902800002304E008908A
:10E60000080023000C33691AC9B203910293C0B207
:10E610000190089800900A9B002105E000210391D9
:10E620000291019500900A9B6846007C099EB047C4
:10E63000A84204D10B98ED1CA90845182FE0210031
:10E640000C31079A059B13409A00069B1A4D1D40FA
:10E6500080011A4B03402B438B5021E007A80699F9
:10E66000890A02911907090F00223500059B09E06C
:10E6700026000C361F002F40BF00F65906606D1CA7
:10E68000001D521C8A42F3D3009107AB029A00216D
:10E690006846007C019E3668B047002800D065605F
:10E6A00060682168884201D1002000E001200DB09F
:10E6B000F0BD00002C3100203F00FFFFC0FF000034
:10E6C00070B588B0050000266B4C2888102804D04F
:10E6D00011284CD01A284FD068E0607D227D8243FB
:10E6E000211D02A803F096F901960EE0009602A8FB
:10E6F000001D01994900435A1D2221001431201D9B
:10E7000003F051F90198401C019001980299884248
:10E71000ECD36846A9880180207DC143C8B203F0CC
:10E7200028F95649884219D069460988221D4000B7
:10E73000115201236846028821001531201D03F083
:10E740002BF901236846028821001431201D03F0B3
:10E7500023F9A87D022805D1012304E0042000F05C
:10E76000CFFC23E00023AA88210016311BE0002300
:10E77000AA882100153116E0287A0009022801DB59
:10E78000012300E00023AA8821001731201D03F097
:10E7900003F9287A0009022801DD012300E00023A3
:10E7A000AA8821001831201D03F0F6F808B070BDCA
:10E7B00070B506000024304D3200297D281D03F07D
:10E7C00016F9002809D03200A97D281D03F00FF9A1
:10E7D000002801D0022400E00124200070BD80B593
:10E7E00002002548C17D001D03F001F902BD80B57E
:10E7F00002002148017EF6E780B51F490A7DFFE748
:10E80000091D03F007F901BD00201B490A68130028
:10E81000C340DB0705D5401CC0B21828F7DB182021
:10E8200070470123834013430B60704780B502009B
:10E8300011480368CB40DB0702D54118497ED2E777
:10E84000002002BD10B513000B4C2268CA40D2074D
:10E8500005D5020061181931201D03F09DF810BD87
:10E8600005490A68C240D20702D50818407E7047A1
:10E87000002070470000000044420020FFFF00001D
:10E8800038B50400002505E02000AA0089180969B0
:10E8900088476D1C9B49C8788542F5DB31BD000077
:10E8A000F0B58BB0070014216846FFF7D9F87888D7
:10E8B0006C46A08003F05CFA6080924D0721012035
:10E8C00000263A78092A00D983E002A39B5C5B000A
:10E8D0009F4400BF050E21353B43607F787A21704D
:10E8E0003979217266720396A17A0843A0726DE0AD
:10E8F0002170397921726672B9680391A17A08434F
:10E90000A072A868002861D0B96888425ED1AE6064
:10E91000A088E88017E0082020703879207266729D
:10E92000B8680390F8680490A86800284ED0B968C9
:10E9300088424BD1AE60E868401EE86003E0217079
:10E94000397921726072039640E00821217039798B
:10E9500021726072B868049038E009202070A878AD
:10E96000002833D0BC4803F027FDBB4988422DD195
:10E97000084603F025FDB849884227D1AE7014211E
:10E9800005A8FFF76DF805A80B210170B249818039
:10E99000418014E00A202070B8680290A87800280E
:10E9A00014D0AE70142105A8FFF75AF805A80C2161
:10E9B0000170A94981804180B868079005A8FFF7D8
:10E9C0005FFF03E0052000E0062020706846FFF7A7
:10E9D00057FF0BB0F0BD0000F0B587B00700012075
:10E9E0000190142102A8FFF73BF802AC7888608000
:10E9F00068464449097901704249497941700720C4
:10EA00000321022600253A78521E0B2A6DD801A355
:10EA10009B5C9F44EA0A2A50667A8692A4AEB2CEE4
:10EA2000012020703879020000D00122012800D195
:10EA30000125684601787888FFF704FF2A000CE07A
:10EA400026703879002800D00126267201226846F7
:10EA500001787888FFF7F6FE3A792A484179788874
:10EA6000FFF7F0FE42E02170684641787888FFF7B2
:10EA7000DDFE002800D0012626720BE068460178F2
:10EA80007888FFF7D3FE00283AD1267025722DE052
:10EA900021702572B8792073B88821E02070B98878
:10EAA000A1802072657228E008212170B988A180B8
:10EAB00020726572B86806901FE0062020707868A2
:10EAC000049013E005200EE02170684641787888B4
:10EAD000FFF7ACFE002800D001262672257374488B
:10EAE000608103E00420207000E00195788803F045
:10EAF000E5F8A0800198002802D002A8FFF7C0FE28
:10EB000007B0F0BD9043002070B586B0040014211A
:10EB10006846FEF7A5FF60886D46A88003F028F9D7
:10EB200068800720052100222378092B21D801A61F
:10EB3000F65CB744080812161A2226422C302870B8
:10EB40006A720820287214E00D2008E00E2006E00A
:10EB500028706A7229720CE00F2000E010202870E3
:10EB600007E0297005E006202870A0680290A088C0
:10EB700068806846FFF784FE06B070BD30B585B08A
:10EB800004002078002802D0012804D019E0E08891
:10EB900000F094F815E001220B4841796088FFF7F6
:10EBA00051FE14216846FEF75BFF6D466088688061
:10EBB000608803F083F8A880002028706846FFF77B
:10EBC0005FFE05B030BD00009043002010B504008A
:10EBD00038480078002808D0200002F0B9FF200053
:10EBE00003F0A0FD200003F047FF10BD38B504F08E
:10EBF000DCF8002829D103F02DFA002825D103F0F4
:10EC00006CFD002821D104F080FB00281DD103F009
:10EC1000A4FE002819D104F0DEFD002815D103F070
:10EC200034F8002811D1234C0B48E0800025A56062
:10EC3000182020716071FFF7E7FD2071182804D0BB
:10EC4000FFF7E2FD6071182801D1032032BD657025
:10EC500001202070002032BDFFFF000016490A7815
:10EC6000002A01D108207047CA78032A01DB04205A
:10EC700070479300CB181861521CCA70002070476F
:10EC800080B50D490978002901D1082002BD03F0A3
:10EC90008DFD02BD80B503F09FFD01BD06480078E3
:10ECA000002800D1704780B503F052FF01BD00007D
:10ECB00001110000904300209043002080B51349CB
:10ECC0000978002901D1082002BD03F080F802BDB7
:10ECD00038B50D480178002901D1082032BD012145
:10ECE0008170084C200000E0280003F065FB05005F
:10ECF000A54205D0FFF7E2FF0028F5D0032032BD82
:10ED0000002032BDFFFF0000904300209043002010
:10ED100052480179002902D1007B002800D001204F
:10ED20007047F2B582B004001100002C01D0002918
:10ED300001D10E20FEBD089E1F000120474A10761B
:10ED40000025D57646482022FDF788FA43484762D9
:10ED5000866244484149088407214348FEF780FE03
:10ED6000424E3C213000FEF77BFE20783070A078C8
:10ED7000B070E078F070607870702000103003C8D8
:10ED80003200103203C22000083003C832000832BB
:10ED900003C22000183003C83200183203C2A7484B
:10EDA00001004031626A002A0FD071628860626A95
:10EDB00013880B8093888B80002204E0676ABF6809
:10EDC000BF5C8754521C9A42F8D3A26A002A1AD018
:10EDD000020020324A6102004C32B262A26A938879
:10EDE0000B8212888A81002206E0A36A9B689B5CE2
:10EDF00007002037BB54521C0B8A9A42F5D32C22B1
:10EE0000A25C2C23F254226A002A07D00200583256
:10EE10003262226A53884B8312880A836168002910
:10EE200000D071600021CA00521A82185C320B4B6C
:10EE30001B688C001A51491C0829F4DB2901411870
:10EE40009431064A9268AB00D1506D1C082DF5DB59
:10EE50000299300005F00AF8FEBD0000E81F00200E
:10EE6000F4420020FFFF0000F81F0020984100201E
:10EE7000F0B587B0924C217E002901D10820D8E05E
:10EE80000600E6766846FEF755FD01250098002845
:10EE900001D06576CCE0072120001030FEF7E0FDC0
:10EEA000E07E884F7978002901D0012806D0B97812
:10EEB00000290CD0012801D0022808D1616A00295C
:10EEC00003D025770820884701E000202077002024
:10EED0002118497C002900D0ADE0401C0628F7D35A
:10EEE0000020012E06D01DD3032E11D009D3042EED
:10EEF00013D017E07978002903D0002808D001202A
:10EF000011E0B978002903D0002801D002200AE0DE
:10EF1000F878002801D0032005E03879002801D0D6
:10EF2000042000E00020E076616A00290ED0E07E37
:10EF3000032801D0042809D13878002806D0607F42
:10EF4000002803D1A5770720884701E00020A0779B
:10EF5000182101A8FEF784FD01AE00203070307248
:10EF6000607FE17E00295CD002290CD003D3042904
:10EF700039D013D32FE0A5762000103002903570E1
:10EF8000002030612AE00220A0762000103002909C
:10EF90003570F8687082B86830821FE03969318254
:10EFA000796971823978002901D1032023E0002892
:10EFB000FBD1FFF7ADFE0028F7D004940220307299
:10EFC00004204D49C87000214B4804F04FFF002831
:10EFD00001D10520A076E07E002824D001A873DFAF
:10EFE000002820D025E0B9693182F9697182397829
:10EFF000002902D10420A076F0E70028FAD1FFF71B
:10F0000087FE0028F6D004940220307204203A498A
:10F01000C8700021384804F029FF0028DBD1062001
:10F02000D8E70020A076616A002901D0A07E884739
:10F03000002007B0F0BD012053E700007C3C002019
:10F0400010B582B02D4C0188102904D0112908D0A8
:10F050001B290ED013BD817D01291BD180882084FE
:10F0600013BD002161778088218C884212D1012054
:10F0700008E0007A00280DD1E07E401C0521FDF754
:10F080001BFCC8B2FFF7F4FE002803D0A16A0029D8
:10F0900000D0884713BD801E012800D9704710B5E5
:10F0A000164C607E00280AD000206076E07EFFF7D4
:10F0B000DFFE002803D0A16A002900D0884710BDD8
:10F0C000E81F0020F442002010B574DF0B4C012033
:10F0D000607709480621C170002104F0C7FE0028AE
:10F0E00009D1E07EFFF7C4FE002803D0A16A002901
:10F0F00000D08847002010BD98410020E81F002064
:10F1000010B584B0040068460C21FEF7A9FC0294F7
:10F110006A460021014804F0DDFE1FBD01400000E9
:10F120000A7B002A02D04968002201E00968012216
:10F1300002710160704710B504002079002803D0E7
:10F14000200000F006F802E0200000F00FF8206830
:10F1500010BD18B54A6889680368D41AA14201D263
:10F160005A1801E000210171026011BD18B58A68CA
:10F17000096803685C1AA24201D2991A01E00122CF
:10F180000271016011BDFEE710B582B0040027D006
:10F19000002925D00888102804D0112804D0502830
:10F1A00005D013BD888800E08C48608213BD207DA7
:10F1B000002815D0C8886289904211D1088A022897
:10F1C0000ED1206800280BD00800123000F0A5FAFC
:10F1D000401E8041C00F6946087020002268904799
:10F1E00013BDF0B591B005000E00287D00280FD0AA
:10F1F000032103A8FEF734FC03A811210170717BE1
:10F2000003AA51708178F9220A40022111438170CA
:10F210001C2109A8FEF724FC09A80078022101435B
:10F2200009A801700846EF210140287D002800D080
:10F2300001200001084309A9087000240A940C94D5
:10F240000D94287D002800D003A80E900F94012073
:10F2500002A98870624869460881032101A8FEF767
:10F26000FFFBB07B69460871F07B01A9487001AFD4
:10F27000B878E221014002200843B870307B69462B
:10F280000870142104A8FEF7EBFB02A8049001A863
:10F290000590012004A908814C8188816846089066
:10F2A000AB1D04AA09A9A888A2DF002835D1B0683F
:10F2B000002830D0012002A988704A486946088198
:10F2C000032101A8FEF7CCFB307C694608717C70F5
:10F2D000B878E221014002200843B870B16800A864
:10F2E000801C00F020FA0600142104A8FEF7B8FBE9
:10F2F00002A8049001A8059004A806814481868193
:10F3000000A8801C08902A000E3204A9E888A3DF18
:10F31000002801D001E0EC81002011B0F0BD10B553
:10F3200082B003000C00002B01D0002C01D10E2074
:10F3300016BD206818602948588220791875FF206A
:10F340001874684601218170274901801A1D694699
:10F350000120A0DF002803D121001800FFF741FFA2
:10F3600016BDF2B586B0030001D10E2034E00020B6
:10F370006946097E1A7C91422ED0694600220024FB
:10F3800014C101246D462C80688006A801906A464D
:10F39000D988588AA4DF00281ED16846007E1874D8
:10F3A000588A0E49884216D0187D002813D002A82A
:10F3B0000021002200260027C6C002A8D9880180AB
:10F3C000847069888180684604900198059002A93C
:10F3D000588AA6DF00E0082007B0F0BDFFFF00005C
:10F3E000192A0000082900000F1800000870000A00
:10F3F00048700220704710B582B0040008881028B9
:10F4000004D0112804D0502805D013BD888800E00E
:10F41000BB48208413BDC888A289904211D1088AB4
:10F4200002280ED1206800280BD00800123000F00E
:10F4300074F9401E8041C00F6946087020002268A0
:10F44000904713BDF8B5050000266879002800D064
:10F4500004262220285C002802D030000226064321
:10F4600017000800FF2808DD310001260E43791C33
:10F47000FFF7BCFF401CC0B201E0787002204C21B5
:10F48000695A002902D0310010260E432C00009743
:10F490000200002508E0170000998918808CFFF70A
:10F4A000A5FF3A18D2B26D1C4C20215A8D4219DAB0
:10F4B0006800201823004C339B78971CBB42EAD28B
:10F4C0001700491B4A00010024312000243004F0B9
:10F4D0001DFD4C20205A401B4C21605200980670A4
:10F4E0003800F2BD1700F4E770B594B006000C00C8
:10F4F000032101A8FEF7B4FA01A811210170217BB4
:10F5000001AA51708178F9220A40022111438170C9
:10F510001C2108A8FEF7A4FA08A8007810210143CE
:10F5200008A80170002509950B950C9501A80D9070
:10F530000E9502A80121817072490180032168465D
:10F54000FEF78EFA607B69460870A07B48706846BB
:10F550008178E3220A40032111438170142103A81A
:10F56000FEF77EFA02A803906846049003AC0FAA47
:10F5700000213000FFF766FF208165811420A08103
:10F580000FA807903300083303AA08A9F088A2DF68
:10F5900014B070BDF1B58EB00C001C2107A8FEF7A9
:10F5A0005FFA02256846007F022101436846017721
:10F5B000002608960A960B960C960D96012701A830
:10F5C00087705149018003216846FEF749FAE07BC4
:10F5D00069460870207C487068468178E2220A40BB
:10F5E00015438570142102A8FEF73AFA01A802908B
:10F5F0006846039002A8078146818781A06806902B
:10F600000E9B103302AA07A90E98C088A2DF0FB084
:10F61000F0BD38B504000D002868206028796071BD
:10F620003748208400202222A0544C21605214200C
:10F630004E21605468460121817034490180A21D29
:10F6400069460120A0DF00280FD129002000FFF724
:10F650004BFF002809D1A868002805D02900200008
:10F66000FFF798FF002800D1002032BD70B58AB0A6
:10F670000400208C224A904221D005AA2000FFF7E6
:10F68000E1FE02006846028001A800210023002557
:10F6900000266AC001A82189018001218170838030
:10F6A0006846039005A8049001A9208CA6DF0028D5
:10F6B00006D169460988914202D00C2000E008205A
:10F6C0000AB070BD38B504000D004C20205A142833
:10F6D0000BD12622210026312000243004F016FC14
:10F6E0004C20205A401E4C2160524C20205A411C74
:10F6F0004C22A1522100243140000D5231BD0000A6
:10F70000FFFF0000372A0000382A00000D18000013
:10F710000178407800020843704780B5FFF7F8FF92
:10F72000C007C00F02BD0A780270497841700220FC
:10F73000704738B505000C002000FCF761FD2880FB
:10F740006C6031BD0870000A487002207047F0B547
:10F750008FB007000C0015001E00002C02D1002005
:10F76000FFF7CEFC684605802846002801D1FFF748
:10F77000C7FC684647801C2108A8FEF771F90225DE
:10F7800008A800780221014308A801700027099702
:10F790000B970C970D970E9702A80121817069466F
:10F7A00049880180032101A8FEF75AF9307869469B
:10F7B0000871707801A9487001A88178E2220A4096
:10F7C00015438570142103A8FEF74AF902A8039097
:10F7D00001A8049003A86946098801814781694608
:10F7E000098881810794149B03AA08A96A480088A4
:10F7F000A2DF0FB0F0BDF0B585B0040001A8012173
:10F80000817066490180644F3A0001A90120A0DFA0
:10F81000002843D12288002A09D0381D00902300F7
:10F820003C3361685E48FFF792FF002836D1228999
:10F83000002A0AD038000C30009023003C33E168E5
:10F840005848FFF784FF002828D1228A002A0AD0CE
:10F8500038001430009023003C3361695248FFF7B0
:10F8600076FF00281AD1228B002A0AD038001C30DB
:10F87000009023003C33E1694C48FFF768FF002803
:10F880000CD1228C002A0AD03800243000902300AA
:10F890003C33616A4648FFF75AFF002879D1228D30
:10F8A000002A0AD038002C30009023003C33E16A53
:10F8B0004048FFF74CFF00286BD1226B002A27D06D
:10F8C00002AB03CA083A187003CA083A0004000ED3
:10F8D000587003CA083A000C987003CA083A000E20
:10F8E000D87003CA083A1971906858719068000A74
:10F8F00098719068000CD871380034300090230063
:10F900003C33082202A92C48FFF721FF002840D1F0
:10F91000606B00280BD039003C31009123003C3350
:10F92000027901682548FFF712FF002831D1A66B44
:10F93000002E2DD002D10020FFF7E2FB02AD30787F
:10F940002870691C7088FFF7FDFE401CC0B2009053
:10F950002918B088FFF7F6FE00990818C0B2009089
:10F960002918F088FFF7EEFE00990818C0B20728A2
:10F9700002D00020FFF7C4FB380044300090230081
:10F980003C33072202A90E48FFF7E1FE002800D110
:10F99000002005B0F0BD0000FC3F00200A18000068
:10F9A000292A0000242A0000252A0000272A000016
:10F9B000262A0000282A0000232A00002A2A000004
:10F9C000502A0000A022D20580001018E022D200A8
:10F9D00080180268B14B13400360026809041143A8
:10F9E0000160704780B504F001FB02BDF1B582B043
:10F9F0000D0000246846007A04F00CFB04282FD286
:10FA00002900A74E42001218B5183718002917D040
:10FA100002291ED01ED22C78687800280DD0320022
:10FA20000E3271690A2041433000603000F0BDFDA4
:10FA3000002802D16846007AB073A878387409E0CB
:10FA40003000603000F012FEAC78387CA04207D164
:10FA500000E06C78200003D0F169002900D08847CD
:10FA6000F7BD80B502210078FFF7C0FF01BD00009F
:10FA7000F8B5070000200025894C617B002902D0E1
:10FA8000607304F080FA022601203900172966D835
:10FA900001A2525C52009744850B0B1C2634454B47
:10FAA00050565056A1636363636385888F96A1A106
:10FAB000002004F059FA002806D0002004F05CFA77
:10FAC000022F18D1122628E004F052FA022F24D077
:10FAD00015E0002004F048FA00281BD0002004F0B4
:10FAE0004BFA082619E0002004F03EFA002804D062
:10FAF000002004F041FA28260FE004F039FA042629
:10FB00000BE0002004F030FA002803D0002004F0BD
:10FB100033FA02E0002004F02BFA27730022616917
:10FB2000714317E0002004F041FA0620207307E03B
:10FB3000002004F01DFA07204EE0607304F036FA4E
:10FB40000022616906E0607304F030FA0022606907
:10FB5000810009182000203000F027FD050040E05A
:10FB60002000403000F082FD05001120C01B15D0A0
:10FB7000002D13D102280DD36669C82148436421A2
:10FB8000FCF7AEFE4643310000222000403000F07A
:10FB90000CFD0500022004F0EBF922E0022004F045
:10FBA000EBF91EE004F0EFF91AE004F0ECF90020A4
:10FBB00004F0DEF913200FE004F0E5F9012004F071
:10FBC000D7F9142008E004F0DEF9002004F0D0F9A1
:10FBD000012004F0CDF91520207302E004F0DCF9D7
:10FBE00027732800F2BD2E48017EC90700D4704754
:10FBF00080B5007BFFF73CFF01BD80B5022004F01B
:10FC0000D5F901BD01000020254A127ED20700D49B
:10FC1000704780B50800FFF72BFF02BD70B50500E7
:10FC20000E0000241E4846618561C261A8071FD5E9
:10FC300001220121200000F035F8641C042C01D2BF
:10FC40000028F5D0040005D17208042130A004F08A
:10FC50004FFA0400002C02D104F082FA0400002CB8
:10FC600006D11F4A002100BF28A000F075FC040047
:10FC7000E80701D504F0A6F9002C05D1194A0021A6
:10FC800020A000F069FC0400002C05D1164A0121D7
:10FC90001DA000F061FC0400200070BDFFFFFCFF10
:10FCA0003C3E002038B503000020042B16D2012A68
:10FCB00005D1012902D11A000E3200E000220B4CBE
:10FCC0005D00EB18E318002906D0022902D005D206
:10FCD0001A7032BD5A7032BD9A7032BD072032BDE3
:10FCE00063FA0100E7FB0100FBFB01003C3E002042
:10FCF00080B504F09FF90321FFE7FFF763FE0020C2
:10FD000002BD00005C3E00207C3E00209C3E0020A6
:10FD100011000300EDF9010012000300EDF90100EC
:10FD200013000300EDF9010014000300EDF90100D8
:10FD300080B5012202210020FFF7B4FF002801D086
:10FD4000072812D1072202210120FFF7ABFF00286C
:10FD500001D0072809D10A2200210020FFF7A2FFC5
:10FD6000002801D0072800D1002002BD80B5002066
:10FD7000FFF7BEFF002801D0062807D10120FFF7BA
:10FD8000B7FF002801D0062800D1002002BD10B521
:10FD90002C4C61680088102802D0112826D010BD94
:10FDA00000291FD101220020FFF77CFF002801D08D
:10FDB000072811D1072202210120FFF773FF002835
:10FDC00001D0072808D1042202210020FFF76AFF92
:10FDD000002807D0072805D0002803D02168002973
:10FDE00000D088476068401C606010BD491E61609B
:10FDF00007D1FFF79DFF002803D02168002900D01C
:10FE0000884710BDF8B50F00002400250D4E306066
:10FE1000002F0ED00120FFF7E5FD002801D00220C1
:10FE200004E0FFF7DFFD002802D00B20387000E06F
:10FE30003C707068002802D1FFF77AFF05002800A7
:10FE4000F2BD000008440020408862490A889042C0
:10FE500004D34988814201D30120704700207047B4
:10FE600038B55D4CE08B5D49884222D0217F491C2A
:10FE70002177227BC9B28A4208D3564975DF002810
:10FE800017D0A169002914D0884731BD00252577F6
:10FE9000217C002907D03B2176DF002803D0A1690F
:10FEA000002900D088476169002902D068460570A2
:10FEB000884731BD70B50600474C200031001C2238
:10FEC000FCF7CCF9002565773168424E002911D046
:10FED00030000822FCF7AEF930007ADF002808D1A4
:10FEE0003E48E08325773E4A002100BF3EA000F057
:10FEF00033FB70BD30007BDF0028F1D070BD38B51A
:10FF00000025354C3748FFF79FFF00281AD1607F46
:10FF1000002805D0616900291CD06A46157017E0D9
:10FF2000207F002801D1616800E0A1680022200044
:10FF3000203000F03AFB00280CD0A169002909D03C
:10FF4000884707E06169002904D001206A461070E3
:10FF500068468847657731BD38B5010000251E4CDD
:10FF600020480A88102A06D0112A0FD0122A29D038
:10FF7000502A0FD031BD8A88E28318310822FCF75D
:10FF800059F92577E089002822D11FE01348E08342
:10FF900025770CE0C888E289904219D1088A0228A6
:10FFA00016D108001230FFF7B8FB00280ED1200050
:10FFB000203000F05BFB00280AD0A169002907D09F
:10FFC000884731BD08310822FCF734F9FFF797FF65
:10FFD00031BD0000F8430020D8400020FFFF0000A2
:10FFE00061FE010000440020F8400020EFF3108083
:10FFF00072B6704762B6704710B582B00CA0006848
:020000040002F8
:100000000090FFF7F3FF0121164A5368002B07D138
:1000100051601549154B1C680C4014601960002193
:100020006A461170002801D1FFF7E4FF009816BD61
:100030000000000010B582B00A4C616800290FD0A2
:1000400000906846007800280AD1FFF7CFFF2168AA
:10005000074A116000216160002801D1FFF7CAFF43
:1000600013BD0000F0430020FC06FFBC80E100E06F
:1000700000E100E038B505000C0004F0FFF8286846
:10008000E96B2A6C5143401868600020A863286817
:10009000A8602868E96B491E2A6C51434018E86043
:1000A0000020C0436864A864002C0BD12869002894
:1000B00010D02800103001F07DF801280AD104F09A
:1000C000CCF807E02800103004F016F9280024309E
:1000D00004F012F904F0DAF8012032BDF8B5050099
:1000E0000C000026002C01D14C2001E060434D3073
:1000F00004F04AF907000CD0002C01D13F6001E068
:100100004C303860FD633C6401213800FFF7B2FFDA
:100110003E003000F2BDF6B585B000240127050091
:10012000039302940DE006992800103001F010F8B6
:10013000280000F09BF900F036FF002801D104F000
:100140008CF804F09BF8A86BE96B884242D30398C3
:1001500002283FD00698002837D00298002803D103
:10016000684601F057F8029704F090F800F008FF95
:1001700004F084F8686C0021C943884200D16C64A3
:10018000A86C884200D1AC6404F080F806A96846E7
:1001900001F047F800282CD104F070F8A86BE96B47
:1001A000884215D1012604F071F8002EBBD1280039
:1001B00000F05CF900F0F7FEC3E7002801D004F07E
:1001C0004CF804F063F8012019E004F05FF815E042
:1001D0000026E8E7039A0599280000F0F9F8696A13
:1001E0000029EAD02800243000F0E4FF0128E8D1FB
:1001F000E5E7280000F03AF900F0D5FE002007B04E
:10020000F0BDF8B504000D001600FFF7F5FE07007D
:10021000A06BE16B884202D3009802281BD1290011
:10022000009A200000F0D4F80125A06C0021C943F9
:1002300088420CD1606A00280ED02000243000F0E3
:10024000B9FF002808D0002E06D0356004E0A06C6D
:10025000401CA06400E000253800B5E0F8B50400BB
:100260000F00FFF7C9FE0500A06BE16B884219D2B1
:10027000A06B401CA0630126A06C0021C9438842EA
:100280000CD1606A00280ED02000243000F092FFCC
:10029000002808D0002F06D03E6004E0A06C401C6F
:1002A000A06400E000262800FFF7C4FE3000F2BD85
:1002B000FCB583B00F000025040031E0039800284E
:1002C0005ED0002D03D1684600F0A4FF012503F0A5
:1002D000DDFF00F055FE03F0D1FF606C0021C94343
:1002E000884201D100206064A06C884201D10020C6
:1002F000A06403F0CBFF03A9684600F092FF00283A
:100300005AD103F0BBFFA06B461EB641F60F03F0B7
:10031000BDFF002E37D1200000F0A8F800F043FE0A
:1003200003F0ACFFA06B0028C8D0049D3900E6683C
:10033000200000F088F8002D12D1A06B401EA063B1
:100340002068002802D101F0BDF860602069002813
:1003500012D02000103000F02DFF01280CD109E050
:10036000E660606A002807D02000243000F022FFF9
:10037000002801D003F071FF03F088FF012021E085
:1003800003F084FF1DE02068002806D103F076FF0B
:10039000606801F040F803F079FF039920002430F1
:1003A00000F0D6FE200000F061F800F0FCFD00280F
:1003B000B6D103F052FFB3E7200000F057F800F089
:1003C000F2FD002005B0F0BDFFF734FE2800F2BDBD
:1003D00070B50400100000250026226C002A08D108
:1003E000206800282AD1606801F044F806006560A2
:1003F00024E005000CD1A068FBF71CFFA068216C6D
:100400004018A0606168884218D32068A06015E099
:10041000E068FBF70FFF216C4842E1680918E160D2
:100420002268914202D261680818E060022D05D16D
:10043000A06B002802D0A06B401EA063A06B401CE4
:10044000A063300070BD0B00026C002A00D1704721
:1004500010B5C1688918C1604468A14201D3016820
:10046000C160C1681800FBF7E5FE10BD10B582B091
:10047000040003F003FFA06C00281DDD606A002863
:100480001AD02000243000F095FE002801D000F0A2
:10049000F5FEA06C401EA064EDE72069002815D091
:1004A0002000103000F086FE002801D000F0E6FEAB
:1004B000606C401E606406E00020C043A06403F04E
:1004C000E5FE03F0DBFE606C0028E6DC0020C043A4
:1004D000606403F0DBFE13BD10B50022064B1C6800
:1004E000002C04D1D2009A181160506010BD012276
:1004F0009C68002CF6D010BDD443002038B5050010
:100500000C0003F0BBFE00200021C9436A6C8A4244
:1005100000D16864AA6C8A4200D1A86403F0B6FED8
:10052000A86B002804D121002800243000F031FEFF
:100530002800FFF79BFF31BD80B500F052FA0100A3
:10054000087B002802D008688968884701BD401CE4
:100550005F49086000207047F8B504680025130063
:1005600001D0002801D10720F2BD207B00281AD13C
:100570006068002817D1002300260027C9C4103C5A
:10058000080000D00120A26052490091230002001F
:10059000FA21890050A000F0C1F86060002800D165
:1005A0000E252800F2BD0820F2BDF0B583B004008E
:1005B0001500676849480268521C45480068414375
:1005C000500808181100FCF78BF90600002F01D124
:1005D0000820FEBD207B002804D0380000F0F6F98A
:1005E000002829D12560EFF30580002826D00020BF
:1005F0000190009001AB32000921380000F0ABF807
:10060000012831D100F020FD0021009101AB020052
:100610000621380000F09FF8012825D10198002814
:1006200008D0802040052E49086040BFBFF34F8F9F
:10063000BFF36F8F012020730020FEBD02200090C9
:10064000002332000421380000F085F801280BD186
:1006500000F0F7FC02210091002302000121380084
:1006600000F079F80128E5D00420FEBD30B583B054
:1006700004006068002801D108203EBD0025EFF38A
:100680000580002818D00195009501AB00220821B3
:10069000200000F060F8012818D10198002808D047
:1006A000802040050E49086040BFBFF34F8FBFF365
:1006B0006F8F257300203EBD022000900023002292
:1006C0000321200000F047F80128F2D004203EBDAD
:1006D00020440020390502002000000008150140D8
:1006E00004ED00E01FB5002400F048F9B54881682A
:1006F00000290CD0039402940C3001900220009049
:100700000023502203A1B04800F010FB0400200099
:1007100004B010BD546D722053766300F7B5070026
:100720001E00002901D1002413E0282003F02CFE34
:1007300004000ED0089D0096029E00F01FF927606D
:100740000198A061E661009820626562201D002189
:1007500001612000FEBD7FB505000020994CA66810
:10076000002E18D000910192029506290DDA00F0B2
:1007700044FE022802D1089A002301E0002300224F
:100780006946A068FFF7C7FC05E01A000023694628
:100790003000FFF736FD04B070BDF0B583B0894F6F
:1007A0000EE000F000FC09E0711BB868FFF7A6FE40
:1007B00000F0F9FB002801D103F04FFD00F088F8AC
:1007C000386800260168002901D1012402E00024D4
:1007D000C068066800F0D4FB01A800F028F8050006
:1007E00001980028DDD1002CDED1B542DCD300F029
:1007F000DAFB3868C068C468201D03F0B2FDE06908
:10080000012810D133002A00A0693118200000F01F
:1008100045F8012807D10020009000233200002174
:100820002000FFF798FF2000616A8847C6E7F1B50E
:1008300082B000F006FC0700624E306987420BD39D
:1008400000200299086037613800FEBD60602461B5
:10085000211D306803F06BFD30680168002918D055
:10086000C0680568C468201D03F07BFD2000616A34
:100870008847E0690128EFD1A06928188542E5D3AF
:100880000020009000232A0000212000FFF763FFD2
:10089000E2E77168316070600120D2E738B500246A
:1008A00041600061474D8A4206D3D11A8269914264
:1008B00006D2011D686807E09A4203D2994201D32B
:1008C000012403E0011D286803F031FD200032BD42
:1008D00010B586B006E00398A0611300111820003F
:1008E000FFF7DCFF0023002202A936488068FFF7EB
:1008F000DFFC00283ED00298002803D50599049813
:10090000039A904702980028ECD4049C6069002860
:1009100002D0201D03F025FD01A8FFF788FF02008B
:100920000298022809D9001FD5D0401E1ED0401EB3
:10093000012802D9C01ECED0D4E7039BA0691918A4
:100940002000FFF7ABFF0128CCD12000616A884767
:10095000E0690128C6D10020009000230398A16916
:10096000421800212000FFF7F6FEBBE72000C0463A
:10097000C046B7E706B010BD0000000010B503F098
:100980007DFC104CA068002819D12000143003F021
:10099000B3FC2000283003F0AFFC200014302060AE
:1009A000200028306060002210212020FFF796FBF5
:1009B000A060002803D000BF0EA1FFF78DFD03F05B
:1009C00065FC10BDD44100209B07020010B5040057
:1009D00003F054FC6069002801D0012400E00024E9
:1009E00004E010B5040003F049FC246A03F04EFC57
:1009F000200010BD546D725100000000202804DA60
:100A00006D49C140C807C00F70470120704738B515
:100A10000400FFF7F3FF002801D1684832BDE00071
:100A20001821014020000322002805D5644B25072A
:100A30002D0F083DAD0801E0624B8508AD005B5904
:100A4000CB4099090A40032A0FD8002A0DD0022A68
:100A50000BD0E206D20E01215B4B5C68002C06D164
:100A600091406E480160002032BD6D4832BD4009A2
:100A700080001818036891401943F3E780B503F02C
:100A800029FA01BD70B582B0664C2078002836D0B6
:100A900000250026E06800281BD1012519E0002868
:100AA00002D0FEF72DFB1CE0009800F0A5FD2169A7
:100AB000002916D00098884713E0002802D0FEF7DE
:100AC0001FFB02E0A068E16888472E4217D1002E84
