:020000040001F9
:10B00000F8290020ADEE0100D7C00100B7C1010052
:10B010000000000000000000000000000000000030
:10B0200000000000000000000000000033C201002A
:10B030000000000000000000E3C4010037C501006B
:10B04000DDE90100B7C801002DEC01008FDC010033
:10B050007BEF01000000000061DF010087EF0100CD
:10B06000C3EF0100C5EF0100C7EF0100C9EF010008
:10B07000CBEF0100CDEF0100CFEF0100D1EF0100D8
:10B08000D3EF010025CD0100D5EF0100D7EF01007E
:10B09000BDCD0100D9EF01000FE80100DBEF010099
:10B0A000DDEF0100DFEF0100000000000000000004
:10B0B0000000000000000000000000000000000090
:10B0C000F0B5A3B006000C00289D00BF75A003C812
:10B0D0006F4603C7069404A83B21455400200F90F7
:10B0E0001700029312E03D000396060029780698A7
:10B0F000039A90470690002800D1B7E00F98401CB3
:10B100000F906D1C761EF1D1039E3F1938782528CB
:10B1100008D1002009900A900B900C900D900E9091
:10B120003C000FE06A460021C943380001F027F8CF
:10B13000040001D10F989BE0D5D50124E5E701007B
:10B1400001200843641C21782029F8D023290FD03E
:10B150002B2904D02D2907D030290CD08AE00100FA
:10B160000220084380B2EDE7020004201043F9E713
:10B1700001000820F5E701001020F2E700211191FD
:10B180000AE0119A464B9A4205DA93009A18520047
:10B19000511830391191641C21780A00303A0A2A7A
:10B1A000EFD321782E2903D00021C943109128E044
:10B1B000641C22782A2A0AD102990968029A11602D
:10B1C0000A68091D029B19601092641C19E02D2A5F
:10B1D00001D1641C00E00022002110910CE0002A43
:10B1E00009D1109B2E4DAB4205DA9D00EB185B0098
:10B1F000591830391091641C21780B00303B0A2B10
:10B20000EDD304A908872578290000BF27A000F006
:10B21000C7FF002801D0641C00E0002504A83A21E3
:10B220004554405C682804D12178682901D1622006
:10B2300005E06C2807D120786C2804D1712004A97E
:10B240003A228854641C14A808902378029A04A90E
:10B25000300000F069F8671C002807D114AA04A97F
:10B26000300000F001FA002800D44FE70020C0436E
:10B2700023B0F0BD2A2900D080E702990968029A1C
:10B2800011600A68091D029B19601192002A05D5F8
:10B290005142119102000420104380B2641C80E7E7
:10B2A000CBCCCC0C0000000000000000686A6C747D
:10B2B0007A4C00000B0062281CD068280DD06A2848
:10B2C00003D06C2823D0712821D11A68D21D072001
:10B2D00082431A6003CA1A607047002A196819600D
:10B2E000086803D0091D196000B217E0091D196034
:10B2F00080B217E0002A19681960086803D0091D98
:10B30000196040B20AE0091D1960C0B20AE0002AC3
:10B3100019681960086803D0091D1960C1177047C2
:10B32000091D196000217047F0B583B00C001600AC
:10B330001F0025693900253900D14DE11C3900D1A4
:10B3400084E0091F022900D880E00E3900D106E10F
:10B35000491F59D0093979D0891E16D0491E34D0D9
:10B36000491E022972D9091F2FD0491F00D196E02A
:10B37000491E49D0491E00D1E1E0C91E00D1FDE0BF
:10B38000891E41D0C91E3FD02CE13A21615C6C2955
:10B3900009D06069411C6161316831600A68091D2A
:10B3A00031602A5428E1316831600A68091D316032
:10B3B000009200210191C94321636A46210000F0F7
:10B3C000D5F9002800D417E103E1012231003A2029
:10B3D000205CFFF76FFF03C4083C002904DA6069B2
:10B3E000411C61612D210DE0208F810704D560692A
:10B3F000411C61612B2105E0C00722D56069411C19
:10B400006161202129541CE0002231003A20205C97
:10B41000FFF750FF03C4083C3820205C000710D51C
:10B4200003CC083C002901D100280AD02020384351
:10B43000782806D1606930212954401C411C616183
:10B440002F5460692818E060390084E03268D21D0A
:10B4500007208243326003CA326003C4083C03CC35
:10B46000083CC80F04D06069411C61612D210DE0CA
:10B47000208F810704D56069411C61612B2105E0A3
:10B48000C00704D56069411C6161202129546069AD
:10B490002818E0603900200000F08CFAACE03B2076
:10B4A000205C002804D00024E44300BF54A074E0D2
:10B4B0003A20205C622808D0682823D06A2812D05D
:10B4C0006C282ED071280ED02BE0306830600168D7
:10B4D000001D3060002903D10024E4434EA05CE04D
:10B4E000E06A087088E0306830600268001D3060F3
:10B4F000002A03D10024E44347A04EE0E06AC117CC
:10B5000003C279E0306830600168001D30600029B6
:10B5100004D10024E44300BF3FA03EE0E06A08807D
:10B520006AE0306830600168001D3060002903D196
:10B530000024E44338A030E0E06A08605CE0306852
:10B5400030600268001D30600020C043104003C41A
:10B55000083CE5607821200000F06CF94CE06C219B
:10B560003A22A154316831600A68091D3160002A0D
:10B570002AD10024E44300BF2DA00EE03A21615CF3
:10B580006C29EFD0306830600568001D3060E560E0
:10B59000002D06D10024E4432CA000F00DFE201A5B
:10B5A0002BE0266B002E03D5280000F029FE09E0D1
:10B5B00032000021280000F02BFE002801D0401BA3
:10B5C00000E03000A06117E0210000F0CFF8002873
:10B5D00012D50020C04310E06069411C6161252143
:10B5E000295409E06069411C616125222A54380010
:10B5F00002D0481C60616F54002003B0F0BD000011
:10B600007072696E74665F733A20256E2064697388
:10B61000616C6C6F776564007072696E74663A2055
:10B6200062616420256E20617267756D656E7400BD
:10B630007072696E74665F733A2062616420256C73
:10B640007320617267756D656E7400007072696E4B
:10B6500074665F733A2062616420257320617267AB
:10B66000756D656E74000000F8B506000C001700DB
:10B67000606B6169401A216A401AA169401A616AC7
:10B68000401AE169401AA16A401A00903820205CF3
:10B6900040070ED4009800280BDD05462021A06845
:10B6A000B047A06000285DD0E06A401CE0626D1EDB
:10B6B000F4D13A0063692100300000F0F2FC002868
:10B6C00050D1256A002D0ADD3021A068B047A06066
:10B6D000002847D0E06A401CE0626D1EF4D1A369E7
:10B6E000E2682100300000F0DCFC00283AD1656AF5
:10B6F000002D0ADD3021A068B047A060002831D0BD
:10B70000E06A401CE0626D1EF4D1E369E068A16963
:10B7100042182100300000F0C4FC002822D1A56AA4
:10B72000002D0ADD3021A068B047A060002819D0A4
:10B73000E06A401CE0626D1EF4D13820205C4007B6
:10B740000ED5009800280BDD05462021A068B047E3
:10B75000A060002806D0E06A401CE0626D1EF4D1B3
:10B760000020F2BD0020C043F2BD0000F0B5A7B03C
:10B7700007000C001500266B002E00D58A4E00F045
:10B7800053FD616B0A1800BF28A003C803AB03C3B5
:10B79000812A48D20020059700940290002E31DDC6
:10B7A00003AA296801A800F0EFFC04003BD4286834
:10B7B000002801D1641E36D4A64223DB00984069DC
:10B7C000001981280DD300200099486306AA00992A
:10B7D0000598FFF749FF0290002813D40020009934
:10B7E000486100984769220001A906A8C01900F025
:10B7F00021FD3819009948612868002802D02D1DC4
:10B80000361BCBE7059B009C0298002804D106AAB2
:10B8100021001800FFF728FF002802D100216161F4
:10B82000616327B0F0BD0020C043FAE700000000CC
:10B8300000000000F2B588B0040027690A466F2AAC
:10B8400001D1082507E0084620210143782901D0CD
:10B850000A2500E010253C2603CC083C06AB03C3B8
:10B86000642A01D0692A09D1002907DA06A803C889
:10B8700000220023121A8B4106A80CC006A803C898
:10B88000002920D100281ED1206B00281BD1082DB3
:10B8900058D13820205C000754D53B26302050E09A
:10B8A00000290ED53821615C14220A40102A08D1E3
:10B8B000616B6269891A226A891A081A002800DDF8
:10B8C000206209B0F0BD049401970395009606A884
:10B8D00030C80098401E02900090039EF717200089
:10B8E000290032003B0000F0D3FC3032D2B23A2AB9
:10B8F00003DB08A8007851381218019802994254C5
:10B900002000290032003B0000F0C2FC04000D00C2
:10B9100001D1002C06D00498C0680199009A8918BA
:10B920008842D6D3049C019F0398009E082809D121
:10B930003820205C000705D5B85D302802D0761E7F
:10B940003020B8553C20801BA061B919E160216B03
:10B950008842A5DA081A2062208F14490140218705
:10B96000AFE7F8B50024124D06000F00009214E076
:10B97000C00707D522002B003000390000F0BDFCC5
:10B9800006000F00009840100090200029002200BF
:10B990002B0000F0B2FC04000D0000980028E7D155
:10B9A00030003900F4BD0000FFFFFF7FEFFF000013
:10B9B00000002440F3B591B006AA03C802AB03C34C
:10B9C000202012A909780843019061280CD0119811
:10B9D000006B002801D5062004E005D101986728F6
:10B9E00002D1012011990863119803C84C00641515
:10B9F000641C13D10B0311D003201199886112A884
:10BA0000007861381A2804D252497944FF3147310D
:10BA100016E051497944FF31413111E04C00641581
:10BA2000641C13D10B0311D103201199886112A852
:10BA3000007861381A2816D348497944FF311F31FC
:10BA400003221198C06800F0F5FBCBE104000D0063
:10BA500092A003C82940002680277F03B94207D25D
:10BA6000002069400DE03E497944FF310B39E7E79A
:10BA7000080D884E3618200029008A4D0D40864951
:10BA80002943119B03C30198612813D11198C06801
:10BA900030210170811C119BD96012A9097861299C
:10BAA00001D1782100E05821417011984069801C33
:10BAB00011994861119830C878A003C820402940E6
:10BAC00004D1002802D16B46988082E10198612858
:10BAD00000D0ADE01198006B002801D5212000E0D6
:10BAE000401C04900498401C019002A803C8002246
:10BAF000002300F0C4FC02D2802000064540361F1F
:10BB0000009669460A7606A8461C0198002800DCC3
:10BB10006FE120002900002280235B0300F0C8FCB5
:10BB200000D966E16900490D0A001C32002919D0CC
:10BB3000002A17DDBA498A4206DB0805290080225F
:10BB400012061140014311E05649294010050843EF
:10BB500005000DE04C3400004C340000503400006F
:10BB600048340000290080221206114000240D00F4
:10BB70002000290000F0B6FC07000198C01F0190CA
:10BB800000280ADD380000F0E7FC02000B0020006E
:10BB9000290000F048FD04000D00F01D072104E01D
:10BBA000401E0F223A4002703F11002F01DD491E56
:10BBB000F6D5491E00D517E1401E00220270F8E7B5
:10BBC0000021030006ACE41801E0401E641E5B1E69
:10BBD00025788D42F9D00F2906D106A9491CC95CE8
:10BBE000491C06AC641CE154002B04D506AA401C79
:10BBF0000099091D0091431E11D4D41812A9097887
:10BC000025783035EDB2392D02DD0E003A3EAD1902
:10BC100025705B1E641E002BF2D512AB19701199B2
:10BC2000096B002900D4D1E0411E119B1963CDE0BE
:10BC300002A803C80022002300F021FC06D202A8BB
:10BC400003C880221206514002AA03C2754930007F
:10BC50004843754900F074FD009007200099401A90
:10BC6000049005DD024602A803C8FFF77AFE0AE049
:10BC7000424200206D49FFF774FE02000B0002A84B
:10BC800003C800F0B7FD019A662A0DD1009A0A3266
:10BC90000BE000BF02FCFFFF0000E03FFFFFFFFFE3
:10BCA000FFFFFF7FFFFF0F800622119B1B6B9A187F
:10BCB000142A00DD142230236C46237606AB5C1C6C
:10BCC00002E002A803C8049A002A3FDD02AB03C3C6
:10BCD000049202A803C800F017FC1090064608342E
:10BCE0000420059030000A2100F02DFD0F003000E7
:10BCF0000A2100F0E1FD06003037601E07703000B9
:10BD00000A2100F020FD0F0030000A2100F0D4FDD0
:10BD10000600A41E303727700598401E0590E1D11B
:10BD200008340498083804900028CADD109800F000
:10BD300003FC02000B0002A803C800F074FC002200
:10BD40003B4B00F0DAFA02AA03C2C2E706A8401C85
:10BD5000211A06A8421C009802E0491E401E521CEF
:10BD60001378302BF9D000900198662802D1009802
:10BD7000401C05E00198652801D1012000E0002069
:10BD8000119B1B6B1818814200DA481E00281DD435
:10BD9000884204DA115C352901DB392300E03023C5
:10BDA0000400511E0D1901E0401E6D1E641E2E7808
:10BDB0009E42F9D0392B02D1135D5B1C1355002C28
:10BDC00004D50A00401C0099491C009169468880EE
:10BDD000009800B20090019B1BB212A80178119844
:10BDE00000F028F813B0F0BDC61D0198002800DD52
:10BDF0008FE606A8401C311A06A8421C049881420E
:10BE000000DC0800002800D509E7884200DBD7E6FF
:10BE100006A9491C095C072900DCD1E60F21D0E600
:10BE2000FF07000097750000A08601000000F03FAA
:10BE300084D79741F4B584B004000E001D0000F0D3
:10BE4000A9F96946406A00780870276B002D03DC69
:10BE5000012500BF9FA0049020203043662803D115
:10BE60000A9E36B2761C19E0672800D082E00A9854
:10BE700000B20321C943884200DA7FE0B8427DDA8C
:10BE80000A9E36B2761C3820205C000702D4BD42E0
:10BE900000DA2F0036B2BF1B00D50027A169E06889
:10BEA000401836B2002E25DC491C30220270002FCB
:10BEB00003DC3820205C000704D568460078E2687F
:10BEC0005054491CA1617042874200DA7E4236B26A
:10BED00070426062BE19AE4200DA35002DB2E561F3
:10BEE0002A000499E068A369C01800F0A3F9701B48
:10BEF000A062C0E03200954217DA2A00049900F0EF
:10BF000099F9A0694019A061711B6162002F03DCDF
:10BF10003821615C090706D569460978E268115441
:10BF2000E069401CE061A762A5E0049900F082F995
:10BF3000A0698019AD1B002F03DC3821615C090763
:10BF400004D569460978E2681154401CA0612DB2FD
:10BF5000AF4200DA3D002DB22A0004988119E06852
:10BF6000A369C01800F066F9A0694019A061781BA8
:10BF7000606280E0612E11D1702612E0BD4204DAC9
:10BF80003821615C090700D42F007F1E00D50027EF
:10BF9000672E01D1652604E0452602E0412E00D13E
:10BFA0005026A069411CA161049A1278E3681A54D2
:10BFB0000498401C0490002F03DC3820205C00070C
:10BFC00018D5481CA0616A461278E3685A54002FBD
:10BFD00010DD6D1E2DB2AF4200DA3D002DB22A00F9
:10BFE0000499E368181800F025F9A0694019A061C8
:10BFF000781B6062E068A169401806700A9909B26E
:10C00000002903D42B214170851C07E02D214170AC
:10C01000851C68460A9909B24A420285002701A98F
:10C020000A9800B207E00A2100F08AFB009B197011
:10C030007F1C0099491C009100B20028F3DC012FFD
:10C0400006DC20203043652802D1302028706D1C8A
:10C05000002F09D1302028706D1C07E07F1E01A839
:10C06000C05D303028706D1C002FF7DCE068A169DE
:10C070004018281AE0613820205C14210140102962
:10C080000DD16069A1694018616A4018E1694018E2
:10C09000A16A4018616B884201DA081A206205B073
:10C0A000F0BDF8B50026002B12D000900F00140050
:10C0B0001D002178B868009A9047B860002806D023
:10C0C000F86A401CF862641C6D1E01D0F1E7F6436B
:10C0D0003000F2BD3000FEE7613807E005E0010006
:10C0E00061391A2901D20120704741381A2880414C
:10C0F000C00F7047010021390F290AD301003A39D6
:10C10000062906D901005B39062902D37B380428A9
:10C11000EDE7012070472048704730B45368D418C9
:10C12000042B0BDA002909D0057825700578002D3D
:10C1300004D05B1C491E641C401CF1E7536030BCFA
:10C14000704738B500290ED01D001400FFF7E5FF39
:10C15000616820006A6B90470122D243811A02D0A5
:10C16000491E02D004E0012000E00020C04332BD9F
:10C170000021616032BD80B5DA6B904702BD80B5A9
:10C18000054BFFF7DEFF02BD80B5034BFFF7F3FF62
:10C1900002BD0000014870479C190020641900206E
:10C1A00000BFC9B200E0401C02788A4202D0002AD7
:10C1B000F9D100207047FEE780B5002801D100BF0B
:10C1C00007A006490B68002B03D0222200219847C4
:10C1D00001E000F08CFB222002BD0000EC210020D9
:10C1E000636F6E73747261696E742068616E646CE3
:10C1F00065723A20626164206D65737361676500E2
:10C20000010000E0491C0A78002AFBD1081A704797
:10C21000C9B201E0401C521E002A03D003788B42B1
:10C22000F8D170470020704780B5FFF774FF006CAD
:10C2300002BDFEE7124207D08B0706D00B78491CDF
:10C240000370401C521EF7D87047830706D00B7846
:10C25000491C0370401C521EF9D1704770B4103A4B
:10C2600003D378C9103A78C0FBD2530701D318C959
:10C2700018C001D508C908C0D20704D30B880380B1
:10C28000891C801C002A01D50B78037070BC704794
:10C29000124224D0994228D970B500251B4202D001
:10C2A0000C00002109E00024012649186441944251
:10C2B00000D3A41A7641F8D33100012601E076417B
:10C2C00009D2001864416D41A41A9D41F7D2A41807
:10C2D0005D41B619F5D3300022002B0070BD1B4222
:10C2E000D8D108B5C046C04608BD01D19042D3D2CE
:10C2F00002000B00002100207047F0B50E005E40E8
:10C300000125ED072E40B446AE0ADF184C18F44262
:10C3100008D2F7420ED2640D01D07F0D12D1002059
:10C320006146F0BD05D1F74201D87F0D05D100204F
:10C33000C143F0BDFBD1640DF9D00020C1434905D4
:10C3400049088FE0E419C902DB0229432B43DB0AC9
:10C35000460DC00231438E4630B487B295B27D435C
:10C360002E0CADB2140C7C43A419260C24042543D6
:10C370009CB27C43A419190C7943270CC919A4B2A7
:10C380000F043C43090C000C97B247432E0CBE1916
:10C390003543ADB2170C4743360CBF19A6B2BF19CF
:10C3A0003E043543240C3E0C36199FB24743BF1957
:10C3B000BCB23E0C89191F0C47437F183E0434431E
:10C3C000390C704680B297B247432E0CBE193543E4
:10C3D000ADB2170C4743360CBF19A6B2BF193E04C5
:10C3E0003543240C3E0C36199FB24743BF19BCB2EB
:10C3F0003E0C89191F0C47437F183E043443390C07
:10C4000077463F0C90B278432E0C80190604ADB2EB
:10C410002E43050CA0B22D18120C7A435019020CB1
:10C4200080B2240CA4189AB27A431219140420433F
:10C43000120C89181B0C7B43C91830BCEF0A394217
:10C4400003D1B61940414941641E6F12BF0DE41B70
:10C450000BDBFF19BC4211DA240500274208AE416C
:10C460007841614166463143F0BD641C05D1401CF2
:10C470006141CF0201D34908F4E750E75DE730B4EA
:10C48000012464054D00EC420BD85D00EC4208D855
:10C490000C001C4364000443144304D2994200D1AD
:10C4A000904230BC7047FCD08B42FAD18242F8E710
:10C4B00030B4012464054D00EC420BD85D00EC4221
:10C4C00008D80C001C4364000443144304D28B427C
:10C4D00000D1824230BC7047FCD09942FAD19042E0
:10C4E000F8E7FEE7F4464A1805D200F00FF801D548
:10C4F00080174008604700F009F80121C907884209
:10C5000000D90800404260474A1812D2400DC902C3
:10C5100008430121C9070843520D40210901521A5D
:10C52000521C06D452421F3201D4D0407047C0176B
:10C53000704700207047FEE7010042221201D21E20
:10C54000004207D002D4521E0018FCD5C10A400593
:10C5500012058918704700000100EED54042F446EC
:10C56000FFF7EBFF0122D207114360478B4200D156
:10C57000824205D98446100062468C461900634603
:10C58000DF184C18640D7F0D3AD0661C760537D045
:10C59000E61B352E34DCDB022B43DB0A0C0DC90213
:10C5A0002943C912202E0DDB1700203E06D01F00A4
:10C5B000F741F3405F400026012A7741C0187141DE
:10C5C0000DD217E01700F741F2405740F3415A40AF
:10C5D000B340F3405A400026801859410AD3A21CA8
:10C5E00052050FD0C207012F724117004008CB0738
:10C5F00018434908641C24054208AF417041614159
:10C60000F0BC7047641C21050020F9E76B4010E086
:10C610006B40ABE7F742F3D1E943F1E72442EFD1B6
:10C6200000200021ECE7F0B40125ED070F005F408A
:10C63000EED40C00871A9C4105D2C01BA141D2192F
:10C64000634169406B40AE0ADF184C18F442E1D2F6
:10C65000640D7F0DE2D0E61B362ED1DCDB022B43CE
:10C66000DB0AA4460C0DC9022943C90A012E28DCA5
:10C6700004D1D6075208DF073A435B08EF0A764237
:10C680009041994114D039423BD1B61940414941BA
:10C69000761C394204D1761C001849413942FAD03F
:10C6A000B9436746B74208D9A41B24052143A7E72D
:10C6B0000042EAD13642E8D1A2E7E40AE1070020CD
:10C6C0009EE7202E0BDD203E1F00F340F7415F4028
:10C6D000012A002257417E42984191410BE0170008
:10C6E000F741F2405740F3415A40B340F3405A40BB
:10C6F0007E42904199410A0303D2641EB61940411B
:10C7000049410027641E24054208AE417841614139
:10C71000F0BC7047F446002804D4494200F013F8F6
:10C72000404260474042002905D45FD000F00BF83A
:10C73000404249426047494200F005F8494260479B
:10C7400003460B43E6D40022030A8B420BD20309B3
:10C750008B4219D243088B422ED2411A00D2014695
:10C76000524110467047FF2209023FD012068B4209
:10C7700005D3121209028B4201D3121209020309D6
:10C780008B4219D300E0090AC3098B4201D3CB01C4
:10C79000C01A524183098B4201D38B01C01A524106
:10C7A00043098B4201D34B01C01A524103098B420A
:10C7B00001D30B01C01A5241C3088B4201D3CB00F5
:10C7C000C01A524183088B4201D38B00C01A5241D8
:10C7D00043088B4201D34B00C01A5241884200D318
:10C7E000401A5241CFD201461046704708B5C046A4
:10C7F000C04608BDF0B40E005E400125ED072E4096
:10C80000B446AE0ADF184C18F4423BD2F74241D28C
:10C81000640D43D07F0D38D0E41BC902DB022943ED
:10C820002B43CF0ADB0A0600B61A9F4104D2641ECE
:10C83000B6197F41B6185F416812800D24180018A0
:10C84000844222DAE80C0021B6197F41B61A9F41D2
:10C8500002D2B6185F413F1C40414941F4D3241C29
:10C8600021DD2405B6197F41B61A9F4105D3374310
:10C87000C60737430026012F7041614166463143A8
:10C88000F0BC7047FCD1F74205D20020C1434905F6
:10C890004908F3E704D00020C143F1E77F0DFAD047
:10C8A00000206146ECE72442FAD1401C61410F03AD
:10C8B000F6D30020E2E7FEE7094214D088420FD306
:10C8C0000122030C01D100041204002300185B4173
:10C8D0008B4200D35B1A5241F8D319001000704705
:10C8E00001000020704708B5C046C04608BD80B5AD
:10C8F000012000F001F801BD202109032631182094
:10C90000ABBEF9E718B5C20018231340FF249C40C2
:10C91000E2438907090E9940002804D59A4B000785
:10C92000000F083800E0994B800880001818036851
:10C930001A401143016011BD00280FD094490968C5
:10C94000BE4A00BF00BF00BF00BF00BF00BF00BFA6
:10C9500000BF914200D000BF0138F2D1704738B516
:10C96000802080028B4908608B4880214902016445
:10C970000160B34C012525602F20FFF7DDFF6560C6
:10C98000BB4C002525612F20FFF7D6FFA57231BDD6
:10C99000F8B5B74C2578E0680090002217E0080051
:10C9A000C969002913D0B942F9D1884207D1F66983
:10C9B000E660002E03D1AF4E33602261E3720B6854
:10C9C000C969C161002902D00868C0180860E6681A
:10C9D00001236178E8B2884218D06068EDB218216E
:10C9E000694340186D1CA778E9B2B94200D100250F
:10C9F0000178022902D003290FD0E8E74768300008
:10CA00000100CEE70274C069E06006E0009886424B
:10CA100001D00120F2BD0020F2BDE0680028D6D090
:10CA2000F0E7F1B581B0924CE0680090002300E09F
:10CA3000E260E0680121019A002A2CD12278657811
:10CA4000AA4250D0656818265643AD19521CA778E3
:10CA5000D6B2BE4200D1002222706A682E78012E22
:10CA6000ECD1167C002EE9D1AE685660EE68966077
:10CA70002E69D6606D699561E57A002D00D053600E
:10CA800055682669AE1B3602360AA54FBE4205D24E
:10CA9000956875190AE0D5690195F1E72669751B56
:10CAA0002D022D0A9668B54202D2751B156000E072
:10CAB0001360536093601174D3610028B8D001688B
:10CAC0001568A94203D3491B0160D061B0E701009A
:10CAD0000E68AE420CD2AD1B0800C969002909D00E
:10CAE000F6E70020F6BD009A9042FAD00120F6BD8C
:10CAF000761B0E601560D161C2619AE7FEB55C4895
:10CB0000C06800283DD000680290A94C20680090C1
:10CB1000574800690190A74D00980199461A2E4088
:10CB2000F61C8027BF025248807A002810D1A24804
:10CB3000790801640160B8480760B84807600120BF
:10CB4000B74908602F20FFF7F7FE01204849887297
:10CB50000298864200D20600019880192840E063BE
:10CB60002168009A801A2840891A0D40ED1CA842BD
:10CB700009D22068E0632F20FFF7DEFEC14807607E
:10CB8000F7BDFFF7ECFEF7BD1CED00E000E400E0B0
:10CB90006019002080E100E008130140FEB500208C
:10CBA0000090334C20690190E1680291217A627A09
:10CBB00091420DD0491CC9B2022900D100218A003E
:10CBC000A2185769C0190002000A2061012501E07E
:10CBD000002700252172FFF7DBFE0600E068002D2C
:10CBE0001CD000210FE07F1B491900251D6000901B
:10CBF000D869DD68002D07D0019E76183602360A06
:10CC00005E609D60DA61009A002815D003001D68FF
:10CC1000AF42E8D20092E91B19600126E06000985B
:10CC2000FFF7FFFE002801D1002E02D00298FFF787
:10CC300065FF0020E072F7BD0092EEE70024F400EB
:10CC40000410014030B5994A51784B1C9578DCB2FC
:10CC5000AC4200D100231578DCB2AC4201D10020F7
:10CC600030BD0370506818225143401830BD000099
:10CC70008021002008100140F2B582B004001700A6
:10CC80001D000020002669460870684600F01AF969
:10CC900000A8401CFFF7D6FF002801D104260DE0B4
:10CCA0000299012202704460414A12688260C160A8
:10CCB00007614561684640787C494870684600785D
:10CCC00000F017F9002E03D1802040036D49086061
:10CCD0003000FEBD70B582B005000C0000200026BB
:10CCE00069460870684600F0EDF800A8401CFFF7A0
:10CCF000A9FF002801D1042605E0047045606846BC
:10CD000040786A4948706846007800F0F2F8002ED2
:10CD100003D1802040035B490860300076BD0000ED
:10CD2000FFFF7F00F8B56248002707644764876407
:10CD3000C764076047605D4EF568002D37D000245A
:10CD40001B4800683169401A0002000A00902868F8
:10CD50000099814218D3091A009124182800ED691E
:10CD6000017C00290ED0077442698169F369002BA8
:10CD700006D010009847002804D000F0D7F801E052
:10CD800008009047002DE2D1707A317A814205D1B6
:10CD9000401C7072C0B2022800D17772300014308B
:10CDA000717A890044508020400336490860F1BD03
:10CDB00004150140FFFFFF000413014080B5FFF799
:10CDC000EDFE01BDF8B51400920701D1002C01D190
:10CDD0000720F2BD1E000F000090FFF7C0FD334D8D
:10CDE000EE6100202880AF706C60E86028818024AC
:10CDF00064030948046003211420FFF783FD0748FA
:10CE000004602C4C0098606003211120FFF77AFD2C
:10CE1000206828610020F2BD80E200E000E100E02F
:10CE200000100140214B5B68002B09D0130001D09A
:10CE3000002801D1072070470068037C002B01D037
:10CE4000082070470374417442610020704780B528
:10CE50001300164A5268002A08D0002806D0052977
:10CE600001D2072002BD4269002A01D1082002BD7B
:10CE7000427C012A01D10A0000E00022FFF7FCFEFB
:10CE800002BD000000E200E080B5084949680029C1
:10CE900004D0002802D04169002901D1082002BD38
:10CEA000002101740221FFF715FF02BD802100203F
:10CEB0000011014004150140EFF3108072B6704775
:10CEC00062B6704738B50400FFF7F6FF0121134A38
:10CED0005368002B07D151601149124B1D680D405A
:10CEE0001560196000212170002801D1FFF7E8FFCB
:10CEF00031BD10B5094C616800290CD000280AD159
:10CF0000FFF7DAFF2168084A1160002161600028FC
:10CF100001D1FFF7D5FF10BD00000000E421002083
:10CF2000FC06FFBC80E100E000E100E010B584B049
:10CF3000040068460C2100F037F802946A4600218C
:10CF4000014800F033F81FBD014000001206130A2B
:10CF50001A43130C1A4300BF094205D083070BD0B4
:10CF60000270401C491EF9D1704700001206130AD6
:10CF70001A43130C1A4300BF130030B414001500F9
:10CF8000103902D310393CC0FCD2490700D30CC081
:10CF900000D504C0890002D30280801C002900D57E
:10CFA000027030BC704700000022E5E780B50A49F6
:10CFB000012000F071F800F027F800F0ABF800282D
:10CFC000FBD100BEBFF34F8F044805490860BFF393
:10CFD0004F8F00BFFDE700BF88EF01000400FA0596
:10CFE0000CED00E070B50600002000F047F90400E9
:10CFF00008D100F082FA050000F07DFA3200290025
:10D0000000F007F8200070BD80B5012000F036F96F
:10D0100002BD80B53C4AFF23936000231360536038
:10D0200000F001F801BD394A1060516070470000FE
:10D03000F8B50F00441C0125002669460E706846AD
:10D04000FFF740FF3249086838608B680A68581C4F
:10D05000801A4F68C719601C87420FD2002F0BD06F
:10D0600013409800081800BF08A292022923134316
:10D07000C3600868401C0860002501E010190860C2
:10D0800068460078FFF735FF2800F2BD4F766572DD
:10D09000666C6F770D0A0000F8B506000C001C4D99
:10D0A000AF6869460020FFF7C3FF00280AD0009848
:10D0B0000740B80028187107890EA2020A4301210F
:10D0C0001143C160F1BDF4B582B006000C00104DF3
:10D0D000AF6869460120FFF7ABFF002813D0029923
:10D0E0002A000C3200983840800073079B0EA4027F
:10D0F0001C4341232343135028000C30009A521C38
:10D100001740BA008150F7BDE4190020F41D00203B
:10D11000E4190020F0B58DB0554C6168206881425B
:10D1200000D19FE0A76820000C303A000A4092002E
:10D1300080584E1C0322079109E06818361807969C
:10D1400020000C303900314089004058761C83099A
:10D150009905890D850D1042EFD005970690684618
:10D16000069FBF067F0F07748220C0002018019021
:10D1700006980240022A4FD120000C30059A324016
:10D1800092008258761C0B960A910B9905980840DC
:10D190000599491C091A890023000C3380001818CE
:10D1A000019B5B680993A94216D2002905D1200092
:10D1B0000C3008902800002304E0089008002300A9
:10D1C0000C33691AC9B203910293C0B20190089856
:10D1D00000900A9B002105E0002103910291019536
:10D1E00000900A9B6846007C099EB047A84204D183
:10D1F0000B98ED1CA90845182FE021000C31079A67
:10D20000059B13409A00069B1A4D1D4080011A4B46
:10D2100003402B438B5021E007A80699890A02910D
:10D220001907090F00223500059B09E026000C367E
:10D230001F002F40BF00F65906606D1C001D521CD8
:10D240008A42F3D3009107AB029A00216846007C22
:10D25000019E3668B047002800D06560606821688C
:10D26000884201D1002000E001200DB0F0BD000097
:10D27000E41900203F00FFFFC0FF000038B50500A3
:10D280009F4C2078002802D061788D4204D000F0B5
:10D2900001FA012020706570002032BDF8B500252C
:10D2A0000A2607000C0022007919002000F0C2F9BC
:10D2B0002D18241A002801D1761E01D0002CF2D19D
:10D2C0000120F2BD002901D50020704702685118E5
:10D2D000016001207047000038B503000D00140004
:10D2E0000120002B0AD01B6888A20102280000F050
:10D2F000DDF901002000FFF7E5FF32BD00212160CC
:10D3000032BD0000F0B5C7B0080016001D000024B3
:10D31000059405AA06A9FFF7DFFF002846D04C991F
:10D320002800350006AA059BD71880267600062916
:10D330002ED801A2525C97440622423E3A36320071
:10D340002800FEF75DFF040005982018B0421FD2A8
:10D35000220029003800FEF76DFF19E003682A005B
:10D360000598311A380000F0A1F910E041690491E4
:10D3700001690391C168029181680191416800913E
:10D3800003682A000598311A380000F08FF904006C
:10D39000210005A8FFF796FF002807D00598B042A6
:10D3A00004D8014606A8FFF779FF00E0002047B047
:10D3B000F0BDF0B5C7B0080014004F9900220192EB
:10D3C00002934D9A51180591002801D00A2100E0DE
:10D3D00000210391002B16D101AA06A9FFF77CFFBB
:10D3E000002871D02000FEF70BFF0500C22D00D9E8
:10D3F000C2252A00210006A8019BC018FEF71AFFCB
:10D4000001984019019006A801994418039A8918B7
:10D41000451831351046002806D02022014620004C
:10D42000FFF794FD03982418102602980599884266
:10D4300007D3202020706070A070E41C28706D1C41
:10D4400028E04D998842684602D24C99029A03E03E
:10D450004E99029A4D9BD21A895C0170022069464E
:10D460000F780100481E002930D081003A00CA40E0
:10D470001107090F0A2901DA303100E03731621C47
:10D480004342D154EDE76846007804990870029849
:10D49000401C0290761EC8D10D2028700A206870AA
:10D4A00020202070019803994331401801900146D3
:10D4B00006A8FFF7F3FE002805D00020019002988F
:10D4C000059988429FD3029847B0F0BD2020A070F4
:10D4D000E41C04956D1C380020385F28D3D3380035
:10D4E00000F00AF90028CED1380000F00EF900282B
:10D4F000C9D12E20C9E70348704703487047000090
:10D50000F021002005D30100B3D301005B253038A2
:10D51000645D000010B55D4C02202061606100BFB9
:10D5200011A0A06121007831E16180218900216290
:10D530000021A1626162E162A0649E208000201847
:10D54000E06410202065A1656165E165042250A1B9
:10D55000E01DFEF76FFE072206A12000FEF77EFE0B
:10D560002020A07110BD00005465726D696E616C61
:10D57000000000005345474745520000F0B583B016
:10D580000026C76801900C001500019800690199F8
:10D590008968C91B874201D2C01B00E00818401EE1
:10D5A000884200D30800A84200D928000090024613
:10D5B000210001984068C019FEF73CFE009836181B
:10D5C00024182D1A3F1801988068874200D100273F
:10D5D0000198C760002DD8D13000FEBDF8B5040019
:10D5E0000F001500E668A068801B00906068801935
:10D5F00000998D4205D23900FEF71CFE7019E060DB
:10D60000F1BD0A463900FEF715FE00982D1A2A00D2
:10D6100039186068FEF70EFEE560F1BD0169C26869
:10D620008A4204D38068401E801A40187047881AC6
:10D63000401E7047B0B50F00140014491822504323
:10D640000D1818356869002803D0022813D006D3B6
:10D6500018E02800FFF7E2FFA04206D212E02800FF
:10D66000FFF7DCFFA04200D80400220039002800A8
:10D67000FFF7B4FF07E0220039002800FFF77EFF24
:10D68000040000E000242000B0BD0000FC1D0020CC
:10D690005254540004480078002800D0704780B5E8
:10D6A000FFF738FF01BD0000FC1D002008B410B5D5
:10D6B00085B007AB049300240394002902D10194A0
:10D6C000029402E00190491E0291009404AB01A96A
:10D6D000084878441E30FDF7F3FC0199002900D07A
:10D6E0000C70002800D4039805B0019910BC02B05A
:10D6F000084700BF2D18000010B50400FEF70BFD11
:10D70000010020000969884710BD10B50400FEF72C
:10D7100002FD01002000C969884710BD0870000A99
:10D720004870022070477CB504000D00288809303D
:10D73000824201D20C2076BD684671DF00281FD1DD
:10D740000820298860542888401C28801B2180B22A
:10D7500021542888401C28806E460622711C80B205
:10D760002018FEF767FD2888801D28803178002961
:10D7700000D0012180B221542888401C288000203C
:10D7800076BD70B582B004002578012D04D1607893
:10D79000002801D1072076BD1688B01C834221D312
:10D7A000012D04D160783018801C83421AD30D00FB
:10D7B000981B831E68460380694610882818801CC1
:10D7C0007DDF00282ED12178082002290ED16C4659
:10D7D000248899B2A14207D269460B80694609881C
:10D7E000FF290DD30C2076BD0920F7E70129F3D1DD
:10D7F000667899B2B14200D931006B461980EDE7E5
:10D8000069460988491C1388E9541188491C11800C
:10D8100089B268541088401C1080694609884018F5
:10D820001080002076BDF0B585B00A9C0B9D0026C7
:10D83000278802970027039068468170427085858B
:10D8400021E0022021886A46928D6D462D784D197F
:10D85000281882423FDB002E09D1491C21806846EE
:10D86000807889B258542088401C20800126208866
:10D870001A18694601A865DF002821D12088097897
:10D88000401820807F1C0398008887421ADA01A87C
:10D8900003994968BA0089180A8802804A88428038
:10D8A0000022694665DF00280AD168460078497879
:10D8B0008842E7D1002EC4D00020C3E7585400208E
:10D8C00005B0F0BD002EFAD020880299401A401E03
:10D8D00080B2FF28F2DD0C20F2E7F1B582B014002F
:10D8E0001F00089E099D019500960222FFF79BFFED
:10D8F000002807D12100019500963B0010220298D4
:10D90000FFF791FFFEBD7CB582B00200029805884A
:10D91000A81D834201D20C2011E000921088062835
:10D920000CDB1E4B1E4CA04201DB984206D15688F0
:10D93000062E03DBA64204DB9E4206D0072004B07D
:10D9400070BD984201D08642F8D30C000520605586
:10D9500002980088401C02990880122180B221544C
:10D9600002980088401C0299088080B22118009813
:10D970000088FFF7D3FE02990988081802990880E9
:10D9800080B2211800984088FFF7C8FE02990988E4
:10D990000818029908800020D1E70000FFFF00006E
:10D9A000810C000070B504001500A088801C2A8836
:10D9B0001618B61CB34201D3FF2801D30C2070BD4A
:10D9C0000E00401CB0542888401C2880FF2180B2E3
:10D9D00031542888401C288080B231182088FFF7F5
:10D9E0009DFE298808182880A288002A0CD0A168EA
:10D9F000002901D1072070BD80B23018FEF71AFC53
:10DA00002888A18840182880002070BDF8B5836A56
:10DA1000002B39D0002500900F00160022E0401C9A
:10DA2000318878543088401C3080162180B23954B7
:10DA30003088401C308080B239182088FFF76EFE95
:10DA4000318808183080A288002A0AD0A1680029ED
:10DA50001AD080B23818FEF7EDFB3088A188401844
:10DA600030806D1C00992C22895CE8B288420DD26E
:10DA70000098806AEDB20C2169434418A088801C8C
:10DA8000FF28CCD30C20F2BD0720F2BD0020F2BD50
:10DA9000FEB506000D001400002021886A461181A1
:10DAA00020802D21715C002907D068460289210061
:10DAB0002800FFF738FE002845D169460F89B17864
:10DAC00000291DD02088001D87423BD3684679DF9E
:10DAD000002838D10320218868542088401C2080E9
:10DAE000192180B229542088401C208080B2291836
:10DAF00068460088FFF712FE218808182080002061
:10DB0000F2780221002A14D052B22388D81C87420E
:10DB100018D3E9542088401C2080012380B22B5464
:10DB20002088401C208080B22A542088401C2080FD
:10DB300000207268002A17D0002010562288D31CBB
:10DB40009F4201D20C20FEBDA9542188491C21808E
:10DB50000A2289B26A542188491C218089B26854FA
:10DB60002088401C20800020318900290CD0684684
:10DB70000089019000942B00062202213000083019
:10DB8000FFF7ABFE00284ED1318A00290CD0684641
:10DB90000089019000942B000722032130001030EF
:10DBA000FFF79BFE00283ED1318B00290CD0684640
:10DBB0000089019000942B001522142130001830A8
:10DBC000FFF78BFE00282ED1376A002F08D0684659
:10DBD0000389220029003800FFF795FE002822D192
:10DBE000776A002F08D06846038922002900380090
:10DBF000FFF7D8FE002816D12C21715C002908D02F
:10DC000068460389220029003000FFF7FFFE002844
:10DC100009D13178002906D06846038922002900FD
:10DC20003000FFF7AEFDFEBD70B592B00C001F21B5
:10DC30006A4651801180002500280AD0C178490722
:10DC40000FD5921C09A9FFF723FF00281DD109AEAB
:10DC500002E0002669464D8020000CD0C1780029E2
:10DC600001D0072011E06A4601A9FFF711FF002843
:10DC70000BD101AA02E000226846058068460388AD
:10DC8000DBB24188C9B2300072DF12B070BDFEE76E
:10DC90005B4940180068012800D00020704730B56B
:10DCA000039D049C52000A43990011432A020A432F
:10DCB00021041143534A8000115030BDA022D205E7
:10DCC00080001018E022D200801802684E4B1340EA
:10DCD00003600268090411430160704738B56B4660
:10DCE00008A425681D60030008E06C469D00645987
:10DCF000A225ED0064591460121D5B1C4418A34258
:10DD0000F3D331BD00000050012243075B0F9A405E
:10DD1000C008085C104070473C4908182021405654
:10DD200004288041C00F7047384908182021405608
:10DD3000042801DB01207047002070473349081890
:10DD400020214056C043C00F7047F3B503000020A8
:10DD5000C0430425110002D10421082500E0002160
:10DD60002A4C00E0491CA94211D28E00A619009647
:10DD700036688642F6D108000199E6182027F0554A
:10DD8000009D2960002A02D121183C228B5440B208
:10DD9000F6BD1E490022D2438300CA50042802DB8C
:10DDA00008183C214254704770B5184C4420205C40
:10DDB000002801D0082070BDFF2220212000203043
:10DDC000FFF7D4F8002500263000FFF7E2FF761CAD
:10DDD000082EF9DB0321062000F084F935480560A0
:10DDE000802000063449086001204421605400204E
:10DDF00070BD32480078002800D001207047000034
:10DE00000060004000070050FFFFFCFF04210020DD
:10DE1000F0B583B007000D0016000024FFF78EFF59
:10DE2000002801D0082443E031002E00F2783800A9
:10DE3000FFF78BFF05000020C043854237D0B07844
:10DE400000280BD0A020C005B9004018E021C9006F
:10DE50004018016802229143016007E001900090A0
:10DE60007378002200213800FFF719FF3078F1782D
:10DE7000002913D03349AA0089180A68374B134088
:10DE80000B600A683B02F8256D011D400004C023A9
:10DE90009B0203402B4313430B6009E08A494A1954
:10DEA0003C23D25C800110434919C85400E004248B
:10DEB0002000FEBD7C61004004630040482100203A
:10DEC000F1B50F00804C25180126FFF72DFF002823
:10DED00016D02020285620183C2140560006800FDE
:10DEE0000221032805D179480068009BD8400640EC
:10DEF00000E0012800D003210098FFF7DFFEF1BD0C
:10DF00000098FFF709FF00281AD0202028560D4955
:10DF1000820089180A6832430A60002182003302B5
:10DF2000D21812B20C4BD2181160002F08D0202149
:10DF3000695689006158002902D08640644806600D
:10DF4000F1BD00001065004060490968C140C80784
:10DF5000C00F70470000000000600040FFE0FCFFC1
:10DF6000F0B585B000246846046080256D00012668
:10DF7000042728B2FFF78CFE002809D05448006817
:10DF8000304005D000202DB2544969180860344350
:10DF900076002D1D7F1EECD1260080273F06BE2077
:10DFA0004000FFF775FE002807D000204A490860AE
:10DFB0003E436A460121FFF791FE300715D0012448
:10DFC000002534420DD0A900424842181068136859
:10DFD0003D4A5258110004D09903890FC004C00E65
:10DFE000904764006D1C042DEBD337406AD002A823
:10DFF000002101600020C04301E0009002980190E0
:10E000000024049430480499401840214056C5B279
:10E010002F00C0218F430021C943884242D001A96B
:10E020003800FFF771FE00283CD02806800F0390CF
:10E030002548C11920228956890046583000039886
:10E0400002D103282ED101E0032809D1F80802A942
:10E050000818017801227B075B0F9A400A4302707F
:10E060001F48B90040588003850F69463800FFF704
:10E070004BFE002802D0022D14D101E0032D11D156
:10E080000398032808D1022D01D1032100E00221C9
:10E090003800FFF713FE641C300003D00399C9B2A7
:10E0A0003800B0470498401C04900428AAD32406E2
:10E0B00008D003AA01210020FFF710FE0398009961
:10E0C00088429AD105B0F0BD04210020100500500F
:10E0D00004630040106500407C6100400060004027
:10E0E0000007005018B5C20018231340FF249C40BD
:10E0F000E2438907090E9940030007D50C4B04073A
:10E10000240F083CA408A4001B1903E0094C830851
:10E110009B00E3181C682240114319600121C006CE
:10E12000C00E8140044801600448016011BD000038
:10E130001CED00E000E400E080E200E000E100E02F
:10E14000F1B582B00D0000246846007A00F0FAF9BB
:10E1500004282FD22900A64E42001218B5183718ED
:10E16000002917D002291ED01ED22C7868780028EA
:10E170000DD032000E3271690A2041433000603008
:10E18000FEF765FE002802D16846007AB073A878D1
:10E19000387409E030006030FEF776FEAC78387CE9
:10E1A000A04207D100E06C78200003D0F16900297B
:10E1B00000D08847F7BD80B502210078FFF7C0FF87
:10E1C00001BD0000F8B5070000200025884C617BE8
:10E1D000002902D0607300F072F902260120390094
:10E1E000172966D801A2525C52009744850B0B1C7C
:10E1F0002634454B50565056A1636363636385884C
:10E200008F96A1A1002000F04BF9002806D0002035
:10E2100000F04EF9022F18D1122628E000F044F940
:10E22000022F24D015E0002000F03AF900281BD07E
:10E23000002000F03DF9082619E0002000F030F938
:10E24000002804D0002000F033F928260FE000F069
:10E250002BF904260BE0002000F022F9002803D05F
:10E26000002000F025F902E0002000F01DF92773DE
:10E2700000226169714317E0002000F033F90620A5
:10E28000207307E0002000F00FF907204EE06073D4
:10E2900000F028F90022616906E0607300F022F9BD
:10E2A000002260698100091820002030FEF7CFFDB0
:10E2B000050040E020004030FEF7E6FD050011209B
:10E2C000C01B15D0002D13D102280DD36669C821BB
:10E2D00048436421FEF7F0FA464331000022200053
:10E2E0004030FEF7B4FD0500022000F0DDF822E02A
:10E2F000022000F0DDF81EE000F0E1F81AE000F086
:10E30000DEF8002000F0D0F813200FE000F0D7F87E
:10E31000012000F0C9F8142008E000F0D0F8002037
:10E3200000F0C2F8012000F0BFF81520207302E0D1
:10E3300000F0CEF827732800F2BD2D48017EC907F2
:10E3400000D4704780B5007BFFF73CFF01BD80B56E
:10E35000022000F0C7F801BD01000020244A127E0F
:10E36000D20700D4704780B50800FFF72BFF02BD2D
:10E3700070B505000E0000241D4846618561C2612C
:10E38000A8071FD501220121200000F033F8641CEA
:10E39000042C01D20028F5D0040005D17208042114
:10E3A0002AA000F039F90400002C02D100F06CF929
:10E3B0000400002C06D11E4A002100BF22A0FEF757
:10E3C00031FD0400E80701D500F098F8002C05D1D4
:10E3D000184A00211AA0FEF725FD0400002C05D1E3
:10E3E000154A012117A0FEF71DFD0400200070BD95
:10E3F0008420002038B503000020042B16D2012A07
:10E4000005D1012902D11A000E3200E000220B4C86
:10E410005D00EB18E318002906D0022902D005D2CE
:10E420001A7032BD5A7032BD9A7032BD072032BDAB
:10E43000B7E101003BE301004FE30100842000202D
:10E44000A4200020C4200020E420002011000300AC
:10E4500041E101001200030041E10100130003004B
:10E4600041E101001400030041E1010030B5039DCA
:10E47000049C52000A43990011432A020A432104D2
:10E4800011432D4A8000115030BD81B001228240DD
:10E490002A48002901D1426000E0026001B07047C3
:10E4A000274909682FA23DE080B5002102E0000065
:10E4B00080B501212BA2105CFFF7E7FF01BD10B56D
:10E4C00000242000FFF7F4FF641C042CF9D310BDD6
:10E4D00010B500242000FFF7E7FF641C042CF9D3DB
:10E4E00010BD00001FA1085C15490A680123834084
:10E4F00018009043486013408B60704730B583B07C
:10E50000002400BF17A500200190009000230122E5
:10E510000121285DFFF7AAFF641C042CF3D3FFF749
:10E52000CEFF37BD105CC140C807C00F401E804100
:10E53000C00F7047000000000007005008050050A1
:10E540000405005010B501000020C043002200BFA8
:10E5500005A39C5C8C4203D0521C042AF9D310BD45
:10E56000100010BD1516171811121314E0B582B063
:10E5700000254D4F3978E8B2884225D27868EDB24F
:10E58000E90046183078012181403A69114219D0DA
:10E590008A433A61FFF7D8FC3278FB680121914049
:10E5A00019400300934099420CD17178012900D0A1
:10E5B00000214140491E8941C90F7368002B01D0D9
:10E5C000100098476D1CD5E7E3BDF8B5070001259D
:10E5D000BD40354C20001430FEF756FC00281AD1FF
:10E5E0002069EE43284214D13800FFF7ADFCE16802
:10E5F000002801D0294301E00E403100E16020698C
:10E60000054325610022A16820001430FEF71FFC9D
:10E61000F1BD06402661F1BDF8B504000D001600FD
:10E62000052E01D20720F2BDFFF7E3FB002803D13E
:10E63000FFF7BAFB002826D128001B494C60087060
:10E640008E600022CA600A61184E00BF1AA527001A
:10E6500004002000441E00280FD028680090E4B277
:10E66000E000381881786A465170320069460078B7
:10E67000FFF7CEFB0028ECD0F2BD0D4A002100BF11
:10E680000CA0FEF7CFFBF2BD38B50025064C06E026
:10E6900001216068EA00805CFFF712FC6D1C2078A5
:10E6A0008542F5D3002032BD4C210020CBE501008E
:10E6B0006DE501006021002003000000202804DA3D
:10E6C0006549C140C807C00F70470120704738B581
:10E6D0000400FFF7F3FF002801D1604832BDE000DD
:10E6E0001821014020000322002805D55C4B250796
:10E6F0002D0F083DAD0801E05A4B8508AD005B5970
:10E70000CB4099090A40032A0FD8002A0DD0022ACB
:10E710000BD0E206D20E0121534B5C68002C06D1CF
:10E72000914066480160002032BD654832BD400915
:10E7300080001818036891401943F3E780B5FEF78D
:10E7400035FC01BD70B582B05E4C2078002836D013
:10E7500000250026E06800281BD1012519E00028CB
:10E7600002D0FEF7E3FB1CE0009800F053F92169AA
:10E77000002916D00098884713E0002802D0FEF741
:10E78000D5FB02E0A068E16888472E4217D1002E31
:10E7900007D16078002812D1684652DF0528DED103
:10E7A0000126002DF1D16078002808D160886946E3
:10E7B0000880A06861DF0528DFD10125E5E773BD8A
:10E7C00040480078704738B51400002916D08A07F1
:10E7D00014D13C4A916054805360384B1968CC077F
:10E7E000E40F0125002C01D037490D60374910DFB7
:10E7F000002805D0002C09D01D6032BD072032BD95
:10E80000157000F00EF91620FFF761FF32BD80B5DC
:10E810002C484068002805D08047002804D0FEF727
:10E8200085FB01BDFFF78EFF01BD70B504000D0033
:10E83000160014213000FEF7B7FB012030800021C4
:10E840003161317BFE220A40327335727472002CC2
:10E8500000D0B072002070BDFC06FFBC012000009B
:10E860001CED00E000E400E0E42100201CB51849A4
:10E87000019101990091694660DF040000980199B7
:10E88000884212D0024600BF13A10220FEF71BFCF3
:10E8900010484168006841438020800508180099AD
:10E8A000421A00BF1DA1022004E0002C04D0220067
:10E8B00027A10120FEF707FC200016BD00E100E0C3
:10E8C00002200000D021002080E100E03DE70100AF
:10E8D00070180020340000105344483A5741524EFB
:10E8E000494E473A73645F626C655F656E61626C46
:10E8F000653A2052414D2073746172742073686FC1
:10E90000756C642062652061646A75737465642047
:10E91000746F20307825780D0A0000005344483A7F
:10E920005741524E494E473A52414D2073697A65DC
:10E930002073686F756C642062652061646A75730A
:10E9400074656420746F2030782578200D0A0000EB
:10E950005344483A4552524F523A73645F626C6571
:10E960005F656E61626C653A206572726F7220300D
:10E970007825780D0A00000070B500200024354D80
:10E980002978002901D0852413E0A86068602861F7
:10E99000E86031480068C00703D403210020FFF776
:10E9A000A1FB0126FFF70CFF002801D12B480660D0
:10E9B0002E70200070BD38B50400264802D1050035
:10E9C000083507E00500103504E0086828602000DD
:10E9D0004968884729680029F7D131BDF8B5012475
:10E9E0001C4F00251F4E3068002806D035601C489B
:10E9F00004607C700020FFF7DEFF7068002807D0FD
:10EA00007560022016490860BC700120FFF7D3FF33
:10EA1000F1BD0000002800D0704780B5FFF7CBFFA4
:10EA200001BD10B582B00020694608706846FEF747
:10EA300049FA084C2078002801D1FFF79DFFE068D3
:10EA4000401CE0600120A07068460078FEF751FA93
:10EA500013BD0000BC21002000E100E018050040CB
:10EA600008030040000100404058002804E0C12293
:10EA7000920080580140080000D00120C0B27047C9
:10EA800000228E235B00C2508A688B8AD25C8B8AFC
:10EA90005B1C8B8219494250704718B5A322D200E3
:10EAA000821884235B00C0180023CC7D002C0360F7
:10EAB00001D1106811BD487E1268CB681A54487E97
:10EAC000401C487611BD1FB5030068460124047040
:10EAD0000172019219685A6890471FBD00B585B050
:10EAE000020000206B4618701972916801919075B0
:10EAF000116868465268904705B000BD1C050000CB
:10EB0000F0B585B006000C008125AD0000278021FE
:10EB10008900FFF7ACFF002826D092214900300081
:10EB2000FFF7A2FF00281FD08E204000301887601A
:10EB3000C22080003550A07E002801D101207060E5
:10EB40006846022101709021C90071180A680A60A4
:10EB50000392E17D0172E0680190E77527762168F4
:10EB60006846626890472DE004213000FFF77FFF80
:10EB7000002827D0842149003000FFF775FF0028C6
:10EB800020D021003000FFF788FFE07D617E8842C1
:10EB900018D1207E002807D0E268617EE0752069E8
:10EBA000E060277667760AE0A07E002801D1012088
:10EBB0007060C22080003550E775E268617E2000F9
:10EBC000FFF781FF8E2149003000FFF74DFF00283D
:10EBD00011D0A08AA17D884204D221003000FFF725
:10EBE0004FFF08E08E2040003750A17D002902D061
:10EBF0002000FFF773FFA22149003000FFF734FF28
:10EC0000002811D08E20400030188762A07E002896
:10EC100001D001203060E07D002805D0E775E26872
:10EC2000617E2000FFF74FFF05B0F0BD80B50249BF
:10EC30000248FFF765FF01BDA02100200020004031
:10EC400030B593B06846592101803E4C21001831FF
:10EC50000291172181803C2103A8FEF7A5F9002528
:10EC600003A805700421C17068460C90002103A818
:10EC7000FEF7DAFF002801D0FEF758F9182120002E
:10EC8000FEF792F90320207065602572A020208293
:10EC9000658213B030BD000010B586B00020FEF7CD
:10ECA000A1F9002801D0FEF741F9264C00232200EB
:10ECB000783205210020FEF785F8002801D0FEF704
:10ECC00035F9002220490120FFF752FB002801D02E
:10ECD000FEF72CF924A000680090002348222100B0
:10ECE00030316846FFF76FFD002801D0FEF71EF9AE
:10ECF00001AA00210020FFF798FD002801D0FEF7AF
:10ED000015F901A8FFF7B2FD002801D0FEF70EF9B2
:10ED1000FFF796FF0DA10320FEF7BEF9200073DF79
:10ED2000002801D0FEF702F90220FFF715FB0028AA
:10ED300001D0FEF7FBF8FEF7EDF90028FBD148DF24
:10ED4000F5E7000070180020CD0C00003A494E464F
:10ED50004F3A424C4520426561636F6E2073746187
:10ED6000727465640D0A00000100000718B5F020F8
:10ED70000F2228490B78012B1BD14B68134018D167
:10ED80008B68034202D1CC6804400CD0F0241C40B4
:10ED9000102C02D1CC68044005D00340302B08D1A0
:10EDA000CB68034005D11C4B1C4C2360E30B1C4C6F
:10EDB00023600B78012B0CD14B68134009D18B6871
:10EDC0000340402B05D1CB68034002D10123154CF1
:10EDD00023600B78012B1BD14B681A4018D18A682D
:10EDE000F0231340A02B02D1CB68034005D0024092
:10EDF000D02A0DD1C96808400AD10B480168012901
:10EE000004D00A49016001680129FCD1C021416197
:10EE100011BD0000E00F00F0DFFF07C00405004057
:10EE2000186C00400806004000EC06407593000096
:10EE300070B401000123002413E00A68091D1A427E
:10EE400002D04D466D1E52191460121D001F042879
:10EE5000FAD21500860701D51480AD1C184000D0E9
:10EE60002C700868091D0028E7D1080070BC7047A5
:10EE700030B501684118446862088A188368E4075D
:10EE80000DD54C461B190AE00C7864B2491C0D786C
:10EE9000491C1D705B1C002C05D5641CF9D19142E6
:10EEA000F2D10C3030BD641EF1D5F8E703210648DD
:10EEB00002680A430260054802680A430260044887
:10EEC00080470448004700002405004054050040E6
:10EED0006DED0100B1EF010010B50749794418311B
:10EEE000064C7C44163404E0081D0A6889188847DB
:10EEF0000100A142F8D110BD08000000240000006C
:10EF000031FFFFFF10080000E4190020000000009E
:10EF100061FFFFFFCC000000080100007018002016
:10EF20008268521C82604268002A06D00268531C24
:10EF3000036011704168491E41607047FF2902D982
:10EF40000020C04370470170012070470078401EC8
:10EF50008041C043C00F70470120C046002801D047
:10EF6000FFF7BAFF002000BF00BFFFF795FE00F0DB
:10EF700000F880B500F002F801BDFEE7074638460C
:10EF8000FDF7BAFCFBE7FEE74150505F4552524F98
:10EF9000523A4552524F523A466174616C0D0A0022
:10EFA0006E616E004E414E00696E6600494E46002D
:10EFB00000BF00BF00BF00BFFFF7CEFF00002E0064
:10EFC0004300FEE7FEE7FEE7FEE7FEE7FEE7FEE7BB
:10EFD000FEE7FEE7FEE7FEE7FEE7FEE7FEE7FEE709
:10EFE000E8001602150112233445566778899AAB5A
:10EFF000BCCDDEEFF001020304C38100BD001E247E
:10F00000F400BCEF0100BCEF0100BCEF0100BCEF5D
:10F010000100BCEF0100BCEF0100BCEF0100F8FFF4
:10F020000BBEEF0100BCEF0100BCEF0100FAFF06D0
:10F030000000C0EF010001FD000364190020FC0086
:10F0400002DFC001FB0006D9C00100F5C001FB00D2
:10F0500002DDC001F300024DEF01FB00043DEF01B2
:04F060000001F900B2
:040000050001EFB156
:00000001FF
