:020000040001F9
:10B00000B03500206D1A02009FD5010067E90100EC
:10B010000000000000000000000000000000000030
:10B020000000000000000000000000005FEA0100D6
:10B03000000000000000000083EB010063F9010044
:10B040003D1602007B11020019190200F3130200E1
:10B05000131B02000000000035FC01001F1B020052
:10B06000411B0200431B0200451B0200471B02005C
:10B07000491B02004B1B02004D1B02004F1B02002C
:10B08000511B02005DF20100531B0200551B020020
:10B09000F5F20100571B02008F100200591B02003D
:10B0A0005B1B02005D1B02000000000000000000AE
:10B0B0000000000000000000000000000000000090
:10B0C00038B504000025A748A900401841680029A8
:10B0D00001D0200088476D1C082DF4D331BD818834
:10B0E000A14A914204D00088002802D0012000E04B
:10B0F0000020C0B27047BCB517008022D200821871
:10B100000025040008340220088000910192019873
:10B1100084421DD220680021C943884218D02000F3
:10B12000FFF7DDFF002807D0AE48416AA2689142D0
:10B1300000D21100416200E001256088810064189E
:10B140000C3400990988C01C081800990880DEE7B3
:10B15000002F00D03D70B3BD02001389C81C181821
:10B1600010815089401AC01E5081704780B5002060
:10B170000090022301A29B4841690AE0DEC0ADDED7
:10B18000FF011EF180B5010000200090022300BFE6
:10B1900002A2954800F018FF02BD0000DEC0ADDE3F
:10B1A000FE011EF170B5C21C92B2FE2A01DB09201D
:10B1B00070BD002000238D4C1D0164192578002DE1
:10B1C00006D1268995196689AD19ADB2FF2D04DD2A
:10B1D0005B1C022BEFDB072070BD0B806189891897
:10B1E000618170BD814A090151184A89101AC01E37
:10B1F0004881704770B582B00C0021687B4A00011D
:10B2000010184668002903D0488880000D1805E012
:10B210003500083503E0688880002D180C35802043
:10B22000C000301885420CD228680021C9438842EA
:10B2300007D02800FFF753FF0028ECD0256001203D
:10B2400076BD002076BD70B582B005000E0068683E
:10B250000024002821D0644A136898421DD3526804
:10B2600082421AD3810718D129895E4A12899142F4
:10B2700013D12968826891420FD100225B490B1DCE
:10B2800015015B59834204D28025ED005B19984279
:10B2900016D3521C022AF2DB1BE03480009469466C
:10B2A0003088FFF7A7FF00280DD000988068296834
:10B2B0008842F4D1009868604A480089288100E0FB
:10B2C0003280012076BD3088401C308080B2022858
:10B2D000E4DB002076BDF8B5424D2C7CA40701D4F8
:10B2E0000220F2BD0092002A04D01C000E000700CC
:10B2F000002C05D10520F2BD2060A088401CA08054
:10B30000A088022821DA96490001085C0028F4D1BF
:10B310002100A088FFF76EFF0028EDD02068002FE5
:10B3200003D082883B889A42F2D1002E03D0028853
:10B3300033889A42ECD18168009A11600099486084
:10B340002889009908810020F2BD0A20F2BD016819
:10B35000AA4A13003833994202D00831016070477D
:10B3600002607047502C0020FFFF0000F0B583B052
:10B370000B00150000260021A14F7A6F032A2FD859
:10B3800001939E4C0822D21A636C9A4228D3010082
:10B39000786F3A6F80188007800F1C22504338184E
:10B3A00000F014FF786F401C78670198002816D0D1
:10B3B0002F00606C216C40184007800E2018009010
:10B3C000019DF000381803C8009A03C26846FFF7D1
:10B3D000BEFF761CAE42F4D3606C4019606401215C
:10B3E0000800FEBD282C002044200020F82B00205F
:10B3F000F0B583B00026002469460C704C8002250D
:10B400000027FF433E480068694649888902401882
:10B41000611C89B201915249220189180268A44B2A
:10B420009A4227D14268A34BD21A02D0521E0BD0A7
:10B4300020E00A7048600A000E320831FFF75BFE18
:10B4400030000226064342E06A461278002A05D000
:10B450000D704B4A52694A600D81019C4849486110
:10B4600000229549FFF747FE4548008B02281ED170
:10B4700004201DE000229300C358BB4225D1521C7A
:10B48000FF2AF8D93E4A5269002A06D00D7048605A
:10B490000D813B484480019C05E0394948610D839A
:10B4A00001206946087030000126064303E00820A9
:10B4B000310006000E43684669464988491C4180B0
:10B4C000408802289EDDF0B2FEBD03200870019C7A
:10B4D000F1E7000010B582B00C00002100910123BB
:10B4E00008A20100064800F06FFD002801D00E20E0
:10B4F00016BD01201A49220189188873002016BD43
:10B50000442000200000FFFF10B51D4C6088144946
:10B5100000010918B3488A89002A07D100230122B3
:10B52000496800F093FD0421217010BD05212170B0
:10B530000221218300230122616900F087FD10BDF3
:10B5400080B50F4841684B88DB1C03210170002146
:10B5500000919BB242684169008B8000091818E68F
:10B56000F82B002080B50648011D4088FFF742FEF9
:10B57000002802D0FFF7E4FF02BDFFF7C5FF02BDC0
:10B58000282C002030B501220223BE49BE48047891
:10B59000002C09D0E41E18D0641E1ED0641E012C9D
:10B5A00027D9A41E28D030BD03895B1C038100234A
:10B5B000438003731C010C5D641EA441E40FC51895
:10B5C000AC725B1C022BF5DB16E0018B42685288E3
:10B5D000D21C89180183037030BD4269448824015C
:10B5E00009194C6844614A60028B0A810383062171
:10B5F00000E00721017030BD027030BD042A002038
:10B60000C4280020F8B502000F209F4C257CFE23A3
:10B610002B40002A02D023740120F2BD00910125A5
:10B62000984E00270979002905D002291CD007D39C
:10B63000032922D034E0FFF799FD00990D712FE026
:10B6400000203178022906D10501301D4059FFF74D
:10B6500099FD775524E00120317C0229F4D00220A5
:10B66000184320748948F2BD00230122616988488B
:10B6700000F0ECFC0221218310E06069FFF782FDFD
:10B68000628861691201331D9B181D68656119602C
:10B69000B118228B0A81022222830F7000990F7148
:10B6A000002804D0207CFE21014021740E20F2BD30
:10B6B000DEC0ADDEFE011EF1402C0020F0B583B0EF
:10B6C0000C00704A618A090151180191002805D0C7
:10B6D000E1880198FFF740FD0120FEBD4868098917
:10B6E0008900451801260627207C062873D801A169
:10B6F000095C8F4422AA3E5E06CCDC0000209062EA
:10B70000A06950621100203110002430FFF79BFD2A
:10B71000002801D10A20FEBD002000900123221D37
:10B720002900304800F050FC02212174002835D057
:10B730000E2551E000200090012322000C32290048
:10B740000831284800F040FCA17D002900D00326E4
:10B75000267433E00027B948416C002908D0026CF8
:10B76000D300C718521C5207520F0264491E41648D
:10B7700000200090BB883A68A08A800029181948E8
:10B7800000F022FCA18ABA888918A182A17D491EF5
:10B79000A175090600D126740028C9D100251FE033
:10B7A00000200090012322000832291D0D4800F0DE
:10B7B0000BFC2178032900D1052727740028B7D175
:10B7C000ECE7118C906AFFF785FE0500277403D122
:10B7D00006E02E4D00E00F25E1880198FFF7BCFC44
:10B7E0002800FEBD4420002038B5002801D00120EB
:10B7F00032BD254C0025207B002801D0257301E0B7
:10B80000FFF7C0FE1F492078401E062833D801A24A
:10B81000125C97440666363C6042540000202218B1
:10B82000937A002B0AD0957202010B000C339B5ABD
:10B83000002B03D18A18927B012A1ED0401C0228BB
:10B84000EDDB257065806560104832BDFFF778FE3E
:10B8500032BDFFF759FE32BD06202070081D6188F9
:10B8600009014058FFF78EFC32BD0720207065604B
:10B87000FFF77CFC32BD0F2032BD6080FFF772FE07
:10B8800032BD0000F82B0020282C00201D1D0000D8
:10B8900044200020F0B585B0B44E316F1C225143D6
:10B8A0007418B34F01252278521E08D0521E012A67
:10B8B00011D9921E012A12D9921E4FD051E02100B7
:10B8C000FFF7A0FE002800D1A9E00021A94A90427C
:10B8D00049D1019156E02100FFF7F0FEF2E7002880
:10B8E00001D00120F1E7207900281BD0022801D0E7
:10B8F00002D331E09F48E5E73B001C336A46002154
:10B90000A01DFFF7E8FC002804D1398C0198FFF74F
:10B91000E1FD04E039001C31002200230CC10A289B
:10B92000D0D1E7E701A80C2100F094FCE068019079
:10B93000694601A8FFF787FC002809D00298818892
:10B94000E1800188218169460988FFF7C3FD00E095
:10B950000A2002212171B5E70F20B3E7FFF744FF6A
:10B96000B0E70F20B1E701902078022801D003282A
:10B9700008D13248026CA37DD2180264426CA37DC8
:10B98000D21A426468462278521E052A2AD801A398
:10B990009B5C9F444C3C20140804052121E00422B8
:10B9A0000270E2888281C1811CE003210170E1887C
:10B9B0008181218911E00222027022898281A2887C
:10B9C000C281E2680292227C062A00D0002505741A
:10B9D00008E0057021898181A188C181E068029019
:10B9E00000E001706846FFF76BFB1C21306F1C22E2
:10B9F0005043301800F02CFC706F00280BD0316FD2
:10BA0000491C8907890F3167401E706703D00020E9
:10BA1000FFF740FF03E0387CFB210140397405B09B
:10BA2000F0BD5348017C4A0700D5704780B5042219
:10BA30000A4302740020FFF72DFF01BD042A0020F5
:10BA400080B50800FFF726FF01BDF9B58DB01300E2
:10BA500000240194464E307C800701D4022071E01E
:10BA60000F0001D105206DE03888A649884202D038
:10BA70007888002801D1042064E03889039079682F
:10BA8000029100220490032500E0521C0498824297
:10BA90005AD2D00008582842F7D0032052E0029A28
:10BAA000121DC300D25A891889B2401C039A9042D1
:10BAB000F5D301916946019880B2FFF773FB002826
:10BAC00005D03FE0188869460880588801900EA884
:10BAD000007805A908700C746A4612884A823A896F
:10BAE0008A758D82726A521C726208923A880A8143
:10BAF0007A888A80019ACA80032804D104200874B5
:10BB00000D9800680B904C817A68398905A8FFF779
:10BB10002DFC002807D168460188019880B2FFF704
:10BB200061FB08200EE00D98002808D044600898BA
:10BB30000D9908600D98847230890D990881FFF77E
:10BB400070FF00200FB0F0BD002BBBD10020002102
:10BB5000ACE78E490A78082A01D10C20704793007F
:10BB6000CB185860521C0A7000207047C42800206F
:10BB7000282C00201D1D0000F0B58DB06846142152
:10BB800000F068FB604C207C81071ED4C1072FD4D5
:10BB900001273843207400F0BDF905AD2F7002264F
:10BBA000FFF726FC0B281CD801A1095C8F4400BFBD
:10BBB0000C220C223230103032262C260B2018E0BA
:10BBC000207CFE2101400E4326746846FFF778FA78
:10BBD0000EE0002000E00320287102E02E7100E05A
:10BBE0002F710022002105A8FFF7C0FBFFF719FF06
:10BBF00000200DB0F0BD38B5040001D00D0001D11A
:10BC0000052032BD6946FFF71EFB00280FD0606893
:10BC100070496A461288120189180A88521C0A80E3
:10BC200028600C3068600120A072002032BD0A201C
:10BC300032BD10B582B0040001D1052016BD6946A1
:10BC4000FFF701FB002811D0634869460988090104
:10BC500040188189002907D0A27A002A04D0491E01
:10BC600081810020A07216BD062016BD0A2016BDD7
:10BC700038B55A4A127C920701D4022032BD040022
:10BC800001D1052032BD0D0069462800FFF78AFA70
:10BC9000002803D1694609882180658032BD10B52E
:10BCA0001949097C890701D4022010BD040001D183
:10BCB000052010BD218802290DDC6088464B0A0151
:10BCC0009A185289121AD21E05D4FFF78BFA002057
:10BCD0002080608010BD042010BD80B502230CE0E0
:10BCE00080B5002A01D1052002BD022306E080B5FF
:10BCF000002801D1052002BD03230022FFF7A5FE85
:10BD000002BD0000FFFF0000282C002000B587B016
:10BD10003249097C890701D4022016E03049884263
:10BD200001D1042011E0694605220A7001220A713E
:10BD3000C880002200216846FFF718FB002803D0C6
:10BD4000FFF76FFE002000E0082007B000BD10B52F
:10BD500088B0224C207C800701D4022013E006200A
:10BD600069460870002200216846FFF7FFFA0028A4
:10BD700008D02078002801D001202073FFF751FE61
:10BD8000002000E0082008B010BD0000502C00206A
:10BD900003B581B002A901A8FFF79DFA0EBD01B558
:10BDA00013000A0069460020FFF795FA02BD01B5AD
:10BDB00013000A0000216846FFF78DFA02BD002833
:10BDC00001D0002901D105207047006808600020DB
:10BDD00070470000042C0020F82B0020282C0020A5
:10BDE000FFFF00007FB50200684600230024002505
:10BDF000002678C06846137A012B02D0022B06D0A9
:10BE00000DE0047013690293938A838107E0012394
:10BE100003709389D4891B1B0381938943815068E4
:10BE2000019068461268926890477FBD002808D04C
:10BE3000AA494A68904204D38968884201D2012005
:10BE4000704700207047A648416E491E416604D1E4
:10BE5000A2490A78FD2313400B70016E491C042986
:10BE600000D100210166704738B59D48016E182247
:10BE700051434318406E002826D0187A012802D07A
:10BE800002280FD01CE0D88A9C8AE832251A9542F5
:10BE900000DA221A800092B2D96809181C692018A9
:10BEA00029DF01E0988928DF112807D18B48017824
:10BEB000FD220A4004211143017031BD002803D046
:10BEC00009211800FFF78EFF31BD84480178062252
:10BED0000A4000D0704780B502220A430270FFF783
:10BEE000C3FF01BD38B50400A848416E042901D143
:10BEF000002032BD026E5218042A00D3121F491CC2
:10BF0000416618214A438518280000F0A1F92560F0
:10BF1000012032BD7FB59E489E49401A0409200089
:10BF20009D4909680022D243914202D19B49096888
:10BF300089029B4A1278D30743D40023984D6D6839
:10BF400001950AE0019D1E01AD192E68002E03D057
:10BF50006D68002D00D0401E5B1CA342F2D323006D
:10BF6000039000201FE0019B26019B191E68002EF4
:10BF700002D05E68002E07D15B7B6E4636789E420B
:10BF800002D26D462B702500641C029B9C42EAD3B2
:10BF9000019C2D062D0D64196160257BAD026E425A
:10BFA00089192160401C039CA04206D2002605008E
:10BFB000002402936B461E70E7E701201043784986
:10BFC0000870002004B070BDF8B50D0017001E0009
:10BFD00073490978C90701D40120F2BD0400FFF7B5
:10BFE00025FF002801D10220F2BD002F01D0002D35
:10BFF00001D10320F2BD0320074201D1054201D047
:10C000000620F2BD2068854204D36068B10069183B
:10C01000884201D20520F2BD300001D10420F2BDDA
:10C020006846FFF75FFF002801D10720F2BD0698A0
:10C0300000994860009804600120009908720098F7
:10C04000C760009805610098868239E0F8B50D0058
:10C0500016001F0021490978C90701D40120F2BD4B
:10C060000400FFF7E3FE002801D10220F2BD280002
:10C0700001D10320F2BDA90501D00620F2BD21683F
:10C080008D4204D36168B202A818814201D2052012
:10C09000F2BD300001D10420F2BD6846FFF722FF57
:10C0A000002801D10720F2BD009847600098046085
:10C0B000022000990872A80A0099888100980682D7
:10C0C000FFF703FF0020F2BD002801D103207047D5
:10C0D0002E49496E016000207047000014200020A6
:10C0E0003C29002038B50100284B186E1822504317
:10C0F00018182B4A147802252C4231D0002302292B
:10C1000002D003291FD035E05370017A01290CD0E9
:10C1100002292FD18189491C8181C189491CC18192
:10C12000028A89B2914225D10BE0C18A828AEB0151
:10C13000541A9C4200DA531AC918C18289B291423A
:10C1400018D1002107E05178491C5170C9B2042967
:10C1500010DB53700821FFF745FEFFF774FE09E07E
:10C16000600707D5FB2020401070596E002901D0D0
:10C1700005431570FFF778FE31BD0448406E042872
:10C1800001D1012070470020704700003C290020A9
:10C19000642000204420002014100010140000101F
:10C1A00014200020124207D08B0706D00B78491CC0
:10C1B0000370401C521EF7D87047830706D00B78D7
:10C1C000491C0370401C521EF9D1704770B4103ADC
:10C1D00003D378C9103A78C0FBD2530701D318C9EA
:10C1E00018C001D508C908C0D20704D30B88038042
:10C1F000891C801C002A01D50B78037070BC704725
:10C20000094205D083070BD00270401C491EF9D1AA
:10C21000704700001206130A1A43130C1A4300BF9A
:10C22000130030B414001500103902D310393CC08B
:10C23000FCD2490700D30CC000D504C0890002D34A
:10C240000280801C002900D5027030BC70470000BD
:10C250000022D5E70022E3E710B5040000F077FCE8
:10C26000200000F053FE10BD70B584B06A4600BFD8
:10C2700004A370CB70C26A46508011716846FFF704
:10C28000EBFF7FBD02000000000000000000000086
:10C290003EB504002078002811D1207907280ED15E
:10C2A000684600BF06A12CC92CC06D46608801F00D
:10C2B000E7F868806088A8806846FFF7CDFF37BD43
:10C2C000070000000000000000000000FBB50700B0
:10C2D0001600089CAB4D297801F024FA002E12D0EC
:10C2E0006846027A6978380001F01CFA2200A978C1
:10C2F000380001F017FA002C0BD06846818838000E
:10C3000001F0E9F8F7BD002C03D06846808801F001
:10C31000E6F8F7BDF0B587B0070000240C3001F057
:10C320008FF8050001AE388870809748854203D1A8
:10C33000388801F04BF805009348854215D004AACF
:10C340000721280001F03EFB00280ED1059834306B
:10C350000090007CC00707D439000C3100981230DF
:10C3600001F058F8002800D0009C00230022210092
:10C37000388886DF002806D009213170029001A894
:10C38000FFF76AFF1AE0002C0CD106203070C64877
:10C39000B080B27101A8FFF75FFF0020009000237A
:10C3A000002207E000213888FFF75EFF00200090A0
:10C3B0000023012229003888FFF788FF07B0F0BD6D
:10C3C000F0B585B00400208801F062F907002088EC
:10C3D00000F0FCFF05006846217A4170617A017027
:10C3E000684E00223178208801F09CF9002F34D06B
:10C3F00060798008C00710D50721280001F0E2FB12
:10C40000002813D001A908220A7022884A808D8052
:10C41000039001A8FFF720FF08E0B178208801F021
:10C4200075F9002802D0280001F059F801A803216D
:10C4300001702188418061794907CA0F0271A17991
:10C440004907CA0F42716846407801A98871684659
:10C450000078C87101A8FFF7FFFE05B0F0BD00002D
:10C46000FEB56B4607A4E0CCE0C36B4658809980CC
:10C470009A7100224349097801F054F96846FFF7A0
:10C48000EBFEF7BD06000000000000000000000009
:10C49000F0B587B004000F0016003A48017820007C
:10C4A00001F034F9002843D0200000F08FFF050090
:10C4B000354885423CD033484178200001F026F9C8
:10C4C000002830D003A900BF1AA00CC80CC1026814
:10C4D0000A6003A84480878086712A4881782000FA
:10C4E00001F014F9002803D0280000F0F8FF10E054
:10C4F0000721280001F01EFB00280AD0052808D1DA
:10C500006846092101704480052001906846FFF7C4
:10C51000A3FE00221B480178200001F003F903A8C4
:10C52000FFF79AFE04E0320039002000FFF798FF81
:10C5300007B0F0BD04000000000000000000000093
:10C5400010B504002078182802D101F0CDF8207031
:10C5500010BD10B50B4C2000FFF7F2FF601CFFF779
:10C56000EFFFA01CFFF7ECFF2078182805D06078BB
:10C57000182802D0A078182801D1032010BD00206F
:10C5800010BD00003E200020FFFF0000F5B58DB07B
:10C590000C006846808E01F07BF869460870BA4D41
:10C5A00000260E71202105A8FFF754FE684600788A
:10C5B000002801D1C0485FE002940127002C01D17E
:10C5C00085263CE02078384239D06846808E00F0DD
:10C5D000FDFE0500AC48854207D101F0C9F9050010
:10C5E000A94885423CD069460F7103AB012207215F
:10C5F000280001F00EFA04001FD10E9C502104986F
:10C60000FFF726FE68460078049908700498010038
:10C61000343105910894010018310991411C0A91A7
:10C62000A6490C91010011316846808E00F0DAFEB7
:10C630000721280001F094FA0400002C0AD1684672
:10C640000078022805AB19D1002231006846808E9F
:10C650007FDF0400002C04D1852E02D0012201E0EE
:10C6600003240022684600790090012329006846CF
:10C67000808EFFF72BFE20000FB0F0BD029A310034
:10C680006846808E7FDF040002980028E2D0002CEC
:10C69000E0D100780121084200D102216846808E55
:10C6A000FFF7E2FDD8E7000006100000FFB585B0F7
:10C6B00000250027002601AA0721184601F082F96B
:10C6C000040009D10298070018374421415CCE07C5
:10C6D000F60F01D0070034376846007F002816D1D6
:10C6E000002C14D1002F16D0002E05D138001230A6
:10C6F00000F0D8FE00280ED03A003900123168460A
:10C70000808A85DF04000E990D7000232EE0002C36
:10C7100001D0052C25D1069D2878C00710D503AB84
:10C72000012207216846008C01F073F9040005D14D
:10C7300007216846008C01F013FA0400002C04D194
:10C7400029006846808A7EDF0400002C09D007217A
:10C750006846008C01F0EEF9002802D0052800D0D0
:10C7600003240E980378002B00D00123621E92410F
:10C77000D20F002000906846018C808AFFF7A6FD4A
:10C78000200009B0F0BD7BB585B01500002904D1AB
:10C7900000216846808A7EDF73E001240878204209
:10C7A00001D0012000E00220694608716846808AB5
:10C7B00000F00CFE0600344886420AD02A0001A888
:10C7C0000090330006996846808AFFF76FFF0400E7
:10C7D0004FE00698007820423BD001F0C9F8694646
:10C7E000C8806846C0882849884202D103250020B5
:10C7F00025E002AB012207216846C08801F009F953
:10C80000050005D107216846C08801F0A9F9050097
:10C81000002D04D106996846808A7EDF0500002D30
:10C8200002D1012001220BE007216846C08801F0F7
:10C8300081F9002802D0052800D00325012000221C
:10C84000009001236846C188808AFFF73FFD2C00D5
:10C850000FE006996846808A7EDF0400621E9241DE
:10C86000D20F00200090012331006846808AFFF734
:10C870002DFD002C04D168460179808AFFF7F4FC75
:10C88000200008B070BD0000FFFF000070B504007C
:10C890000D00160000F0FCFE012807D0022809D187
:10C8A000320029002000FFF76EFF70BD2900200034
:10C8B0007EDF70BD004870BD02300000142B0020E8
:10C8C0003EB50400208811280AD0132811D014285E
:10C8D00017D0192829D01A2835D01E2815D037BDD1
:10C8E000207A3D2801D12A4901E08821490100220E
:10C8F00025E068460C21FFF7ADFCA088694648801A
:10C900003BE0201DFFF706FD37BD684623A12CC97B
:10C910002CC06846A1884180217ACA07D20F0271D3
:10C92000217A8907CA0F427128E0217A002903D1B0
:10C93000201DFFF745FD37BD607A8207920FA08862
:10C94000FFF7A6FD37BDA08800F0B9FE002818D07B
:10C95000104D6978A08800F0D9FE002804D100228B
:10C960002978A08800F0DEFE6D46A088688005204A
:10C970002870A08800F0ABFE28716846FFF76CFCB9
:10C9800037BD01220449A088FFF76AFD37BD0000CA
:10C990003D1000003E2000200610000001000000B5
:10C9A000000000000000000080B501F037FA01BD72
:10C9B00070B50B00110000250022862B04D0112B2E
:10C9C00004D0002B1ED102E0012200E00125060068
:10C9D000AD4C00290ED0A17B00F0A4FE2A00617BA3
:10C9E000300000F09FFE0022A17A300000F09AFE95
:10C9F000002203E0A17A00F095FE2A00617A30005F
:10CA000000F090FE70BD3EB504000D0014D0112D55
:10CA100012D068460C21FFF71DFC68464480019542
:10CA20000D2D01D10B2104E0862D01D10A2100E05A
:10CA300009210170FFF7B8FF37BDF8B582B00E00CD
:10CA4000914D297A314301D10520FEBD69460A7016
:10CA50000700300001D0002100E029003800FFF776
:10CA600015FF0400002221003800FFF7A1FF6846EF
:10CA7000007A002803D021003800FFF7C4FF297B8B
:10CA8000200023D0082C21D00D2C1FD0112C05D034
:10CA9000862C0FD0984A944218D016E03200380005
:10CAA00000F040FE68460278E97A380000F03AFE6D
:10CAB00000240BE03200380000F034FE68460278B3
:10CAC000E97A380000F02EFE00E003242000FEBDCD
:10CAD0003EB504006C4D00F0DBFD012816D12000AE
:10CAE00000F074FCB249884210D00122E97B20009A
:10CAF00000F018FE68460021002200230EC06846A0
:10CB00000C2101704480FFF74FFF04E00022E97B15
:10CB1000200000F007FE287A002808D0E97B2000DA
:10CB200000F0F4FD002802D12A69290001E000226A
:10CB300000212000FFF72AFD050001222900200026
:10CB4000FFF736FF29002000FFF75DFF37BD70B506
:10CB500084B004002078002805D0401E07D0401E75
:10CB6000072820D97FBD6088FFF7B2FF7FBD002175
:10CB7000624A137A002B10D012782379002B00D050
:10CB80000123D607F60F9E4207D392076379002B45
:10CB900000D00123D50F9D4200D2012101230022A4
:10CBA0006088FFF74AFF68462178017061884180FC
:10CBB000201D03C86A46121D03C26846FFF7F4FE33
:10CBC0007FBDF0B587B0050000F0BAFD002825D084
:10CBD00001A800F081FD002468460570474D1AE069
:10CBE000600001A90818878868460178380000F0BD
:10CBF0008DFD00280ED0E97A380000F087FD060090
:10CC0000297B380000F082FD01000123320038004A
:10CC1000FFF713FF641C01988442E1D307B0F0BD15
:10CC200070B586B0060000F08BFD002815D0684670
:10CC300000F052FD00240DE0600069460818858868
:10CC40003100280000F062FD002802D02800FFF724
:10CC50003FFF641C00988442EED306B070BD10B54F
:10CC6000264C0078062807D9C01F0BD1A07BFFF700
:10CC7000D7FFA07AFFF7A5FF607BFFF7D1FF607AAF
:10CC8000FFF79FFF10BD00002420002010B5040016
:10CC90002078182802D100F027FD207010BD10B5B3
:10CCA000164C20000930FFF7F1FF20000A30FFF793
:10CCB000EDFF20000B30FFF7E9FF20000C30FFF7FD
:10CCC000E5FF20000D30FFF7E1FF20000E30FFF7F9
:10CCD000DDFF20000F30FFF7D9FFE07B182801D1DE
:10CCE000032010BD002010BD80B5FFF7E9FD03480B
:10CCF000407AFFF766FF01BD0230000024200020CB
:10CD000038B5002832D001788A0701D40A062DD41C
:10CD10004A06520F042A29DCF2220A40322A25D080
:10CD200042788378934221D3072A1FDB112B1DDA27
:10CD3000C278012394081C4218D1007984081C424F
:10CD400014D1D4081C4211D1C4081C420ED10324B2
:10CD500003251540194205D1002D07D1204205D1E8
:10CD6000012032BD002DFBD12042F9D1002032BD7F
:10CD700038B505000F4C02D10020207232BDFFF7FC
:10CD8000BFFF002808D0200029000522FFF70AFA7B
:10CD900001202072002032BD072032BD80B5097805
:10CDA0004A1E9241D20F0349C97B00F0BBFC01BD72
:10CDB000FFFF00002420002080B501F0C7F801BD6E
:10CDC000FEB5070000249A4887422AD0380001F0B7
:10CDD00001FB05006E4607D00B2809D0112805D0AD
:10CDE0009449884217D00BE0022002E0012412E0AF
:10CDF00003203070380000F0E9FA7080B78007E057
:10CE000009203070380000F0E1FA7080B780029598
:10CE10006846FFF7D1FF220087484178380000F0CC
:10CE200081FCF7BDFEB50700002401F095FA05006E
:10CE300001206E4629000ED00C2D09D0112D05D0F1
:10CE4000862D07D07B4A954217D00BE0012414E0D1
:10CE5000072000E008203070B780380000F0B6FAF4
:10CE6000708007E009203070380000F0AFFA708061
:10CE7000B78002956846FFF79FFF22006E48017851
:10CE8000380000F04FFCF7BD10B584B004006846D0
:10CE9000618841802178002903D0022911D009D36B
:10CEA0001FBD0170FFF788FF608800F0E9FAFFF707
:10CEB00087FF1FBD01210170A1888180FFF77CFFE2
:10CEC0001FBD207900280CD0608800F0D9FA58499D
:10CED000884206D00122A149897800F023FC00F0A5
:10CEE0003BF81FBD10B50400207801280DD16088E3
:10CEF000FFF766FF608801F0B2FA002805D0012232
:10CF000096488178608800F00DFC10BD01780729F3
:10CF100000D0704780B54088FFF784FF01BD10B591
:10CF20008E4C00F0E1FB207000F0DEFB607000F042
:10CF3000DBFBA07000F0D8FBE0702178182907D047
:10CF40006178182904D0A178182901D0182801D1B6
:10CF5000032010BD002010BD70B58AB0364880781F
:10CF600000F0EEFB002861D004A800F0B5FB002023
:10CF700027E009216A46117101A98C8003902000E5
:10CF800000F024FA01A9488001A80AE00125052043
:10CF900069460871200000F019FA01A9488001A82B
:10CFA0008480FFF709FF320023488178200000F0D9
:10CFB000B9FB2A002048C178200000F0B3FB00989C
:10CFC000401C00900098049988422FD2400004A988
:10CFD0000818848818488178200000F097FB002802
:10CFE000EDD01548C178200000F090FB0028E6D174
:10CFF00001260025200001F041FA0100C6D00628D4
:10D000000DD008280BD01128CDD00A4A9042CAD0A2
:10D01000534A9042ADD12000FFF7D2FEC3E700266D
:10D02000200000F0D3F901F043FABCE70AB070BD6C
:10D03000FFFF0000023000009C2D0020F0B589B0F9
:10D040000400464F208850281DD0522802D0542872
:10D0500004D025E0A088FFF7B3FE21E06D4606204E
:10D060002870A08800F0B2F96880A088A88068883D
:10D0700001F01EFA0022B978A08800F053FB684640
:10D08000FFF79AFE0CE0207B012809D1A07A012845
:10D0900006D120893349884202D1A088FFF7C2FE19
:10D0A0000024787800F04CFB002815D003A800F08D
:10D0B00013FB00250DE0680003A9091D0E5A7978BD
:10D0C000300000F023FB002802D03000FFF778FE8C
:10D0D0006D1C03988542EED3387800F031FB0028B0
:10D0E00014D003A800F0F8FA0DE0600003A9091DB0
:10D0F0000D5A3978280000F009FB002802D02800DA
:10D10000FFF790FE641C03988442EED3FFF724FFE0
:10D1100009B0F0BD30B585B001F098F9684600F06F
:10D12000DBFA002411E060006946081885882800B1
:10D1300000F04CF90C49884205D10122074881785A
:10D14000280000F0EFFA641CA4B200988442EAD3ED
:10D15000FFF702FF05B030BD000000009C2D00204D
:10D160000134000002290000FFFF000010B5040098
:10D1700000F026FF2000FFF7B5FE10BD70B50024BB
:10D18000A24EA34D29780C2060433018408800F04F
:10D19000BDFA002804D0641C082CF3D3FF2070BD16
:10D1A000E0B270BD10B5040099480178200000F08D
:10D1B000ADFA00280AD0002094490C2242438A1874
:10D1C0005288A24204D0401C0828F6D3FF2010BD8C
:10D1D000C0B210BDF8B50E00FF27002E1FD005000D
:10D1E000AF4CA5421BD0012289480178280000F0ED
:10D1F00099FA2800FFF7D6FF0700FF2F02D1FFF7AB
:10D20000BDFF0700FF2F0AD080480C21794340184A
:10D2100045800480001D31000722FEF7C3FF38005F
:10D22000F2BD0021425C002A04D1491C1029F9D327
:10D23000002070470120704780B5002805D00029E4
:10D2400003D002780B789A4201D0002002BD06225A
:10D25000491C401C01F040F9401E8041C00F02BD36
:10D2600001000888102800D0704770B58EB003A860
:10D27000091D2C22FEF7AAFF894E350003AC207948
:10D28000032817D001F0A3FA2079002802D0022841
:10D290002AD00FD201AA6946072001F09FFA002880
:10D2A00008D002991131201DFFF7C6FF0028F1D0E8
:10D2B00068460588211D2088FFF78CFFB5420AD0FB
:10D2C0002900208800F0FCF868462188418001216F
:10D2D0000170FFF74BFF0EB070BD0298411C201D7E
:10D2E00000F03DF90028E3D101AA6946072001F0CA
:10D2F00075FA0028DED0F0E770B504000E00601C5F
:10D30000FFF78FFF002812D01022711C601C01F063
:10D31000E3F8451EAD41ED0F310011312000113011
:10D32000FFF78AFF002D01D1002800D0012070BD39
:10D3300030B587B00400207800282CD12079072848
:10D3400029D103AA0721608800F03CFB002822D1E4
:10D3500001F03DFA01AA6946072001F03FFA0028D2
:10D3600019D06088694609888842F3D002990498E8
:10D37000FFF7C2FF0028EDD005AD608800F080F80F
:10D380006880002028706088A88068460088E8804F
:10D3900005A8FFF7EBFE07B030BD10B51C4C1820F8
:10D3A0002070002019493E4A0C234343CB185A8071
:10D3B000401C0828F8D300F097F92070182803D0F3
:10D3C000201D71DF002800D0032010BD80B5FFF7BD
:10D3D000E9FEFF2804D00D490C225043085A02BD33
:10D3E0002F4802BD10B50C00FFF7DCFE0100FF293D
:10D3F0000AD02000054A0C2359435118091D072261
:10D40000FEF7D0FE002010BD052010BDA42900208D
:10D41000642D002038B504000D0000F043F800280A
:10D4200003D020882988884201D0002032BD0822FC
:10D43000A91CA01C01F050F8401E8041C00F32BD55
:10D4400010B584B0040001F0C2F901AA69460720B2
:10D4500001F0C4F9002810D0029946312000FFF7EE
:10D46000D9FF002806D102992A312000FFF7D2FF08
:10D470000028EAD06846008800E0094804B010BDE2
:10D4800010B50021204A0C234B43D2181488A04227
:10D4900004D0491C0829F5D3014810BD508810BD9F
:10D4A000FFFF00000188002908D142189278002A65
:10D4B00004D1491C0829F8D3002070470120704787
:10D4C00010B50C00FFF76EFEFF2803D00E490C22AA
:10D4D00050430C5210BD80B5FFF7F2FF01BD38B5C7
:10D4E0000500FFF7CDFF0400280000F045FA050015
:10D4F0000648844205D0002D03D101002000FFF72B
:10D50000DFFF280032BD0000A4290020FFFF00003B
:10D51000F0B58DB01400002500226E465342C318AA
:10D52000DB7BB354521C102AF8D30F000D213000BE
:10D530001030FEF78FFE0020395C4242B218D177DE
:10D54000401C0328F8D368464DDF2F21684230186D
:10D55000405C60556D1C032DF8D30DB0F0BD3EB599
:10D5600004000D002078022801D000203EBD0322D7
:10D57000611C02A8FEF716FE0322211D6846FEF775
:10D5800011FE01AA69462800FFF7C2FF032201A984
:10D5900002A800F0A1FF401E8041C00F3EBDFEE783
:10D5A00070B588B0050000266B4C2888102804D080
:10D5B00011284CD01A284FD068E0607D227D82432C
:10D5C000211D02A801F028FA01960EE0009602A89B
:10D5D000001D01994900435A1D2221001431201DCC
:10D5E00001F0E3F90198401C0190019802998842EA
:10D5F000ECD36846A9880180207DC143C8B201F000
:10D60000BAF95649884219D069460988221D400056
:10D61000115201236846028821001531201D01F0B6
:10D62000BDF901236846028821001431201D01F054
:10D63000B5F9A87D022805D1012304E0042001F0FA
:10D640000FFA23E00023AA88210016311BE00023F3
:10D65000AA882100153116E0287A0009022801DB8A
:10D66000012300E00023AA8821001731201D01F0CA
:10D6700095F9287A0009022801DD012300E0002342
:10D68000AA8821001831201D01F088F908B070BD6A
:10D6900070B506000024304D3200297D281D01F0B0
:10D6A000A8F9002809D03200A97D281D01F0A1F9B0
:10D6B000002801D0022400E00124200070BD80B5C4
:10D6C00002002548C17D001D01F093F902BD80B51F
:10D6D00002002148017EF6E780B51F490A7DFFE779
:10D6E000091D01F099F901BD00201B490A681300CA
:10D6F000C340DB0705D5401CC0B21828F7DB182053
:10D7000070470123834013430B60704780B50200CC
:10D7100011480368CB40DB0702D54118497ED2E7A8
:10D72000002002BD10B513000B4C2268CA40D2077E
:10D7300005D5020061181931201D01F02FF910BD27
:10D7400005490A68C240D20702D50818407E7047D2
:10D750000020704700000000C42B0020FFFF0000E5
:10D7600080490180FF2181700174417CF8220A40C8
:10D7700042740021C1604160816070470A6800E026
:10D78000521C082A08D2784914235343C9180B881D
:10D790008342F5D1080070470020704738B5050076
:10D7A0000C000020009069462800FFF7E7FF0028E2
:10D7B00005D08178A14202D00098401CF2E732BD2A
:10D7C00038B50400002506E0207C4119C9B267483D
:10D7D00001F0C1F96D1CE0688542F5D32000FFF728
:10D7E000BFFF31BD70B50500002600BF04A42800AE
:10D7F000B10061588847761C052EF8D370BD000033
:10D80000E5DC010031D301005FCC010091C20100D1
:10D810000DE30100F0B585B00400002704976846C9
:10D820001021FEF717FD6D46608868802079287109
:10D8300021796088FFF7B2FF012604212278092AA6
:10D8400044D801A39B5C9F4408085A2A2A5E62665A
:10D85000707E00280BD0417C314208D0FFF7B0FF2A
:10D860002F702078012800D000262E7228E02E701C
:10D87000A06820E0002810D08268A3689A420CD1EA
:10D88000427C324209D0AA4B1B685B1CA84C236027
:10D89000FE2313401943417418E002202870E06809
:10D8A00003900DE003200AE0297003E0052006E064
:10D8B00006202870E068029002E004960720287095
:10D8C0006846FFF78FFF01E0E06802909848006823
:10D8D000002815D00024049F2348142161434618D2
:10D8E000707C410703D4800707D5002F05D0B1789D
:10D8F000308800F067F9002804D1641C082CEBD3B1
:10D9000005B0F0BD31886980B1782971862802D1CF
:10D910000820287002E00921297002906846FFF76C
:10D9200061FFEDE73EB500250F4C14206843201839
:10D93000FFF716FF6D1C082DF7D35020029008202A
:10D94000019001200090CC2080002318A02292009A
:10D950002100B0312000A03001F092F8002800D062
:10D9600003203EBDFFFF00006420002004210020B2
:10D9700080B500F0D4FF02BD70B50500002600960A
:10D9800069460DE08178280000F0D4F8002802D024
:10D99000052800D003260098401C00906946280006
:10D9A000FFF7ECFE0028EDD12800002E08D100F092
:10D9B000C3FF002804D0072801D1072600E0032672
:10D9C000300062BD80B5002300F0CAFE02BD817048
:10D9D00042605021594389B2C91C891001807047A7
:10D9E00080B59BB2FFF7F3FF01BD8178012908D014
:10D9F000062906D0072902D0082904D0704714212F
:10DA000005E0012103E04168898809318908018026
:10DA10007047F8B584B0002B01D10E2083E06B462F
:10DA20001970694609780291072901D008290CD19B
:10DA30000192002A09D0092A07D26946488068461F
:10DA4000408800F084FF002801D107206BE0002609
:10DA50000396684601784088FFF7A0FE0400874FD0
:10DA600013D0E0680199884229D2002506E0207C85
:10DA70004119C9B2380001F06EF86D1CEDB2E068D2
:10DA80008542F4D32000FFF76BFEFF217C48FFF7AF
:10DA900085FE040023D068464088208068460078D0
:10DAA000A070207CFF281ED10199380001F00AF8EF
:10DAB0002074FF2815D12000FFF752FE0FE08142AD
:10DAC000EFD225000C00E4B2E86884422DD2287C15
:10DAD0000119C9B2380001F03EF8641CF3E71120C7
:10DAE00021E0012003900198E060217C380001F0E2
:10DAF0001AF8002801D1032015E0019B9BB2020017
:10DB0000684601780498FFF762FF0398002809D05F
:10DB10000298082806D1049800888000801F049984
:10DB200049688880002005B0F0BD2C00B9E70000EE
:10DB3000A42D002038B50024FFF730FE050001D1E8
:10DB4000052032BD6868002804D000F08CFE040077
:10DB500000D003242800FFF733FE200032BD000070
:10DB60007CB50E00072903D0082901D0072076BD17
:10DB70000025FFF713FE040001D1052076BD606883
:10DB800000281CD1217C3D4800F0CDFF020000BFE1
:10DB900048A003C86B4603C3684686700DD0E3688F
:10DBA0003100FFF71DFF6846FFF71FFF211D684684
:10DBB00000F040FE0500092D01D1032076BD2800AC
:10DBC00076BD0000F0B583B00E00072903D0082908
:10DBD00001D00720FEBD070038A003C86A4603C273
:10DBE0006846867031003800FFF7D8FD040001D187
:10DBF0000520FEBD0125607C284201D00020FEBD2D
:10DC0000217C1E4800F08FFF020001D10320FEBDE1
:10DC1000E36831006846FFF7E3FE6846FFF7E5FE7C
:10DC20002300083362686946380000F024FE154A74
:10DC30001368667C06213140062900D15B1E00284E
:10DC400002D1F921314010E0591C112807D10B00F5
:10DC5000FD20304004210143617400200BE0862840
:10DC600006D10B00FB21314002250D43657402E013
:10DC7000072800D003201360FEBD0000042100200F
:10DC8000FFFF0000A42D002080B500F064FE02BD5F
:10DC900080B500F064FE02BD80B513889B00009340
:10DCA0006B4600F05DFD02BD80B51300002200F060
:10DCB000E2FD02BD000000000000000000000000C6
:10DCC0000000000038B50400002505E02000AA008F
:10DCD0008918096988476D1C9B49C8788542F5DB1E
:10DCE00031BD0000F0B58BB0070014216846FEF787
:10DCF000B1FA78886C46A080FFF7C2FB6080924D35
:10DD00000721012000263A78092A00D983E002A3DE
:10DD10009B5C5B009F4400BF050E21353B43607F49
:10DD2000787A21703979217266720396A17A084354
:10DD3000A0726DE02170397921726672B968039121
:10DD4000A17A0843A072A868002861D0B968884207
:10DD50005ED1AE60A088E88017E008202070387996
:10DD600020726672B8680390F8680490A86800286A
:10DD70004ED0B96888424BD1AE60E868401EE8607A
:10DD800003E02170397921726072039640E0082126
:10DD90002170397921726072B868049038E00920E6
:10DDA0002070A878002833D0BC48FFF76DFFBB492E
:10DDB00088422DD10846FFF76BFFB849884227D12A
:10DDC000AE70142105A8FEF745FA05A80B210170D5
:10DDD000B2498180418014E00A202070B868029026
:10DDE000A878002814D0AE70142105A8FEF732FAE6
:10DDF00005A80C210170A94981804180B86807906D
:10DE000005A8FFF75FFF03E0052000E00620207073
:10DE10006846FFF757FF0BB0F0BD0000F0B587B0C4
:10DE2000070001200190142102A8FEF713FA02ACAA
:10DE30007888608068464449097901704249497987
:10DE4000417007200321022600253A78521E0B2A32
:10DE50006DD801A39B5C9F44EA0A2A50667A869299
:10DE6000A4AEB2CE012020703879020000D0012289
:10DE7000012800D10125684601787888FFF752FC17
:10DE80002A000CE026703879002800D0012626727E
:10DE90000122684601787888FFF744FC3A792A48DD
:10DEA00041797888FFF73EFC42E02170684641786E
:10DEB0007888FFF72BFC002800D0012626720BE0A3
:10DEC000684601787888FFF721FC00283AD126704F
:10DED00025722DE021702572B8792073B88821E071
:10DEE0002070B988A1802072657228E00821217015
:10DEF000B988A18020726572B86806901FE006207C
:10DF000020707868049013E005200EE021706846C8
:10DF100041787888FFF7FAFB002800D001262672A6
:10DF200025737448608103E00420207000E00195AF
:10DF30007888FFF74BFAA0800198002802D002A849
:10DF4000FFF7C0FE07B0F0BD102D002070B586B001
:10DF5000040014216846FEF77DF960886D46A880AC
:10DF6000FFF78EFA68800720052100222378092B0D
:10DF700021D801A6F65CB744080812161A222642D8
:10DF80002C3028706A720820287214E00D2008E0F6
:10DF90000E2006E028706A7229720CE00F2000E063
:10DFA0001020287007E0297005E006202870A0687E
:10DFB0000290A08868806846FFF784FE06B070BDB6
:10DFC00030B585B004002078002802D0012804D0A4
:10DFD00019E0E08800F094F815E001220B4841793F
:10DFE0006088FFF79FFB14216846FEF733F96D4602
:10DFF000608868806088FFF7E9F9A88000202870B1
:10E000006846FFF75FFE05B030BD0000102D002010
:10E0100010B5040038480078002808D02000FFF729
:10E020001FF92000FEF760FE2000FFF707F810BD83
:10E0300038B500F066FB002829D1FFF773FC0028F3
:10E0400025D1FEF72CFE002821D1FEF782FA002808
:10E050001DD1FEF764FF002819D100F078F90028DF
:10E0600015D1FFF79AF9002811D1234C0B48E08015
:10E070000025A560182020716071FFF735FB207125
:10E08000182804D0FFF730FB6071182801D1032055
:10E0900032BD657001202070002032BDFFFF0000FE
:10E0A00016490A78002A01D108207047CA78032A45
:10E0B00001DB042070479300CB181861521CCA7012
:10E0C0000020704780B50D490978002901D108204A
:10E0D00002BDFEF74DFE02BD80B5FEF75FFE01BD3D
:10E0E00006480078002800D1704780B5FFF712F885
:10E0F00001BD000001110000102D0020102D002096
:10E1000080B570490978002901D1082002BDFFF7C8
:10E11000E6F902BD38B53B480178002901D1082055
:10E1200032BD01218170364C200000E02800FFF74D
:10E13000ABFD0500A54205D0FFF7E2FF0028F5D0B2
:10E14000032032BD002032BDFFB585B02D480078D8
:10E15000002801D108204BE02948FFF795FD040075
:10E160000027009758A003C802AA03C2684603907C
:10E1700002AA06212000FFF78FFD00260025ED43AF
:10E18000290C0A46072835D1052031E00097009870
:10E19000B04202D306466846C4800098A84202D224
:10E1A0000546684684802000FFF76EFD040002AA41
:10E1B0000621FFF771FD0028E9D00528E6D0684662
:10E1C000C28881880E48844211D1059B0020002B13
:10E1D00000D01A80069A002A00D01660079A002AFA
:10E1E00000D011800899002902D00D6000E00320C2
:10E1F00009B0F0BD6B46D98069468A80DBE7000034
:10E20000FFFF0000102D0020F0B587B007002D4D56
:10E210002878002801D1082051E000BF2CA003C8B5
:10E2200005AA03C2687800280DD100230022290026
:10E230000C31A81DFFF788FF002801D0052802D166
:10E240000120687002E06878002802D0A8680028E1
:10E2500001D0112432E0E8680026EA8897421AD1FA
:10E26000002818D0002414216846FDF7F3FF6D46FE
:10E27000072028703800FFF703F96880AF80062078
:10E2800028726E720396A87AFE210140A972684630
:10E29000FFF718FD12E0401CE8602A00083205A9CB
:10E2A0003800FFF701FD040008D0AE60E868401EAA
:10E2B000E860112C02D0862C00D00324200007B087
:10E2C000F0BD0000102D0020010000000000000043
:10E2D000010006001C2D00201CB500BF7AA003C859
:10E2E0006A4603C26D4C002269462088FFF7DCFCB9
:10E2F00021886B4A914208D0112806D00800FFF708
:10E30000C3FC208000226946F0E713BD1FB504005E
:10E310002078012813D12079012810D102AA0121E7
:10E320006088FFF74FFB002809D168460221017081
:10E3300061884180039909780171FEF7A5FD57486E
:10E3400000885749884201D0FFF7C6FF1FBD5448D7
:10E350005249088000207047FEB50400FFF736F8E8
:10E360004F49884201D14F48FEBD012669460C80C5
:10E370000700002401ABB6B2320008213800FFF7D5
:10E3800048FB761C002821D1029803210160032359
:10E39000021D811D68460088AADF05000DD00C2DE6
:10E3A00010D1012408213800FFF7C4FB002800D059
:10E3B0000325002CDDD12800FEBD38000821FFF721
:10E3C00001FCFEBD052DEDD10025EBE70728F3D1BB
:10E3D0000C20FEBDF0B585B00600FEF7F7FF002764
:10E3E00001970025032401216A4611702C498842B7
:10E3F0000AD002AA0821FFF7E5FA002804D1039801
:10E40000811D01918588046801992A0023006846CE
:10E41000047806E0002901D1002A0DD00021002255
:10E4200003233000A9DF042803D0082807D10020E7
:10E4300000E01120002C00D10B2005B0F0BD0B280E
:10E44000F8D100249807E5D50123EAE780B5144800
:10E45000FFF71AFC11490880FFF73EFF01BD00B528
:10E4600083B0FEF7B3FF6A460121FFF7ABFA00283D
:10E4700001D000200EBD019800780EBD10B503003C
:10E48000094C074A02E02088401C2080218818009F
:10E49000A7DF06498842F6D010BD0000A82D002055
:10E4A000FFFF000002300000AA2D00200330000012
:10E4B00000B583B006A10CC969460CC100226946AB
:10E4C000FFF7F2FB07BD000001000100381B02004E
:10E4D000010001003C1B020010B402E0401C491C7A
:10E4E000521E002A09D00B7804789C42F6D002D242
:10E4F0000020C04302E0012000E0002010BC704773
:10E5000080B5FFF787F901BDC0210902884204DB0D
:10E51000B149884201D00120704700207047C021D6
:10E520000902884204DBAC49884201D001207047CF
:10E530000020704781B0072809D0012807D008289B
:10E5400005D0052803D0062801D0042801D10120D8
:10E5500000E0002001B07047F0B589B068460021A6
:10E56000002206C09C4D280000F0A1FBC026360208
:10E5700005E0200000F051FB200000F098FB0400B3
:10E58000AC4223D0A7196A4602A9B8B2FDF70FFC26
:10E590000A28EED0A64D6878002817D101266E70A3
:10E5A000B8B2FDF7B3FB082801D12E700EE00028A9
:10E5B0000CD00021697005AA092313705480FF2331
:10E5C00013710791089005A8FFF79AFF09B0F0BDF5
:10E5D0007CB505000C0016002000FFF7ABFF684675
:10E5E0000021002206C0C02000026B463200211824
:10E5F00089B2281880B2FDF7CBFB002800D0052097
:10E6000076BDF0B585B004006068401E8041C00F43
:10E6100003908027FF0100256E462078012807D04F
:10E6200065D3032825D003D305285BD03AD35EE019
:10E63000A089FFF769FF002804D1E089FFF76FFF89
:10E64000002854D0A089C0197080E08930716068BA
:10E650002178012905D1002801D1002106E00321FC
:10E6600004E0002801D1012100E004213170039071
:10E6700015E0A089FFF748FF002804D1E089FFF7E3
:10E680004EFF002833D0A089C0197080E089307116
:10E690006068002801D1022000E005203070A068E9
:10E6A000029021E0A089FFF72FFF00281FD0E0890A
:10E6B00000281CD1A089C0197080E1893171FF2127
:10E6C00031716168002905D10621317080B200F0F6
:10E6D000A4FA01E00720307055490D704D70FFF726
:10E6E0003BFF01E0082030706846FFF709FF504803
:10E6F0000078002803D04E480570FFF72DFF05B0C5
:10E70000F0BD10B588B08848FDF723FA002801D085
:10E71000032023E0FDF730FA002801D086201DE019
:10E7200000F030FA68460021002206C00EE002A97F
:10E7300004A8FDF760FA029880888021C901441876
:10E7400004A8FDF776FAA0B200F053FA6A4604A9CD
:10E750007648FDF724FB0028E9D0002008B010BD62
:10E76000F0B585B0070015001C00FF2F05DC0E007A
:10E770003000FFF7DFFE002801D1072025E002AAC4
:10E7800031003800FFF724FF002805D1694602A8B0
:10E79000FDF731FA002801D0052016E0AE70009890
:10E7A00040882880002C0AD082002068824204D34E
:10E7B00001996868FDF7F6FC03E0042005E0019884
:10E7C000686002A8FDF735FA002005B0F0BD584892
:10E7D0000021002206C07047FFFF000070B586B020
:10E7E00004000E001500524A02A98020C001201A20
:10E7F00080B2FDF7D4FA002805D1694602A8FDF7DA
:10E80000FAF9002801D000200FE0AC700098408891
:10E81000288001986860009880888021C90140188C
:10E82000308002A8FDF705FA012006B070BD000097
:10E830009523002038B504000D00A078FFF77AFE7C
:10E84000002801D1072032BD21882800FDF710FAE9
:10E85000002807D0072802D0092803D001E086202D
:10E8600032BD032032BD01B56846FDF718FA002815
:10E8700000D0032002BD74B589B004001E00FF2C37
:10E8800005DC0D00A878FFF755FE002801D1072010
:10E8900043E068680090288869468880C0210902A2
:10E8A00005A862180280AA7851184180694606912D
:10E8B0000121018102AAA9782000FFF789FE05281D
:10E8C00009980CD1002804D105A902A8FDF705FA82
:10E8D0000EE009AA05A902A8FDF702FA08E000283F
:10E8E00002D009A8FDF7DBF905A902A8FDF7FFF999
:10E8F000002806D007280DD0082809D00E2807D0F8
:10E900000AE0310002D002A8FDF759FA002004E025
:10E91000112002E0862000E003200AB070BD80B51F
:10E92000044800F066F902BD03E6010007C00000DC
:10E93000902D0020FFFF000080B5FF2801DD07209B
:10E9400002BD00F05BF9FFF707FE002002BD80B5B5
:10E9500000F06FF902BD80B500F096F902BD80B5F8
:10E9600000F0A5F902BDFEE701228A400240100036
:10E9700000D00120704738B5050000242100280090
:10E98000FFF7F2FF002805D1641CA4B2082CF5DBC8
:10E99000014832BD200032BDFFFF000080B500936A
:10E9A0001300012200F001F801BD70B582B00D0026
:10E9B000190000280BD0002D09D0130007D0002229
:10E9C0005600865B8E4203D0521C082AF8D373BDD2
:10E9D00006980021012494401A009142F7D26E1843
:10E9E0003378002801D1A34300E023433370491C4E
:10E9F000F3E710B503000800002B07D000214C00FE
:10EA00001C5B944204D0491C0829F8D3002010BD97
:10EA100089B2FFF7A9FF10BDF0B585B0040000254D
:10EA20000095002914D00F001600A9B2F0B2FFF72C
:10EA30009BFF002809D06800385A6946009A5200A6
:10EA4000891888800098401C00906D1C082DECD31C
:10EA5000200069461422FDF7B9FB05B0F0BDFEE7C2
:10EA600010B584B0040068460C21FDF7F3FB029456
:10EA70006A460021014800F025F91FBD0140000051
:10EA800070B500281CD00D001AD0002B18D0069E9F
:10EA9000059C210071438A4212D30499E21DD208D9
:10EAA00091420DD3002C0BD0002E09D0056043609D
:10EAB0008460C660A1B2406800F02CF9002070BDEF
:10EAC000072070BD70B582B006002AD030680028DB
:10EAD00027D07068002824D00091FF2400250AE088
:10EAE0002100300000F037F8641CE4B2AC42F7DBE0
:10EAF000FF246D1CEDB2B068854212D22900706807
:10EB000000F011F9002809D0FF2C00D12C00281B9F
:10EB1000401C00998842ECD1200076BDFF2CE8D043
:10EB2000E3E7FF2076BD38B505000C00002D10D0BE
:10EB3000286800280DD0686800280AD0FF2C08D06B
:10EB400000F036F9002804D02868E9684C43001921
:10EB500032BD002032BD38B505000C00002D0FD0AD
:10EB6000286800280CD06868002809D0FF2C07D03E
:10EB700000F01EF9002803D02100686800F0E2F8D8
:10EB800031BDFEE738B54C4C40212000FDF762FB5B
:10EB900080256D002900200000F0BCF8290020002D
:10EBA000203000F0B7F831BDF8B506000800434C3E
:10EBB0002500310080277F00A14207D1390000F0F5
:10EBC000DDF80500BD4208D1250006E0B94204DAAF
:10EBD00000F0A9F8002800D035002800F2BD02009E
:10EBE0000800FF2A00DD704780B5110000F0AAF888
:10EBF00001BD80B53049FFF7D7FF02BD10B5040055
:10EC00002E48844207D02E492000FFF7CDFFA042B6
:10EC100001D1012010BD002010BD38B50500264CE3
:10EC20002100FFF7DCFF210020312800FFF7D7FF8C
:10EC300031BD80B50100FF2903DC1F4800F0B8F8A2
:10EC400002BD002002BD80B50100FF2903DC1C4885
:10EC500000F0AEF802BD002002BD70B50E00174DE9
:10EC6000A84201D1002403E0441CA4B2FF2C09DC1B
:10EC70002100300000F09CF8002801D0200070BD79
:10EC8000641CF2E7280070BD38B50B4C2100FFF77B
:10EC9000E4FF05000948854207D02800FFF7D3FFAD
:10ECA000002802D021002800F1E7280032BD80B5FD
:10ECB0000349FFF7D2FF02BDD42A0020FFFF000066
:10ECC000F42A0020BFF34F8F034804490860BFF3C4
:10ECD0004F8F00BFFDE700BF0400FA050CED00E018
:10ECE00070B582B005000C00002000262978214272
:10ECF0000ED169460870684600F06CF8287820420A
:10ED000002D104432C7001266846007800F079F89F
:10ED1000300076BD002800D1704780B5C91DC910EC
:10ED2000FDF796FA01BD0A00002800D1704780B5B2
:10ED3000012153075B0F9940C9B2D2088018FFF731
:10ED4000CFFF02BD38B54A05120E01244907490F0D
:10ED50008C40E4B2002810D08518287820420CD0CE
:10ED6000002069460870684600F034F82878A0430F
:10ED700028706846007800F044F831BD70B5060090
:10ED80000800002E13D00025040000E06D1CA542F1
:10ED90000CDA01216807400F8140C9B2E810301831
:10EDA000FFF79EFF0028F1D0A8B270BD200070BD13
:10EDB000002807D0CA08825C4907490FCA40D0071B
:10EDC000C00F704701207047EFF3108072B6704794
:10EDD00062B6704738B50400FFF7F6FF0121134A09
:10EDE0005368002B07D151601149124B1D680D402B
:10EDF0001560196000212170002801D1FFF7E8FF9C
:10EE000031BD10B5094C616800290CD000280AD129
:10EE1000FFF7DAFF2168084A1160002161600028CD
:10EE200001D1FFF7D5FF10BD00000000702D0020BC
:10EE3000FC06FFBC80E100E000E100E018B5C20084
:10EE400018231340FF249C40E2438907090E994090
:10EE5000002804D59A4B0007000F083800E0994BB2
:10EE600080088000181803681A401143016011BD22
:10EE700000280FD094490968BE4A00BF00BF00BFF8
:10EE800000BF00BF00BF00BF00BF914200D000BF65
:10EE90000138F2D1704738B5802080028B49086074
:10EEA0008B488021490201640160B34C0125256033
:10EEB0002F20FFF7DDFF6560BB4C002525612F206B
:10EEC000FFF7D6FFA57231BDF8B5B74C2578E068DD
:10EED0000090002217E00800C969002913D0B94248
:10EEE000F9D1884207D1F669E660002E03D1AF4E12
:10EEF00033602261E3720B68C969C161002902D0E5
:10EF00000868C0180860E66801236178E8B28842A2
:10EF100018D06068EDB21821694340186D1CA778BD
:10EF2000E9B2B94200D100250178022902D00329B3
:10EF30000FD0E8E7476830000100CEE70274C069EF
:10EF4000E06006E00098864201D00120F2BD00207A
:10EF5000F2BDE0680028D6D0F0E7F1B581B0924C60
:10EF6000E0680090002300E0E260E0680121019A7F
:10EF7000002A2CD122786578AA4250D065681826DC
:10EF80005643AD19521CA778D6B2BE4200D100221A
:10EF900022706A682E78012EECD1167C002EE9D101
:10EFA000AE685660EE6896602E69D6606D699561B0
:10EFB000E57A002D00D0536055682669AE1B3602F5
:10EFC000360AA54FBE4205D2956875190AE0D56983
:10EFD0000195F1E72669751B2D022D0A9668B54249
:10EFE00002D2751B156000E01360536093601174CA
:10EFF000D3610028B8D001681568A94203D3491B22
:10F000000160D061B0E701000E68AE420CD2AD1BCA
:10F010000800C969002909D0F6E70020F6BD009A6A
:10F020009042FAD00120F6BD761B0E601560D161CA
:10F03000C2619AE7FEB55C48C06800283DD0006810
:10F040000290A94C20680090574800690190A74D94
:10F0500000980199461A2E40F61C8027BF0252489C
:10F06000807A002810D1A248790801640160B8486C
:10F070000760B84807600120B74908602F20FFF7F4
:10F08000F7FE0120484988720298864200D20600A5
:10F09000019880192840E0632168009A801A28406E
:10F0A000891A0D40ED1CA84209D22068E0632F2088
:10F0B000FFF7DEFEC1480760F7BDFFF7ECFEF7BDC6
:10F0C0001CED00E000E400E03820002080E100E0DA
:10F0D00008130140FEB500200090334C20690190D8
:10F0E000E1680291217A627A91420DD0491CC9B23D
:10F0F000022900D100218A00A2185769C019000214
:10F10000000A2061012501E0002700252172FFF798
:10F11000DBFE0600E068002D1CD000210FE07F1B05
:10F12000491900251D600090D869DD68002D07D0C1
:10F13000019E76183602360A5E609D60DA61009A9A
:10F14000002815D003001D68AF42E8D20092E91BE9
:10F1500019600126E0600098FFF7FFFE002801D14A
:10F16000002E02D00298FFF765FF0020E072F7BD85
:10F170000092EEE70024F4000410014030B5994AF3
:10F1800051784B1C9578DCB2AC4200D10023157845
:10F19000DCB2AC4201D1002030BD037050681822AF
:10F1A0005143401830BD0000742C0020081001406D
:10F1B000F2B582B0040017001D0000200026694649
:10F1C00008706846FFF706FE00A8401CFFF7D6FF50
:10F1D000002801D104260DE002990122027044604A
:10F1E000414A12688260C1600761456168464078A3
:10F1F0007C49487068460078FFF703FE002E03D173
:10F20000802040036D4908603000FEBD70B582B0BB
:10F2100005000C0000200026694608706846FFF7CC
:10F22000D9FD00A8401CFFF7A9FF002801D1042642
:10F2300005E004704560684640786A494870684651
:10F240000078FFF7DEFD002E03D1802040035B49EC
:10F250000860300076BD0000FFFF7F00F8B562480F
:10F260000027076447648764C764076047605D4E92
:10F27000F568002D37D000241B4800683169401A1A
:10F280000002000A009028680099814218D3091AE8
:10F29000009124182800ED69017C00290ED0077424
:10F2A00042698169F369002B06D010009847002855
:10F2B00004D0FFF7D5FB01E008009047002DE2D114
:10F2C000707A317A814205D1401C7072C0B2022836
:10F2D00000D1777230001430717A89004450802058
:10F2E000400336490860F1BD04150140FFFFFF00EF
:10F2F0000413014080B5FFF7EDFE01BDF8B5140021
:10F30000920701D1002C01D10720F2BD1E000F0091
:10F310000090FFF7C0FD334DEE6100202880AF70F4
:10F320006C60E8602881802464030948046003213C
:10F330001420FFF783FD074804602C4C00986060A0
:10F3400003211120FFF77AFD206828610020F2BD1B
:10F3500080E200E000E100E000100140214B5B682A
:10F36000002B09D0130001D0002801D107207047DD
:10F370000068037C002B01D008207047037441749F
:10F3800042610020704780B51300164A5268002A77
:10F3900008D0002806D0052901D2072002BD426905
:10F3A000002A01D1082002BD427C012A01D10A00B5
:10F3B00000E00022FFF7FCFE02BD000000E200E0DA
:10F3C00080B508494968002904D0002802D0416965
:10F3D000002901D1082002BD002101740221FFF79C
:10F3E00015FF02BD742C00200011014004150140DE
:10F3F0000870000A4870022070477CB504000D00B8
:10F4000028880930824201D20C2076BD684671DF1F
:10F4100000281FD10820298860542888401C288093
:10F420001B2180B221542888401C28806E46062269
:10F43000711C80B22018FCF7B5FE2888801D28803A
:10F440003178002900D0012180B221542888401C45
:10F450002880002076BD70B582B004002578012D8B
:10F4600004D16078002801D1072076BD1688B01C31
:10F47000834221D3012D04D160783018801C83424F
:10F480001AD30D00981B831E6846038069461088B6
:10F490002818801C7DDF00282ED121780820022921
:10F4A0000ED16C46248899B2A14207D269460B80DE
:10F4B00069460988FF290DD30C2076BD0920F7E79E
:10F4C0000129F3D1667899B2B14200D931006B4677
:10F4D0001980EDE769460988491C1388E9541188A9
:10F4E000491C118089B268541088401C10806946FC
:10F4F000098840181080002076BDF0B585B00A9CC0
:10F500000B9D00262788029700270390684681708C
:10F510004270858521E0022021886A46928D6D46E1
:10F520002D784D19281882423FDB002E09D1491C45
:10F5300021806846807889B258542088401C2080F9
:10F54000012620881A18694601A865DF002821D104
:10F5500020880978401820807F1C03980088874203
:10F560001ADA01A803994968BA0089180A88028042
:10F570004A8842800022694665DF00280AD1684631
:10F58000007849788842E7D1002EC4D00020C3E734
:10F590005854002005B0F0BD002EFAD02088029902
:10F5A000401A401E80B2FF28F2DD0C20F2E7F1B5D0
:10F5B00082B014001F00089E099D0195009602224A
:10F5C000FFF79BFF002807D12100019500963B0023
:10F5D00010220298FFF791FFFEBD7CB582B00200B9
:10F5E00002980588A81D834201D20C2011E00092E8
:10F5F000108806280CDB1E4B1E4CA04201DB9842F3
:10F6000006D15688062E03DBA64204DB9E4206D0B6
:10F61000072004B070BD984201D08642F8D30C0098
:10F620000520605502980088401C0299088012212C
:10F6300080B2215402980088401C0299088080B250
:10F64000211800980088FFF7D3FE0299098808184E
:10F650000299088080B2211800984088FFF7C8FE00
:10F66000029909880818029908800020D1E7000053
:10F67000FFFF0000810C000070B504001500A08899
:10F68000801C2A881618B61CB34201D3FF2801D368
:10F690000C2070BD0E00401CB0542888401C2880EF
:10F6A000FF2180B231542888401C288080B2311854
:10F6B0002088FFF79DFE298808182880A288002A44
:10F6C0000CD0A168002901D1072070BD80B230188C
:10F6D000FCF768FD2888A18840182880002070BDAC
:10F6E000F8B5836A002B39D0002500900F00160072
:10F6F00022E0401C318878543088401C308016212C
:10F7000080B239543088401C308080B2391820884B
:10F71000FFF76EFE318808183080A288002A0AD0D0
:10F72000A16800291AD080B23818FCF73BFD308858
:10F73000A188401830806D1C00992C22895CE8B2A9
:10F7400088420DD20098806AEDB20C2169434418BA
:10F75000A088801CFF28CCD30C20F2BD0720F2BD6E
:10F760000020F2BDFEB506000D0014000020218827
:10F770006A46118120802D21715C002907D06846DE
:10F78000028921002800FFF738FE002845D169468C
:10F790000F89B17800291DD02088001D87423BD3F6
:10F7A000684679DF002838D10320218868542088F2
:10F7B000401C2080192180B229542088401C2080C0
:10F7C00080B2291868460088FFF712FE21880818C1
:10F7D00020800020F2780221002A14D052B223881F
:10F7E000D81C874218D3E9542088401C208001236C
:10F7F00080B22B542088401C208080B22A5420885C
:10F80000401C208000207268002A17D0002010566B
:10F810002288D31C9F4201D20C20FEBDA95421880E
:10F82000491C21800A2289B26A542188491C2180FE
:10F8300089B268542088401C20800020318900292A
:10F840000CD068460089019000942B00062202210A
:10F8500030000830FFF7ABFE00284ED1318A002976
:10F860000CD068460089019000942B0007220321E8
:10F8700030001030FFF79BFE00283ED1318B00296D
:10F880000CD068460089019000942B0015221421A9
:10F8900030001830FFF78BFE00282ED1376A002F7A
:10F8A00008D068460389220029003800FFF795FE3A
:10F8B000002822D1776A002F08D0684603892200E9
:10F8C00029003800FFF7D8FE002816D12C21715CE2
:10F8D000002908D068460389220029003000FFF77C
:10F8E000FFFE002809D13178002906D06846038937
:10F8F000220029003000FFF7AEFDFEBD70B592B0CA
:10F900000C001F216A4651801180002500280AD072
:10F91000C17849070FD5921C09A9FFF723FF0028DA
:10F920001DD109AE02E0002669464D8020000CD0B2
:10F93000C178002901D0072011E06A4601A9FFF72C
:10F9400011FF00280BD101AA02E0002268460580C1
:10F9500068460388DBB24188C9B2300072DF12B05A
:10F9600070BDFEE75B4940180068012800D0002008
:10F97000704730B5039D049C52000A43990011431F
:10F980002A020A4321041143534A8000115030BD1A
:10F99000A022D20580001018E022D2008018026850
:10F9A0004E4B134003600268090411430160704725
:10F9B00038B56B4608A425681D60030008E06C4656
:10F9C0009D006459A225ED0064591460121D5B1C52
:10F9D0004418A342F3D331BD000000500122430775
:10F9E0005B0F9A40C008085C104070473C490818FB
:10F9F0002021405604288041C00F7047384908181C
:10FA000020214056042801DB012070470020704768
:10FA10003349081820214056C043C00F7047F3B542
:10FA200003000020C0430425110002D10421082551
:10FA300000E000212A4C00E0491CA94211D28E00AE
:10FA4000A619009636688642F6D108000199E61894
:10FA50002027F055009D2960002A02D121183C2260
:10FA60008B5440B2F6BD1E490022D2438300CA50D7
:10FA7000042802DB08183C214254704770B5184C2A
:10FA80004420205C002801D0082070BDFF222021E6
:10FA900020002030FCF7BEFB002500263000FFF7D9
:10FAA000E2FF761C082EF9DB0321062000F084F922
:10FAB0003548056080200006344908600120442153
:10FAC0006054002070BD32480078002800D001202A
:10FAD000704700000060004000070050FFFFFCFF7F
:10FAE0004C2A0020F0B583B007000D00160000245A
:10FAF000FFF78EFF002801D0082443E031002E00DC
:10FB0000F2783800FFF78BFF05000020C0438542E4
:10FB100037D0B07800280BD0A020C005B90040181D
:10FB2000E021C9004018016802229143016007E00A
:10FB3000019000907378002200213800FFF719FF30
:10FB40003078F178002913D03349AA0089180A685F
:10FB5000374B13400B600A683B02F8256D011D40CE
:10FB60000004C0239B0203402B4313430B6009E0B6
:10FB70008A494A193C23D25C800110434919C85470
:10FB800000E004242000FEBD7C61004004630040CE
:10FB9000902A0020F1B50F00804C25180126FFF7B0
:10FBA0002DFF002816D02020285620183C21405632
:10FBB0000006800F0221032805D179480068009BC8
:10FBC000D840064000E0012800D003210098FFF74C
:10FBD000DFFEF1BD0098FFF709FF00281AD02020B2
:10FBE00028560D49820089180A6832430A600021AC
:10FBF00082003302D21812B20C4BD2181160002FBF
:10FC000008D02021695689006158002902D0864019
:10FC100064480660F1BD0000106500406049096855
:10FC2000C140C807C00F70470000000000600040DE
:10FC3000FFE0FCFFF0B585B0002468460460802535
:10FC40006D000126042728B2FFF78CFE002809D09A
:10FC500054480068304005D000202DB2544969183E
:10FC60000860344376002D1D7F1EECD126008027CE
:10FC70003F06BE204000FFF775FE002807D0002099
:10FC80004A4908603E436A460121FFF791FE30076A
:10FC900015D00124002534420DD0A9004248421855
:10FCA000106813683D4A5258110004D09903890F17
:10FCB000C004C00E904764006D1C042DEBD3374088
:10FCC0006AD002A8002101600020C04301E000903A
:10FCD000029801900024049430480499401840216F
:10FCE0004056C5B22F00C0218F430021C94388422E
:10FCF00042D001A93800FFF771FE00283CD0280649
:10FD0000800F03902548C119202289568900465842
:10FD10003000039802D103282ED101E0032809D135
:10FD2000F80802A90818017801227B075B0F9A40A6
:10FD30000A4302701F48B90040588003850F694686
:10FD40003800FFF74BFE002802D0022D14D101E04D
:10FD5000032D11D10398032808D1022D01D10321CD
:10FD600000E002213800FFF713FE641C300003D0CE
:10FD70000399C9B23800B0470498401C0490042885
:10FD8000AAD3240608D003AA01210020FFF710FE01
:10FD90000398009988429AD105B0F0BD4C2A002002
:10FDA0001005005004630040106500407C61004075
:10FDB000006000400007005018B5C200182313402F
:10FDC000FF249C40E2438907090E9940030007D5B0
:10FDD0000C4B0407240F083CA408A4001B1903E0E3
:10FDE000094C83089B00E3181C68224011431960EA
:10FDF0000121C006C00E8140044801600448016032
:10FE000011BD00001CED00E000E400E080E200E035
:10FE100000E100E07047000001780E2900D970472A
:10FE200080B501A2525C97440E5E185E22344E5E8D
:10FE3000425E4E464E5E5A008088FEF7E5F9112874
:10FE400012E08088FEF7E0F911280DE00FA1097893
:10FE50006A46117069464088FEF73EF901BDFBF71E
:10FE600076FF0E2810D008280ED006E0002006E00D
:10FE7000032000F09FFA00E08068002804D0FEF71D
:10FE8000EFFD01BDFEF72CF901BD00000000007878
:10FE9000002800D0704780B53B216E48008876DF8F
:10FEA00012E080B5FEF7DCFD01BD80B5002000F05A
:10FEB000E9FC002801D0FEF7D3FD00F097FD0028F3
:10FEC00001D0FEF7CDFD3CDF002801D0FEF7C8FDD4
:10FED00001BD80B5002809D0032809D1022000F017
:10FEE000D1FC002804D0FEF7BBFD01BDFFF7DDFF0C
:10FEF00001BD10B588B00400208802281DD010284C
:10FF00000CD0112806D03A2813D0512819D05528E2
:10FF10000FD038E0002000F0B5FC30E0072000F002
:10FF2000B1FC002801D0FEF79BFDA088B6490880EF
:10FF300029E01321A08876DF21E00021A08867DF77
:10FF40001DE06846A11D1022FCF72CF968460078D8
:10FF5000002818D06846007A042803D0062801D06B
:10FF6000052810D104A869460978022900D001218A
:10FF70000170C1214900818004A9A088A8DF002860
:10FF800001D0FEF76DFD08B010BD10B50400FDF7FF
:10FF900007FB2000FEF73CF8200000F01DFE2000CB
:10FFA00000F035FD2000FFF7A4FF200000F0EAFA82
:10FFB0002100964800F048FF10BD10B50400FCF782
:10FFC00091F8200000F009FB10BD80B50100214828
:10FFD0000088042906D0072907D00A2910D1FFF785
:10FFE00064FF01BD132176DF04E08949884207D10F
:10FFF00000F00CFB082803D0002801D0FEF730FDEC
:020000040002F8
:1000000001BD10B598B03C2109A8FCF723F909A857
:1000100002210170012484700621C17004827D4890
:100020000E90202101A8FCF715F901A8C4709620B4
:1000300040000590B420069000200090764B01AA65
:10004000002109A800F00FF9002801D0FEF708FDF3
:1000500018B010BD3C20002070B588B06B4E002356
:100060003200183205210020FFF748F9002801D09E
:10007000FEF7F6FC694A6A49032000F00FFC0028ED
:1000800001D0FEF7EDFC6946002000F0FBFC0028E3
:1000900001D0FEF7E5FC002568460078022801D172
:1000A000012400E0002400BF69A000680090002344
:1000B000482231009031684600F0B5FF002801D099
:1000C000FEF7CEFC01AA0121002000F0EEFF00287F
:1000D00001D0FEF7C5FC01A800F0FEFF002801D00A
:1000E000FEF7BEFC4F4800F0C2FF002801D0FEF72B
:1000F000B7FC4D4800F0C3FF002801D0FEF7B0FC6C
:10010000FDF796FF002801D0FEF7AAFC002C05D0D1
:10011000FEF700F8002801D0FEF7A2FC0521684692
:10012000FCF798F8684631210170072141701021D1
:1001300081700324C17803220A43C270017903222B
:100140000A430271FDF7BEFF002801D0FEF788FCCC
:100150003648FDF7A5FF002801D0FEF781FC1120ED
:1001600069460870112200BF34A168467CDF002870
:1001700001D0FEF775FC01A80021002206C001A8ED
:1001800050210180A02141808580F031C1807ADF3B
:10019000002801D0FEF764FCFFF733FF684600211A
:1001A000002206C022480090684604210171417176
:1001B0006946300000F0AEFD002801D0FEF750FC8B
:1001C0001C216846FCF746F80095A02080020190AB
:1001D000F0200003029068460473C5810574154839
:1001E000059015480690684600F0A4FC002801D050
:1001F000FEF736FC032000F0DDF8002801D0FEF702
:100200002FFC48DFF9E700003C2000206C2700208D
:10021000FFFF000020200020D3FE0100CBFF0100E3
:10022000CD0C00008BFF0100BBFF010019FE010097
:1002300015FE01008FFE0100A3FE01004E6F7264E7
:1002400069635F427574746F6E6C65737300000050
:100250000100000752480179002902D1007B0028E3
:1002600000D001207047F2B582B004001100002CCC
:1002700001D0002901D10E20FEBD089E1F000120E3
:10028000474A10760025D57646482022FBF79EFF88
:1002900043484762866244484149088407214348ED
:1002A000FBF7D8FF424E3C213000FBF7D3FF20780C
:1002B0003070A078B070E078F070607870702000D6
:1002C000103003C83200103203C22000083003C8C7
:1002D0003200083203C22000183003C8320018323E
:1002E00003C2A74801004031626A002A0FD0716240
:1002F0008860626A13880B8093888B80002204E0F8
:10030000676ABF68BF5C8754521C9A42F8D3A26ADE
:10031000002A1AD0020020324A6102004C32B26236
:10032000A26A93880B8212888A81002206E0A36A5F
:100330009B689B5C07002037BB54521C0B8A9A4277
:10034000F5D32C22A25C2C23F254226A002A07D077
:10035000020058323262226A53884B8312880A8321
:100360006168002900D071600021CA00521A821809
:100370005C320B4B1B688C001A51491C0829F4DBBA
:10038000290141189431064A9268AB00D1506D1C86
:10039000082DF5DB02993000FFF7B0FAFEBD000032
:1003A000E81F0020942C0020FFFF0000F81F002011
:1003B000542B0020F0B587B0924C217E002901D14A
:1003C0000820D8E00600E6766846FBF77DFE0125AA
:1003D0000098002801D06576CCE00721200010307D
:1003E000FBF738FFE07E884F7978002901D001289B
:1003F00006D0B97800290CD0012801D0022808D1F4
:10040000616A002903D025770820884701E0002091
:10041000207700202118497C002900D0ADE0401C45
:100420000628F7D30020012E06D01DD3032E11D0AD
:1004300009D3042E13D017E07978002903D00028BF
:1004400008D0012011E0B978002903D0002801D09C
:1004500002200AE0F878002801D0032005E038796E
:10046000002801D0042000E00020E076616A002925
:100470000ED0E07E032801D0042809D13878002866
:1004800006D0607F002803D1A5770720884701E0C8
:100490000020A077182101A8FBF7DCFE01AE0020A8
:1004A00030703072607FE17E00295CD002290CD070
:1004B00003D3042939D013D32FE0A57620001030C0
:1004C00002903570002030612AE00220A0762000E2
:1004D000103002903570F8687082B86830821FE082
:1004E00039693182796971823978002901D1032013
:1004F00023E00028FBD1FFF7ADFE0028F7D00494DD
:100500000220307204204D49C87000214B48FFF78B
:10051000F5F9002801D10520A076E07E002824D03E
:1005200001A873DF002820D025E0B9693182F9697C
:1005300071823978002902D10420A076F0E70028E2
:10054000FAD1FFF787FE0028F6D00494022030721B
:1005500004203A49C87000213848FFF7CFF9002835
:10056000DBD10620D8E70020A076616A002901D0FF
:10057000A07E8847002007B0F0BD012053E70000AF
:100580005826002010B582B02D4C0188102904D0C7
:10059000112908D01B290ED013BD817D01291BD143
:1005A0008088208413BD002161778088218C884257
:1005B00012D1012008E0007A00280DD1E07E401C15
:1005C000052100F0ABFDC8B2FFF7F4FE002803D010
:1005D000A16A002900D0884713BD801E012800D9D8
:1005E000704710B5164C607E00280AD00020607657
:1005F000E07EFFF7DFFE002803D0A16A002900D0CB
:10060000884710BDE81F0020942C002010B574DF2F
:100610000B4C0120607709480621C1700021FFF7CB
:100620006DF9002809D1E07EFFF7C4FE002803D051
:10063000A16A002900D08847002010BD542B00205B
:10064000E81F0020A022D20580001018E022D2006E
:1006500080180268B14B134003600268090411431B
:100660000160704780B500F0E5FD02BDF1B582B0D4
:100670000D0000246846007A00F0F0FD04282FD217
:100680002900A74E42001218B5183718002917D0B4
:1006900002291ED01ED22C78687800280DD0320096
:1006A0000E3271690A20414330006030FEF76BFE64
:1006B000002802D16846007AB073A878387409E03F
:1006C00030006030FEF77CFEAC78387CA04207D169
:1006D00000E06C78200003D0F169002900D0884741
:1006E000F7BD80B502210078FFF7C0FF01BD000013
:1006F000F8B5070000200025894C617B002902D055
:10070000607300F064FD022601203900172966D8C5
:1007100001A2525C52009744850B0B1C2634454BBA
:1007200050565056A1636363636385888F96A1A179
:10073000002000F03DFD002806D0002000F040FD24
:10074000022F18D1122628E000F036FD022F24D007
:1007500015E0002000F02CFD00281BD0002000F048
:100760002FFD082619E0002000F022FD002804D00B
:10077000002000F025FD28260FE000F01DFD0426D6
:100780000BE0002000F014FD002803D0002000F052
:1007900017FD02E0002000F00FFD277300226169C1
:1007A000714317E0002000F025FD0620207307E0CC
:1007B000002000F001FD07204EE0607300F01AFDFC
:1007C0000022616906E0607300F014FD0022606998
:1007D0008100091820002030FEF7D5FD050040E01B
:1007E00020004030FEF7ECFD05001120C01B15D0A5
:1007F000002D13D102280DD36669C8214843642116
:1008000000F0A0FC46433100002220004030FEF7FB
:10081000BAFD0500022000F0CFFC22E0022000F02B
:10082000CFFC1EE000F0D3FC1AE000F0D0FC00206A
:1008300000F0C2FC13200FE000F0C9FC012000F022
:10084000BBFC142008E000F0C2FC002000F0B4FC67
:10085000012000F0B1FC1520207302E000F0C0FC84
:1008600027732800F2BD2E48017EC90700D47047C7
:1008700080B5007BFFF73CFF01BD80B5022000F092
:10088000B9FC01BD01000020254A127ED20700D428
:10089000704780B50800FFF72BFF02BD70B505005B
:1008A0000E0000241E4846618561C261A8071FD55D
:1008B00001220121200000F035F8641C042C01D233
:1008C0000028F5D0040005D17208042130A000F002
:1008D00033FD0400002C02D100F066FD0400002C62
:1008E00006D11F4A002100BF28A0FEF737FD0400F3
:1008F000E80701D500F08AFC002C05D1194A002137
:1009000020A0FEF72BFD0400002C05D1164A012182
:100910001DA0FEF723FD0400200070BDFFFFFCFFBB
:100920004428002038B503000020042B16D2012AE9
:1009300005D1012902D11A000E3200E000220B4C31
:100940005D00EB18E318002906D0022902D005D279
:100950001A7032BD5A7032BD9A7032BD072032BD56
:10096000E3060200670802007B080200442800201A
:1009700080B500F083FC0321FFE7FFF763FE002052
:1009800002BD00006428002084280020A428002044
:10099000110003006D060200120003006D06020044
:1009A000130003006D060200140003006D06020030
:1009B00080B5012202210020FFF7B4FF002801D0FA
:1009C000072812D1072202210120FFF7ABFF0028E0
:1009D00001D0072809D10A2200210020FFF7A2FF39
:1009E000002801D0072800D1002002BD80B50020DA
:1009F000FFF7BEFF002801D0062807D10120FFF72E
:100A0000B7FF002801D0062800D1002002BD10B594
:100A10002C4C61680088102802D0112826D010BD07
:100A200000291FD101220020FFF77CFF002801D000
:100A3000072811D1072202210120FFF773FF0028A8
:100A400001D0072808D1042202210020FFF76AFF05
:100A5000002807D0072805D0002803D021680029E6
:100A600000D088476068401C606010BD491E61600E
:100A700007D1FFF79DFF002803D02168002900D08F
:100A8000884710BDF8B50F00002400250D4E3060DA
:100A9000002F0ED00120FFF7E5FD002801D0022035
:100AA00004E0FFF7DFFD002802D00B20387000E0E3
:100AB0003C707068002802D1FFF77AFF050028001B
:100AC000F2BD0000882D0020408862490A889042CB
